:020000040800F2
:10000000B009002045010008B94B00083943000839
:10001000B74B0008611900081F68000800000000C5
:10002000000000000000000000000000695A000805
:100030005335000800000000754E0008915C000870
:100040005F0100085F0100085F0100085F01000810
:100050005F0100085F0100085F0100085F01000800
:100060005F0100085F0100085F0100082D320008F1
:100070005F0100085F0100085F0100085F010008E0
:100080005F0100085F010008491100085F010008D6
:100090001D6800085F0100085F0100085F0100089B
:1000A0005F0100085F0100085F0100085F010008B0
:1000B000D95D0008DB5D0008D55E00085F0100081F
:1000C0005F0100085F0100085F0100085F01000890
:1000D000D1550008C1650008C9660008CB66000854
:1000E0005F0100085F0100085F0100085F01000870
:1000F0005F0100085F0100085F0100085F01000860
:100100005F0100085F0100085F0100085F0100084F
:10011000576500085F0100085F0100085F010008E3
:100120005F0100085F0100085F0100085F0100082F
:10013000DFF80CD000F01CFE004800472D820008BC
:10014000B00900200648804706480047FEE7FEE762
:10015000FEE7FEE7FEE7FEE7FEE7FEE7FEE7FEE777
:10016000A15C00083101000840EA01039B0703D0AD
:1001700009E008C9121F08C0042AFAD203E011F8E6
:10018000013B00F8013B521EF9D27047421C10F8A7
:10019000011B0029FBD1801A704700000FB400B585
:1001A0008DB010A909900B9000914FF0FF300A908C
:1001B00000200C9005480690054807906A4609A85B
:1001C0000F9900F07DFC0DB05DF814FBDD0A00080E
:1001D000FB0A00082DE9FF5F1D464FF0FF3BD5E904
:1001E000014691465F464FF00008A9697F1C0198BF
:1001F0008847296A824688470028F6D1BAF1FF3F2E
:100200000CD024F4C064002E19DD600614D5BAF1B8
:100210002B0F09D0BAF12D0F0ED103E0584604B0D0
:10022000BDE8F09F44F48064A9697F1C0198884769
:10023000761E8246002E02DDBAF1300F03D0B9F1EE
:10024000000F26D032E0A969761E44F400747F1CAA
:10025000019888478246002E05DDBAF1780F06D056
:10026000BAF1580F03D0B9F1000F10D01EE0B9F168
:10027000000F02D0B9F1100F18D1A969761E24F42D
:1002800000747F1C019888478246102002E00820F5
:1002900000E00A20814609E008FB0908A969761EEA
:1002A00044F400747F1C019888478246002E05DDC7
:1002B0004946504600F0F0FB0028EDDAE969019864
:1002C0008847A00502D46FF00100A8E7E00725D118
:1002D000600613D5600502D5C8F1000000E0404675
:1002E00029680A1D2A600968220501D5087015E0F1
:1002F000220701D5088011E008600FE02868011D81
:1003000029600068210502D580F8008006E02107F9
:1003100002D5A0F8008001E0C0F8008038467EE7F2
:10032000F0B480EA0102D40F4200B2EB410F02D2D6
:100330000246084611464A0042D0C30DDDB2C1F361
:10034000C752AD1A202D35DAC1F3160141F400026F
:1003500004B15242C5F1200602FA06F12A411044C6
:10036000B3EBD05F23D0C4B1012DA0EBC35009DCA7
:10037000F0BC4FF0004202EAC352DBB200F50000CD
:1003800000F0D5BB400000F1807000EBC350A0F13D
:10039000807040EAD170490009E0490841EAC07123
:1003A000A0EBC35000F50000400800EBC350F0BCC8
:1003B00000F0B4BB6142012202EB4101001BF6E7F1
:1003C000F0BC704781F00041AAE780F00040A7E749
:1003D00080EA010210B502F00043400022D04A003A
:1003E0001FD0010E01EB1261C0F35600C2F356029A
:1003F00040F4000042F40002A0FB022000047F3918
:10040000140400D0401C50EA124001D44000491EA0
:10041000C2B20C0604EBD010401C4008802A02D067
:1004200003E0002010BD20F00100002900DA0020C8
:10043000184310BD30B480EA010202F0004530F0EC
:10044000004221F0004013D090B1C30DD40DC2F38F
:100450001601C0F31600E41A41F4000140F4000252
:100460007D34914201D3641C00E04900002C02DA83
:1004700030BC002070474FF400000023914201D3AC
:10048000891A034340084FEA4101F7D151B1914223
:1004900002D14FF0004105E002D24FF0010101E02E
:1004A0006FF0010103EBC450284430BC00F036BBB0
:1004B0002DE9FE4F804681EA0300C00F0C460090F4
:1004C00021F0004123F00045B8EB0200A94105D21C
:1004D0004046214690461C460B46024623F000400B
:1004E000104347D0270DC7F30A00C3F30A51029007
:1004F000401A019040286BDAC3F3130040F4801BCC
:100500000098924620B10023D2EB030A63EB0B0B59
:1005100001985946C0F14002504600F08CFA064658
:100520000D4650465946019A00F0A4FA10EB080017
:100530006141002487EA115284EAE7731A4340D0EC
:10054000009A62B3019A012A4FEA075215DC001B98
:1005500061EB02014FF0004202EA0752CDE900428E
:10056000001C41F5801132462B4600F04AFB03B0D7
:10057000BDE8F08F40462146F9E7001B61EB020120
:10058000001C41F5801300185B412018A2F50017EC
:1005900047EB030140EAD570B6196D4111E06D08D3
:1005A0004FEA360645EAC0754FEA0752001B61EB79
:1005B0000201001C41F5801149084FEA3000001982
:1005C000514132462B4603B0BDE8F04F00F00CBB62
:1005D0000098012240000023D0EB020263EBE0739D
:1005E000009821464FEAE074B8EB000061EB04018B
:1005F000E9E783F000435BE781F0004158E72DE92C
:10060000FE4F81EA030404F0004421F0004100940D
:100610004FF0000B23F0004350EA01045ED052EA91
:1006200003045BD0C3F30A54C1F30A552C44A4F26B
:10063000F3340194A0FB0254C1F3130141F480117F
:10064000C3F3130343F4801301FB024400FB034E86
:10065000840A970A44EA815447EA8357A4FB07684F
:1006600002958D0A05FB07854FEA932C04FB0C5479
:100670002705029D4FEA065847EA1637B5EB0805ED
:100680006EEB070C870E920E47EA811742EA83123F
:10069000A7FB0201B6EB0B0164EB00042B0D43EA50
:1006A0000C335E1844EB1C50DA465146E7FB02015E
:1006B000C5F313044FEA0B3343EA14534FEA0432F1
:1006C000019C43EA0603A4F10C040294009CCDE9CA
:1006D00000B400F096FA03B0BDE8F08F00200146A8
:1006E000F9E72DE9F04D81EA030404F0004B21F015
:1006F000004514464FF0000A23F0004150EA05027D
:1007000020D054EA01021DD0C5F30A570246C5F3B2
:100710001303C1F31300C1F30A5640F4801543F4E8
:100720008013A7EB0608101BD64608F2FD3873EBC2
:10073000050002D308F1010801E092185B41B8F10D
:10074000000F03DA00200146BDE8F08D00204FF4D1
:100750008011064684460EE0171B73EB050705D390
:10076000121B63EB050306434CEA010C49084FEAF0
:10077000300092185B4150EA0107EDD152EA0300C4
:1007800012D082EA040083EA0501084305D0101B59
:10079000AB4106D20122002306E000224FF00043C5
:1007A00002E06FF0010253101AEB06004CEB085107
:1007B00010EB0A0041EB0B01BDE8F04D00F014BA5C
:1007C00070B521F0004303430CD0C1F30A55002457
:1007D000D5EB040564EB0403D617AD1AB34102DB75
:1007E0000020014670BD201841EB025170BDC10FC1
:1007F00080EAE0700844CA079623002100F097B908
:1008000096230022114600F092B90EB5C10F80EA7E
:10081000E0700844CA07002140F233438DE80E001F
:100820000A460B4600F0EDF903B000BD0EB540F2EC
:10083000334102910021CDE900110A460B4600F038
:10084000E0F903B000BD00F0004220F00040C10D0F
:10085000C0F3160040F400007F2901DA0020704741
:10086000962903DCC1F19601C84001E09639884021
:10087000002AF4D04042704720F00040C10DC0F380
:10088000160040F400007F2901DA00207047962905
:1008900003DCC1F19601C840704796398840704723
:1008A000C1F30A5210B5C1F3130140F2FF3341F412
:1008B00080119A4201DA002010BD40F233439A427F
:1008C000A2F2334203DC524200F0C4F810BD904063
:1008D00010BD00F0004230F000400AD0C10D01F51B
:1008E0006071C0F3160042EA0151C208400711438B
:1008F000704700200146704730B5002904DB4FF0F7
:100900000044404264EB0101002B04DB4FF0004443
:10091000524264EB03038B4208BF824230BD0000A9
:1009200030B5002904DB4FF00044404264EB010184
:10093000002B04DB4FF00044524264EB0303994266
:1009400008BF904230BD000001F0004330B421F0F8
:10095000004150EA010206D00A0DA2F56072C1F30F
:100960001301002A02DC30BC00207047440F44EA27
:10097000C104C100E01830BC00EBC25000F0CEB89A
:10098000002801DBC0F10040002901DBC1F100417A
:1009900081427047002801DBC0F10040002901DBE3
:1009A000C1F100418842704730B50B460146002036
:1009B0002022012409E021FA02F59D4205D303FA21
:1009C00002F5491B04FA02F52844151EA2F10102A2
:1009D000F1DC30BD2DE9F05F0546002092469B46D4
:1009E00088460646814640241BE028464146474645
:1009F000224600F02FF853465A46C01A914110D3B0
:100A000011461846224600F016F82D1A67EB010829
:100A10004F4622460120002100F00DF817EB000997
:100A20004E41201EA4F10104DFDC484631462A462F
:100A30004346BDE8F09F202A04DB203A00FA02F189
:100A4000002070479140C2F1200320FA03F31943BC
:100A500090407047202A04DB203A21FA02F000215E
:100A6000704721FA02F3D040C2F1200291400843BE
:100A700019467047202A06DBCB17203A41FA02F0CC
:100A800043EAE07306E041FA02F3D040C2F12002EB
:100A900091400843194670473A2800D2303820F078
:100AA0002002412A01D3A2F13700884201D34FF03E
:100AB000FF30704702681144137801601846704790
:100AC000D16004495161044911620021116111464C
:100AD00000F066B9B50A0008950D0008426842B1F9
:100AE000016811F8013B23B1521EC0E900121846FB
:100AF00070470121C160881E704742685AB1C368BF
:100B0000016843B983688B4205D0491E521CC0E975
:100B10000012002070474FF0FF3070470029A8BF37
:100B20007047401C490008BF20F00100704710B416
:100B3000B0FA80FC00FA0CF050EA010404BF10BCCB
:100B4000704749B1CCF1200421FA04F411FA0CF1F8
:100B500018BF012121430843A3EB0C01CB1D4FEA31
:100B600000614FEA102042BF002010BC704700EB2C
:100B7000C35010440029A4BF10BC7047401C49005A
:100B800008BF20F0010010BC7047F0B4002802DC60
:100B9000F0BC00207047C0F3C751C0F3160040F40A
:100BA0000000CA0701D14000491E3F2202EB610547
:100BB000002211464FF4000626FA01F31344D4181C
:100BC000844201D8001B1A464000491C1729F3DD56
:100BD0005100814202D24FF0FF3100E0002102EBD0
:100BE000C550F0BCFFF79ABF10B5002B08DA401CC7
:100BF00041F1000192185B411A4301D120F001003C
:100C000010BD2DE9F04D92469B4611B1B1FA81F22B
:100C100002E0B0FA80F220329046FFF70CFF044663
:100C20000F4640EA0A0041EA0B0153465A46084380
:100C300013D0114653EA010019D0C8F140025046C2
:100C4000FFF708FF05460E46504659464246FFF755
:100C5000F2FE084305D0012004E020463946BDE8F5
:100C6000F08D0020054346EAE0762C4337430A988E
:100C70006305E40AA0EB08000022FD0A44EA475499
:100C80000A3002D500200146E9E701051019694143
:100C9000DDE9084500196941BDE8F04DA4E72DE9FB
:100CA000F04D00231A461B1A8A4103DB002001463F
:100CB000BDE8F08DC1F30A52C1F3130141F4801570
:100CC0004FF0000BD10702D100186D41521E0027D2
:100CD000044640F2FF11384601EB620A3E46804668
:100CE000024600204FF48011FFF7B4FEC219714193
:100CF000BB1846EB0100B4EB030C75EB000C04D3FE
:100D0000E41A65EB000517460E46241908F10100A8
:100D10006D4180463428E3DDF91946EB0600091BD6
:100D2000A84103D24FF0FF32134601E000221346E0
:100D30001BEB070046EB0A51BDE8F04DFFF754BF2F
:100D4000C1F30A52C1F3130140F2FF3341F48011A1
:100D50009A4202DA00200146704740F233439A4239
:100D6000A2F2334202DC5242FFF774BEFFF763BEC9
:100D7000064C074D06E0E06840F0010394E80700E8
:100D800098471034AC42F6D3FFF7D6F9048900082F
:100D900024890008C0B24FF4F05100F095B900006A
:100DA0002DE9F34F8BB04FF0000801F10C000C4619
:100DB0004FF0010B46460DF1080A019062690121CE
:100DC0000198904705002DD0252D2CD0216A884709
:100DD000C0B16269012101989047216A88470028C3
:100DE000F7D1411E62690198904700E0761CA16925
:100DF0000B988847216A88470028F7D1E1690B984A
:100E00008847DBE7A1690B9888470746A84201D1CC
:100E1000761CD3E7E1690B9888477F1C02D1B8F1B3
:100E2000000F6FD043E1002762693D4639460198C3
:100E300090472A2804D16269012101989047012531
:100E4000DFF880926269012101989047A0F130019A
:100E50000A290AD24F45E5DC07EB870100EB410781
:100E6000303FDFD445F01005ECE7E90601D46FF020
:100E700000476C280AD04C2814D0682815D06A285E
:100E80000DD074281CD07A281AD01DE06269012187
:100E9000019890476C2802D045F0040514E045F015
:100EA00002050DE045F020050AE062690121019884
:100EB0009047682802D045F0080505E045F4006534
:100EC0006269012101989047C4E9015765283DD026
:100ED00019DC582877D00CDC452837D004DC2528CD
:100EE00026D0412831D131E046282FD047282CD1B7
:100EF0002CE05B287DD0612828D0632879D0642835
:100F000023D157E0CDE06F2845D008DC66281DD0FE
:100F100067281BD0692821D06E2816D127E07028B9
:100F200042D0732865D0752844D078280DD14AE086
:100F3000A1690B988847054625283FF469AFE16908
:100F40000B9888476D1C3FF46AAFB0E023466A46B1
:100F50006FF001000B99AFF300809BE045F040007B
:100F60006060A80723464FF0000233D43BE02068BE
:100F7000011D21600068290501D506701EE72907BB
:100F800001D506801AE7A90703D5F117C0E900616A
:100F900014E7066012E745F040006060A8072346AA
:100FA0004FF0080216D41EE040F60E0125EA0100BB
:100FB000606016E045F040006060A80723464FF0EF
:100FC0000A0207D40FE045F040006060A80708D58A
:100FD000234610226FF001000B99AFF3008059E017
:100FE00007E0234610226FF001000B99FFF7F2F89B
:100FF00050E04FF000094F464B46632802D05B2873
:1010000006D040E0E80601D40120A06001273AE0C4
:1010100062690121019890475E2805D14FF00109CE
:101020006269494601989047216939B900210B4608
:10103000524642F82130491C0829FADBB0B3216935
:1010400069B9C11700EBD1614B110AEB830221F0A2
:101050001F01411A0120136888400343136062692D
:101060000121019890475D28E8D1B9F1000F09D01E
:101070000020514651F82020D24341F82020401C46
:101080000828F7DB02AB224600976FF001000B99AE
:10109000AFF3008000280CDA401C08D1BBF1000F30
:1010A00005D04FF0FF300DB0BDE8F08FFFE74046B0
:1010B000F9E7E90701D108F1010806444FF0000BF8
:1010C0007CE60000CCCCCC0C7F2801D9002208E0C3
:1010D000064A02EB5002C007127800D1120902F052
:1010E0000F0201209040084070470000C4880008AB
:1010F00070B58C1810F8015B15F0070301D110F8DA
:10110000013B2A1106D110F8012B03E010F8016B06
:1011100001F8016B5B1EF9D12B0705D40023521E89
:101120000DD401F8013BFAE710F8013BCB1A921CF1
:1011300003E013F8015B01F8015B521EF9D5A142EF
:10114000D8D3002070BD000010B5084C0421204603
:1011500000F069F8002808D004F000F82046BDE847
:1011600010404FF4906100F003B810BD002401401E
:101170006FEA1121016070470029816802D041F0B7
:10118000010101E021F001018160704700298168BF
:1011900002D041F4807101E021F4807181607047D8
:1011A0000D4910B5884202D1012144150AE00B49CE
:1011B000884202D10121041504E0094988420AD17C
:1011C0000121CC03204603F09DFE2046BDE81040DF
:1011D000002103F097BE10BD00240140002801400B
:1011E000003C01400029816802D041F4801101E0F7
:1011F00021F48011816070470029816802D041F498
:10120000004101E021F4004181607047826822F4CE
:10121000E0420A438260704701460020896849071E
:1012200000D5012070470246002012680A4200D013
:1012300001207047014600208968090700D5012078
:101240007047002A4268C9B201D00A4300E08A43CD
:101250004260704710B542680E4B0C791A400B681B
:1012600042EA04221343436082680B4B1A40D1E9DF
:10127000024323434C7942EA440213438360C26A27
:10128000097C22F47002491EC9B242EA0151C162CE
:1012900010BD0000FFFEF0FFFDF7F1FF70B507265F
:1012A00009290AD9C568A1F10A0404EB4404A6403F
:1012B000B543A3401D43C56007E0056901EB410448
:1012C000A640B543A3401D430561836BC3F301549E
:1012D000121B921C02EB82021F249440A3439140F4
:1012E0000B43836370BD826B491E22F4401242EAB5
:1012F00001518163704770B5072609290AD9C5686D
:10130000A1F10A0404EB4404A640B543A3401D43E5
:10131000C56007E0056901EB4104A640B543A34061
:101320001D4305611F23072A09D2446B521E02EB9D
:10133000820293409C4391400C43446370BD0D2A4C
:1013400009D2046BD21F02EB820293409C4391406E
:101350000C43046370BDC46A0D3A02EB82029340F1
:101360009C4391400C43C46270BD816841F0080108
:1013700081607047816841F004018160704700001E
:1013800005490028086802D040F4000001E020F47C
:101390000000086070470000082401402DE9FE4F5E
:1013A0000746884691463F48B0F800B03E4800885E
:1013B0003E490988401A02903D480068002805DD32
:1013C0003B480068242190FBF1F000E000208246B9
:1013D000384805880024C34501DDABEB08040298BA
:1013E000484504DD0298A0EB0900204404467CB97E
:1013F000BA4506DDAAEB0701CA1701EB12721211FA
:1014000005E0AAEB0700C21700EB12721211144696
:10141000002C0FDD2046FFF7EAF900902648016A0C
:101420000098FEF7D5FF0190FFF726FA86B2A819BB
:1014300085B212E06042FFF7DAF900901E48C169F8
:101440000098FEF7C5FF0190FFF716FA86B2AE428C
:1014500001DB002501E0A81B85B216480580008845
:1014600040F6AC51884202DD084612490880114816
:101470000088B0F5487F12DA4FF448700D490880B3
:1014800008480088B7280ADA074800880749098809
:10149000401AB0F5307F02DA012004F07BFA002018
:1014A000BDE8FE8F86010020780100208001002029
:1014B000B0010020020000200C0200202DE9FE4FA8
:1014C0000646884691463C48B0F800A03B48008854
:1014D0003B490988A0EB010B0AFB0BF000120290BC
:1014E0003848078800200546C24502DDAAEB0800FF
:1014F0000546CB4503DDABEB09002844054685B91D
:10150000029AB24206DD029A911BCA1701EB1272CF
:10151000121105E0029A901BC21700EB1272121111
:101520001546002D0FDD2846FFF761F9009026488B
:10153000016A0098FEF74CFF0190FFF79DF984B215
:10154000381987B212E06842FFF751F900901E483F
:10155000C1690098FEF73CFF0190FFF78DF984B256
:10156000BC4201DB002701E0381B87B21548078029
:10157000008840F6AC51884202DD084611490880D7
:1015800010480088B0F5487F12DA4FF448700D49D2
:10159000088009480088B7280ADA084800880849FE
:1015A0000988401AB0F5307F02DA012004F0F2F920
:1015B0000020BDE8FE8F0000860100207801002099
:1015C00080010020020000200C02002070B50646B9
:1015D0000846FFF77EF905460C463046FFF779F9D5
:1015E0000122FFF7EDF82A462346FFF77AF82A464C
:1015F0002346FFF776F8BDE87040FFF7A5B9000075
:101600002DE9F84F06462548008840F6AC510D1AE2
:10161000002D00DA00253046FFF7E9F80090204859
:10162000016920480068FEF7CDFE83461E488169A7
:101630005846FEF7CDFE81462846FFF7D8F8834688
:10164000194841695846FEF7C3FE82464946FEF7EF
:1016500067FE80460099FEF763FE0746FFF7F3F842
:1016600004B2B4F5487F02DD4FF4487403E014F58A
:10167000AF6F00DA0D4C0A4840680519002D02DDF5
:101680000B490D8002E000200949088008480088C5
:10169000024988800020BDE8F88F00000200002089
:1016A00068020020340000200C02002088FAFFFFAE
:1016B0000A00002010B5002000F038FE054C01465D
:1016C0006088814205D000F0ABF8002000F02EFECB
:1016D000608010BD4001002030B585B000F01AFEDA
:1016E0000121480703F0EAFB3C200024CDE9010476
:1016F000039401A92046049400F024FE0121002057
:1017000000F0FCFD40F6B211002000F02FFE012198
:10171000002000F035FE002000F008FE124948804D
:101720000121042003F0E2FB1025ADF800508DF8F4
:10173000034069460D4802F0B7FB0121102003F079
:10174000D5FB6C01ADF8004001208DF802008DF84A
:101750000350074D6946284602F0A6FB214628465D
:1017600002F01EFC05B030BD400100200008014021
:101770000010014010B504F0C1FBFFF7ADFF0020E1
:1017800000F084F840F6FF74204600F049F8204647
:1017900000F092F82046BDE8104000F09DB800002F
:1017A00010B50E4C20B14FF40060E080401008E00E
:1017B0000A48C288008909B1111800E0111AE180B5
:1017C00040082081E08800F077F804F085FB20894C
:1017D00008B1002010BD012010BD00001000002045
:1017E00010B50E4C20B14FF400606081401008E04D
:1017F0000A484289808909B1111800E0111A6181F3
:101800004008A081608900F067F804F065FBA089BA
:1018100008B1002010BD012010BD00001000002004
:1018200010B5B0F5805F01D2014601E040F6FF71CE
:10183000002000F09BFD0121002000F0A1FD002010
:1018400000F074FD0149488010BD000040010020F7
:1018500010B50D4C20B14FF400606080401008E0DE
:1018600009484288808809B1111800E0111A618086
:101870004008A0806088FFF7D3FFA08808B100204F
:1018800010BD012010BD000010000020084A094BC7
:101890004FF4007128B1012808D11070184602F0E9
:1018A0007DBB00201070184602F07ABB7047000024
:1018B000400100200010014040F6FF7204499042B0
:1018C00001D2088000E00A80088802490880704739
:1018D000280100203808004040F6FF720449904279
:1018E00001D2088000E00A80088802490880704719
:1018F0002A0100203C0800400248018841F0010113
:1019000001807047346C004010B57B2003F058FB19
:1019100010B103F003FB0FE07D2003F051FB58B141
:1019200003F0FCFA482002F03DFB28B948210348A7
:1019300002F0C8FB012010BD0020FCE76802002077
:1019400008B5024908440090008808BD006C0040BA
:1019500008B5024A10440090016008BD006C0040C8
:10196000FEE70000104810B5002180F89C104022CE
:10197000C0F89420C0F8982040F8801B40F87C1CE8
:1019800040F8781C40F8741C017441748174C1746F
:1019900081770D2141770549054804F08DFEBDE8AA
:1019A000104004F053BE000010050020011A00088A
:1019B000B519000810B504F0FDFD1049C0B291F84A
:1019C0009D2032B191F89D20824202D1012281F8FE
:1019D0009E204A68D1F89430521C5B1E1A400B6856
:1019E0009A420AD04B68054A103298544868D1F898
:1019F0009420401C521E1040486010BD100500206D
:101A000010B50D4CA068E16888420DD0A16804F1C2
:101A10005000085C04F048FEA068D4F89810401C00
:101A2000491E0840A06010BD002084F89C00BDE85D
:101A3000104004F003BE00001005002010B506F0B1
:101A400033FB10B14FF0FF3010BD074B196803F1A5
:101A50001000085C1968D3F89420491CB1FBF2F41B
:101A600002FB1411196010BD10050020F0B5114AD9
:101A700005460E4692F89D000024631E10B192F8B0
:101A80009E0010B106F010FB08B11846F0BD72B60A
:101A9000002782F89E7001E005F8010BFFF7CEFFEA
:101AA000411C03D02146641CB142F5DB62B62F70A5
:101AB0002046F0BD10050020012106F03BBB10B50B
:101AC0000446FEF763FB01462046BDE81040AFF335
:101AD00000802DE9F04100240F4606464D1E04E02B
:101AE000305D002106F026FB641CAC42F8DBF019E7
:101AF000012110F8010C06F01DFB0020BDE8F0816B
:101B000010B50D480078082814D2DFE800F004056D
:101B1000061313130C090DE00CE000F06BF809E05C
:101B200000F00CF806E000F0BFF903F0C3FB00F092
:101B300071FA00BF00BF10BD0E0000202DE9F04774
:101B400002F066FE22490869FEF7C3FE0746214AF5
:101B5000214BFEF7C6FD0546FEF7A2FE84B22046E5
:101B600004F05EFE1A498868FEF7B3FE07461B4A7A
:101B70001B4BFEF7B6FD0546FEF792FE84B21449F4
:101B80004868FEF7A6FE0746164A174BFEF7A9FD62
:101B90000546FEF785FE1FFA80F90D49C868FEF775
:101BA00098FE0746114A124BFEF79BFD0546FEF7CD
:101BB00077FE1FFA80FA224649465046FFF77EFC20
:101BC0000020FFF71DFD00F025FABDE8F0870000BA
:101BD0000C02002083C0CAA145B6B33F93E1467012
:101BE0007E97323F3D99DA26D5F5BB3F95EFBB6531
:101BF000A63E803F2DE9F05F02F00AFE05287DD267
:101C0000DFE800F007030405060000BF00BF00BFC7
:101C100000BF87484078052804D2DFE800F00405BB
:101C20004D29730000BFB0E082480088FEF7E8FD50
:101C300081467F4841684846FEF7CAFB0446FEF7E6
:101C400048FE074600227C4BFEF74BFD0546FEF79B
:101C50007BFE7A4948607648C1687848C16074481C
:101C600081687648816072480169744801618CE03E
:101C700070480088FEF7C4FD81466D48816848467B
:101C8000FEF7A6FB0446FEF724FE074600226A4B39
:101C9000FEF727FD0546FEF757FE68498860644851
:101CA000C1686648C16062484068644948606048ED
:101CB00001696248016168E05E480088FEF7A0FDA6
:101CC00081465B4841684846FEF782FB0446FEF7C2
:101CD00000FE07460022584BFEF703FD0546FEF7BF
:101CE00033FE564948605248C1685448C160504864
:101CF0008168524881604E48016900E047E04F48E2
:101D0000016142E04B480088FEF77AFD8146484871
:101D1000C1684846FEF75CFB0446FEF7DAFD07465D
:101D20000022454BFEF7DDFC0546FEF70DFE43495C
:101D3000C86040480088E0B13E480088FEF760FD7A
:101D400083463B4841685846FEF742FB8246FEF711
:101D5000C0FD80460022384BFEF7C3FC0646002239
:101D6000374BFEF7A5FB0446FEF7EEFD334948600E
:101D700002E00020314948602D4881682F48816089
:101D80002B4801692D48016100BF00BF0AE02D48C2
:101D90002A4948602C49294801612C4981602C4915
:101DA000C16000BF00BF25490869FEF792FD0746E4
:101DB000284A294BFEF795FC0546FEF771FD84B2D3
:101DC000204604F02DFD1D498868FEF782FD074678
:101DD000224A234BFEF785FC0546FEF761FD84B2DF
:101DE00016494868FEF775FD07461E4A1E4BFEF76A
:101DF00078FC0546FEF754FD1FFA80F90F49C868C4
:101E0000FEF767FD0746194A194BFEF76AFC0546BF
:101E1000FEF746FD1FFA80FA224649465046FFF774
:101E20004DFB0020FFF7ECFB00F0F4F8BDE8F09F5D
:101E3000540200200C000020000059400C02002039
:101E4000000054400000A042000020413333333FE3
:101E50000000A04183C0CAA145B6B33F93E14670DC
:101E60007E97323F3D99DA26D5F5BB3F95EFBB65AE
:101E7000A63E803F04484079012803D0052801D0C0
:101E80000020704701207047440000200548407939
:101E9000052805D0072803D0062801D00020704768
:101EA000012070474400002010B502F0B1FC00F0A2
:101EB000E1F91748416811F0FF4F08D00078072872
:101EC00025D2DFE800F0240C1014181C2000114962
:101ED00003204871BDE810400F4803F061BEBDE823
:101EE000104005F031BBBDE8104004F0ABBFBDE8C9
:101EF000104004F07FBEBDE8104005F077B9BDE8A2
:101F0000104005F0BBB8BDE8104004F03DBD10BD69
:101F100058030020440000203084000810B5202120
:101F2000144802F03BF814480078072821D2DFE873
:101F300000F004080C1014181C00BDE8104005F057
:101F400041B9BDE8104005F015BCBDE8104005F0F2
:101F500083B8BDE8104004F05DBFBDE8104005F057
:101F6000E1BABDE8104005F023B9BDE8104004F027
:101F700029BE10BD000C01405803002010B50021FF
:101F8000084600F05BF90549054841614FF07F5173
:101F900081610449C1610449016210BDCDCC4CBDD1
:101FA0000C020020CDCC4C3DCDCCCC3D06480749A1
:101FB0004860074905480161064981600649C160DA
:101FC00000200649088070470000A0420C02002053
:101FD000000020413333333F0000A0410C000020BB
:101FE000064807494860074905480161064981607C
:101FF0000649C16000200649088070470000A042E1
:102000000C020020000020413333333F0000A04188
:102010000C00002010B50D49088800F0C5F900F04B
:10202000BDF9B0F5487F03DA0120FFF72FFC02E08D
:102030000020FFF72BFC0549488803F009FD034900
:102040008888FFF7EDFB03F047FF10BD020000207A
:1020500010B504460B480089A04211D009480481FC
:102060000CB94FF47A74B4F5967F01DA4FF4967494
:1020700040F2E240844200DD0446204600F0AAF926
:1020800010BD00005803002003490A78824202D0A4
:102090000870FFF743BF7047580300202DE9F04751
:1020A00004460A4804802046FEF7AAFB8146FEF754
:1020B00010FC07460022064BFEF713FB0546FEF711
:1020C00043FC04494860BDE8F08700000C00002094
:1020D0000000594058030020014948700020704713
:1020E0005803002010B50446FEF78FFB0022084B72
:1020F000FEF7DEF96FF00602FEF762FBFEF724FC46
:1021000001460448816101210160E0B210BD000078
:10211000000060406403002010B50446FEF775FB24
:102120000022084BFEF7C4F96FF00602FEF748FBE9
:10213000FEF70AFC01460448416101210160E0B25A
:1021400010BD000000006040640300202DE9F04154
:102150001A4F1B4D04000ED44FF07E50A86020464D
:10216000FEF753FB6FF00402FEF72AFB00223B460A
:10217000FEF79EF919E06042FEF747FB88460646E7
:102180006FF00502FEF71CFB00223B46FEF790F9BC
:10219000FEF7DAFBA860304641466FF00702FEF713
:1021A0000FFB00223B46FEF727FAFEF7CDFB286126
:1021B00001202860E0B2BDE8F08100000000F03F9F
:1021C000640300202DE9F0411A4F1B4D04000ED48A
:1021D0004FF07E5068602046FEF717FB6FF0040258
:1021E000FEF7EEFA00223B46FEF762F919E0604284
:1021F000FEF70BFB884606466FF00502FEF7E0FA95
:1022000000223B46FEF754F9FEF79EFB686030461D
:1022100041466FF00702FEF7D3FA00223B46FEF775
:10222000EBF9FEF791FBE86001202860E0B2BDE821
:10223000F08100000000F03F6403002070B5044608
:102240000D4634B1022C05D0062C09D0072C0AD13A
:1022500003E009E0FFF7C4FE06E0FFF7A7FE03E096
:10226000FFF75CFE00E000BF00BF0148047070BDD6
:102270000E00002070B5124C206800281ED0A4F17A
:1022800034052169E868FEF7A3F8A4F12006F060A0
:10229000E168A868FEF79CF8B06061682868FEF7FE
:1022A00097F83060A1686868FEF792F8706061691D
:1022B0002869FEF78DF830610020206070BD0000B5
:1022C0006403002072B6044908884A8842408A8024
:1022D000488062B670470000C400002002480188B0
:1022E000491C018070470000C40000200248002102
:1022F0000180418081807047C4000020044B01228E
:102300008240186809B1104300E09043186070479C
:102310000074004010B501214C07204602F0DAFDA0
:102320002046BDE81040002102F0D4BD044908B5A4
:1023300001EB90002C300090006880B208BD0000D6
:102340000074004030B5084C236840F6FE728240AD
:102350009343D1E900252A43D1E902510D432A4391
:1023600082401A43226030BD00740040034A08B521
:10237000104408300090016008BD00000074004067
:102380000209054B012090400029196801D0014342
:1023900000E08143196070470474004001480088E0
:1023A000704700002C01002040F6FF71044A88426B
:1023B00002D2108001207047118000207047000079
:1023C0002C01002010B503F027F8BDE8104003F001
:1023D00083BD00000149088001F054BD9800002031
:1023E00038B50121042002F081FD4020ADF8000045
:1023F00001208DF802001020054C8DF8030069467D
:10240000204601F051FD4021204601F0C7FD38BDB6
:102410000008014010B503F057F803F06FFD00F01D
:1024200021F800F005F8BDE81040FFF7D9BF000023
:1024300038B50121082002F059FD2020ADF8000038
:1024400001208DF802001020054C8DF8030069462C
:10245000204601F029FD2021204601F09FFD38BDD6
:10246000000C014038B50121082002F03FFD10208A
:10247000ADF8000001218DF80210064C8DF8030024
:102480006946204601F010FD1021204601F086FD2E
:1024900038BD0000000C0140044840F63C71C08883
:1024A000884201D90220704701207047BC030020F8
:1024B0002DE9F84FFA4DE88908B1401EE8816878A7
:1024C000DFF8E0A3DFF8E0B302270D26DFF8DC83B6
:1024D000F74C4FF005090F2841D2DFE800F0084221
:1024E00088B4FDF8F7F6F5F4F3F2F1F0EF00F1A09F
:1024F0000090F1A3F3A2F549D92005F05BFEDAF8CC
:102500000C1041F48061CAF80C1001242C70ABF857
:10251000004002F0C9FE03F093FA40F6D860FFF7DE
:1025200043FF2021EA4801F03BFD0020FFF7AEF910
:102530004FF4C86003F08CFA40F6FF763046FFF7A0
:102540006FF93046FFF7B8F93046FFF7C5F90020BC
:1025500002F06EFD03F0C0FC0A20E8816C70BDE85B
:10256000F88FE889A9460028F9D1D8F81000454627
:10257000206105F013FE38B12069FEF7AAF9024682
:102580000B46D4A005F008F9CAA00090D4A3CDA2B0
:10259000CE49F22005F00EFED4492868D44A014401
:1025A000914212D289F801706968C4E905010121DC
:1025B000ABF8001005F0F2FD0028D0D02868FEF737
:1025C00088F902460B46CBA0F6E305F0E7FD38B1EB
:1025D0002868FEF77EF902460B46CAA005F0DCF833
:1025E00003F026FA89F8007089F80160B7E7CA4954
:1025F000A06988421ADC05F0D1FD38B1A069FEF768
:1026000068F902460B46C5A005F0C6F8A9A00090DF
:10261000C5A3ACA2AD494FF4847005F0CBFD0320F7
:10262000687000210120FFF713F952E005F0B6FDB4
:1026300030B1A069FEF74DF902460B46BDA092E00D
:102640002F706E708BE7E889002888D102F00EFDAC
:10265000A346A069FEF73DF90122FEF7B1F8BA4A98
:10266000BA4BFDF725FF04468A46D8F80400FEF76A
:1026700030F953462246FEF753F901D2012100E01A
:1026800000210020FFF7E4F818B3B14840F6B73155
:102690005C460088CBF80400A0F2F510884201D215
:1026A00004208FE005F07AFD18B1AAA0616805F05A
:1026B00073F840F6FF70FFF7B3F88CE0A3E3A3E3F1
:1026C000E5E2A2E24DE20BE2BDE1CBE086E04DE0C7
:1026D00002E0A5F80E9042E702F0C8FCA246A0690D
:1026E000FEF7F7F80122FEF76BF8974A9E4BFDF7CD
:1026F000DFFE834600914446D8F80400FEF7E9F86F
:102700005A46009BFEF7F8F822D205F047FD50B17B
:102710006068FEF7DEF8DAF8046002460B463146E0
:1027200092A005F039F86168CAF81C1061A0009009
:1027300094A364A265494FF49B7005F03BFD4C46A1
:1027400085F8019000210120FFF72AF8EC8106E7C7
:1027500005F024FD00283FF473AF6068FEF7B9F878
:1027600002460B468BA005F017F869E7E8890028B8
:10277000B1D102F07BFCA346E069FEF7AAF84FF066
:102780003332894BFDF794FE04468A46D8F804009C
:10279000FEF79FF822465346FEF7C2F801D2012108
:1027A00000E000210020FEF7FBFF002891D07F48C9
:1027B00040F647515C460088ABF80C00653888420B
:1027C00002D206206870CAE605F0E8FC002864D052
:1027D000A18977A0B7E16E702F70C0E602F046FCC9
:1027E0003348C069FEF775F8764A774BFDF760FE0F
:1027F00082468B464446D8F80400FEF76AF85246F3
:102800005B46FEF779F822D26068294CA06205F099
:10281000C5FC48B1A06AFEF75CF8A48902460B46E5
:1028200021466AA004F0B8FF40F6FF70FFF744F8B5
:1028300020A000906DA323A2244940F2671005F068
:10284000B9FC00210120FEF7CBFF0720C4E105F011
:10285000A5FC002822D06068FEF73BF802460B4634
:1028600066A0C4E1E8890028ADD102F0FFFB104862
:10287000C069FEF72EF84FF033324B4BFDF718FED0
:1028800004468B46D8F80400FEF723F822465B4640
:10289000FEF746F803D20121BDE056E1A9E1B9E017
:1028A000100000200010014046010020C803002055
:1028B00068020020000000005445535420494E494E
:1028C000543A0000646961672E63000000840008C8
:1028D000000C01402054303D25352E32660D00009D
:1028E0005445535420564241523A0000FFFF4BBE1C
:1028F000FFFF1700204F4B2056423D25352E3266F4
:1029000000000000204552524F522056423D2535CE
:102910002E32660D000000000AD7A33C2C2049424D
:102920003D25362E34660D0054455354204249410E
:10293000533A00002C204552524F522049423D2527
:10294000362E34660D0000007B14AE47E17A843FDA
:1029500042010020204552524F5220564441433DEF
:102960002534640D00000000E17AA43F204F4B2085
:10297000564441433D25642C2049423D25362E34A2
:10298000660D00005445535420424941535F4D3178
:10299000413A0000204552524F522049423D2536CF
:1029A0002E34660D000000003333E33F2801002081
:1029B000204552524F522050574D5F4731413D25DF
:1029C00034640D00CDCCCCCCCCCCE43F204F4B209C
:1029D00050574D5F4731413D25642C2049445F4DA0
:1029E000313D25362E34660D000000005445535409
:1029F00020424941535F4D32413A00002045525236
:102A00004F522049445F4D31413D25362E34660DED
:102A10000000000000210020FEF7E2FE00283FF445
:102A200004AEFA48FA4C40F647510088E081653818
:102A3000884201D20820C5E605F0B0FB00287CD012
:102A4000E189F4A013E102F011FBF148C069FDF740
:102A500040FFF54AF54BFDF72BFD00908B464446B1
:102A6000D8F80400FDF735FF5B46009AFDF744FFF8
:102A700024D26068E64CE06205F090FB48B1E06A61
:102A8000FDF727FFE48902460B462146E8A004F043
:102A900083FE40F6FF70FEF71FFFECA0ECA3AFF241
:102AA000DC120090EE4940F29D1005F083FB0920F6
:102AB000687000210120FEF773FE0AE605F06EFB48
:102AC00000287DD06068FDF704FF02460B46E5A0B4
:102AD00099E2DAF80C1041F48061CAF80C103EE576
:102AE000E8890028FBD102F0C1FAA346E069FDF7AE
:102AF000F0FEE24AE24BFDF7DBFC82460C46D8F8DA
:102B00000400FDF7E6FE52462346FDF709FF01D219
:102B1000012100E000210020FEF742FE0028CCD079
:102B2000D84840F6B7315C460088ABF80800A0F200
:102B3000F510884202D20A2044E69AE005F02EFB06
:102B400018B12189D0A004F027FE40F6FF7420467A
:102B5000FEF766FE2046FEF7AFFE2046FEF7BCFEFF
:102B600039E602F083FAAA48C069FDF7B2FE0022F6
:102B7000CA4BFDF79DFC82468B464446D8F80400BC
:102B8000FDF7A7FE52465B46FDF7B6FE26D260680B
:102B90009F4C206205F002FB48B1206AFDF799FEC8
:102BA000248902460B462146BDA004F0F5FD40F6FF
:102BB000FF70FEF781FEA5A0C0A3AFF2F82200E0EF
:102BC00023E20090A64940F2D31005F0F3FA002169
:102BD0000120FEF705FE0B2068707AE505F0DEFAAD
:102BE00038B16068FDF775FE02460B46B7A004F0E9
:102BF000D3FD40F6FF742046FEF712FE2046FEF796
:102C00005BFE2046FEF768FE1AE5E88900287FF49F
:102C1000EDAC02F02BFA7E48C069FDF75AFE974AE8
:102C2000974BFDF745FC04468B46D8F80400FDF7AA
:102C300050FE5B462246FDF773FE01D2012100E003
:102C400000210020FEF7CCFD0028C6D06F48704C54
:102C500040F6B73100886081A0F2F510884201D2B9
:102C60000C20AFE505F09AFA18B161899CA004F038
:102C700093FD40F6FF742046FEF7D2FD2046FEF796
:102C80001BFE2046FEF728FE6E702F7021E702F033
:102C9000EDF95F48C069FDF71CFE00227F4BFDF790
:102CA00007FC814600914446D8F80400FDF711FE68
:102CB0004A46009BFDF720FE7DD26068544C60625E
:102CC00005F06CFA48B1606AFDF703FE67890246B9
:102CD0000B46394687A004F05FFD40F6FF77384683
:102CE000FEF79EFD3846FEF7E7FD3846FEF7F4FD99
:102CF000A08880B2FEF794FD2089FEF7DDFD608993
:102D0000FEF7EAFD012002F093F90021ABF8001074
:102D100002F0CAFAA08881B2384603F0FDFD2063B4
:102D2000A08881B2A08903F0F7FD216BFDF74AFB73
:102D30000146A06AFEF74AFC0146E063206A00F003
:102D4000F1FB0746A08881B2208903F0E5FD3946F2
:102D5000FDF738FB6063A08881B2A08903F0DCFD39
:102D6000616BFDF72FFB0146A06AFEF72FFCE063C5
:102D7000A08881B2E08903F0CFFD216BFDF722FB33
:102D80000146E06AFEF722FC2064626A01461046B2
:102D900000F0C8FB0746A08881B2608903F0BCFD43
:102DA0003946FDF70FFBA063A08881B2E08903F0EC
:102DB000B3FDA16B01E01DE1B8E1FDF703FB0146A6
:102DC000E06AFEF703FC2064FFF766FB2060D4E9AD
:102DD0000F01FDF7A5FA01464D48FDF72BFB606496
:102DE0001AA04CA3AFF2245200901D494FF4087072
:102DF00005F0E0F92068022807D005F0CFF908B106
:102E000000218DE08FE00EE19CE1ECE02A01002042
:102E100068020020204552524F522050574D5F47C4
:102E200032413D2534640D00CDCCCCCCCCCCE43F3C
:102E3000204F4B2050574D5F4732413D25642C2099
:102E400049445F4D323D25362E34660D00000000AA
:102E50005445535420424941535F4D313A000000DC
:102E600000840008204552524F522049445F4D32A1
:102E7000413D25362E34660D000000009A9999993F
:102E80009999C93F28010020204552524F522050A5
:102E9000574D5F47313D2534640D00000000D03FA1
:102EA000204F4B2050574D5F47313D25642C204922
:102EB000445F4D313D25362E34660D005445535444
:102EC00020424941535F4D323A00000020455252A2
:102ED0004F522049445F4D313D25362E34660D005A
:102EE000204552524F522050574D5F47323D2534B6
:102EF000640D0000204F4B2050574D5F47323D2559
:102F0000642C2049445F4D323D25362E34660D0039
:102F10000000A04054455354204F4B3A000000009D
:102F20008CA004F039FC02F08BFD8D4840F6D8618E
:102F300001804FF448714180A1888180FFF76AF8D1
:102F40006E7086A087A3AFF284620090874940F23A
:102F5000322005F02FF905F021F938B1206BFDF78B
:102F6000B8FC02460B4682A004F016FC05F016F9E8
:102F700038B1606CFDF7ADFC02460B467FA004F053
:102F80000BFC05F00BF938B1E06BFDF7A2FC024633
:102F90000B467EA004F000FC05F000F938B1606B30
:102FA000FDF797FC02460B467BA004F0F5FB05F00D
:102FB000F5F838B1206CFDF78CFC02460B4678A082
:102FC00004F0EAFB05F0EAF838B1A06BFDF781FCEC
:102FD00002460B4675A004F0DFFBBDE8F84F482120
:102FE000744801F08DB805F0D9F800289BD0002175
:102FF00071A096E705F0D2F838B16068FDF769FC7A
:1030000002460B466FA004F0C7FB40F6FF74204653
:10301000FEF706FC2046FEF74FFC2046FEF75CFC60
:103020002F706E7055E540F6FF773846FEF7F8FBD7
:103030003846FEF741FC3846FEF74EFCA08880B2C9
:10304000FEF7EEFB2089FEF737FC6089FEF744FCB3
:1030500042A061A3AFF294720090444940F2522022
:1030600005F0A8F82068022865D005F097F818B197
:10307000002138A004F090FB02F0E2FC384840F652
:10308000D86101804FF448714180A1888180FEF7AA
:10309000C1FF6E7031A033A3AFF2D87200903349F4
:1030A00040F2652005F086F805F078F838B1206B1D
:1030B000FDF70FFC02460B462DA004F06DFB05F05A
:1030C0006DF838B1606CFDF704FC02460B462BA08E
:1030D00004F062FB05F062F838B1E06BFDF7F9FB34
:1030E00002460B4629A004F057FB05F057F838B10B
:1030F000606BFDF7EEFB02460B4627A004F04CFB8D
:1031000005F04CF838B1206CFDF7E3FB02460B46A6
:1031100023A004F041FB05F041F800283FF4DFACA8
:10312000A06BFDF7D6FB02460B4620A001B0BDE820
:10313000F04F04F031BB05F031F800289CD000219D
:103140001DA097E700202870BDE8F84F20212648F1
:1031500000F024BF205449504F20440D00000000CF
:10316000020000205245504F52543A00008400089B
:1031700056543D25342E3266200000004E4B4D4102
:10318000503D25342E326620000000004D313D2593
:10319000342E32662C00000025342E3266200000CA
:1031A0004D323D25342E32662C00000025342E325F
:1031B000660D000068020020205449504F20450D44
:1031C00000000000204552524F522049445F4D32CA
:1031D0003D25362E34660D005445535420534B493B
:1031E000505045443A000000000C014009490300DA
:1031F0004FF0000208480A7002D00E224A7006E022
:103200004A70064A4FF4805151601181518120214A
:1032100000F0C6BE10000020000C01406802002033
:103220000148007870470000100000200D4810B5DC
:103230000168490706D5042000F016F8BDE81040E3
:1032400000F088B90068800706D5022000F00CF86D
:10325000BDE8104000F0AABABDE81040012000F01F
:1032600003B8000000000240C10002D50249086016
:103270007047024948607047040402400000024061
:103280000029016802D041F0010102E04FF6FE7210
:10329000114001607047000001684FF6FE72114056
:1032A00001600021016041608160C1603149314AA3
:1032B0000839904203D1486840F00F0006E02D4ADB
:1032C0001432904204D1486840F0F00048607047E2
:1032D000284A2832904203D1486840F47060F5E7EC
:1032E000244A3C32904203D1486840F47040EDE7F4
:1032F000204A5032904203D1486840F47020E5E7FC
:103300001C4A6432904203D1486840F47000DDE703
:10331000184A7832904203D1486840F07060D5E78F
:10332000154A111F904203D1086840F00F0006E0D3
:10333000114A1432904204D1086840F0F00008604D
:1033400070470D4A2832904203D1086840F47060FB
:10335000F5E7094A3C32904203D1086840F47040D6
:10336000EDE7054A50329042EAD1086840F47020F7
:10337000E5E700000800024008040240002A026855
:1033800001D00A4300E08A430260704730B502680A
:1033900047F6F0739A430C6A8B682343D1E90445DE
:1033A0002C4323438C692343CC6923434C6A234336
:1033B0008C6A234313430360CA6842600A688260D0
:1033C0004968C16030BD01460020B1F5806F03D26D
:1033D0006FF47C1000EA8110704700000146064837
:1033E0001029C08806D24FF4707220F4707002EA7F
:1033F00081110843704700008C00002010B5024680
:10340000002401230549B02000F098FF044908700A
:1034100008B902480478204610BD0000A100002031
:10342000A000002010B50246002402230749B02066
:1034300000F084FF0649087028B9044841780078F4
:1034400001EB002084B2204610BD0000A100002046
:10345000A0000020064B10B55870000A18700A46EC
:1034600002230349B02001F067F80249087010BD3B
:10347000A9000020A000002010B5294C0020E07019
:1034800020716081E080208120706070FF20A0703A
:103490000120FFF7A3FF40F480500221FFF7DAFF7D
:1034A00001F0E9FC01F0E7FC01F0E5FC01F0E3FCD0
:1034B00001F0E1FC01F0DFFC4FF44870FFF783FFFF
:1034C0000821FFF7C7FF01F0D6FC01F0D4FC01F0A2
:1034D000D2FC01F0D0FC01F0CEFC01F0CCFC01F0FC
:1034E000CAFC0220FFF79EFF00F47070E080082005
:1034F000FFF798FF20F03F0020810E20FFF77EFFAE
:1035000000F01F0020700D20FFF778FF00F00F0083
:10351000A0703720FFF772FF00F01F00607010BD31
:103520008C00002070B506460846FDF7D2F9044627
:103530000D463046FDF7CDF90122FDF741F922464F
:103540002B46FDF7CEF8FDF7FFF9BDE8704004F01B
:1035500007BF70472DE9FE4F934992484FF6FF721F
:10356000886280300024C8620290CC638C634C6314
:103570000C638C65CC6408460C644788A1461646EB
:103580000197CB46B24680885D465346009067E07F
:1035900037F8020BDCF83010CCF828700144CCF876
:1035A0003010854200D20546834200D9034637F8E1
:1035B000021BDCF83480BE468844CCF83480CCF85A
:1035C00028708C4200D20C468A4200D90A46DFF8A5
:1035D000D8C1BEF80070DCF838C0BB4507EB0C085A
:1035E000DFF8C4C1CCF83880DFF8BC810EF1020CE2
:1035F000E646C8F828C000D2BB46BA4500D9BA464C
:10360000DFF8A4C1BEF80070DCF83CC0B94507EB98
:103610000C08DFF894C1CCF83C80DFF88C810EF107
:10362000020CC8F828C000D2B946BE4200D93E46B6
:10363000DDF804C05C4FA0EB0C00DDF800C0A1EB8E
:103640000C01D7F840C000FB11CCC7F840C0D7F838
:103650004CC000FB00C0F864B86D01FB0100B86508
:10366000DFF844C10298DCF82870874290D36046A6
:103670000189C76BC1EB1711076F39440167090A4C
:103680000181C188876BC1EB1711C76E3944C166D0
:10369000090AC1800099476BC1EB1711876E394445
:1036A0008166090A81800199076BC1EB1711476E8A
:1036B00039444166090A4180016CCF1701EB17714B
:1036C000476CC7EB2111876C3944CF17816401EB3C
:1036D000176109124164C16CCF1701EB1771076DB7
:1036E000C7EB2111476D3944CF17416501EB1761D5
:1036F00009120165816DCF1701EB1771C76DC7EB1B
:103700002111076E3944CF17016601EB17610912C9
:10371000C16500F18001078AD1F800C0A9EB070755
:1037200067440F603F0A0782B0F80EC0ABEB0C078E
:10373000D0F87CC06744C7673F0AC7818789D0F843
:1037400078C0E71B674487673F0A87814789D0F8BD
:1037500074C0EF1B674447673F0A4781078BF61B1E
:103760000F693E440E61360A0683C78AAAEB070634
:10377000CF683E44CE60360AC682868A8F68961B22
:103780003E448E60360A8682468A4F689E1B3E44BF
:103790004E60310A4182E91A4183A11A8183BDE852
:1037A000FE8F0000E40300206C0100202DE9FE4F95
:1037B000934992484FF6FF72886280300024C862B5
:1037C0000290CC638C634C630C638C65CC640846BC
:1037D0000C644788A14616460197CB46B2468088BE
:1037E0005D465346009067E037F8020BDCF8301076
:1037F000CCF828700144CCF83010854200D2054640
:10380000834200D9034637F8021BDCF83480BE46F9
:103810008844CCF83480CCF828708C4200D20C4616
:103820008A4200D90A46DFF8D8C1BEF80070DCF839
:1038300038C0BB4507EB0C08DFF8C4C1CCF83880B2
:10384000DFF8BC810EF1020CE646C8F828C000D2B1
:10385000BB46BA4500D9BA46DFF8A4C1BEF800702D
:10386000DCF83CC0B94507EB0C08DFF894C1CCF894
:103870003C80DFF88C810EF1020CC8F828C000D221
:10388000B946BE4200D93E46DDF804C05C4FA0EB0D
:103890000C00DDF800C0A1EB0C01D7F840C000FB24
:1038A00011CCC7F840C0D7F84CC000FB00C0F8648A
:1038B000B86D01FB0100B865DFF844C10298DCF87F
:1038C0002870874290D360460189C76BC1EB1711FE
:1038D000076F39440167090A0181C188876BC1EB11
:1038E0001711C76E3944C166090AC1800099476B38
:1038F000C1EB1711876E39448166090A81800199ED
:10390000076BC1EB1711476E39444166090A4180C4
:10391000016CCF1701EB1771476CC7EB2111876C56
:103920003944CF17816401EB176109124164C16CFE
:10393000CF1701EB1771076DC7EB2111476D3944A4
:10394000CF17416501EB176109120165816DCF1732
:1039500001EB1771C76DC7EB2111076E3944CF1703
:10396000016601EB17610912C16500F18001078A48
:10397000D1F800C0A9EB070767440F603F0A078230
:10398000B0F80EC0ABEB0C07D0F87CC06744C7673B
:103990003F0AC7818789D0F878C0E71B67448767EB
:1039A0003F0A87814789D0F874C0EF1B6744476797
:1039B0003F0A4781078BF61B0F693E440E61360AAA
:1039C0000683C78AAAEB0706CF683E44CE60360A54
:1039D000C682868A8F68961B3E448E60360A86822F
:1039E000468A4F689E1B3E444E60310A4182E91A66
:1039F0004183A11A8183BDE8FE8F0000640400208A
:103A00006C0100202DE9F047564D95F9000018B1E2
:103A1000401E2870BDE8F0876889698A401AFCF763
:103A2000F4FE514A514BFCF7EAFDFCF78DFF504C78
:103A30002060A889A98A401AFCF7E7FE4D4A4E4B40
:103A4000FCF7DDFDFCF780FFA060686CFCF7DDFE95
:103A50004A4A4B4BFCF7D3FDFCF776FF2061286DFB
:103A6000FCF7C5FEDFF8FCA081460AF1800A564645
:103A7000CAF81400286AFCF72CFF07468846484617
:103A8000FCF727FF04F046FC3A464346FCF7B7FD37
:103A9000FCF75AFF60607069FCF71BFF394A3A4B2C
:103AA000FCF7ADFDFCF750FF7061686AFCF711FF91
:103AB00006460F46E86DFCF79AFEFCF70AFF04F095
:103AC00029FC32463B46FCF79AFDFCF73DFFE060DF
:103AD000626801461046FCF77BFC05466061206980
:103AE0000146FCF775FC064629460846FCF770FCC3
:103AF0003146FCF767FCFCF7ECFE04F00BFCFCF72E
:103B000023FFA06181462148E168214F214E4FF0FB
:103B10007D58814224DD6068FCF78CFC20F0004079
:103B200020621D482569854215DBDAF81400294614
:103B30000646FCF77FFC20F00040A0624946304674
:103B4000FCF778FC20F00040606229464846FCF70C
:103B500071FCE0615EE7C4F81C80C4E9096759E7BD
:103B60002662F8E76C0100203D99DA26D5F5BB3FC7
:103B7000E404002093E146707E97323F728115F194
:103B8000E725303FAC5791D10149B83F0AD7233CD4
:103B90000060EA4600401C47CDCCCC3D2DE9F04703
:103BA0009AB04FF4004001F073F90121032001F0B5
:103BB00079F9012140F6056001F098F90F20ADF880
:103BC0006000A34D00248DF8634018A9284600F03A
:103BD0006BF901219F4800F0B5F901219E4800F0E2
:103BE000B1F90121102001F081F93F21ADF86010F9
:103BF0008DF8634018A9284600F056F9DFF85C827A
:103C00004046FDF7CDFA964D2846FDF7C9FA01204A
:103C1000FDF7B6FB0B208DF8400001268DF84160C2
:103C20008DF842408DF8436010A800F0C7FF1220C5
:103C30008DF840008DF841408DF842408DF843608A
:103C400010A800F0BBFF11A802F07CFC48F6A040D1
:103C5000ADF848000227DFF80CA2ADF84470ADF8CB
:103C60004A40ADF8464011A9504602F01DFC6020C4
:103C7000ADF850007F20ADF85600ADF85260ADF8B9
:103C8000587014A9504602F09DFBDFF8DC914846BD
:103C9000FFF702FB714805A94C3005907348CDE948
:103CA00006044020CDE9080480200A9080000B9093
:103CB00080000C9020200D900002CDE90E044846B3
:103CC000FFF764FB012206214846FFF757FB01215D
:103CD0004846FFF7D5FA300400904FF44020CDE974
:103CE00002048DF804608DF805408DF81070694667
:103CF0004046FDF7AFFA0023012219464046FDF782
:103D0000FAFA0222002311464046FDF7F4FA032195
:103D10004046FDF7E8FA01231A460A214046FDF71E
:103D2000BDFA012302220D214046FDF7B7FA012317
:103D3000032211214046FDF7B1FA4FF4805949465C
:103D40004046FDF763FA01214046FDF755FA01228E
:103D50004FF490614046FDF774FA01214046FDF7AB
:103D600015FA01214046FDF73DFA4FF4C0200090BE
:103D70004FF46020CDE902048DF804608DF8054011
:103D80008DF8107069462846FDF764FA0122002379
:103D900011462846FDF7AFFA0023022203212846E8
:103DA000FDF7A9FA03212846FDF79DFA01231A46DB
:103DB0000B212846FDF772FA012302220E21284624
:103DC000FDF76CFA012303220F212846FDF766FA5E
:103DD00049462846FDF71AFA01212846FDF70CFA54
:103DE00001212846FDF7FEF90121504602F032F983
:103DF0000121504602F038F901214046FDF7BCF997
:103E00004046FDF7B2FA44462046FDF713FA002873
:103E1000FAD12046FDF7AEFA2046FDF7FDF900285D
:103E2000FAD101212846FDF7A7F92846FDF79DFAAA
:103E30002846FDF7FFF90028FAD12846FDF79AFA3F
:103E40002846FDF7E9F90028FAD11AB0BDE8F08755
:103E50000010014004002000000130000024014057
:103E600000280140002C014008000240E40300202B
:103E700010B502F061F802F0C1F8BDE81040FFF79C
:103E80008DBE00004FF4F571B0F57A7F05D004497E
:103E9000B1FBF0F0A0EB901081B2024801807047B6
:103EA00020A107002C340140F0B5CC78002204F0AA
:103EB0000F03E40601D58C7823430C784FF00F0CE8
:103EC00014F0FF0F4FF0010E1BD005680E880EFA9C
:103ED00002F42640A64210D196000CFA06F725EA15
:103EE000070703FA06F5CE783D43282E02D0482E68
:103EF00002D002E0446100E00461521C082AE5D3CC
:103F000005600A88FF2A1CD94468002202F10806CD
:103F10000EFA06F50E882E40AE420ED196000CFA2F
:103F200006F7BC4303FA06F7CE783C43282E00D1AF
:103F30004561CE78482E00D10561521C082AE5D390
:103F40004460F0BDF0B5144C002801DAE36900E0EC
:103F50006368450D2E0185B2C0F30157B540C0F32B
:103F60000342032F05D0C6020AD503269640B34369
:103F700007E023F07062636823F07063636002E01F
:103F8000AB4343F0706201B12A43002801DAE261D9
:103F9000F0BD6260F0BD000000000140416170476B
:103FA000016170472DE9F0410024084F460825467D
:103FB000B44208D837F81400FDF7C2FC2844641C4A
:103FC00085B22A2CF4D32846BDE8F081D000002029
:103FD00038B50121102000F089FF4FF44064ADF89E
:103FE000004002208DF802001020064D8DF80300DD
:103FF00069462846FFF758FF21462846FFF7CEFFBF
:1040000038BD0000001001402A4810B5016841F099
:1040100080710160284800244460016841F001017A
:1040200001602146C00300F005FE4FF4806000F0FF
:10403000F7FD22484FF47A710068B0FBF1F0B0F15F
:10404000807F35D220F07F414FF0E020491E416152
:104050001B4AF02182F8141D8461072101610121AE
:104060004FF0C05000F02AFF012000F015FEFDF7D0
:1040700043FCFFF7ADFF00F055FAFFF7FDF9FEF73F
:1040800035F9012000F0B4FF612000F099FF00280D
:10409000FAD045F2555000F0B5FB032000F0A6FB26
:1040A0004FF49C7000F0A8FBBDE8104000F096BBF8
:1040B000FEE70000FCED00E0001000E078000020CA
:1040C0000FE000E02DE9F04100240C4F80464E083F
:1040D0002546B4420AD237F81400FDF731FC28F81F
:1040E00014002844641C85B22A2CF2D337F814003B
:1040F000FDF726FC284480B2BDE8F081D000002006
:104100002DE9F04100240D4F80464E082546B4426B
:104110000AD238F81410681885B237F81400FDF781
:1041200017FC641C2A2CF2D3E843401C81B237F8F8
:104130001400BDE8F041FDF70BBC0000D0000020EA
:1041400070B5334D2878C00760D000F07FF800F0DC
:10415000CFF800202870A8782E4C6178884205D0CE
:10416000A87860706078FDF7B7FF2873E878A178C9
:10417000884204D0E878A070A078FDF785FF287900
:10418000E178884207D02879E070E07800EB800081
:104190004000FDF75DFF68782178884204D0687898
:1041A00020702078FDF77AFF95F9060094F9051044
:1041B000884205D0A879607194F90500FEF702F8ED
:1041C00095F9070094F90610884205D0E879A071A6
:1041D00094F90600FDF7BAFF95F9080094F9071065
:1041E000884205D0287AE07194F90700FDF794FF22
:1041F00095F9050094F90410884207D06879207178
:1042000094F90400BDE87040FDF76CBF70BD00007C
:10421000800300205C00002010B50021094801F057
:1042200045FA0C2001F04AFA01F0D4F906484FF0A3
:104230007E51C16001614160816041618161012104
:10424000016010BDBD4200086403002070B5174D29
:10425000174C286910F1FF4F02D2FCF70DFB00E06C
:104260000020A07213488069FCF706FB60721248B8
:10427000017AA174417AE174817A2175C07A6075FE
:10428000A869FCF7F9FAE072607860732079A0738E
:104290002079E073E0782074FDF7F8FD00B1A07894
:1042A0002073FDF7E7FD607470BD0000E40400209A
:1042B00080030020C8030020960300200A490A78E2
:1042C0000A4842708A7902710A79C2708A788270CB
:1042D0000A7A42714A7A82718A7AC271C97A017203
:1042E0000121017070470000960300208003002028
:1042F0000F48827A0F494A70427A0A70C27A8A70ED
:10430000427B0A71827B4A71C27B8A71037C427C48
:1043100002B180221343CB71027BCA70827C0A7285
:10432000C27C4A72027D8A72407DC872704700006A
:1043300080030020A3030020FEE700002DE9FF4FCB
:1043400081B04FF6FF771C4693460D464FF4003878
:10435000504E009707E00098411E009103D20120C3
:1043600005B0BDE8F08F4146304600F0ADF90028B9
:10437000F1D10121B046304600F092F9464E009747
:1043800003E00098411E009145D33146404600F0BD
:104390005BF90028F5D00022C1464046019900F0A3
:1043A0000AFAB8460097DFF8F4A04F4603E00098F9
:1043B000411E009144D35146384600F045F900288B
:1043C000F5D00121384600F04BF95946384600F047
:1043D000FAF9DFF8C890CDF8008009F1020905E08C
:1043E0000098411E009101D20420B9E749463846A1
:1043F00000F02AF90028F3D00121B946384600F030
:104400004FF94746CDF80080B0464E4605E000988B
:10441000411E009101D20520A2E74146304600F03E
:1044200013F90028F3D001223046019900F0C3F9B6
:104430000097194F7F1C05E00098411E009101D2A2
:1044400006208DE73946304600F0FEF80028F3D00C
:10445000114F3F37BCB1012C07D10021304600F08D
:10446000E9F80121304600F025F93946304600F0E0
:10447000EBF80028EED0304600F09AF9641E05F8FB
:10448000010BA4B2E6E70121304600F0D3F800208A
:1044900066E70000005800400100030082000700AA
:1044A00010B586B00121082000F020FD0121082070
:1044B00000F01CFD0121880500F000FD4FF4406074
:1044C000ADF8100003208DF812001C208DF81300A9
:1044D00004A91148FFF7E8FC104C204600F0CAF888
:1044E0000121204600F0BCF80021ADF804104BF685
:1044F000FF71ADF80610FF21ADF808102015ADF8DA
:104500000A000001ADF80C000548009069462046FD
:1045100000F0F0F806B010BD000C0140005800405B
:10452000A086010010B5FFF7BBFF0249002008700C
:1045300010BD0000B10000202DE9F84F4FF6FF77C5
:104540001C4692460D4681464FF40036DFF8D48073
:10455000009706E00098411E009102D20120BDE8BC
:10456000F88F3146404600F0AFF80028F2D12E4EC9
:104570000121304600F094F8DFF8B080009705E0A4
:104580000098411E009101D20520E8E741463046DF
:1045900000F05AF80028F3D000224946304600F0D7
:1045A0000AF9DFF88C80009705E00098411E009121
:1045B00001D20620D3E74146304600F045F80028F6
:1045C000F3D05146304600F0FEF8B8460097184F39
:1045D000BF1C03E00098411E009112D339463046BB
:1045E00000F032F80028F5D013E02978304600F0CA
:1045F000EAF86D1CCDF8008005E00098411E00919E
:1046000001D20820ABE73946304600F01DF80028FB
:10461000F3D0641EE4B2E8D20121304600F04AF83B
:1046200000209CE7005400400058004001000300B7
:10463000820007000029018802D041F4806101E076
:1046400021F4806101807047034600209A8A1B8B09
:1046500042EA034222F07F42914300D10120704799
:104660000029018802D041F0010101E021F001019F
:1046700001807047094910B588424FF0010101D10E
:104680004C0501E04FF48004204600F023FC204656
:10469000BDE81040002100F01DBC000000540040A7
:1046A0000029018802D041F4807101E021F4807179
:1046B000018070470029018802D041F4007101E0B7
:1046C00021F40071018070470CB502460020009271
:1046D0000A0F21F07F41019202D0009A143202E0C9
:1046E000009A090C1832009212680A4200D0012088
:1046F0000CBD000070B50446808886B00D4620F0E1
:104700003F06684600F012FC27490298B0FBF1F121
:1047100089B20E43A680228822F001022280234B18
:104720002A689A421CD85200B0FBF2F080B20428EA
:1047300000D20420491C2184A083208840F001007D
:10474000208020884FF6F5310840A9886A891143F6
:1047500001432180A88929890843208106B070BDC2
:10476000EB88A3F53F46FF3E0BD002EBC20303EB01
:104770000212B0FBF2F080B240F48040020506D095
:1047800007E002EB4202B0FBF2F080B2F6E740F045
:1047900001004FF4967251434FF47A72B1FBF2F17B
:1047A00040F40040C6E7000040420F00A086010030
:1047B000008AC0B2704712B141F0010101E001F07E
:1047C000FE010182704701827047000002494CF6E9
:1047D000CC400860704700000030004002494AF6B3
:1047E000AA2008607047000000300040014948607E
:1047F00070470000003000400149886070470000A9
:10480000003000400149086070470000003000405F
:104810002DE9F05F32494869FCF75BF80446002255
:10482000304BFCF769F807D214222F492F48FBF7C9
:104830009BFC0020BDE8F09F29494869FCF749F836
:10484000044600222A4BFCF757F807D214222649C7
:1048500014312648FBF788FC0120EBE72049C869A2
:104860002449FCF797F807D214221F4950311F48FA
:10487000FBF77AFC0420DDE71949C869FCF729F841
:10488000044600221C4BFCF74BF820D21422164998
:104890003C311648FBF768FC1149C869FCF719F868
:1048A00080460022154BFBF7AAFE04460D460F4931
:1048B0004868FCF70EF8064622462B46FBF799FEA1
:1048C0008246FCF741F8094948600320B2E7142208
:1048D000054928310548FBF747FC0220AAE70000FC
:1048E000E40400200000F03F9C83000854020020F4
:1048F000000014400000C0400000E03F00001840ED
:104900002DE9FF47704C608808B1401E6080207818
:10491000012590B101282CD0042828D16B480088AB
:10492000400524D560680A2190FBF1F2A14601FB05
:104930001200674C00286FD0A1E000210846FDF767
:104940007DFC05206080012003F02EFC257061A015
:10495000009061A36CA26E49472003F02BFC5DA080
:1049600000906CA368A26A49482003F023FCBDE8CC
:10497000FF8760880028FAD1FDF79AFDFEF750FC0A
:10498000674E28B301281AD00228F0D151A0009018
:1049900064A35DA25E495E2003F00CFCF06840F465
:1049A0008060F060F06820F40060F06001F040F892
:1049B000962060800020FEF719FC2570D7E7F0688C
:1049C00080F48060F060F06880F40060F060CEE712
:1049D000F06840F40060F060F06820F48060F060FF
:1049E0003CA0009057A348A24949572003F0E2FB9E
:1049F00038A0009057A344A24549582003F0DAFBA1
:104A00000420207000210620FDF718FC04B00020CF
:104A1000BDE8F04703F0C8BB2EA000904FA33AA218
:104A20003B496F2003F0C6FB03F0B8FB98B1E06888
:104A3000FBF74FFF074688466068FBF74AFF0546CD
:104A40000E462068FBF745FF8DE8E00102460B4665
:104A500044A002F0A1FE03F0A1FB80B14848006928
:104A6000FBF737FF054647480E460068FBF731FF66
:104A7000CDE9005602460B4643A002F08DFE15A07C
:104A8000009045A320A22249732003F093FB03F07A
:104A900085FB98B1A069FBF71CFF07468846206993
:104AA000FBF717FF05460E466069FBF712FF8DE81E
:104AB000E00102460B4639A002F06EFED9F8041060
:104AC000491CC9F8041052E720000020C80000204B
:104AD000E40400200000000053595354454D3A208F
:104AE000524643312C46573A312E30306135372DFE
:104AF00050322C4253503A312E30302D48573133FA
:104B0000333145310D0000006C6F6769632E63001F
:104B100009840008444941474E4F535449430D000E
:104B200000100140444941474E4F535449433A20F5
:104B30004552524F522C2052657472696E672E2E68
:104B40000D000000444941474E4F535449433A2019
:104B50004F4B0D0052554E4E49470D004F55543A9C
:104B60000000000020563D25342E31662C56653D50
:104B700025342E31662C49653D25352E32662C00B4
:104B8000C803002034000020543D25332E30662C0D
:104B900025332E30660D0000503D000025342E31A7
:104BA000662C2825342E31662C6A25342E31662950
:104BB0000D0000007047FEE77047000030B50F237E
:104BC000C27801780125F2B1144A126801F1E0219E
:104BD00002F4E062C2F5E062120AC2F10404D340BA
:104BE0004278A24084781C401443220181F80024BA
:104BF000007800F01F018D404009800000F1E020A6
:104C0000C0F8005130BD01F01F0085404809800008
:104C100000F1E020C0F8805130BD00000CED00E054
:104C20000249084302490860704700000000FA0585
:104C30000CED00E0024A1140014302480160704758
:104C400080FFFF1F08ED00E010B540210548FCF78C
:104C50000DFF401C04D0BDE81040024800F022B80F
:104C600010BD0000F002002008B504A0009004A3CD
:104C700005A20849682003F09DFA08BD0000000065
:104C800052454144590D00007061727365722E6384
:104C900000000000228400080149086270470000FB
:104CA00000000E4270B50646007886B024280CD16C
:104CB00071786D290BD004DC64293ED06C2904D1B5
:104CC00011E072291FD0762907D044A000E045A04A
:104CD00006B0BDE87040FCF7F2BE06B042A0BDE8E9
:104CE000704002F059BD6A4649A13046FBF756FABA
:104CF00001280FD10098C0B203F056FA10E0FCF77B
:104D0000DEFE06B070BD6A4643A13046FBF746FAA8
:104D1000012801D042A0F2E7009818B1012802D082
:104D200030A0ECE7FEE740480168404A01F4E0614A
:104D300011430160BFF3408FFEE73D4C3DA1631D71
:104D40003046621CFBF72AFA3D4D022807D0621C50
:104D50003CA13046FBF722FA012811D01CE0607814
:104D600028702079A871E0782871A078A8706079FF
:104D70002872A0796872E079A872207AE87207E058
:104D8000607828702079A871E0782871A078A870E0
:104D9000207840F001002070FFF7D2F9217C607C80
:104DA00000B180200143A07BA37B627BCDE904019D
:104DB000CDE90223217BE07ACDE90001A37A627A72
:104DC00022A12B4802F0F8FC2948FCF778FE06B037
:104DD0000D20BDE87040FCF76FBE0000554E4B0D36
:104DE000000000004F4B0D00524643312C46573A0D
:104DF000312E30306135372D50322C4253503A31FC
:104E00002E30302D48573133333145310D000000FD
:104E1000246C20256400000024722025640000001A
:104E20004552520D000000000CED00E00400FA05B0
:104E3000800300202464202530387825303878001D
:104E40009603002024642025303878002164253022
:104E50003278253032782530327825303278253056
:104E6000327825303278253032782530327800009B
:104E7000B0020020704700214FF448720020401C0F
:104E80009042FCD3491CC9B20429F7D370470000F3
:104E9000034A516821F440410143516070470000CA
:104EA00000100240044A0029516901D0014300E08A
:104EB000814351617047000000100240044A0029FC
:104EC000D16901D0014300E08143D1617047000006
:104ED00000100240044A0029116901D0014300E09A
:104EE000814311617047000000100240044A00290C
:104EF000916901D0014300E0814391617047000056
:104F000000100240044A0029D16801D0014300E0AA
:104F10008143D16070470000001002400248416A9E
:104F200041F08071416270470010024030B5204A64
:104F30005168204B11F00C0103D0042901D008293D
:104F400001D0036012E05168536801F470114FF012
:104F5000020413F4803F04EB914102D053689B0399
:104F600001D5154B00E0134B5943016051680F23E5
:104F700003EA1111114B5C5C0168E1404160546827
:104F8000072505EA14241C5D21FA04F484605468A2
:104F900005EAD4241B5DD940C1605268032303EAAB
:104FA0009232064B1B1F9A5CB1FBF2F1016130BDDE
:104FB0000010024000127A0000093D006800002045
:104FC000034600205909094A01290AD002290AD0BA
:104FD000516A03F01F02012393400B4200D00120CD
:104FE00070471168F5E7116AF3E70000001002400E
:104FF00001490860704700008004424238B5012131
:105000000820FFF773FF0420ADF8000001208DF8A1
:1050100002001020054C8DF8030069462046FEF77B
:1050200043FF04212046FEF7BBFF38BD000C0140C2
:1050300070B5084A084C30B1012504211046FEF72E
:10504000AFFF257070BD04211046FEF7A7FF0020BA
:10505000207070BD000C01404401002010B5FFF726
:10506000CDFFBDE810400120FFF7E2BF2DE9F05F62
:10507000324D3348A9880180EF8847802E89868089
:105080006A89C2809046AA8902819146EA89428152
:1050900093460846FBF7CAFB00222A4BFBF7AFFA00
:1050A000FBF752FC264C82460C3420603846FBF756
:1050B000BDFB2A7812B1244A244B02E04FF0FF32A4
:1050C000234BFBF79CFAFBF73FFC0546606030463C
:1050D000FBF7ACFB1F4F4FF0663632463B46FBF703
:1050E0008EFAFBF731FCA0604046FBF79FFB32468F
:1050F0003B46FBF784FAFBF727FCE0604846FBF7EA
:1051000095FB0022144BFBF77AFAFBF71DFC20619C
:105110005846FBF78BFB32463B46FBF770FAFBF732
:1051200013FC606129465046FBF752F9A06110F16B
:10513000FF4F01D30020A061BDE8F09F4401002093
:10514000BC03002000A0943FDBB66DDBB66D6F3F63
:10515000FFFF373F66664A3F00A0B43FF0B54E48B8
:1051600000684F4986B24D48068009688DB24A49A9
:105170004580091D09688CB249498480091D096868
:105180008BB24749C380083109688AB2424902811B
:10519000083109684FF0000C89B2418141484788C5
:1051A000C7B1012F15D14778F7B380F801C08680C9
:1051B000C58004814381828136012D012401C18192
:1051C0001B0112030903C0E90821C0E90643C0E935
:1051D0000465F0BD477867B180F801C08680C5805E
:1051E00004814381828136022D022402C1811B0287
:1051F000E7E78788F61B07693E440661C788ED1B11
:1052000047693D4445610789E41B87693C448461E3
:105210004789DB1BC7693B44C3618789D21B076A87
:105220003A440262C78900E00BE0C91B476A360AAC
:10523000394441622D0A8680240AC58004811B0AF4
:1052400024E08788F61B07693E440661C788360953
:10525000ED1B47693D44456107892D09E41B8769BA
:105260003C44846147892409DB1BC7693B44C36113
:105270008789D21B076A3A440262C789C91B476AF9
:105280001B09394441628680C5800481120B438129
:105290008281090BC181F0BD3C240140B003002094
:1052A0003C2801404401002001490120487070471A
:1052B000440100202DE9F04748480078022802D038
:1052C00003287DD141E045490869FBF702FB074609
:1052D000434A444BFBF705FA0546FBF7E1FA84B273
:1052E000204601F09DFA3D498868FBF7F2FA07462F
:1052F0003D4A3E4BFBF7F5F90546FBF7D1FA84B280
:1053000036494868FBF7E5FA0746394A394BFBF757
:10531000E8F90546FBF7C4FA1FFA80FA2F49C86876
:10532000FBF7D7FA0746344A344BFBF7DAF9054660
:10533000FBF7B6FA1FFA80F9224651464846FCF7B9
:10534000BDF80020FCF75CF944E024490869FBF74C
:10535000C0FA0746224A234BFBF7C3F90546FBF781
:105360009FFA84B2204601F05BFA1C498868FBF77B
:10537000B0FA07461C4A1D4BFBF7B3F90546FBF78D
:105380008FFA84B215494868FBF7A3FA0746184A12
:10539000184BFBF7A6F90546FBF782FA1FFA80F9CE
:1053A0000E49C868FBF795FA0746134A134BFBF7FB
:1053B00098F90546FBF774FA1FFA80FA224600E0D6
:1053C00007E049465046FBF7E9FF0020FCF718F9D3
:1053D00000E000BF00BFBDE8F08700000C02002025
:1053E00083C0CAA145B6B33F93E146707E97323F72
:1053F0003D99DA26D5F5BB3F95EFBB65A63E803FCC
:10540000034804490A680260898881807047000067
:1054100002000020948300080349486808B100F0A6
:10542000C9B9088800F0A0B99800002030B587B04D
:10543000012141F20400FFF759FDA020ADF814004E
:1054400001248DF8164018208DF8170005A91B4877
:10545000FEF72AFD01210820FFF748FD0225ADF8DF
:1054600014508DF8164010208DF8170005A9144827
:10547000FEF71AFD0020ADF800004FF48271ADF880
:105480000210E102ADF80410ADF808008910ADF883
:105490000A103021ADF80C10ADF80E000720094CB1
:1054A000ADF81000ADF806506946204600F02FF91F
:1054B0000121204600F00AF907B030BD0008014084
:1054C000000C01400030014010B5FFF7AFFF044968
:1054D0004FF47A700880BDE8104000F045B9000034
:1054E0009800002070B50E4C0546206820F00200A0
:1054F00020600C4E0221304600F0F2F80028F9D06E
:1055000029463546304600F000F98021284600F053
:10551000E7F80128F9D0206840F00200206070BD53
:105520000C0C01400030014009494879401C487189
:105530004879052803D1002008700871C87048799F
:10554000FA2803D9012048700520487170470000EF
:10555000B400002070B51B4C0025657165701A4EB3
:10556000304600F0D0F8194922788854E178084490
:10557000E0702078411C2170A178884206D1E07843
:10558000A0B1802060702570E57025710F482178EA
:105590000D30415C2279114421712178A278914229
:1055A00009D12079C043401C81B206E0A0680028E0
:1055B000E9D08047E7E72178415C3046BDE870409C
:1055C00000F0A3B8B400002000380040960300208B
:1055D000FFF7C0BFF0B587B000F0B5F801218D032B
:1055E0002846FFF76BFC01210C20FFF77FFC4FF4EE
:1055F0002040ADF800000324294F8DF80240042616
:105600008DF8036069463846FEF74EFCADF8005051
:1056100018258DF8035069463846FEF745FCB00260
:10562000ADF800008DF8036069463846FEF73CFC93
:105630000126ADF800608DF8024010208DF80300BF
:1056400069463846FEF730FC01213846FEF7A6FCD5
:105650000024ADF810500720124DADF80440ADF80D
:105660000840ADF80C60ADF81400ADF80640ADF898
:105670000A40ADF80E40ADF8124001A9284600F0EE
:1056800046F801226021284600F031F80121284621
:1056900000F01CF804480470447107B0F0BD00002D
:1056A000000C014000380040B400002072B6024AED
:1056B000C2E9020162B67047B400002072B6024926
:1056C000887062B670470000B4000020002901888D
:1056D00002D041F0400101E021F04001018070471B
:1056E0000246002012890A4200D0012070470909B1
:1056F00001238B40002A828899B201D00A4300E03E
:105700008A4382807047808970478181704730B5B5
:1057100002884C8802F441530A88CD8822438C8841
:105720002C4322430C8922434C8922438C892243F7
:10573000CC8922431A430280828B22F40062828346
:10574000098A018230BD08B524208DF800000020B0
:105750008DF801008DF8020001208DF803006846E5
:10576000FFF72CFA08BD000070B511494FF4404511
:1057700000FB01F42846FFF7B5FE200E00F54C5063
:10578000FFF7B0FEC4F3074000F50850FFF7AAFE8C
:10579000C4F3072000F54450FFF7A4FEE0B200F583
:1057A0000050FFF79FFE2846BDE87040FFF79ABE05
:1057B000179F020070B504464FF440452846FFF796
:1057C00091FE200E00F54C50FFF78CFEC4F307400D
:1057D00000F50850FFF786FEC4F3072000F544509B
:1057E000FFF780FEE0B200F50050FFF77BFE284691
:1057F000BDE87040FFF776BE2DE9FC47464CE088D7
:1058000008B1401EE08000F031F900F0F1F94349A1
:10581000E068434D884208DD2078022805D22869D7
:10582000606100F005F90220207020780027DFF881
:10583000F490DFF8F4800126052811D2DFE800F0AB
:105840001D032C4E12002969494502DA00F0AAF81E
:1058500027702969414503DD00F0EAF80420207033
:10586000BDE8FC872969414501DD00F0E1F82F49D9
:1058700028698842F4DA27700AE02D4928698842AD
:1058800002DD00F097F826702A4928698842E7DA95
:10589000BDE8FC4700F0D4B800F08CF826A00090DA
:1058A00026A32AA22D4940F20D1002F083FC02F03B
:1058B00075FC70B12869FBF70CF805460E46E068E8
:1058C000FBF707F8CDE9005602460B4624A001F08D
:1058D00063FF032020703C20E080C1E76069FAF795
:1058E000F8FF0022264BFAF784FE0746884628690F
:1058F000FAF7EFFF43463A46FAF7FEFF02D329696B
:10590000494502DA00F09CF82670E0880028A7D10B
:1059100000F096F82670A3E72800002000000C4352
:10592000C80300200000204200009642000082428E
:1059300000003442000024420000000050524F5446
:10594000454354494F4E3A2000000000737570657E
:10595000727669736F722E63000000001384000872
:10596000544A204F76657274656D70202825352E57
:105970003266292C2054433D25352E32660D000019
:10598000000014400248002101704170704700007F
:105990002800002002498A6802438A60704700009C
:1059A000280000204FF400510148FEF7F7BA00002C
:1059B000001001404FF400510148FEF7F1BA000019
:1059C00000100140F8B501211020FFF78FFA4FF4C5
:1059D0000055ADF800500126134F8DF802601024D9
:1059E0008DF8034069463846FEF75EFA2946384688
:1059F000FEF7D4FA01210420FFF778FA2501ADF86B
:105A000000508DF802608DF80340084C694620462E
:105A1000FEF74AFA29462046FEF7C0FA00F010F8D1
:105A2000FFF7C0FFF8BD0000001001400008014072
:105A30004FF480710148FEF7B1BA00000008014040
:105A40004FF480710148FEF7ABBA00000008014036
:105A500040F6FF71034A884201D2108070471180DE
:105A60007047000026010020704700002DE9F0413A
:105A70001B4DD5E90001FAF7ABFC1A490969FAF7A1
:105A8000A1FC194C0646A0612869FAF722FF0546D9
:105A90000F463046FAF71DFF144A154BFAF7AFFDD3
:105AA0002A463B46FAF704FDFAF74EFF2061FAF763
:105AB00010FF05460E46E068FAF70BFF00220D4B7B
:105AC000FAF79DFD2A463346FAF7F2FC6FF0010221
:105AD000FAF776FEFAF738FFE060BDE8F0810000E3
