:020000040800F2
:10000000F008002045010008813F0008593700082A
:100010007F3F0008091200085F5800080000000038
:10002000000000000000000000000000414B00083C
:10003000FF2900080000000061400008C94C0008CA
:100040005F0100085F0100085F0100085F01000810
:100050005F0100085F0100085F0100085F01000800
:100060005F0100085F0100085F010008D926000851
:100070005F0100085F0100085F0100085F010008E0
:100080005F0100085F010008090C00085F0100081B
:100090005D5800085F0100085F0100085F0100086B
:1000A0005F0100085F0100085F0100085F010008B0
:1000B000114E0008134E00080D4F00085F010008A4
:1000C0005F0100085F0100085F0100085F01000890
:1000D00005470008F95500080157000803570008B4
:1000E0005F0100085F0100085F0100085F01000870
:1000F0005F0100085F0100085F0100085F01000860
:100100005F0100085F0100085F0100085F0100084F
:100110008F5500085F0100085F0100085F010008BB
:100120005F0100085F0100085F0100085F0100082F
:10013000DFF80CD000F028FD00480047496F0008A8
:10014000F00800200648804706480047FEE7FEE723
:10015000FEE7FEE7FEE7FEE7FEE7FEE7FEE7FEE777
:10016000D94C00083101000840EA01039B0703D085
:1001700009E008C9121F08C0042AFAD203E011F8E6
:10018000013B00F8013B521EF9D2704730B50446DE
:100190000020034600E05B1C934203D2E05CCD5C90
:1001A000401BF8D030BDF0B480EA0102D40F420009
:1001B000B2EB410F02D20246084611464A0042D035
:1001C000C30DDDB2C1F3C752AD1A202D35DAC1F32C
:1001D000160141F4000204B15242C5F1200602FAB0
:1001E00006F12A411044B3EBD05F23D0C4B1012DF6
:1001F000A0EBC35009DCF0BC4FF0004202EAC3524E
:1002000000F50000DBB200F09ABB400000F1807006
:1002100000EBC350A0F1807040EAD170490009E0C2
:10022000490841EAC071A0EBC35000F50000400846
:1002300000EBC350F0BC00F079BB6142012202EB3D
:100240004101001BF6E7F0BC704781F00041AAE7CE
:1002500080F00040A7E780EA010210B502F00043F9
:10026000400026D04A0023D04FEA106101EB126112
:10027000C0F35600C2F3560240F4000042F40002FC
:10028000A0FB0220A1F17F014FEA0040140401D03D
:1002900000F1010050EA124001D44000491EC2B2F0
:1002A0000C0604EBD010401C4008802A02D003E06A
:1002B000002010BD20F00100002900DA00201843C2
:1002C00010BD30B480EA010202F0004530F0004277
:1002D00021F0004015D0A0B1C0F3C753C2F3C754FA
:1002E000C2F31601C0F31600E41A41F4000140F411
:1002F00000027D34914201D3641C00E04900002CCF
:1003000002DA30BC002070474FF400000023914215
:1003100001D3891A034340084FEA4101F7D151B193
:10032000914202D14FF0004105E002D24FF00101AD
:1003300001E06FF0010103EBC450284430BC00F031
:10034000F5BA2DE9FE4F804681EA0300C00F0C4646
:10035000009021F0004123F00045B8EB0200A941D4
:1003600005D24046214690461C460B46024623F0E5
:100370000040104304D14046214603B0BDE8F08F51
:10038000270DC7F30A00C3F30A510290401A0190E7
:10039000402866DAC3F3130040F4801B00989246AD
:1003A00020B10023D2EB030A63EB0B0B01985946F3
:1003B000C0F14002504600F088FA06460D4650460D
:1003C0005946019A00F0A0FA10EB080061410024A0
:1003D00087EA115284EAE7731A433BD0009A3AB392
:1003E000019A012A4FEA075210DC001B61EB02015F
:1003F0004FF0004202EA0752CDE90042001C41F5ED
:10040000801132462B4600F003FBB6E7001B61EB80
:100410000201001C41F5801300185B412018A2F571
:10042000001747EB030140EAD570B6196D4111E0A2
:100430006D084FEA360645EAC0754FEA0752001BC1
:1004400061EB0201001C41F5801149084FEA3000C0
:100450000019514132462B4603B0BDE8F04F00F081
:10046000CABA0098012240000023D0EB020263EBDD
:10047000E073009821464FEAE074B8EB000061EBAE
:100480000401E9E783F000435BE781F0004158E7AE
:100490002DE9FE4F81EA030404F0004421F00041FD
:1004A00000944FF0000B23F0004350EA010402D007
:1004B00052EA030404D10020014603B0BDE8F08FE6
:1004C000C3F30A54C1F30A552C44A4F2F334019443
:1004D000A0FB0254C1F3130141F48011C3F31303D1
:1004E00043F4801301FB024400FB034E840A970A85
:1004F00044EA815447EA8357A4FB076802958D0AB2
:1005000005FB07854FEA932C04FB0C542705029D3D
:100510004FEA065847EA1637B5EB08056EEB070CAD
:10052000870E920E47EA811742EA8312A7FB020167
:10053000B6EB0B0164EB00042B0D43EA0C335E18A1
:1005400044EB1C50DA465146E7FB0201C5F31304A5
:100550004FEA0B3343EA14534FEA0432019C43EA57
:100560000603A4F10C040294009CCDE900B400F051
:100570004FFAA2E72DE9F04D81EA030404F0004BA5
:1005800021F0004514464FF0000A23F0004150EAE4
:10059000050220D054EA01021DD0C5F30A570246D5
:1005A000C5F31303C1F31300C1F30A5640F48015D9
:1005B00043F48013A7EB0608101BD64608F2FD385B
:1005C00073EB050002D308F1010801E092185B41CA
:1005D000B8F1000F03DA00200146BDE8F08D0020DD
:1005E0004FF48011064684460EE0171B73EB050797
:1005F00005D3121B63EB050306434CEA010C4908C3
:100600004FEA300092185B4150EA0107EDD152EAFF
:10061000030012D082EA040083EA0501084303D1F3
:1006200000224FF0004308E0101BAB4102D2012230
:10063000002302E06FF0010253101AEB06004CEBAE
:10064000085110EB0A0041EB0B01BDE8F04D00F042
:10065000D2B970B521F0004303430CD0C1F30A5561
:100660000024D5EB040564EB0403D617AD1AB3419F
:1006700002DB0020014670BD201841EB025170BD25
:10068000C10F80EAE0700844CA079623002100F0F9
:1006900056B996230022114600F051B90EB5C10F8C
:1006A00080EAE0700844CA07002140F233438DE835
:1006B0000E000A460B4600F0ABF903B000BD0EB5C4
:1006C00040F2334102910021CDE900110A460B4668
:1006D00000F09EF903B000BD00F0004220F00040A1
:1006E000C10DC0F3160040F400007F2901DA00209C
:1006F0007047962903DCC1F19601C84001E09639A4
:100700008840002AF4D04042704720F00040C10DDC
:10071000C0F3160040F400007F2901DA0020704782
:10072000962903DCC1F19601C8407047963988408C
:100730007047C1F30A5210B5C1F3130140F2FF3301
:1007400041F480119A4201DA002010BD40F2334397
:100750009A42A2F2334203DC524200F0C5F810BDC7
:10076000904010BD00F0004230F000400AD0C10DB2
:1007700001F56071C0F3160042EA0151C20840075A
:1007800011437047002001467047000030B5002932
:1007900004DB4FF00044404264EB0101002B04DB1A
:1007A0004FF00044524264EB03038B4208BF824285
:1007B00030BD000030B5002904DB4FF0004440425A
:1007C00064EB0101002B04DB4FF00044524264EB68
:1007D0000303994208BF904230BD000001F000437E
:1007E00030B421F0004150EA010206D00A0DA2F512
:1007F0006072C1F31301002A02DC30BC0020704794
:10080000440F44EAC104C100E01830BC00EBC25000
:1008100000F08CB8002801DBC0F10040002901DBAA
:10082000C1F1004181427047002801DBC0F1004066
:10083000002901DBC1F100418842704730B50B4609
:10084000014600202022012409E021FA02F59D4200
:1008500005D303FA02F5491B04FA02F52844151ED4
:10086000A2F10102F1DC30BD2DE9F05F0546002068
:1008700092469B4688460646814640241BE0284611
:1008800041464746224600F02FF853465A46C01AC2
:10089000914110D311461846224600F016F82D1A41
:1008A00067EB01084F4622460120002100F00DF8B9
:1008B00017EB00094E41201EA4F10104DFDC48467D
:1008C00031462A464346BDE8F09F202A04DB203A01
:1008D00000FA02F1002070479140C2F1200320FA93
:1008E00003F3194390407047202A04DB203A21FA91
:1008F00002F00021704721FA02F3D040C2F1200239
:100900009140084319467047202A06DBCB17203A4E
:1009100041FA02F043EAE07306E041FA02F3D04004
:10092000C2F1200291400843194670470029A8BF30
:100930007047401C490008BF20F00100704710B408
:10094000B0FA80FC00FA0CF050EA010404BF10BCBD
:10095000704749B1CCF1200421FA04F411FA0CF1EA
:1009600018BF012121430843A3EB0C01CB1D010655
:10097000000A002BBEBF002010BC704700EBC35024
:1009800010440029A4BF10BC7047401C490008BF98
:1009900020F0010010BC7047F0B4002802DCF0BC6D
:1009A00000207047C0F3C751C0F3160040F40000A8
:1009B000CA0701D14000491E3F2202EB6105002217
:1009C00011464FF4000626FA01F31344D41884426A
:1009D00001D8001B1A464000491C1729F3DD5100BD
:1009E000814202D24FF0FF3100E0002102EBC550FE
:1009F000F0BCFFF79BBF10B5002B08DA401C41F19B
:100A0000000192185B411A4301D120F0010010BD92
:100A10002DE9F04D92469B4611B1B1FA81F202E008
:100A2000B0FA80F220329046FFF74FFF04460F469F
:100A300040EA0A0041EA0B0153465A46084303D1F3
:100A400020463946BDE8F08D114653EA010015D025
:100A5000C8F140025046FFF747FF05460E46504694
:100A600059464246FFF731FF084301D0012000E01C
:100A70000020054346EAE0762C4337430A984FEAC4
:100A80004453A0EB08004FEAD4240A304FF0000290
:100A900044EA47544FEAD72502D500200146D1E762
:100AA000010510196941DDE9084500196941BDE8F2
:100AB000F04DA0E72DE9F04D00231A461B1A8A419C
:100AC00003DB00200146BDE8F08DC1F30A52C1F3FB
:100AD000130141F480154FF0000BD10702D100182B
:100AE0006D41521E0027044640F2FF11384601EBCB
:100AF000620A3E468046024600204FF48011FFF70E
:100B0000F3FEC2197141BB1846EB0100B4EB030CB4
:100B100075EB000C04D3E41A65EB000517460E468E
:100B2000241908F101006D4180463428E3DDF919EC
:100B300046EB0600091BA84103D24FF0FF321346D3
:100B400001E0002213461BEB070046EB0A51BDE80B
:100B5000F04DFFF750BFC1F30A52C1F3130140F249
:100B6000FF3341F480119A4202DA002001467047B7
:100B700040F233439A42A2F2334202DC5242FFF780
:100B8000B3BEFFF7A2BE0000064C074D06E0E068CA
:100B900040F0010394E8070098471034AC42F6D3C4
:100BA000FFF7CAFA207500084075000870B501EB20
:100BB000020410F8015B15F0070301D110F8013BA6
:100BC0002A1106D110F8012B03E010F8016B01F88F
:100BD000016B5B1EF9D12B0705D40023521E0FD4E5
:100BE00001F8013BFAE710F8013B02F10202A1EB28
:100BF000030303E013F8015B01F8015B521EF9D512
:100C0000A142D6D3002070BD10B5084C0421204667
:100C100000F069F8002808D003F08EFB2046BDE8FC
:100C200010404FF4906100F003B810BD0024014063
:100C30006FEA1121016070470029816802D041F0FC
:100C4000010101E021F00101816070470029816804
:100C500002D041F4807101E021F48071816070471D
:100C60000D4910B5884202D1012144150AE00B4913
:100C7000884202D10121041504E0094988420AD1C1
:100C80000121CC03204603F033FA2046BDE8104092
:100C9000002103F02DBA10BD0024014000280140BE
:100CA000003C01400029816802D041F4801101E03C
:100CB00021F48011816070470029816802D041F4DD
:100CC000004101E021F4004181607047826822F414
:100CD000E0420A4382607047014600208968490764
:100CE00000D5012070470246002012680A4200D059
:100CF00001207047014600208968090700D50120BE
:100D00007047002A4268C9B201D00A4300E08A4312
:100D10004260704710B542680E4B0C791A400B6860
:100D200042EA04221343436082680B4B1A40D1E924
:100D3000024323434C7942EA440213438360C26A6C
:100D4000097C22F47002491EC9B242EA0151C16213
:100D500010BD0000FFFEF0FFFDF7F1FF70B50726A4
:100D600009290AD9C568A1F10A0404EB4404A64084
:100D7000B543A3401D43C56007E0056901EB41048D
:100D8000A640B543A3401D430561836BC3F30154E3
:100D9000121B921C02EB82021F249440A343914039
:100DA0000B43836370BD826B491E22F4401242EAFA
:100DB00001518163704770B5072609290AD9C568B2
:100DC000A1F10A0404EB4404A640B543A3401D432B
:100DD000C56007E0056901EB4104A640B543A340A7
:100DE0001D4305611F23072A09D2446B521E02EBE3
:100DF000820293409C4391400C43446370BD0D2A92
:100E000009D2046BD21F02EB820293409C439140B3
:100E10000C43046370BDC46A0D3A02EB8202934036
:100E20009C4391400C43C46270BD816841F008014D
:100E300081607047816841F0040181607047000063
:100E400005490028086802D040F4000001E020F4C1
:100E50000000086070470000082401402DE9F041BF
:100E600084462148224C0388204824880088061B99
:100E7000204C03FB06F00712258800208B4200DD82
:100E8000581A964201DDB11A084428B9A7EB0C00A4
:100E9000C11700EB11700011174E002808DDFFF795
:100EA000EFFB316AFFF7D7F9FFF72FFC28440DE07D
:100EB0004042FFF7E5FBF169FFF7CDF9FFF725FCAD
:100EC00080B2A84201D3002001E0281A80B240F687
:100ED000AC512080884203D84FF44871884200D238
:100EE00021800020BDE8F0812601002018010020AB
:100EF0002001002006000020AC01002070B506464D
:100F00000846FFF72FFC05460C463046FFF72AFC43
:100F10000122FFF79EFB2A462346FFF72BFB2A46BA
:100F20002346FFF727FBBDE87040FFF757BC0000E2
:100F30002DE9F0471E4D01462888A0F6AC504442EA
:100F400000D500240846FFF79BFB8146194E1A483E
:100F500031690068FFF779F9DFF86080D8F8181078
:100F6000FFF779F907462046FFF78AFBD8F81410F7
:100F7000FFF771F93946FFF716F94946FFF713F9FC
:100F8000FFF7AAFB00B24FF44871884202DC0C491B
:100F9000884200DA0846716808440549891F00281C
:100FA00000DC00204880A8800020BDE8F087000019
:100FB00006000020E401002028000020AC010020F1
:100FC00088FAFFFF10B5002000F040FD054C0146F7
:100FD0006088814205D000F0ABF8002000F036FDBB
:100FE000608010BDE000002030B585B000F022FD2B
:100FF0000121480703F058F83C200024CDE9010402
:10100000039401A92046049400F02CFD0121002046
:1010100000F004FD40F6B211002000F037FD012180
:10102000002000F03DFD002000F010FD1249488036
:101030000121042003F050F81025ADF800508DF880
:10104000034069460D4802F09DF90121102003F08C
:1010500043F86C01ADF8004001208DF802008DF8D6
:101060000350074D6946284602F08CF92146284670
:1010700002F002FA05B030BDE00000200008014097
:101080000010014010B503F055FFFFF7ADFF002041
:1010900000F084F840F6FF74204600F049F820463E
:1010A00000F092F82046BDE8104000F09DB8000026
:1010B00010B50E4C20B14FF40060E080401008E005
:1010C0000A48C288008909B1111800E0111AE180AC
:1010D00040082081E08800F077F803F019FF2089AC
:1010E00008B1002010BD012010BD00000C00002040
:1010F00010B50E4C20B14FF400606081401008E044
:101100000A484289808909B1111800E0111A6181E9
:101110004008A081608900F067F803F0F9FEA0891B
:1011200008B1002010BD012010BD00000C000020FF
:1011300010B5B0F5805F01D2014601E040F6FF71C5
:10114000002000F0A3FC0121002000F0A9FC0020F9
:1011500000F07CFC0149488010BD0000E000002048
:1011600010B50D4C20B14FF400606080401008E0D5
:1011700009484288808809B1111800E0111A61807D
:101180004008A0806088FFF7D3FFA08808B1002046
:1011900010BD012010BD00000C000020084A094BC2
:1011A0004FF4007128B1012808D11070184602F0E0
:1011B00061B900201070184602F05EB97047000057
:1011C000E00000200010014040F6FF720449904208
:1011D00001D2088000E00A80088802490880704730
:1011E000CA0000203808004040F6FF7204499042CF
:1011F00001D2088000E00A80088802490880704710
:10120000CC0000203C080040FEE700000E4810B56E
:101210000021017740224261826140F8801C40F841
:101220007C1C40F8781C40F8741C01744174817473
:10123000C17481770D2141770449054804F058FABB
:10124000BDE8104004F01EBACC040020A112000832
:101250005512000810B504F0C9F91049C0B291F850
:101260009D2032B191F89D20824202D1012281F865
:101270009E204A68D1F89430521C5B1E1A400B68BD
:101280009A420AD04B68054A103298544868D1F8FF
:101290009420401C521E1040486010BD4C04002099
:1012A00010B50D4CA068E16888420DD0A16804F12A
:1012B0005000085C04F014FAA068D4F89810401CA0
:1012C000491E0840A06010BD002084F89C00BDE8C5
:1012D000104004F0CFB900004C04002010B505F018
:1012E00083FD10B14FF0FF3010BD074B196803F1BB
:1012F0001000085C1968D3F89420491CB1FBF2F483
:1013000002FB1411196010BD4C040020F0B5114A05
:1013100005460E4692F89D000024631E10B192F817
:101320009E0010B105F060FD08B11846F0BD72B620
:10133000002782F89E7001E005F8010BFFF7CEFF51
:10134000411C03D02146641CB142F5DB62B62F700C
:101350002046F0BD4C040020012105F08BBD2DE995
:10136000F04100240F4606464D1E04E0305D00218A
:1013700005F080FD641CAC42F8DBF019012110F887
:10138000010C05F077FD0020BDE8F0810F4810B595
:101390000078082819D2DFE800F018180418181887
:1013A0000C08BDE8104000F061B8BDE8104000F046
:1013B00011B800F02BF906480078022801D103F09B
:1013C00071F8BDE8104000F0CDB910BD000000205C
:1013D000AC01002070B502F02FFC1B4C2069FFF718
:1013E000C1F91A4A1A4BFFF7C5F8FFF7A2F980B204
:1013F00004F036FAA068FFF7B5F9164A164BFFF766
:10140000B9F8FFF796F986B26068FFF7ABF9134AAF
:10141000134BFFF7AFF8FFF78CF985B2E068FFF7E1
:10142000A1F9104A104BFFF7A5F8FFF782F980B237
:1014300032462946FFF712FD0020FFF779FDBDE88F
:10144000704000F08FB90000AC01002083C0CAA139
:1014500045B6B33F93E146707E97323F3D99DA2619
:10146000D5F5BB3F95EFBB65A63E803F2DE9F0412A
:1014700002F0E2FB474C04284ED804F12405464E06
:1014800068784649012806D0022804D003280FD0E6
:10149000042849D11BE08888FFF7FBF86968FEF74C
:1014A000DAFE3146FEF70DFF6060E868E0602EE08E
:1014B0008888FFF7EEF8A968FEF7CDFE3146FEF703
:1014C00000FFA060E868E0606868606021E08888EC
:1014D0000746FFF7DEF88046E968FEF7BCFE3146B6
:1014E000FEF7EFFEE06087B140466968FEF7B3FEA5
:1014F000FFF738F900222A4BFFF73CF80022294B6E
:10150000FEF71FFFFFF76AF900E000206060A8689F
:10151000A0602869206107E02348606023482061BB
:101520002348A0602348E0602069FFF71BF9224AA6
:10153000224BFFF71FF8FFF7FCF880B204F090F998
:10154000A068FFF70FF91E4A1E4BFFF713F8FFF7CD
:10155000F0F886B26068FFF705F91B4A1B4BFFF7EE
:1015600009F8FFF7E6F885B2E068FFF7FBF8184ADC
:10157000184BFEF7FFFFFFF7DCF880B23246294632
:10158000FFF76CFC0020FFF7D3FCBDE8F04100F052
:10159000E9B80000AC0100200000C84200000020B3
:1015A00000005940000054400000A04200002041CB
:1015B0003333333F0000A04183C0CAA145B6B33FD7
:1015C00093E146707E97323F3D99DA26D5F5BB3FD1
:1015D00095EFBB65A63E803F04480079012803D003
:1015E000052801D0002070470120704738000020F6
:1015F00005480079052805D0072803D0062801D022
:1016000000207047012070473800002010B502F01C
:1016100013FB00F0BFF91548416811F0FF4F07D0E8
:101620000078062820D2DFE800F01F0B0F13171BED
:101630000F4903200871BDE810400E4803F01CBBA1
:10164000BDE8104004F030BEBDE8104004F0AABA76
:10165000BDE8104004F084B9BDE8104004F076BC49
:10166000BDE8104004F0BABB10BD00009402002099
:101670003800002044710008134810B5007806288F
:1016800015D2DFE800F00306090C0F1204F04AFC43
:101690000DE004F01FFF0AE004F08EFB07E004F009
:1016A0006FFA04E004F0EEFD01E004F031FC0648BE
:1016B00000210C3001604FF07E51C160016141603A
:1016C00081604161816110BD9402002010B500214C
:1016D000084600F047F90648044941614FF07F5140
:1016E00081610449C1610449016210BDCDCC4CBD8A
:1016F000AC010020CDCC4C3DCDCCCC3D07480649BB
:10170000416007490161074981600749C160074994
:1017100000208880704700000000A042AC0100203B
:10172000000020413333333F0000A041000000207F
:101730000748064941600749016107498160074937
:10174000C160074900208880704700000000A04267
:10175000AC010020000020413333333F0000A041A2
:101760000000002010B50C4C208800F0ADF900F00E
:10177000A5F9B0F5487F01D2012000E00020FFF775
:101780000DFD608803F0D0F9A088FFF7D1FCBDE81B
:10179000104003F0BDBB00000600002009490A8983
:1017A00082420ED0088140B14FF49671884202D334
:1017B0008900884203D9084601E04FF47A7000F0AE
:1017C00099B970479402002003490A78824202D0F6
:1017D0000870FFF751BF704794020020054910B50B
:1017E0008880FEF756FF0449FEF76BFD0349486009
:1017F00010BD0000000000200000C842940200203C
:1018000001494870002070479402002010B504463A
:10181000FEF744FF0022084BFEF793FD6FF006022F
:10182000FEF717FFFEF7DAFF014604488161012148
:101830000160E0B210BD000000006040A002002086
:1018400010B50446FEF72AFF0022084BFEF779FD8B
:101850006FF00602FEF7FDFEFEF7C0FF01460448EA
:10186000416101210160E0B210BD00000000604054
:10187000A00200202DE9F0411A4F1B4D041E0EDB83
:101880004FF07E50A8602046FEF708FF6FF004027C
:10189000FEF7DFFE00223B46FEF753FD19E06042F3
:1018A000FEF7FCFE884606466FF00502FEF7D1FE05
:1018B00000223B46FEF745FDFEF790FFA86030464C
:1018C00041466FF00702FEF7C4FE00223B46FEF7DA
:1018D000DCFDFEF783FF286101202860E0B2BDE84F
:1018E000F08100000000F03FA00200202DE9F0414F
:1018F0001A4F1B4D041E0EDB4FF07E5068602046D1
:10190000FEF7CCFE6FF00402FEF7A3FE00223B467A
:10191000FEF717FD19E06042FEF7C0FE8846064656
:101920006FF00502FEF795FE00223B46FEF709FD2B
:10193000FEF754FF6860304641466FF00702FEF73D
:1019400088FE00223B46FEF7A0FDFEF747FFE86059
:1019500001202860E0B2BDE8F08100000000F03F07
:10196000A002002010B504000ED0022C04D0062CDA
:1019700008D0072C08D102E0FFF7DAFE04E0FFF7F9
:10198000BDFE01E0FFF778FE0148047010BD0000C5
:101990000000002070B5124C206800281ED0A4F171
:1019A00034052169E868FEF756FCA4F12006F060D2
:1019B000E168A868FEF74FFCB06061682868FEF730
:1019C0004AFC3060A1686868FEF745FC7060616998
:1019D0002869FEF740FC30610020206070BD0000E7
:1019E000A002002072B6044908884A8842408A80D2
:1019F000488062B670470000C0000020024801889D
:101A0000491C018070470000C000002002480021EE
:101A10000180418081807047C0000020044B01227A
:101A20008240186809B1104300E090431860704785
:101A30000074004010B501214C07204602F040FB25
:101A40002046BDE81040002102F03ABB044908B529
:101A500001EB90002C300090006880B208BD0000BF
:101A60000074004030B5084C236840F6FE72824096
:101A70009343D1E900252A43D1E902510D432A437A
:101A800082401A43226030BD00740040034A08B50A
:101A9000104408300090016008BD00000074004050
:101AA0000209054B012090400029196801D001432B
:101AB00000E08143196070470474004001480088C9
:101AC00070470000CE00002040F6FF71044A8842B3
:101AD00002D2108001207047118000207047000062
:101AE000CE00002010B502F031FDBDE8104003F03B
:101AF0000FBA00000149088001F032BC94000020B8
:101B000038B50121042002F0E7FA4020ADF80000CA
:101B100001208DF802001020054C8DF80300694665
:101B2000204601F02FFC4021204601F0A3FC38BDE7
:101B30000008014010B502F061FD03F0FBF900F070
:101B400021F800F005F8BDE81040FFF7D9BF00000C
:101B500038B50121082002F0BFFA2020ADF80000BE
:101B600001208DF802001020054C8DF80300694615
:101B7000204601F007FC2021204601F07BFC38BD07
:101B8000000C014038B50121082002F0A5FA102010
:101B9000ADF8000001218DF80210064C8DF803000D
:101BA0006946204601F0EEFB1021204601F062FC60
:101BB00038BD0000000C0140044840F63C71C0886C
:101BC000884201D90220704701207047F8020020A6
:101BD0002DE9F84FFE4CE08908B1401EE0816078A5
:101BE000DFF8F0A3DFF8F0B302250D26DFF8EC8371
:101BF000FB4F4FF005090E283CD2DFE800F0073D0F
:101C00007194CDF7F6F5F4F3F2F1F0EFF5A0009052
:101C1000F5A3F8A2F949CB2005F060F9DAF80C1029
:101C200041F48061CAF80C1001252570ABF8005012
:101C300002F032FC02F070FF40F6D860FFF744FF7C
:101C40000020FFF7ABFA4FF4C86002F06DFF40F6DA
:101C5000FF763046FFF76CFA3046FFF7B5FA3046AC
:101C6000FFF7C2FA002002F0D1FA03F051F90A207E
:101C7000E0816570BDE8F88FE0890028FAD1D8F8D6
:101C800010003861FEF76EFD02460B46DCA004F042
:101C900033FCD4A00090DDA3D6A2D849E32005F000
:101CA0001DF9DD49D8F80000DC4A014491420DD20B
:101CB0006570D8F804100122C7E90501ABF80020CF
:101CC000FEF750FD02460B46D5A0FDE3FEF74AFDA8
:101CD00002460B46D6A004F00FFC02F015FF1FE0F1
:101CE000D849B869884215DCFEF73CFD02460B4630
:101CF000D5A004F001FCBBA00090D6A3BDA2BF49B3
:101D0000F92005F0EBF80320607000210120FFF7B7
:101D100027FA3EE0FEF726FD02460B46D0A082E001
:101D200025706670A6E7E0890028A3D102F08CFA3E
:101D3000BB46B869FEF716FD0122FEF78AFCCD4AC4
:101D4000CD4BFEF7FEFA07468A46D8F80400FEF7A8
:101D500009FD53463A46FEF72DFD01D2012100E070
:101D600000210020FFF7FCF998B1C44840F6B732D3
:101D70000188CBF80410A1F2F510904201D20420A2
:101D800080E0BFA004F0B8FB40F6FF70FFF7D0F989
:101D90007CE0A4F80E906DE702F056FA9048806956
:101DA000FEF7E0FC0122FEF754FCB24AB94BFEF705
:101DB000C8FA82468B464746D8F80400FEF7D2FCA4
:101DC00052465B46FEF7E2FC786827D2FEF7CAFC73
:101DD000834D0B4602466E68314608E0C3E3A7E236
:101DE00068E21DE2E1E1BEE08EE052E01EE0AAA062
:101DF00004F082FB7868E8617AA00090ACA37DA231
:101E00007E4940F2271005F069F84D4684F80190AC
:101E100000210120FFF74CF9E5812BE7FEF7A2FC3A
:101E200002460B46A6A004F067FB79E7E08900288C
:101E3000B1D102F009FABB46F869FEF793FC4FF006
:101E40003332A44BFEF77DFA07468A46D8F80400E1
:101E5000FEF788FC3A465346FEF7ACFC01D201215E
:101E600000E000210020FFF723F9002891D09A48D4
:101E700040F647520188ABF80C10A1F16500904282
:101E800002D206206070F5E694A0BBE16670257072
:101E9000F0E602F0D9F95248C069FEF763FC944AB3
:101EA000944BFEF74EFA82468B464746D8F804001C
:101EB000FEF758FC52465B46FEF768FC78681DD278
:101EC000474DA862FEF74EFCAD8902460B462946F7
:101ED00089A004F011FB40F6FF70FFF775F941A0EF
:101EE00000908DA343A245494FF4AC7004F0F6FF77
:101EF00000210120FFF7FCF80720C6E1FEF732FCC5
:101F000002460B4688A0C7E1E089002885D102F08F
:101F10009BF93348C069FEF725FC4FF033326D4B17
:101F2000FEF70FFA07468B46D8F80400FEF71AFCB6
:101F30005B463A46FEF73EFC01D2012100E000215B
:101F40000020FFF7D5F8002890D07D4840F6475292
:101F500001882348C181A1F16500904201D2082087
:101F600090E778A0D4E102F06FF91D48C069FEF750
:101F7000F9FB5F4A5F4BFEF7E4F983460091474661
:101F8000D8F80400FEF7EEFB5A46009BFEF7FEFB76
:101F900078681BD2124DE862FEF7E4FBED89024639
:101FA0000B4629466CA004F0A7FA40F6FF70FFF735
:101FB0001BF90CA0009070A30EA210494FF4C7703B
:101FC00004F08CFF092060700021DDE0E0E00000FB
:101FD0000C00002000100140E60000200403002057
:101FE000E4010020000000005445535420494E49AC
:101FF000543A0000646961672E63000014710008A0
:102000002054303D25352E32660D00005445535482
:1020100020564241523A0000FFFF4BBEFFFF17001F
:10202000204F4B2056423D25352E326600000000E1
:10203000204552524F522056423D25352E32660DD4
:10204000000000000AD7A33C2C2049423D25362E33
:1020500034660D005445535420424941533A000020
:102060002C204552524F522049423D25362E34668F
:102070000D0000007B14AE47E17A843FE2000020AF
:10208000204552524F5220564441433D2534640D61
:1020900000000000E17AA43F204F4B20564441430A
:1020A0003D25642C2049423D25362E34660D000026
:1020B0005445535420424941535F4D31413A000049
:1020C000204552524F522049423D25362E34660D4E
:1020D000000000003333E33FCA0000202045525285
:1020E0004F522050574D5F4731413D2534640D001C
:1020F000CDCCCCCCCCCCE43F204F4B2050574D5FC7
:102100004731413D25642C2049445F4D313D253602
:102110002E34660D000000005445535420424941BE
:10212000535F4D32413A0000204552524F522049F0
:10213000445F4D31413D25362E34660D00000000D0
:10214000CC000020204552524F522050574D5F473F
:1021500032413D2534640D00204F4B2050574D5FD8
:102160004732413D25642C2049445F4D323D2536A0
:102170002E34660D0000000054455354204249415E
:10218000535F4D313A0000000120FEF791FF00E659
:10219000FEF7E8FA02460B46F4A0D4E1DAF80C1098
:1021A00041F48061CAF80C1064E5E0890028FBD195
:1021B00002F04AF8BB46F869FEF7D4FAF14AF24B4E
:1021C000FEF7BFF807468A46D8F80400FEF7CAFAB9
:1021D0003A465346FEF7EEFA01D2012100E0002113
:1021E0000020FEF765FF0028D1D0E848018840F6BE
:1021F000B730A1F2F512ABF80810824201D20A20E2
:1022000040E6E3A004F078F940F6FF773846FEF7A1
:102210008FFF3846FEF7D8FF3846FEF7E5FF35E674
:1022200002F012F8DF48C069FEF79CFA0022DE4B8C
:10223000FEF787F882468B464746D8F80400FEF73B
:1022400091FA52465B46FEF7A1FA78681FD2D54D47
:102250002862FEF787FA2D8902460B462946D3A04D
:1022600004F04AF940F6FF70FEF7AEFFC4A0D6A313
:10227000AFF280220090D8494FF4E27004F02EFEB5
:1022800000210120FEF734FF0B20607081E5FEF78E
:1022900069FA02460B46D1A004F02EF940F6FF770A
:1022A0003846FEF745FF3846FEF78EFF3846FEF704
:1022B0009BFF35E5E08900287FF434AD01F0C4FFD1
:1022C000B848C069FEF74EFAAE4AAF4BFEF739F890
:1022D00007468B46D8F80400FEF744FA3A465B46B8
:1022E000FEF768FA01D2012100E000210020FEF78C
:1022F000FFFE0028CAD0BE480188AA48A1F2F51204
:10230000418140F6B730824201D20C20BAE5B9A033
:1023100004F0F2F840F6FF773846FEF709FF38463A
:10232000FEF752FF3846FEF75FFF6670257035E70F
:1023300001F08AFF9B48C069FEF714FA00229A4B0D
:10234000FDF7FFFF009089464746D8F80400FEF7E6
:1023500009FA4B46009AFEF719FA78687DD2914D3A
:102360006862FEF7FFF96F8902460B463946A6A060
:1023700004F0C2F840F6FF773846FEF7D9FE38463B
:10238000FEF722FF3846FEF72FFFA88880B2FEF73F
:10239000CFFE2889FEF718FF6889FEF725FF012088
:1023A00001F034FF0021ABF8001002F075F8A888A6
:1023B00081B2384603F09CFA2863A88881B2A889C4
:1023C00003F096FA296BFDF740FF0146A86AFEF775
:1023D00095FDE8632A6A0146104600F0F9FA0746BF
:1023E000A88881B2288903F083FA3946FDF72DFFCA
:1023F0006863A88881B2A88903F07AFA696BFDF74F
:1024000024FF0146A86AFEF779FDE863A88881B237
:10241000E88903F06DFA296BFDF717FF0146E86ABA
:10242000FEF76CFD28646A6A0146104600F0D0FA97
:102430000746A88881B2688903F05AFA3946FDF741
:1024400004FFA863A88881B2E88903F051FAA96B58
:10245000FDF7FBFE0146E86A00E06FE0FEF74EFD87
:102460002864FFF7A9FB2860D5E90F01FDF79BFE63
:1024700001466C48FDF725FF686441A06AA3AFF2EE
:102480008C420090544940F2112004F027FD286846
:102490004FF0000102284FD066A004F02DF802F0A2
:1024A0003BFB40F6D860FFF70FFB0020FEF776FEFF
:1024B0004FF4487002F038FB667031A060A3AFF2B1
:1024C000CC424549009000E031E04FF4087004F040
:1024D00005FD286BFEF746F902460B465AA004F0AC
:1024E0000BF8686CFEF73EF902460B4659A004F063
:1024F00003F8E86BFEF736F902460B4659A003F0E5
:10250000FBFF686BFEF72EF902460B4658A003F05E
:10251000F3FF286CFEF726F902460B4656A003F09F
:10252000EBFFA86BFEF71EF902460B4655A001B063
:10253000BDE8F04F03F0E0BF54A0AEE7FEF712F99C
:1025400002460B4654A003F0D7FF40F6FF7738460B
:10255000FEF7EEFD3846FEF737FE3846FEF744FE3E
:10256000257066701AE60020207014E4204552524F
:102570004F522049445F4D32413D25362E34660D81
:10258000000000009A9999999999C93FCA000020C2
:10259000204552524F522050574D5F47313D253410
:1025A000640D0000E40100200000D03F204F4B20CC
:1025B00050574D5F47313D25642C2049445F4D31D4
:1025C0003D25362E34660D00544553542042494172
:1025D000535F4D323A0000001471000820455252FA
:1025E0004F522049445F4D313D25362E34660D0053
:1025F000CC000020204552524F522050574D5F478B
:10260000323D2534640D0000204F4B2050574D5F64
:1026100047323D25642C2049445F4D323D25362EFE
:1026200034660D000000A04054455354204F4B3AEF
:1026300000000000205449504F20440D00000000CD
:102640005245504F52543A0056543D25342E32666E
:10265000200000004E4B4D41503D25342E32662067
:10266000000000004D313D25342E32662C00000064
:1026700025342E32662000004D323D25342E326640
:102680002C00000025342E32660D000020544950E5
:102690004F20450D00000000204552524F52204966
:1026A000445F4D323D25362E34660D00054800212D
:1026B0000170417004494FF480504860088148819E
:1026C000704700000C000020E40100200148007861
:1026D000704700000C0000200D4810B50168490744
:1026E00006D5042000F016F8BDE8104000F088B9C7
:1026F0000068800706D5022000F00CF8BDE8104005
:1027000000F0B6BABDE81040012000F003B80000A8
:1027100000000240C10002D502490860704702492A
:10272000486070470404024000000240002901682C
:1027300002D041F0010102E04FF6FE72114001604B
:102740007047000001684FF6FE72114001600021E1
:10275000016041608160C1603149314A083990426D
:1027600003D1486840F00F0006E02D4A1432904231
:1027700004D1486840F0F00048607047284A283289
:10278000904203D1486840F47060F5E7244A3C3237
:10279000904203D1486840F47040EDE7204A50323F
:1027A000904203D1486840F47020E5E71C4A643247
:1027B000904203D1486840F47000DDE7184A78324F
:1027C000904203D1486840F07060D5E7154A111F68
:1027D000904203D1086840F00F0006E0114A14321D
:1027E000904204D1086840F0F000086070470D4A3C
:1027F0002832904203D1086840F47060F5E7094A36
:102800003C32904203D1086840F47040EDE7054A3D
:1028100050329042EAD1086840F47020E5E70000A9
:102820000800024008040240002A026801D00A435E
:1028300000E08A430260704730B5026847F6F073E3
:102840009A430C6A8B682343D1E904452C43234304
:102850008C692343CC6923434C6A23438C6A23430A
:1028600013430360CA6842600A6882604968C160B5
:1028700030BD01460020B1F5806F03D26FF47C10AB
:1028800000EA811070470000014606481029C08800
:1028900006D24FF4707220F4707002EA811108437E
:1028A000704700008800002010B502460024012374
:1028B0000549B02000F052FF0449087008B90248E9
:1028C0000478204610BD00009D0000209C000020E0
:1028D00010B50246002402230749B02000F03EFF55
:1028E0000649087028B904484178007801EB0020B7
:1028F00084B2204610BD00009D0000209C000020F6
:10290000064B10B55870000A18700A460223034996
:10291000B02001F025F80249087010BDA500002084
:102920009C00002010B5294C0020E07020716081CF
:10293000E080208120706070FF20A0700120FFF7F0
:10294000A3FF40F480500221FFF7DAFF01F089FB7A
:1029500001F087FB01F085FB01F083FB01F081FBB7
:1029600001F07FFB4FF44870FFF783FF0821FFF76A
:10297000C7FF01F076FB01F074FB01F072FB01F080
:1029800070FB01F06EFB01F06CFB01F06AFB0220B2
:10299000FFF79EFF00F47070E0800820FFF798FFBB
:1029A00020F03F0020810E20FFF77EFF00F01F0087
:1029B00020700D20FFF778FF00F00F00A070372087
:1029C000FFF772FF00F01F00607010BD880000204C
:1029D00070B506460846FDF7C5FE04460D4630466E
:1029E000FDF7C0FE0122FDF734FE22462B46FDF71F
:1029F000C1FDFDF7F3FEBDE8704004F03CBB70473D
:102A00002DE9FE4F994998484FF6FF728862803051
:102A10000024C8620290CC638C634C630C638C65A9
:102A2000CC6408460C644788A14616460197CB46FD
:102A3000B24680885D465346009067E037F8020B47
:102A4000DCF83010CCF828700144CCF83010854206
:102A500000D20546834200D9034637F8021BDCF852
:102A60003480BE468844CCF83480CCF828708C4240
:102A700000D20C468A4200D90A46DFF8F0C1BEF8FF
:102A80000070DCF838C0BB4507EB0C08DFF8DCC190
:102A9000CCF83880DFF8D4810EF1020CE646C8F895
:102AA00028C000D2BB46BA4500D9BA46DFF8BCC13F
:102AB000BEF80070DCF83CC0B94507EB0C08DFF845
:102AC000ACC1CCF83C80DFF8A4810EF1020CC8F850
:102AD00028C000D2B946BE4200D93E46DDF804C047
:102AE000624FA0EB0C00DDF800C0A1EB0C01D7F8A1
:102AF00040C000FB11CCC7F840C0D7F84CC000FB69
:102B000000C0F864B86D01FB0100B865DFF85CC176
:102B10000298DCF82870874290D360460189C76B21
:102B2000C1EB1711076F39440167C1F30F21018110
:102B3000C188876BC1EB1711C76E3944C166C1F3F9
:102B40000F21C1800099476BC1EB1711876E394483
:102B50008166C1F30F2181800199076BC1EB1711C9
:102B6000476E39444166C1F30F214180016CCF1794
:102B700001EB1771476CC7EB2111876C3944CF17F4
:102B8000816401EB176109124164C16CCF1701EB3D
:102B90001771076DC7EB2111476D3944CF17416598
:102BA00001EB176109120165816DCF1701EB1771F8
:102BB000C76DC7EB2111076E3944CF17016601EBD2
:102BC00017610912C16500F18001078AD1F800C0C0
:102BD000A9EB070767440F60C7F30F270782B0F818
:102BE0000EC0ABEB0C07D0F87CC06744C767C7F3D7
:102BF0000F27C7818789D0F878C0E71B67448767AC
:102C0000C7F30F2787814789D0F874C0EF1B67444B
:102C10004767C7F30F274781078BF61B0F693E44B1
:102C20000E61C6F30F260683C78AAAEB0706CF6894
:102C30003E44CE60C6F30F26C682868A8F68961BF6
:102C40003E448E60C6F30F268682468A4F689E1BDE
:102C50003E444E60C6F30F214182E91A4183A11A16
:102C60008183BDE8FE8F0000200300200C010020BE
:102C70002DE9FE4F994998484FF6FF7288628030DF
:102C80000024C8620290CC638C634C630C638C6537
:102C9000CC6408460C644788A14616460197CB468B
:102CA000B24680885D465346009067E037F8020BD5
:102CB000DCF83010CCF828700144CCF83010854294
:102CC00000D20546834200D9034637F8021BDCF8E0
:102CD0003480BE468844CCF83480CCF828708C42CE
:102CE00000D20C468A4200D90A46DFF8F0C1BEF88D
:102CF0000070DCF838C0BB4507EB0C08DFF8DCC11E
:102D0000CCF83880DFF8D4810EF1020CE646C8F822
:102D100028C000D2BB46BA4500D9BA46DFF8BCC1CC
:102D2000BEF80070DCF83CC0B94507EB0C08DFF8D2
:102D3000ACC1CCF83C80DFF8A4810EF1020CC8F8DD
:102D400028C000D2B946BE4200D93E46DDF804C0D4
:102D5000624FA0EB0C00DDF800C0A1EB0C01D7F82E
:102D600040C000FB11CCC7F840C0D7F84CC000FBF6
:102D700000C0F864B86D01FB0100B865DFF85CC104
:102D80000298DCF82870874290D360460189C76BAF
:102D9000C1EB1711076F39440167C1F30F2101819E
:102DA000C188876BC1EB1711C76E3944C166C1F387
:102DB0000F21C1800099476BC1EB1711876E394411
:102DC0008166C1F30F2181800199076BC1EB171157
:102DD000476E39444166C1F30F214180016CCF1722
:102DE00001EB1771476CC7EB2111876C3944CF1782
:102DF000816401EB176109124164C16CCF1701EBCB
:102E00001771076DC7EB2111476D3944CF17416525
:102E100001EB176109120165816DCF1701EB177185
:102E2000C76DC7EB2111076E3944CF17016601EB5F
:102E300017610912C16500F18001078AD1F800C04D
:102E4000A9EB070767440F60C7F30F270782B0F8A5
:102E50000EC0ABEB0C07D0F87CC06744C767C7F364
:102E60000F27C7818789D0F878C0E71B6744876739
:102E7000C7F30F2787814789D0F874C0EF1B6744D9
:102E80004767C7F30F274781078BF61B0F693E443F
:102E90000E61C6F30F260683C78AAAEB0706CF6822
:102EA0003E44CE60C6F30F26C682868A8F68961B84
:102EB0003E448E60C6F30F268682468A4F689E1B6C
:102EC0003E444E60C6F30F214182E91A4183A11AA4
:102ED0008183BDE8FE8F0000A00300200C010020CC
:102EE0002DE9F047564D95F9000018B1401E2870A5
:102EF000BDE8F0876889698A401AFDF7CFFB514A1F
:102F0000514BFDF7C5FAFDF769FC504C2060A889CC
:102F1000A98A401AFDF7C2FB4D4A4E4BFDF7B8FA9D
:102F2000FDF75CFCA060686CFDF7B8FB4A4A4B4BB0
:102F3000FDF7AEFAFDF752FC2061286DFDF7A0FB0E
:102F4000DFF8FCA081460AF1800A5646CAF8140050
:102F5000286AFDF707FC074688464846FDF702FC4D
:102F600004F062F83A464346FDF792FAFDF736FC64
:102F700060607069FDF7F6FB394A3A4BFDF788FA55
:102F8000FDF72CFC7061686AFDF7ECFB06460F4606
:102F9000E86DFDF775FBFDF7E5FB04F045F83246FB
:102FA0003B46FDF775FAFDF719FCE06062680146E3
:102FB0001046FDF750F90546606120690146FDF7AE
:102FC0004AF9064629460846FDF745F93146FDF718
:102FD0003CF9FDF7C7FB04F027F8FDF7FFFBA06104
:102FE00081462148E168214F214E4FF07D588142B2
:102FF00024DD6068FDF765F920F0004020621D487F
:103000002569854215DBDAF8140029460646FDF7E6
:1030100058F920F00040A06249463046FDF751F9CA
:1030200020F00040606229464846FDF74AF9E06119
:103030005EE7C4F81C80C4E9096759E72662F8E72F
:103040000C0100203D99DA26D5F5BB3F2004002075
:1030500093E146707E97323F728115F1E725303F4C
:10306000AC5791D10149B83F0AD7233C0060EA46EA
:1030700000401C47CDCCCC3D2DE9F0479AB04FF431
:10308000004000F0FBFF0121032001F001F80121C5
:1030900040F6056001F020F80F20ADF86000A34D68
:1030A00000248DF8634018A9284600F06BF901212F
:1030B0009F4800F0B3F901219E4800F0AFF90121CB
:1030C000102001F009F83F21ADF860108DF8634041
:1030D00018A9284600F056F9DFF85C824046FDF753
:1030E000BFFD964D2846FDF7BBFD0120FDF7A8FE6C
:1030F0000B208DF8400001268DF841608DF842408C
:103100008DF8436010A800F03DFF12208DF84000BC
:103110008DF841408DF842408DF8436010A800F0D2
:1031200031FF11A802F02AFA48F6A040ADF8480095
:103130000227DFF80CA2ADF84470ADF84A40ADF8B4
:10314000464011A9504602F0CBF96020ADF850007E
:103150007F20ADF85600ADF85260ADF8587014A954
:10316000504602F04BF9DFF8DC914846FFF7EAFAE7
:10317000714805A94C3005907348CDE906044020FC
:10318000CDE9080480200A9080000B9080000C900C
:1031900020200D900002CDE90E044846FFF74CFBBD
:1031A000012206214846FFF73FFB01214846FFF771
:1031B000BDFA300400904FF44020CDE902048DF8B0
:1031C00004608DF805408DF8107069464046FDF7A3
:1031D000A1FD0023012219464046FDF7ECFD022225
:1031E000002311464046FDF7E6FD03214046FDF76A
:1031F000DAFD01231A460A214046FDF7AFFD0123FF
:1032000002220D214046FDF7A9FD012303221121D1
:103210004046FDF7A3FD4FF4805949464046FDF76F
:1032200055FD01214046FDF747FD01224FF4906115
:103230004046FDF766FD01214046FDF707FD0121EF
:103240004046FDF72FFD4FF4C02000904FF4602062
:10325000CDE902048DF804608DF805408DF81070FA
:1032600069462846FDF756FD0122002311462846EF
:10327000FDF7A1FD0023022203212846FDF79BFD57
:1032800003212846FDF78FFD01231A460B2128460E
:10329000FDF764FD012302220E212846FDF75EFDA5
:1032A000012303220F212846FDF758FD49462846F1
:1032B000FDF70CFD01212846FDF7FEFC0121284603
:1032C000FDF7F0FC0121504601F0E0FE01215046DF
:1032D00001F0E6FE01214046FDF7AEFC4046FDF759
:1032E000A4FD44462046FDF705FD0028FAD12046FE
:1032F000FDF7A0FD2046FDF7EFFC0028FAD10121E3
:103300002846FDF799FC2846FDF78FFD2846FDF776
:10331000F1FC0028FAD12846FDF78CFD2846FDF780
:10332000DBFC0028FAD11AB0BDE8F087001001409C
:10333000040020000001300000240140002801406A
:10334000002C0140080002402003002010B501F0CD
:103350000FFE01F06FFEBDE81040FFF78DBE0000CC
:103360004FF4F571B0F57A7F05D00449B1FBF0F068
:10337000A0EB901081B202480180704720A10700A5
:103380002C340140F0B5CC78002204F00F03E406A1
:1033900001D58C7823430C784FF00F0C4FF0010EC1
:1033A000DCB105680E880EFA02F42640A64210D160
:1033B00096000CFA06F725EA070703FA06F5CE7819
:1033C0003D43282E02D0482E02D002E0446100E0A6
:1033D0000461521C082AE5D305600A88FF2A1CD91B
:1033E0004468002202F108060EFA06F50E882E4007
:1033F000AE420ED196000CFA06F7BC4303FA06F76C
:10340000CE783C43282E00D14561CE78482E00D19D
:103410000561521C082AE5D34460F0BDF0B5144C98
:10342000002801DAE36900E06368450D2E0185B2EA
:10343000C0F30157B540C0F30342032F05D0C602C5
:103440000AD503269640B34307E023F07062636811
:1034500023F07063636002E0AB4343F0706201B13C
:103460002A43002801DAE261F0BD6260F0BD00008D
:1034700000000140416170470161704738B501218A
:10348000102000F029FE4FF44064ADF80040022007
:103490008DF802001020064D8DF80300694628467D
:1034A000FFF770FF21462846FFF7E4FF38BD000014
:1034B00000100140254810B5016841F0807101609D
:1034C000234800244460016841F001010160214665
:1034D000C00300F093FD4FF4806000F085FD1D48AF
:1034E0004FF47A710068B0FBF1F0B0F1807F2BD21D
:1034F00020F07F414FF0E020491E4161134AF02146
:10350000D93A1170846107210161FFF7B7FF00F01C
:103510001DFAFFF707FAFEF779FA012000F056FED0
:10352000612000F03BFE0028FAD045F2555000F033
:103530007DFB032000F06EFB4FF49C7000F070FBED
:10354000BDE8104000F05EBBFEE70000FCED00E0CF
:10355000001000E07400002070B53B4D2878C007D3
:1035600071D000F083F800F0D3F800202870A8781C
:10357000364C6178884204D0A8786070FEF740F934
:103580002873E878A178884203D0E878A070FEF725
:103590001BF92879E178884206D02879E07000EBA1
:1035A00080004000FEF7FAF868782178884203D05E
:1035B00068782070FEF712F995F9060094F9051065
:1035C000884204D0A879607140B2FEF78FF995F96E
:1035D000070094F90610884204D0E879A07140B23F
:1035E000FEF748F995F9080094F90710884204D0CD
:1035F000287AE07140B2FEF723F995F9050094F9B5
:103600000410884204D06879207140B2FEF7FEF8B9
:103610000E4808222C46691C0830FCF7B7FD00282C
:1036200011D00A48617808300170A1784170E178C2
:1036300081702179C17061790171A1794171E1795C
:103640008171217AC17170BDBC0200204E00002042
:1036500010B50021044801F0B3F80C2001F0B8F8CF
:10366000BDE8104001F050B8DD36000870B5174DC8
:10367000174C286910F1FF4F02D2FDF746F800E021
:103680000020A07213488069FDF73FF8607212486D
:10369000017AA174417AE174817A2175C07A6075EA
:1036A000A869FDF732F8E072607860732079A07342
:1036B0002079E073E0782074FDF79AFF00B1A078DC
:1036C0002073FDF789FF607470BD000020040020A6
:1036D000BC02002004030020D20200200A490A781C
:1036E0000A4842708A7902710A79C2708A788270B7
:1036F0000A7A42714A7A82718A7AC271C97A0172EF
:103700000121017070470000D2020020BC0200209D
:103710000F48827A0F494A70427A0A70C27A8A70D8
:10372000427B0A71827B4A71C27B8A71037C427C34
:1037300002B180221343CB71027BCA70827C0A7271
:10374000C27C4A72027D8A72407DC8727047000056
:10375000BC020020DF020020FEE700002DE9FF4F41
:1037600081B04FF6FF771C4693460D464FF4003864
:10377000524E009703E00098411E009168B1414607
:10378000304600F0B7F90028F5D10121B0463046A7
:1037900000F09CF94A4E009707E0012005B0BDE813
:1037A000F08F0098411E0091F0B33146404600F082
:1037B00061F90028F5D00022C1464046019900F089
:1037C0000EFAB8460097DFF8FCA04F4603E00098D9
:1037D000411E009148B35146384600F04BF900288D
:1037E000F5D00121384600F051F95946384600F02D
:1037F000FEF9DFF8D090CDF8008009F1020903E06E
:103800000098411E009198B14946384600F032F9BF
:103810000028F5D00121B946384600F057F947464F
:10382000CDF80080B04601E017E028E04E4605E004
:103830000420B3E70098411E009170B14146304624
:1038400000F018F90028F5D001223046019900F067
:10385000C6F900971A4F7F1C05E005209EE70098E7
:10386000411E009158B13946304600F003F9002856
:10387000F5D0134F3F37D4B1012C02D009E0062018
:103880008CE70021304600F0EBF80121304600F0D3
:1038900027F93946304600F0EDF80028EBD03046E5
:1038A00000F09AF9641E05F8010BA4B2E3E70121C8
:1038B000304600F0D5F8002070E7000000580040C6
:1038C000010003008200070010B586B00121082026
:1038D00000F002FC0121082000F0FEFB0121880518
:1038E00000F0E2FB4FF44060ADF8100003208DF8CB
:1038F00012001C208DF8130004A91148FFF742FDA7
:10390000104C204600F0CCF80121204600F0BEF813
:103910000021ADF804104BF6FF71ADF80610FF2141
:10392000ADF808102015ADF80A000001ADF80C0044
:10393000054800906946204600F0F2F806B010BD38
:10394000000C014000580040A086010010B5FFF7B0
:10395000BBFF02490020087010BD0000AD00002030
:103960002DE9F84F4FF6FF771C4692460D468146EB
:103970004FF40036DFF8D880009703E00098411E2E
:10398000009170B13146404600F0B4F80028F5D1FE
:10399000304E0121304600F099F8DFF8BC800097E6
:1039A00006E00120BDE8F88F0098411E009170B13B
:1039B0004146304600F05EF80028F5D00022494626
:1039C000304600F00CF9DFF89480009705E0052000
:1039D000E8E70098411E009170B14146304600F082
:1039E00049F80028F5D05146304600F000F9B846B5
:1039F00000971A4FBF1C05E00620D3E70098411E30
:103A0000009118B33946304600F034F80028F5D05C
:103A100011E02978304600F0EAF86D1CCDF80080FE
:103A200003E00098411E009180B13946304600F015
:103A300021F80028F5D02000A4F10104E4B2E8D177
:103A40000121304600F04CF80020ABE70820A9E740
:103A500000540040005800400100030082000700AD
:103A60000029018802D041F4806101E021F48061E5
:103A700001807047034600209A8A1B8B42EA03426A
:103A800022F07F42914300D1012070470029018834
:103A900002D041F0010101E021F0010101807047F5
:103AA000094910B588424FF0010101D14C0501E0F0
:103AB0004FF48004204600F003FB2046BDE8104090
:103AC000002100F0FDBA00000054004000290188E8
:103AD00002D041F4807101E021F4807101807047CF
:103AE0000029018802D041F4007101E021F4007145
:103AF000018070470CB50246002000920A0F21F0A9
:103B00007F41019202D0009A143202E0009A090C1F
:103B10001832009212680A4200D001200CBD000049
:103B200070B50446808886B00D4620F03F06684692
:103B300000F0EAFA26490298B0FBF1F189B20E438F
:103B4000A680228822F001022280224B2A689A4213
:103B50001CD85200B0FBF2F080B2042800D204203E
:103B6000491C2184A083208840F001002080208807
:103B70004FF6F5310840A9886A8911430143218035
:103B8000A88929890843208106B070BDEB88A3F578
:103B90003F46FF3E05D102EB4202B0FBF2F080B29D
:103BA00008E002EBC20303EB0212B0FBF2F080B2BA
:103BB00040F48040020501D140F001004FF49672BC
:103BC00051434FF47A72B1FBF2F140F40040C7E781
:103BD00040420F00A0860100008AC0B2704712B1B7
:103BE00041F0010101E001F0FE0101827047018214
:103BF0007047000002494CF6CC4008607047000056
:103C00000030004002494AF6AA20086070470000D0
:103C1000003000400149486070470000003000401B
:103C20000149886070470000003000400149086089
:103C3000704700000030004070B524494869B0F179
:103C40007E5F06DA142222492248FCF78DFA002012
:103C500070BD214A904207DA1D49142214311D48D3
:103C6000FCF782FA012070BD1C48CC69844207DD54
:103C70001749142250311748FCF776FA042070BD1A
:103C80001349B4F17C5F4FF0140219DD3C31114847
:103C9000FCF76AFA2046FCF765FD0022104BFCF7A2
:103CA000F7FB0C4E04460D467068FCF75BFD2B4697
:103CB0002246FCF7E7FBFCF791FD7060032070BD26
:103CC00028310448FCF750FA022070BD200400207F
:103CD000B0700008D00100200000A0400000C040EB
:103CE000000018402DE9FF47694C608808B1401E6C
:103CF00060802078012590B101282BD0042827D19D
:103D000064480088400523D560680A2190FBF1F2E1
:103D1000A14601FB1200604C00286AD096E0002109
:103D20000846FDF71FFE05206080FEF7BFFC2570EA
:103D30005AA000905AA366A26749462003F0CEF825
:103D400056A0009065A362A26349472003F0C6F81D
:103D5000BDE8FF8760880028FAD1FDF739FFFEF73C
:103D6000B5FC614E20B3012819D00228F0D14BA038
:103D700000905EA356A258495C2003F0AFF8F068AB
:103D800040F48060F060F06820F40060F06000F0C3
:103D9000BBFE96206080FEF789FC2570D8E7F068AE
:103DA00080F48060F060F06880F40060F060CFE73D
:103DB000F06840F40060F060F06820F48060F0602B
:103DC00036A0009051A342A24349562003F086F842
:103DD00032A0009051A33EA23F49572003F07EF845
:103DE0000420207004B00021BDE8F0470620FDF754
:103DF000B9BD2AA000904BA335A237496C2003F02F
:103E00006DF8E068FCF7AEFC074688466068FCF792
:103E1000A9FC05460E462068FCF7A4FC8DE8E001ED
:103E200002460B4641A002F067FB47480069FCF7D9
:103E300099FC054645480E460068FCF793FCCDE921
:103E4000005602460B4642A002F056FB13A000901B
:103E500043A31FA22049702003F040F8A069FCF79B
:103E600081FC074688462069FCF77CFC05460E4627
:103E70006069FCF777FC8DE8E00102460B4639A04B
:103E800002F03AFBD9F80410491CC9F804105FE7A6
:103E90001C000020C40000202004002000000000BE
:103EA00053595354454D3A20524643312C46573AC4
:103EB000312E30306135302D50322C4253503A3152
:103EC0002E30302D48573133333145310D0000004D
:103ED0006C6F6769632E63001D7100084449414798
:103EE0004E4F535449430D0000100140444941478F
:103EF0004E4F535449433A204552524F522C205270
:103F0000657472696E672E2E0D00000044494147AA
:103F10004E4F535449433A204F4B0D0052554E4E8D
:103F200049470D004F55543A0000000020563D25EA
:103F3000342E31662C56653D25342E31662C49656C
:103F40003D25352E32662C00040300202800002079
:103F5000543D25332E30662C25332E30660D00005F
:103F6000503D000025342E31662C2825342E316634
:103F70002C6A25342E3166290D0000007047FEE7BB
:103F80007047000070B50F23C278017801244FF00C
:103F9000E025DAB1124A126802F4E062C2F5E0628A
:103FA000120AC2F10406D3404278B24086781E401D
:103FB0000C4B16433201CA54007800F01F018C40AC
:103FC000400905EB8000C0F8004170BD01F01F0002
:103FD0008440480905EB8000C0F8804170BD0000B6
:103FE0000CED00E000E400E00249084302490860EB
:103FF000704700000000FA050CED00E0024A114095
:10400000014302480160704780FFFF1F08ED00E098
:1040100010B540210548FDF779F9411C05D001464E
:10402000BDE810400148FDF79AB910BD2C020020F0
:1040300008B504A0009004A305A208491C2002F0C2
:104040004DFF08BD0000000052454144590D0000DD
:104050007061727365722E63000000003671000893
:10406000704700214FF448720020401C9042FCD35E
:10407000491CC9B20429F7D370470000034A5168AC
:1040800021F440410143516070470000001002409C
:10409000044A0029516901D0014300E08143516184
:1040A0007047000000100240044A0029D16901D085
:1040B000014300E08143D1617047000000100240DD
:1040C000044A0029116901D0014300E081431161D4
:1040D0007047000000100240044A0029916901D095
:1040E000014300E0814391617047000000100240ED
:1040F000044A0029D16801D0014300E08143D16026
:10410000704700000010024030B5204A5168204B33
:1041100011F00C0103D0042901D0082901D003605B
:1041200012E05168536801F470114FF0020413F467
:10413000803F04EB914102D053689B0301D5154B9E
:1041400000E0134B5943016051680F2303EA11113A
:10415000114B5C5C0168E14041605468072505EA49
:1041600014241C5D21FA04F48460546805EAD42404
:104170001B5DD940C1605268032303EA9232064BAB
:104180001B1F9A5CB1FBF2F1016130BD00100240CF
:1041900000127A0000093D00620000200346002062
:1041A0005909094A01290AD002290AD0516A03F0A3
:1041B0001F02012393400B4200D001207047116879
:1041C000F5E7116AF3E700000010024001490860BA
:1041D000704700008004424238B501210820FFF7F3
:1041E0007BFF0420ADF8000001208DF802001020B4
:1041F000054C8DF8030069462046FFF7C3F80421FB
:104200002046FFF739F938BD000C014070B5084A67
:10421000084C30B1012504211046FFF72DF9257017
:1042200070BD04211046FFF725F90020207070BDF5
:10423000000C0140E400002010B5FFF7CDFFBDE801
:1042400010400120FFF7E2BF2DE9F05F324D334807
:10425000A9880180EF8847802E8986806A89C2807C
:104260009046AA8902819146EA894281934608468E
:10427000FCF725FA00222A4BFCF70AF9FCF7AEFA04
:10428000264C82460C3420603846FCF718FA2A780F
:1042900012B1244A244B02E04FF0FF32234BFCF7CB
:1042A000F7F8FCF79BFA054660603046FCF707FA22
:1042B0001F4F4FF0663632463B46FCF7E9F8FCF7F5
:1042C0008DFAA0604046FCF7FAF932463B46FCF70F
:1042D000DFF8FCF783FAE0604846FCF7F0F90022CB
:1042E000144BFCF7D5F8FCF779FA20615846FCF737
:1042F000E6F932463B46FCF7CBF8FCF76FFA606113
:1043000029465046FBF7A7FFA06110F1FF4F01D3EC
:104310000020A061BDE8F09FE4000020F80200202A
:1043200000A0943FDBB66DDBB66D6F3FFFFF373FFC
:1043300066664A3F00A0B43FF0B553480068544950
:1043400086B25248068009688DB24F494580091DE2
:1043500009688CB24E498480091D09688BB24C49AA
:10436000C380083109688AB2474902810831096867
:104370004FF0000C89B2418146484788CFB1012FE8
:1043800016D14778002F4DD080F801C08680C580B7
:1043900004814381828136012D012401C1811B01E9
:1043A00012030903C0E90821C0E90643C0E9046516
:1043B000F0BD477867B180F801C08680C580048170
:1043C0004381828136022D022402C1811B02E7E76C
:1043D0008788F61B07693E440661C788C6F30F2627
:1043E000ED1B47693D4445610789C5F30F25E41B73
:1043F00087693C4484614789C4F30F24DB1BC76988
:104400003B44C3618789C3F30F23D21B076A3A4435
:104410000262C789C91B476A394441628680C580E8
:10442000048128E08788F61B07693E440661C78837
:10443000C6F30F16ED1B47693D4445610789C5F377
:104440000F15E41B87693C4484614789C4F30F144A
:10445000DB1BC7693B44C3618789C3F30F13D21BBE
:10446000076A3A440262C789C91B476A39444162F4
:104470008680C58004814381C2F30F328281C1F3FB
:104480000F31C181F0BD00003C240140EC0200204E
:104490003C280140E4000020014901204870704799
:1044A000E400002070B51A4C2069FCF75BF9194A4A
:1044B000194BFCF75FF8FCF73CF980B201F0D0F93A
:1044C000A068FCF74FF9154A154BFCF753F8FCF7B9
:1044D00030F986B26068FCF745F9124A124BFCF7D6
:1044E00049F8FCF726F985B2E068FCF73BF90F4A7A
:1044F0000F4BFCF73FF8FCF71CF980B23246294617
:10450000FCF7ACFCBDE870400020FCF711BD0000DA
:10451000AC01002083C0CAA145B6B33F93E1467009
:104520007E97323F3D99DA26D5F5BB3F95EFBB65C7
:10453000A63E803F044903480A68C0F806208988DF
:104540004181704700000020A870000803494868B6
:1045500008B100F0B9B9088800F090B994000020C3
:1045600030B587B0012141F20400FFF7B5FDA0206E
:10457000ADF8140001248DF8164018208DF81700AE
:1045800005A91B48FEF7FEFE01210820FFF7A4FD48
:104590000225ADF814508DF8164010208DF8170044
:1045A00005A91448FEF7EEFE0020ADF800004FF418
:1045B0008271ADF80210E102ADF80410ADF8080008
:1045C0008910ADF80A103021ADF80C10ADF80E00CE
:1045D0000720094CADF81000ADF80650694620469A
:1045E00000F01FF90121204600F0FAF807B030BDB5
:1045F00000080140000C01400030014010B5FFF7F9
:10460000AFFF04494FF47A700880BDE8104000F015
:1046100035B900009400002070B50E4C05462068A6
:1046200020F0020020600C4E0221304600F0E2F83B
:104630000028F9D029463546304600F0F0F88021B0
:10464000284600F0D7F80128F9D0206840F0020091
:10465000206070BD0C0C01400030014009494879D0
:10466000401C48714879052803D100200870087162
:10467000C8704879FA2803D901204870052048718C
:1046800070470000B000002070B51B4C002565711C
:1046900065701A4E304600F0C0F8194922788854E7
:1046A000E1780844E0702078411C2170A1788842AC
:1046B00006D1E078A0B1802060702570E57025718A
:1046C0000F4821780D30415C227911442171217805
:1046D000A278914209D12079C043401C81B206E002
:1046E000A0680028E9D08047E7E72178415C3046A0
:1046F000BDE8704000F093B8B000002000380040E2
:10470000D2020020FFF7C0BFF0B587B000F0A5F8D7
:1047100001218C032046FFF7C7FC01210C20FFF785
:10472000DBFC4FF42040ADF8140003208DF8160098
:10473000204F04268DF8176005A93846FEF722FEA3
:10474000ADF8144018258DF8175005A93846FEF726
:1047500019FEA010ADF814008DF8176005A93846B1
:10476000FEF710FE00240120ADF80800ADF80C5053
:104770000720114DADF80040ADF80440ADF8100031
:10478000ADF80240ADF80640ADF80A40ADF80E4075
:104790006946284600F045F801226021284600F0CD
:1047A00030F80121284600F01BF8044804704471D9
:1047B00007B0F0BD000C014000380040B000002000
:1047C00072B6024AC2E9020162B67047B000002028
:1047D00072B60249887062B670470000B0000020CF
:1047E0000029018802D041F0400101E021F04001A0
:1047F000018070470246002012890A4200D0012041
:104800007047090901238B40002A828899B201D0A0
:104810000A4300E08A438280704780897047818123
:10482000704730B502884C8802F441530A88CD881D
:1048300022438C882C4322430C8922434C892243F7
:104840008C892243CC8922431A430280828B22F432
:1048500000628283098A018230BD08B524208DF868
:10486000000000208DF801008DF8020001208DF875
:1048700003006846FFF786FB08BD000070B51149CC
:104880004FF4404500FB01F42846FFF7C5FE200E1B
:1048900000F54C50FFF7C0FEC4F3074000F5085088
:1048A000FFF7BAFEC4F3072000F54450FFF7B4FE4B
:1048B000E0B200F50050FFF7AFFE2846BDE87040BB
:1048C000FFF7AABE179F020070B504464FF440459B
:1048D0002846FFF7A1FE200E00F54C50FFF79CFE86
:1048E000C4F3074000F50850FFF796FEC4F3072015
:1048F00000F54450FFF790FEE0B200F50050FFF7DE
:104900008BFE2846BDE87040FFF786BE2DE9FC47C8
:104910003D4C608808B1401E608000F013F93B49AF
:1049200060683B4D884208DD2078022805D228695E
:10493000E06000F0E9F80220207020780126A8B39A
:10494000DFF8D090012822D002283ED003281CD1C5
:10495000E068FBF707FF00222F4BFBF793FD0746AC
:1049600088462869FBF7FEFE3A464346FBF70EFFF2
:1049700002D32969494502DA00F0CEF82670608832
:10498000002802D100F0C8F82670BDE8FC8729692C
:10499000494503DA00F072F8002020701F492869A9
:1049A0008842F2DDBDE8FC4700F0AEB81C4928693A
:1049B000884202DD00F06AF826701A4928698842A8
:1049C000E3DABDE8FC4700F0A7B800F05FF816A0F6
:1049D000009016A319A21D49B02002F07FFA2869A1
:1049E000FBF7C0FE05460E466068FBF7BBFECDE94F
:1049F000005602460B4616A001F07EFD03202070F3
:104A00003C206080C1E700002400002000000C432F
:104A100004030020000020420000144000009642E1
:104A200000003442000024420000000050524F5465
:104A3000454354494F4E3A2000000000737570659D
:104A4000727669736F722E63000000002771000890
:104A5000544A204F76657274656D70202825352E76
:104A60003266292C2054433D25352E32660D000038
:104A70000149002008707047240000204FF40051C5
:104A80000148FEF7F7BC0000001001404FF4005150
:104A90000148FEF7F1BC000000100140F8B501210B
:104AA0001020FFF719FB4FF40055ADF80050012618
:104AB000134F8DF8026010248DF803406946384684
:104AC000FEF760FC29463846FEF7D4FC012104209D
:104AD000FFF702FB2501ADF800508DF802608DF85C
:104AE0000340084C69462046FEF74CFC2946204608
:104AF000FEF7C0FC00F010F8FFF7C0FFF8BD0000A3
:104B000000100140000801404FF480710148FEF799
:104B1000B1BC0000000801404FF480710148FEF76D
:104B2000ABBC00000008014040F6FF71034A884218
:104B300001D210807047118070470000C80000202B
:104B4000704700002DE9F0411B4DD5E90001FBF74E
:104B500082FB1A490969FBF778FB194C064620616C
:104B60002869FBF7FFFD05460F463046FBF7FAFDC7
:104B7000144A154BFBF78CFC2A463B46FBF7E1FB3E
:104B8000FBF72CFEA060FBF7EDFD05460E466068C6
:104B9000FBF7E8FD00220D4BFBF77AFC2A46334673
:104BA000FBF7CFFB6FF00102FBF753FDFBF716FE9F
:104BB0006060BDE8F08100000403002020040020B4
:104BC00024000020CDCCCCCCCCCCDC3F0000084075
:104BD0000CB50022264800920192016841F4803110
:104BE00001604FF4A063016801F400310191009964
:104BF000491C0091019911B900999942F3D10168BA
:104C0000890333D5012101911A490A6842F0100243
:104C10000A600A6822F003020A600A6842F002028F
:104C20000A604168416041684160416841F48061C7
:104C30004160416821F47C114160416841F4E81110
:104C40004160016841F08071016001688901FCD513
:104C5000416821F003014160416841F00201416077
:104C60004168C1F381010229FAD10CBD01920CBD4A
:104C7000001002400020024010B5044601462422E4
:104C80000548FBF771FA05496069496CFBF7E3FADF
:104C90000149486110BD0000AC010020E401002082
:104CA00010B5014614220748FBF75EFA05491422A5
:104CB00001F11400FBF758FA024901203431086071
:104CC00010BD00006C02002010B5FCF797FEBDE897
:104CD0001040FFF7C3BC00000F4810B5016841F059
:104CE0000101016041680D4A1140416001680C4AB0
:104CF00011400160016821F480210160416821F4C4
:104D0000FE0141604FF41F018160FFF761FF05491B
:104D10004FF00060086010BD001002400000FFF876
:104D2000FFFFF6FE08ED00E070B5048C24F00104EE
:104D30000484058B048C4FF6FF7606EA03131343B5
:104D400025F0F3050E4A2B4390420ED00D4A9042B7
:104D50000BD0B0F1804F08D00B4A904205D00B4ADF
:104D6000904202D00A4A904202D124F0020201E0AD
:104D700024F00A020A4342F001010383018470BD5A
:104D8000002C0140003401400004004000080040B5
:104D9000000C0040F0B5048C24F010040484078B50
:104DA000048C4FF6FF7527F4734705EA03333B4342
:104DB00005EA02221A43114B05EA011698420ED069
:104DC0000F4B98420BD0B0F1804F08D00D4B98425A
:104DD00005D00D4B984202D00C4B984205D124F0DF
:104DE0002001314341F0100104E024F0A0030B4303
:104DF00043F0100102830184F0BD0000002C01404B
:104E0000003401400004004000080040000C004055
:104E1000704770472DE9F04188B001210420FFF769
:104E200043F9DFF8D880404600F046F93448354968
:104E30000024006840F6FE77B0FBF1F03249401ED6
:104E40000880ADF81470ADF81040ADF81640ADF81C
:104E5000124004A9404600F043FB60254FF448701F
:104E6000ADF800500126ADF80600ADF80260ADF8CF
:104E700008406946404600F0EDF90821404600F040
:104E800029FAADF80050ADF80260ADF80670ADF843
:104E900008406946404600F023FA0821404600F0E9
:104EA0005FFAADF80050ADF80260ADF80670ADF8ED
:104EB00008406946404600F05DFA0821404600F08F
:104EC00097FA40F6D860ADF80050ADF80600ADF89E
:104ED0000260ADF808406946404600F08FFA0821AC
:104EE000404600F0BDFA0121404600F0C5F801211E
:104EF000404600F0CBF808B0BDE8F0810008004063
:104F00007400002000366E01C600002070470000CB
:104F10000648074A41881180121D81881180121DA0
:104F2000C1881180111D008908807047C6000020CB
:104F30003408004010B5FFF76DFFBDE8104000F0E9
:104F400001B8000008B501210820FFF7C5F84FF4AB
:104F50007070ADF8000018208DF8030003208DF864
:104F6000020069460148FEF70DFA08BD000C014039
:104F700070B5012188B04803FFF7AEF82C4E3046DB
:104F800000F09AF84FF4F5700024ADF81400ADF875
:104F90001040ADF81640ADF8124004A9304600F0BC
:104FA0009FFA00231A461946304600F03DF90023C7
:104FB0000A224021304600F07BFA6020ADF8000064
:104FC0000A200125ADF80600ADF80250ADF8084002
:104FD0006946304600F084F90021304600F0C0F9FF
:104FE0003020ADF80000FA20ADF80600ADF8025010
:104FF000ADF808406946304600F0BCF90021304663
:1050000000F0F6F90021304600F03AFA502130461F
:1050100000F03EFA0721304600F042FA0121304606
:1050200000F03EF80121304600F030F808B070BDC5
:105030000034014038B501211020FFF74DF8402021
:10504000ADF8000004200B4C8DF8030069462046A3
:10505000FEF798F94FF4C071ADF8001018218DF8E3
:10506000031003218DF8021069462046FEF78AF9E5
:1050700038BD0000001001400029018802D041F035
:10508000800101E021F08001018070470029018842
:1050900002D041F0010101E021F0010101807047DF
:1050A000002930F8441F02D041F4004101E0C1F36F
:1050B0000E010180704700004B4910B5884202D1B3
:1050C0000121C41486E0B0F1804F09D047498842DD
:1050D0000DD101210220FEF7F3FF0021022064E040
:1050E00001210846FEF7ECFF002101205DE0404968
:1050F000884206D101210420FEF7E2FF00210420AE
:1051000053E03C49884206D101210820FEF7D8FF30
:105110000021082049E03849884206D101211020A9
:10512000FEF7CEFF002110203FE03449884206D12F
:1051300001212020FEF7C4FF0021202035E0304966
:10514000884202D10121441444E02E49884202D110
:105150000121CC043EE02C49884202D101210C05FA
:1051600038E02A49884202D101214C0532E0284921
:10517000884206D101214020FEF7A2FF00214020F5
:1051800013E02449884206D101218020FEF798FFD0
:105190000021802009E0204988420AD1841501219C
:1051A0002046FEF78DFF00212046BDE81040FEF7A7
:1051B00087BF1A49884202D101210C040AE018492C
:1051C000884202D101214C0404E0164988420AD1E8
:1051D00001218C042046FEF78BFF2046BDE81040DD
:1051E0000021FEF785BF10BD002C014000040040E7
:1051F00000080040000C0040001000400014004077
:1052000000340140004C0140005001400054014076
:1052100000180040001C00400020004000400140F9
:10522000004401400048014010B5044600F005F874
:10523000208940F07700208110BD30B504894FF6F9
:10524000FF7505EA03231343E4B20B4323430381B1
:1052500030BD000030B5028C22F001020284028CC5
:105260008388048B22F0020224F073050C882C43FF
:105270000D8915434A882A43114DA8420BD0114D80
:10528000A84208D0104DA84205D0104DA84202D027
:105290000F4DA8420DD122F008054A8923F440732E
:1052A0002A4322F004058A882A438D891D43CB892D
:1052B0002B4383800483C9888186028430BD00002B
:1052C000002C0140003401400040014000440140F6
:1052D00000480140028B22F008020A430283704713
:1052E00070B5028C22F010020284028C8388048B39
:1052F0000D8824F4E6464FF6FF7404EA052535438D
:105300000E8922F0200204EA061616434A8804EAAF
:1053100002123243104EB04202D0104EB04215D1AC
:1053200022F080064A8923F4406304EA02123243E1
:1053300022F040068A8804EA021232438E8904EA87
:1053400086061E43CB8904EA8303334383800583A7
:10535000C9880187028470BD002C014000340140DF
:10536000028B4FF6FF7322F4006203EA012111431E
:105370000183704770B5028C22F480720284028C23
:105380008388848B0D8824F0730425430E894FF69F
:10539000FF7422F4007204EA062616434A8804EADF
:1053A00002223243104EB04202D0104EB04215D10C
:1053B00022F400664A8923F4405304EA022232436D
:1053C00022F480668A8804EA022232438E8904EA43
:1053D00006161E43CB8904EA031333438380858377
:1053E000C9888187028470BD002C014000340140CF
:1053F000828B22F008020A438283704770B5028CC8
:1054000022F480520284058C8288838B0C8823F4DA
:10541000E6464FF6FF7303EA0424344325F40056AE
:105420000D8903EA053535434E8803EA06362E43D7
:10543000094DA84202D0094DA84205D122F4804569
:105440008A8903EA82122A4382808483C988A0F869
:105450004010068470BD0000002C01400034014063
:10546000828B4FF6FF7322F4006203EA012111439D
:1054700081837047028922F070020A4302817047DB
:10548000028822F00802028002880A4302807047E4
:10549000828822F07002828082880A43828070476C
:1054A000028922F00702028102890A4302817047C1
:1054B00070B516460D46602904464FF0010231468C
:1054C0000AD0FFF731FC29462046FFF7D3FF208999
:1054D00040F00700208170BDFFF75CFCF3E700009F
:1054E00030B502881B4C1C4DA0420DD0A8420BD0F9
:1054F000B0F1804F08D0194B984205D0184B984214
:1055000002D0184B984203D122F070034A881A4304
:10551000154B984206D0154B984203D022F44073A5
:10552000CA881A4302808A8882850A880285A04236
:105530000AD0A84208D00E4A904205D00D4A9042A7
:1055400002D00D4A904201D1097A0186012181825F
:1055500030BD0000002C0140003401400004004038
:1055600000080040000C0040001000400014004003
:105570000040014000440140004801404FF6FF71E7
:10558000818000210180C180418001727047704795
:1055900038B54FF40070ADF8000003208DF802001C
:1055A0001820094C8DF8030069462046FDF7EAFEF5
:1055B0002115ADF8001004218DF80310694620462E
:1055C000FDF7E0FE38BD00000008014008B52520C9
:1055D0008DF8000000208DF801008DF802000120F8
:1055E0008DF803006846FEF7CDFC08BD0148008831
:1055F00070470000D20000202DE9F0411B4C40F222
:1056000025573946204600F094F8194D78B1218885
:105610002046AE1C71800021218000F01BF93080F3
:10562000A86800B180473946204600F06BF8082191
:10563000204600F077F830B1204600F00BF93946EB
:10564000204600F05FF840F227763146204600F011
:1056500070F8002808D0EA6802B190473146204629
:10566000BDE8F04100F04EB8BDE8F08100380140DF
:10567000D0000020024640F22771014800F078B8BF
:10568000003801401FB501218803FEF725FD0121E7
:105690000420FEF721FDFFF799FFFFF779FF4FF494
:1056A000E13000900020ADF80400ADF80600ADF840
:1056B0000800ADF80C000C20084CADF80A00694653
:1056C000204600F06DF80121204600F021F801226B
:1056D00040F22551204600F04BF81FBD0038014034
:1056E0000249C0F3080008807047000004380140F8
:1056F00072B6024AC2E9020162B67047D0000020C9
:10570000704770470A0A01219140C94301807047E0
:105710000029818902D041F4005101E021F40051B7
:10572000818170470246002012880A4200D0012081
:10573000704770B501F01F0501260024C1F3421324
:1057400006FA05F2012B0FD0022B0FD0838A4FEA05
:1057500011210088134206FA01F600EA060001D082
:1057600000B10124204670BD8389F0E7038AEEE78B
:1057700010B5C1F3421301F01F040121A140012B18
:1057800007D0022B07D01430002A026805D00A4344
:1057900004E00C30F8E71030F6E78A43026010BDF1
:1057A00030B50446008A85B00D464CF6FF710840BE
:1057B000E98801432182A0894EF6F3110840A988A7
:1057C0002A8911436A8902431143A181A08A4FF6B5
:1057D000FF410840A9890143A1826846FEF794FC75
:1057E0001B48844201D1039800E00298A189090472
:1057F000002900EBC00101EB0010296802DA4FEA32
:10580000410101E04FEA8101B0FBF1F06422B0FBFD
:10581000F2F14FEA01114FEA11136FF018056B43D3
:1058200000EB8300A3891D044FF0320306D503EB80
:10583000C000B0FBF2F000F0070005E003EB001041
:10584000B0FBF2F000F00F000843208105B030BD3E
:10585000003801408088C0F3080070477047FEE7B9
:105860002DE9F0411E491D4D1E4E09886C881E4FC2
:10587000DFF87880814221D9081AFAF70FFF324603
:105880003B46FAF705FE00224346FAF701FEFAF717
:1058900050FF80B2A04201D3002001E0201A80B264
:1058A0004FF420616880884200D969804FF4A0716C
:1058B000884200D269800020BDE8F081401AFAF7E2
:1058C000EDFE32463B46FAF7E3FD00224346FAF787
:1058D000DFFDFAF72EFF2044E1E70000060000207C
:1058E0002401002083C0CAA145B6B33F0000184080
:1058F00010B500EB8100FAF7E2FE104A104BFAF700
:10590000C7FD104A104BFAF7C0FDFAF767FF0F49C1
:10591000884201DD084602E00D4988420DDDFAF7B4
:1059200021FF0C4A0C4BFAF7B3FD00220B4BFAF7A0
:1059300008FDBDE81040FAF751BF10BD4E062E2CF1
:105940000B683A3FC3F5285C8FC222400000F0404C
:1059500000004040F2D24D621058E53F0000F03F99
:105960002DE9F05F7D4CE08808B1401EE0807C4F5F
:105970002178DFF8F08178787B4E4FF0010A4FF004
:1059800000094FF0040BA7F11405884214D048B168
:10599000FF2814D184F804907448FFF76DF9734818
:1059A0006C3007E0714884F804B02438FFF764F9DC
:1059B0006E488030FFF774F97878FF280BD0207993
:1059C000012871D0032870D0042878D04FF0030844
:1059D000052823D1A6E0207940B14FF0020B012821
:1059E00013D002283DD0032818D160E0A96830699F
:1059F000FAF71AFF71D22968F069FAF70BFF6CD237
:105A00005A4884F804A0243099E0E9683069FAF72C
:105A100001FF04D284F804B03220E0809AE0696883
:105A2000F069FAF701FFF5D3DFF844917868494649
:105A3000FAF711FCC8F80C00454648467169FAF7B8
:105A400004FC10F1FF4F01D3002002E04946FAF7B1
:105A500038FC4849FAF7FFFB4749FAF7A4FB2861ED
:105A600078E0B0462968F069FAF7D4FE16D2D5E995
:105A70000201FAF798FBFAF775FE4FF0FF32FAF7DA
:105A8000E8FD05460E46D8F81000FAF76BFE2A46E8
:105A90003346FAF78FFE01D284F804A0E088F8B903
:105AA00084F8049031484AE01BE04BE007E084F8BA
:105AB00004902E48FFF7E0F82C486C3048E0A968C5
:105AC0003069FAF7B1FE08D22968F069FAF7A2FE48
:105AD00003D284F804A03DE0FFE72969C8F8041068
