:020000040800F2
:10000000A808002045010008293D00080135000826
:10001000273D0008E1110008DF550008000000003E
:10002000000000000000000000000000E948000897
:10003000FF27000800000000093E0008494A0008A8
:100040005F0100085F0100085F0100085F01000810
:100050005F0100085F0100085F0100085F01000800
:100060005F0100085F0100085F010008D924000853
:100070005F0100085F0100085F0100085F010008E0
:100080005F0100085F010008E10B00085F01000844
:10009000DD5500085F0100085F0100085F010008EE
:1000A0005F0100085F0100085F0100085F010008B0
:1000B000914B0008934B00088D4C00085F0100082D
:1000C0005F0100085F0100085F0100085F01000890
:1000D000AD44000879530008815400088354000897
:1000E0005F0100085F0100085F0100085F01000870
:1000F0005F0100085F0100085F0100085F01000860
:100100005F0100085F0100085F0100085F0100084F
:100110000F5300085F0100085F0100085F0100083D
:100120005F0100085F0100085F0100085F0100082F
:10013000DFF80CD000F014FD00480047F96A000811
:10014000A80800200648804706480047FEE7FEE76B
:10015000FEE7FEE7FEE7FEE7FEE7FEE7FEE7FEE777
:10016000594A00083101000840EA01039B0703D007
:1001700009E008C9121F08C0042AFAD203E011F8E6
:10018000013B00F8013B521EF9D2704730B50446DE
:100190000020034600E05B1C934203D2E05CCD5C90
:1001A000401BF8D030BDF0B480EA0102D40F420009
:1001B000B2EB410F02D20246084611464A0042D035
:1001C000C30DDDB2C1F3C752AD1A202D35DAC1F32C
:1001D000160141F4000204B15242C5F1200602FAB0
:1001E00006F12A411044B3EBD05F23D0C4B1012DF6
:1001F000A0EBC35009DCF0BC4FF0004202EAC3524E
:1002000000F50000DBB200F086BB400000F180701A
:1002100000EBC350A0F1807040EAD170490009E0C2
:10022000490841EAC071A0EBC35000F50000400846
:1002300000EBC350F0BC00F065BB6142012202EB51
:100240004101001BF6E7F0BC704781F00041AAE7CE
:1002500080F00040A7E780EA010210B502F00043F9
:10026000400026D04A0023D04FEA106101EB126112
:10027000C0F35600C2F3560240F4000042F40002FC
:10028000A0FB0220A1F17F014FEA0040140401D03D
:1002900000F1010050EA124001D44000491EC2B2F0
:1002A0000C0604EBD010401C4008802A02D003E06A
:1002B000002010BD20F00100002900DA00201843C2
:1002C00010BD30B480EA010202F0004530F0004277
:1002D00021F0004015D0A0B1C0F3C753C2F3C754FA
:1002E000C2F31601C0F31600E41A41F4000140F411
:1002F00000027D34914201D3641C00E04900002CCF
:1003000002DA30BC002070474FF400000023914215
:1003100001D3891A034340084FEA4101F7D151B193
:10032000914202D14FF0004105E002D24FF00101AD
:1003300001E06FF0010103EBC450284430BC00F031
:10034000E1BA2DE9FE4F804681EA0300C00F0C465A
:10035000009021F0004123F00045B8EB0200A941D4
:1003600005D24046214690461C460B46024623F0E5
:100370000040104304D14046214603B0BDE8F08F51
:10038000270DC7F30A00C3F30A510290401A0190E7
:10039000402866DAC3F3130040F4801B00989246AD
:1003A00020B10023D2EB030A63EB0B0B01985946F3
:1003B000C0F14002504600F074FA06460D46504621
:1003C0005946019A00F08CFA10EB080061410024B4
:1003D00087EA115284EAE7731A433BD0009A3AB392
:1003E000019A012A4FEA075210DC001B61EB02015F
:1003F0004FF0004202EA0752CDE90042001C41F5ED
:10040000801132462B4600F0EFFAB6E7001B61EB95
:100410000201001C41F5801300185B412018A2F571
:10042000001747EB030140EAD570B6196D4111E0A2
:100430006D084FEA360645EAC0754FEA0752001BC1
:1004400061EB0201001C41F5801149084FEA3000C0
:100450000019514132462B4603B0BDE8F04F00F081
:10046000B6BA0098012240000023D0EB020263EBF1
:10047000E073009821464FEAE074B8EB000061EBAE
:100480000401E9E783F000435BE781F0004158E7AE
:100490002DE9FE4F81EA030404F0004421F00041FD
:1004A00000944FF0000B23F0004350EA010402D007
:1004B00052EA030404D10020014603B0BDE8F08FE6
:1004C000C3F30A54C1F30A552C44A4F2F334019443
:1004D000A0FB0254C1F3130141F48011C3F31303D1
:1004E00043F4801301FB024400FB034E840A970A85
:1004F00044EA815447EA8357A4FB076802958D0AB2
:1005000005FB07854FEA932C04FB0C542705029D3D
:100510004FEA065847EA1637B5EB08056EEB070CAD
:10052000870E920E47EA811742EA8312A7FB020167
:10053000B6EB0B0164EB00042B0D43EA0C335E18A1
:1005400044EB1C50DA465146E7FB0201C5F31304A5
:100550004FEA0B3343EA14534FEA0432019C43EA57
:100560000603A4F10C040294009CCDE900B400F051
:100570003BFAA2E72DE9F04D81EA030404F0004BB9
:1005800021F0004514464FF0000A23F0004150EAE4
:10059000050220D054EA01021DD0C5F30A570246D5
:1005A000C5F31303C1F31300C1F30A5640F48015D9
:1005B00043F48013A7EB0608101BD64608F2FD385B
:1005C00073EB050002D308F1010801E092185B41CA
:1005D000B8F1000F03DA00200146BDE8F08D0020DD
:1005E0004FF48011064684460EE0171B73EB050797
:1005F00005D3121B63EB050306434CEA010C4908C3
:100600004FEA300092185B4150EA0107EDD152EAFF
:10061000030012D082EA040083EA0501084303D1F3
:1006200000224FF0004308E0101BAB4102D2012230
:10063000002302E06FF0010253101AEB06004CEBAE
:10064000085110EB0A0041EB0B01BDE8F04D00F042
:10065000BEB970B521F0004303430CD0C1F30A5575
:100660000024D5EB040564EB0403D617AD1AB3419F
:1006700002DB0020014670BD201841EB025170BD25
:10068000C10F80EAE0700844CA079623002100F0F9
:1006900042B996230022114600F03DB90EB5C10FB4
:1006A00080EAE0700844CA07002140F233438DE835
:1006B0000E000A460B4600F097F903B000BD0EB5D8
:1006C00040F2334102910021CDE900110A460B4668
:1006D00000F08AF903B000BD00F0004220F00040B5
:1006E000C10DC0F3160040F400007F2901DA00209C
:1006F0007047962903DCC1F19601C84001E09639A4
:100700008840002AF4D04042704720F00040C10DDC
:10071000C0F3160040F400007F2901DA0020704782
:10072000962903DCC1F19601C8407047963988408C
:100730007047C1F30A5210B5C1F3130140F2FF3301
:1007400041F480119A4201DA002010BD40F2334397
:100750009A42A2F2334203DC524200F0B1F810BDDB
:10076000904010BD00F0004230F000400AD0C10DB2
:1007700001F56071C0F3160042EA0151C20840075A
:1007800011437047002001467047000030B5002932
:1007900004DB4FF00044404264EB0101002B04DB1A
:1007A0004FF00044524264EB03038B4208BF824285
:1007B00030BD000030B5002904DB4FF0004440425A
:1007C00064EB0101002B04DB4FF00044524264EB68
:1007D0000303994208BF904230BD000001F000437E
:1007E00030B421F0004150EA010206D00A0DA2F512
:1007F0006072C1F31301002A02DC30BC0020704794
:10080000440F44EAC104C100E01830BC00EBC25000
:1008100000F078B830B50B460146002020220124B4
:1008200009E021FA02F59D4205D303FA02F5491BBE
:1008300004FA02F52844151EA2F10102F1DC30BDD4
:100840002DE9F05F0546002092469B468846064605
:10085000814640241BE0284641464746224600F098
:100860002FF853465A46C01A914110D311461846E4
:10087000224600F016F82D1A67EB01084F46224673
:100880000120002100F00DF817EB00094E41201E59
:10089000A4F10104DFDC484631462A464346BDE860
:1008A000F09F202A04DB203A00FA02F10020704772
:1008B0009140C2F1200320FA03F31943904070479E
:1008C000202A04DB203A21FA02F00021704721FAA5
:1008D00002F3D040C2F1200291400843194670470C
:1008E000202A06DBCB17203A41FA02F043EAE073F4
:1008F00006E041FA02F3D040C2F1200291400843E1
:10090000194670470029A8BF7047401C490008BF1E
:1009100020F00100704710B4B0FA80FC00FA0CF02F
:1009200050EA010404BF10BC704749B1CCF1200467
:1009300021FA04F411FA0CF118BF012121430843F4
:10094000A3EB0C01CB1D0106000A002BBEBF00204B
:1009500010BC704700EBC35010440029A4BF10BC6A
:100960007047401C490008BF20F0010010BC7047D0
:10097000F0B4002802DCF0BC00207047C0F3C7517F
:10098000C0F3160040F40000CA0701D14000491E20
:100990003F2202EB6105002211464FF4000626FAC1
:1009A00001F31344D418844201D8001B1A464000B6
:1009B000491C1729F3DD5100814202D24FF0FF316B
:1009C00000E0002102EBC550F0BCFFF79BBF10B563
:1009D000002B08DA401C41F1000192185B411A43D8
:1009E00001D120F0010010BD2DE9F04D92469B464B
:1009F00011B1B1FA81F202E0B0FA80F220329046F1
:100A0000FFF74FFF04460F4640EA0A0041EA0B0198
:100A100053465A46084303D120463946BDE8F08D77
:100A2000114653EA010015D0C8F140025046FFF7C5
:100A300047FF05460E46504659464246FFF731FFEE
:100A4000084301D0012000E00020054346EAE0769B
:100A50002C4337430A984FEA4453A0EB08004FEA6F
:100A6000D4240A304FF0000244EA47544FEAD72515
:100A700002D500200146D1E7010510196941DDE9E1
:100A8000084500196941BDE8F04DA0E72DE9F04D9A
:100A900000231A461B1A8A4103DB00200146BDE8E9
:100AA000F08DC1F30A52C1F3130141F480154FF0E8
:100AB000000BD10702D100186D41521E00270446D9
:100AC00040F2FF11384601EB620A3E46804602467C
:100AD00000204FF48011FFF7F3FEC2197141BB18DB
:100AE00046EB0100B4EB030C75EB000C04D3E41AE5
:100AF00065EB000517460E46241908F101006D410B
:100B000080463428E3DDF91946EB0600091BA841AD
:100B100003D24FF0FF32134601E0002213461BEBD5
:100B2000070046EB0A51BDE8F04DFFF750BFC1F397
:100B30000A52C1F3130140F2FF3341F480119A428B
:100B400002DA00200146704740F233439A42A2F293
:100B5000334202DC5242FFF7B3BEFFF7A2BE0000F1
:100B6000064C074D06E0E06840F0010394E80700FA
:100B700098471034AC42F6D3FFF7DEFA9C700008B9
:100B8000BC70000870B501EB020410F8015B15F0B1
:100B9000070301D110F8013B2A1106D110F8012BEF
:100BA00003E010F8016B01F8016B5B1EF9D12B0714
:100BB00005D40023521E0FD401F8013BFAE710F8C8
:100BC000013B02F10202A1EB030303E013F8015B16
:100BD00001F8015B521EF9D5A142D6D3002070BDA9
:100BE00010B5084C0421204600F069F8002808D010
:100BF00003F076FA2046BDE810404FF4906100F013
:100C000003B810BD002401406FEA11210160704754
:100C10000029816802D041F0010101E021F00101C9
:100C2000816070470029816802D041F4807101E041
:100C300021F48071816070470D4910B5884202D15E
:100C4000012144150AE00B49884202D10121041513
:100C500004E0094988420AD10121CC03204603F06F
:100C60001BF92046BDE81040002103F015B910BD66
:100C70000024014000280140003C01400029816817
:100C800002D041F4801101E021F4801181607047AD
:100C90000029816802D041F4004101E021F40041C3
:100CA00081607047826822F4E0420A4382607047A4
:100CB000014600208968490700D501207047024697
:100CC000002012680A4200D001207047014600202F
:100CD0008968090700D501207047002A4268C9B217
:100CE00001D00A4300E08A434260704710B5426871
:100CF0000E4B0C791A400B6842EA042213434360FE
:100D000082680B4B1A40D1E9024323434C7942EAF3
:100D1000440213438360C26A097C22F47002491EB4
:100D2000C9B242EA0151C16210BD0000FFFEF0FFEE
:100D3000FDF7F1FF70B5072609290AD9C568A1F1A9
:100D40000A0404EB4404A640B543A3401D43C56018
:100D500007E0056901EB4104A640B543A3401D43EC
:100D60000561836BC3F30154121B921C02EB8202D8
:100D70001F249440A34391400B43836370BD826B57
:100D8000491E22F4401242EA01518163704770B556
:100D9000072609290AD9C568A1F10A0404EB44040D
:100DA000A640B543A3401D43C56007E0056901EBBC
:100DB0004104A640B543A3401D4305611F23072AF4
:100DC00009D2446B521E02EB820293409C43914035
:100DD0000C43446370BD0D2A09D2046BD21F02EB91
:100DE000820293409C4391400C43046370BDC46AEB
:100DF0000D3A02EB820293409C4391400C43C46243
:100E000070BD816841F0080181607047816841F0E0
:100E1000040181607047000005490028086802D07D
:100E200040F4000001E020F400000860704700007A
:100E3000082401402DE9F04184462148224C0388D2
:100E4000204824880088061B204C03FB06F007126C
:100E5000258800208B4200DD581A964201DDB11A28
:100E6000084428B9A7EB0C00C11700EB1170001162
:100E7000174E002808DDFFF703FC316AFFF7EBF996
:100E8000FFF743FC28440DE04042FFF7F9FBF1690E
:100E9000FFF7E1F9FFF739FC80B2A84201D3002047
:100EA00001E0281A80B240F6AC512080884203D875
:100EB0004FF44871884200D221800020BDE8F081C3
:100EC000260100201801002020010020060000203B
:100ED000AC01002070B506460846FFF743FC054606
:100EE0000C463046FFF73EFC0122FFF7B2FB2A46D4
:100EF0002346FFF73FFB2A462346FFF73BFBBDE8AF
:100F00007040FFF76BBC00002DE9F0471E4D014615
:100F10002888A0F6AC50444200D500240846FFF7CC
:100F2000AFFB8146194E1A4831690068FFF78DF909
:100F3000DFF86080D8F81810FFF78DF907462046D3
:100F4000FFF79EFBD8F81410FFF785F93946FFF735
:100F50002AF94946FFF727F9FFF7BEFB00B24FF425
:100F60004871884202DC0C49884200DA0846716800
:100F700008440549891F002800DC00204880A8801B
:100F80000020BDE8F087000006000020E4010020FA
:100F900028000020AC01002088FAFFFF10B50020D7
:100FA00000F054FC054C01466088814205D000F0F9
:100FB000ABF8002000F04AFC608010BDE00000208B
:100FC00030B585B000F036FC0121480702F040FF43
:100FD0003C200024CDE90104039401A92046049497
:100FE00000F040FC0121002000F018FC40F6B21196
:100FF000002000F04BFC0121002000F051FC0020FB
:1010000000F024FC124948800121042002F038FF3E
:101010001025ADF800508DF8034069460D4802F0E8
:10102000B1F80121102002F02BFF6C01ADF8004057
:1010300001208DF802008DF80350074D69462846BF
:1010400002F0A0F82146284602F016F905B030BD9E
:10105000E0000020000801400010014010B503F03E
:1010600029FEFFF7ADFF002000F084F840F6FF7482
:10107000204600F049F8204600F092F82046BDE8EE
:10108000104000F09DB8000010B50E4C20B14FF498
:101090000060E080401008E00A48C288008909B179
:1010A000111800E0111AE18040082081E08800F06A
:1010B00077F803F0EDFD208908B1002010BD012074
:1010C00010BD00000C00002010B50E4C20B14FF4F4
:1010D00000606081401008E00A484289808909B1B7
:1010E000111800E0111A61814008A081608900F0A8
:1010F00067F803F0CDFDA08908B1002010BD0120E4
:1011000010BD00000C00002010B5B0F5805F01D2CA
:10111000014601E040F6FF71002000F0B7FB01211D
:10112000002000F0BDFB002000F090FB014948804A
:1011300010BD0000E000002010B50D4C20B14FF4B0
:1011400000606080401008E009484288808809B14A
:10115000111800E0111A61804008A0806088FFF734
:10116000D3FFA08808B1002010BD012010BD0000F1
:101170000C000020084A094B4FF4007128B10128E7
:1011800008D11070184602F075B80020107018468B
:1011900002F072B870470000E0000020001001402B
:1011A00040F6FF720449904201D2088000E00A80B4
:1011B0000888024908807047CA00002038080040AB
:1011C00040F6FF720449904201D2088000E00A8094
:1011D0000888024908807047CC0000203C08004085
:1011E000FEE700000E4810B5002101774022426161
:1011F000826140F8801C40F87C1C40F8781C40F864
:10120000741C017441748174C17481770D2141771C
:101210000449054804F02CF9BDE8104004F0F2B888
:1012200088040020791200082D12000810B504F07F
:101230009DF81049C0B291F89D2032B191F89D20DF
:10124000824202D1012281F89E204A68D1F894306E
:10125000521C5B1E1A400B689A420AD04B68054A22
:10126000103298544868D1F89420401C521E104007
:10127000486010BD0804002010B50D4CA068E1685E
:1012800088420DD0A16804F15000085C04F0E8F831
:10129000A068D4F89810401C491E0840A06010BDFA
:1012A000002084F89C00BDE8104004F0A3B80000C2
:1012B0000804002010B505F06FFB10B14FF0FF30AF
:1012C00010BD074B196803F11000085C1968D3F8CA
:1012D0009420491CB1FBF2F402FB1411196010BDFB
:1012E00008040020F0B5114A05460E4692F89D000C
:1012F0000024631E10B192F89E0010B105F04CFB63
:1013000008B11846F0BD72B6002782F89E7001E061
:1013100005F8010BFFF7CEFF411C03D02146641CEA
:10132000B142F5DB62B62F702046F0BD0804002004
:10133000012105F077BB2DE9F04100240F46064658
:101340004D1E04E0305D002105F06CFB641CAC42D6
:10135000F8DBF019012110F8010C05F063FB002007
:10136000BDE8F0810F4810B50078082819D2DFE8F1
:1013700000F01818041818180C08BDE8104000F008
:1013800061B8BDE8104000F011B800F027F9064838
:101390000078022801D102F059FFBDE8104000F0AA
:1013A000B5B910BD00000020AC01002070B502F0FE
:1013B00017FB1B4C2069FFF7D5F91A4A1A4BFFF7A8
:1013C000D9F8FFF7B6F980B204F00AF9A068FFF780
:1013D000C9F9164A164BFFF7CDF8FFF7AAF986B2FE
:1013E0006068FFF7BFF9134A134BFFF7C3F8FFF725
:1013F000A0F985B2E068FFF7B5F9104A104BFFF786
:10140000B9F8FFF796F980B232462946FFF712FD88
:101410000020FFF779FDBDE8704000F077B90000CB
:10142000AC01002083C0CAA145B6B33F93E146702A
:101430007E97323F3D99DA26D5F5BB3F95EFBB65E8
:10144000A63E803F2DE9F04102F0CAFA474C04283D
:101450004ED804F12405464E68784649012806D046
:10146000022804D003280FD0042849D11BE0888823
:10147000FFF70FF96968FEF7EEFE3146FEF721FF30
:101480006060E868E0602EE08888FFF702F9A968EC
:10149000FEF7E1FE3146FEF714FFA060E868E06069
:1014A0006868606021E088880746FFF7F2F88046A8
:1014B000E968FEF7D0FE3146FEF703FFE06087B132
:1014C00040466968FEF7C7FEFFF74CF900222A4B39
:1014D000FFF750F80022294BFEF733FFFFF77EF9A4
:1014E00000E000206060A868A0602869206107E033
:1014F00023486060234820612348A0602348E060BF
:101500002069FFF72FF9224A224BFFF733F8FFF744
:1015100010F980B204F064F8A068FFF723F91E4ABE
:101520001E4BFFF727F8FFF704F986B26068FFF754
:1015300019F91B4A1B4BFFF71DF8FFF7FAF885B2A4
:10154000E068FFF70FF9184A184BFFF713F8FFF799
:10155000F0F880B232462946FFF76CFC0020FFF716
:10156000D3FCBDE8F04100F0D1B80000AC01002090
:101570000000C84200000020000059400000544014
:101580000000A042000020413333333F0000A0415F
:1015900083C0CAA145B6B33F93E146707E97323F00
:1015A0003D99DA26D5F5BB3F95EFBB65A63E803F5A
:1015B00004480079012803D0052801D00020704795
:1015C000012070473800002003480079052801D029
:1015D00000207047012070473800002010B502F04D
:1015E000FFF91548416811F0FF4F07D00078062831
:1015F00020D2DFE800F01F0B0F13171B0F49032049
:101600000871BDE810400E4803F00ABABDE810406A
:1016100004F04ABCBDE8104004F044B9BDE81040F5
:1016200004F05EB8BDE8104004F0D6BABDE8104042
:1016300004F01ABA10BD00006C020020380000202F
:10164000F46C00080A480078062810D2DFE800F0A1
:10165000030507090B0D04F0ABBA04F01BBD04F041
:10166000F9B904F015B904F015BC04F097BA704745
:101670006C02002010B50021084600F09BF80648D7
:10168000044941614FF07F5181610449C1610449BE
:10169000016210BDCDCC4CBDAC010020CDCC4C3D89
:1016A000CDCCCC3D07480649416007490161074957
:1016B00081600749C16007490020888070470000A9
:1016C0000000A042AC010020000020413333333F32
:1016D0000000A0410000002007480649416007497A
:1016E0000161074981600749C1600749002088807E
:1016F000704700000000A042AC0100200000204123
:101700003333333F0000A0410000002010B50C4CE3
:10171000208800F0D9F800F0D1F8B0F5487F01D268
:10172000012000E00020FFF725FD608803F0D0F8DD
:10173000A088FFF7E9FCBDE8104003F0A9BA00005B
:101740000600002009490A8982420ED0088140B172
:101750004FF49671884202D38900884203D9084623
:1017600001E04FF47A7000F0C5B870476C020020B9
:1017700003490A78824202D00870FFF763BF7047BE
:101780006C020020054910B58880FEF782FF0449ED
:10179000FEF797FD0349486010BD000000000020DF
:1017A0000000C8426C0200200149487000207047C8
:1017B0006C02002010B504000ED0022C04D0062CC0
:1017C00008D0072C08D102E0FFF786FF04E0FFF7FE
:1017D00069FF01E0FFF736FF0148047010BD00000B
:1017E0000000002072B6044908884A8842408A8076
:1017F000488062B670470000C0000020024801889F
:10180000491C018070470000C000002002480021F0
:101810000180418081807047C0000020044B01227C
:101820008240186809B1104300E090431860704787
:101830000074004010B501214C07204602F014FB53
:101840002046BDE81040002102F00EBB044908B557
:1018500001EB90002C300090006880B208BD0000C1
:101860000074004030B5084C236840F6FE72824098
:101870009343D1E900252A43D1E902510D432A437C
:1018800082401A43226030BD00740040034A08B50C
:10189000104408300090016008BD00000074004052
:1018A0000209054B012090400029196801D001432D
:1018B00000E08143196070470474004001480088CB
:1018C00070470000CE00002040F6FF71044A8842B5
:1018D00002D2108001207047118000207047000064
:1018E000CE00002010B502F005FDBDE8104003F069
:1018F000CFB900000149088001F032BC94000020FB
:1019000038B50121042002F0BBFA4020ADF80000F8
:1019100001208DF802001020054C8DF80300694667
:10192000204601F02FFC4021204601F0A3FC38BDE9
:101930000008014010B502F035FD03F0BBF900F0DE
:1019400021F800F005F8BDE81040FFF7D9BF00000E
:1019500038B50121082002F093FA2020ADF80000EC
:1019600001208DF802001020054C8DF80300694617
:10197000204601F007FC2021204601F07BFC38BD09
:10198000000C014038B50121082002F079FA10203E
:10199000ADF8000001218DF80210064C8DF803000F
:1019A0006946204601F0EEFB1021204601F062FC62
:1019B00038BD0000000C0140044840F63C71C0886E
:1019C000884201D90220704701207047B4020020EC
:1019D0002DE9F84FFE4CE08908B1401EE0816078A7
:1019E000DFF8F0A3DFF8F0B302250D26DFF8EC8373
:1019F000FB4F4FF005090E283CD2DFE800F0073D11
:101A00007194CDF7F6F5F4F3F2F1F0EFF5A0009054
:101A1000F5A3F8A2F949CB2005F038F8DAF80C1054
:101A200041F48061CAF80C1001252570ABF8005014
:101A300002F006FC02F044FF40F6D860FFF744FFD6
:101A40000020FFF797FB4FF4C86002F041FF40F61B
:101A5000FF763046FFF758FB3046FFF7A1FB3046D4
:101A6000FFF7AEFB002002F0A5FA03F011F90A20FF
:101A7000E0816570BDE8F88FE0890028FAD1D8F8D8
:101A800010003861FEF76EFE02460B46DCA004F043
:101A90000BFBD4A00090DDA3D6A2D849E32004F02C
:101AA000F5FFDD49D8F80000DC4A014491420DD22F
:101AB0006570D8F804100122C7E90501ABF80020D1
:101AC000FEF750FE02460B46D5A0FDE3FEF74AFEA8
:101AD00002460B46D6A004F0E7FA02F0E9FE1FE04A
:101AE000D849B869884215DCFEF73CFE02460B4631
:101AF000D5A004F0D9FABBA00090D6A3BDA2BF49DF
:101B0000F92004F0C3FF0320607000210120FFF7DB
:101B100013FB3EE0FEF726FE02460B46D0A082E015
:101B200025706670A6E7E0890028A3D102F060FA6C
:101B3000BB46B869FEF716FE0122FEF78AFDCD4AC4
:101B4000CD4BFEF7FEFB07468A46D8F80400FEF7A9
:101B500009FE53463A46FEF72DFE01D2012100E070
:101B600000210020FFF7E8FA98B1C44840F6B732E8
:101B70000188CBF80410A1F2F510904201D20420A4
:101B800080E0BFA004F090FA40F6FF70FFF7BCFAC7
:101B90007CE0A4F80E906DE702F02AFA9048806984
:101BA000FEF7E0FD0122FEF754FDB24AB94BFEF705
:101BB000C8FB82468B464746D8F80400FEF7D2FDA4
:101BC00052465B46FEF7E2FD786827D2FEF7CAFD73
:101BD000834D0B4602466E68314608E0C3E3A7E238
:101BE00068E21DE2E1E1BEE08EE052E01EE0AAA064
:101BF00004F05AFA7868E8617AA00090ACA37DA25C
:101C00007E4940F2271004F041FF4D4684F80190D0
:101C100000210120FFF738FAE5812BE7FEF7A2FD4E
:101C200002460B46A6A004F03FFA79E7E0890028B7
:101C3000B1D102F0DDF9BB46F869FEF793FD4FF034
:101C40003332A44BFEF77DFB07468A46D8F80400E2
:101C5000FEF788FD3A465346FEF7ACFD01D201215E
:101C600000E000210020FFF70FFA002891D09A48E9
:101C700040F647520188ABF80C10A1F16500904284
:101C800002D206206070F5E694A0BBE16670257074
:101C9000F0E602F0ADF95248C069FEF763FD944AE0
:101CA000944BFEF74EFB82468B464746D8F804001D
:101CB000FEF758FD52465B46FEF768FD78681DD278
:101CC000474DA862FEF74EFDAD8902460B462946F8
:101CD00089A004F0E9F940F6FF70FFF761FA41A02E
:101CE00000908DA343A245494FF4AC7004F0CEFEA2
:101CF00000210120FFF7E8F90720C6E1FEF732FDD9
:101D000002460B4688A0C7E1E089002885D102F091
:101D10006FF93348C069FEF725FD4FF033326D4B44
:101D2000FEF70FFB07468B46D8F80400FEF71AFDB6
:101D30005B463A46FEF73EFD01D2012100E000215C
:101D40000020FFF7C1F9002890D07D4840F64752A7
:101D500001882348C181A1F16500904201D2082089
:101D600090E778A0D4E102F043F91D48C069FEF77E
:101D7000F9FC5F4A5F4BFEF7E4FA83460091474661
:101D8000D8F80400FEF7EEFC5A46009BFEF7FEFC76
:101D900078681BD2124DE862FEF7E4FCED8902463A
:101DA0000B4629466CA004F07FF940F6FF70FFF760
:101DB00007FA0CA0009070A30EA210494FF4C77050
:101DC00004F064FE092060700021DDE0E0E0000026
:101DD0000C00002000100140E6000020C00200209E
:101DE000E4010020000000005445535420494E49AE
:101DF000543A0000646961672E630000C46C0008F7
:101E00002054303D25352E32660D00005445535484
:101E100020564241523A0000FFFF4BBEFFFF170021
:101E2000204F4B2056423D25352E326600000000E3
:101E3000204552524F522056423D25352E32660DD6
:101E4000000000000AD7A33C2C2049423D25362E35
:101E500034660D005445535420424941533A000022
:101E60002C204552524F522049423D25362E346691
:101E70000D0000007B14AE47E17A843FE2000020B1
:101E8000204552524F5220564441433D2534640D63
:101E900000000000E17AA43F204F4B20564441430C
:101EA0003D25642C2049423D25362E34660D000028
:101EB0005445535420424941535F4D31413A00004B
:101EC000204552524F522049423D25362E34660D50
:101ED000000000003333E33FCA0000202045525287
:101EE0004F522050574D5F4731413D2534640D001E
:101EF000CDCCCCCCCCCCE43F204F4B2050574D5FC9
:101F00004731413D25642C2049445F4D313D253604
:101F10002E34660D000000005445535420424941C0
:101F2000535F4D32413A0000204552524F522049F2
:101F3000445F4D31413D25362E34660D00000000D2
:101F4000CC000020204552524F522050574D5F4741
:101F500032413D2534640D00204F4B2050574D5FDA
:101F60004732413D25642C2049445F4D323D2536A2
:101F70002E34660D00000000544553542042494160
:101F8000535F4D313A0000000120FFF77DF800E675
:101F9000FEF7E8FB02460B46F4A0D4E1DAF80C1099
:101FA00041F48061CAF80C1064E5E0890028FBD197
:101FB00002F01EF8BB46F869FEF7D4FBF14AF24B7B
:101FC000FEF7BFF907468A46D8F80400FEF7CAFBB9
:101FD0003A465346FEF7EEFB01D2012100E0002114
:101FE0000020FFF751F80028D1D0E848018840F6DA
:101FF000B730A1F2F512ABF80810824201D20A20E4
:1020000040E6E3A004F050F840F6FF773846FFF7CB
:102010007BF83846FFF7C4F83846FFF7D1F835E6C5
:1020200001F0E6FFDF48C069FEF79CFB0022DE4BB3
:10203000FEF787F982468B464746D8F80400FEF73C
:1020400091FB52465B46FEF7A1FB78681FD2D54D47
:102050002862FEF787FB2D8902460B462946D3A04E
:1020600004F022F840F6FF70FFF79AF8C4A0D6A358
:10207000AFF280220090D8494FF4E27004F006FDE0
:1020800000210120FFF720F80B20607081E5FEF7AA
:1020900069FB02460B46D1A004F006F840F6FF7734
:1020A0003846FFF731F83846FFF77AF83846FFF739
:1020B00087F835E5E08900287FF434AD01F098FF1A
:1020C000B848C069FEF74EFBAE4AAF4BFEF739F990
:1020D00007468B46D8F80400FEF744FB3A465B46B9
:1020E000FEF768FB01D2012100E000210020FEF78D
:1020F000EBFF0028CAD0BE480188AA48A1F2F51219
:10210000418140F6B730824201D20C20BAE5B9A035
:1021100003F0CAFF40F6FF773846FEF7F5FF384672
:10212000FFF73EF83846FFF74BF86670257035E745
:1021300001F05EFF9B48C069FEF714FB00229A4B3A
:10214000FEF7FFF8009089464746D8F80400FEF7EE
:1021500009FB4B46009AFEF719FB78687DD2914D3A
:102160006862FEF7FFFA6F8902460B463946A6A061
:1021700003F09AFF40F6FF773846FEF7C5FF384672
:10218000FFF70EF83846FFF71BF8A88880B2FEF775
:10219000BBFF2889FFF704F86889FFF711F80120D1
:1021A00001F008FF0021ABF8001002F049F8A88800
:1021B00081B2384603F05CFA2863A88881B2A88906
:1021C00003F056FA296BFEF740F80146A86AFEF7BD
:1021D00081FEE8632A6A0146104600F0F9FA0746D4
:1021E000A88881B2288903F043FA3946FEF72DF812
:1021F0006863A88881B2A88903F03AFA696BFEF790
:1022000024F80146A86AFEF765FEE863A88881B253
:10221000E88903F02DFA296BFEF717F80146E86A02
:10222000FEF758FE28646A6A0146104600F0D0FAAC
:102230000746A88881B2688903F01AFA3946FEF782
:1022400004F8A863A88881B2E88903F011FAA96BA1
:10225000FDF7FBFF0146E86A00E06FE0FEF73AFE9B
:102260002864FFF7A9FB2860D5E90F01FDF79BFF64
:1022700001466C48FEF725F8686441A06AA3AFF2F6
:102280008C420090544940F2112004F0FFFB286872
:102290004FF0000102284FD066A003F005FF02F0C6
:1022A0000FFB40F6D860FFF70FFB0020FEF762FF40
:1022B0004FF4487002F00CFB667031A060A3AFF2DF
:1022C000CC424549009000E031E04FF4087004F042
:1022D000DDFB286BFEF746FA02460B465AA003F0D8
:1022E000E3FE686CFEF73EFA02460B4659A003F087
:1022F000DBFEE86BFEF736FA02460B4659A003F008
:10230000D3FE686BFEF72EFA02460B4658A003F088
:10231000CBFE286CFEF726FA02460B4656A003F0C9
:10232000C3FEA86BFEF71EFA02460B4655A001B08D
:10233000BDE8F04F03F0B8BE54A0AEE7FEF712FAC6
:1023400002460B4654A003F0AFFE40F6FF77384636
:10235000FEF7DAFE3846FEF723FF3846FEF730FF79
:10236000257066701AE60020207014E42045525251
:102370004F522049445F4D32413D25362E34660D83
:10238000000000009A9999999999C93FCA000020C4
:10239000204552524F522050574D5F47313D253412
:1023A000640D0000E40100200000D03F204F4B20CE
:1023B00050574D5F47313D25642C2049445F4D31D6
:1023C0003D25362E34660D00544553542042494174
:1023D000535F4D323A000000C46C00082045525251
:1023E0004F522049445F4D313D25362E34660D0055
:1023F000CC000020204552524F522050574D5F478D
:10240000323D2534640D0000204F4B2050574D5F66
:1024100047323D25642C2049445F4D323D25362E00
:1024200034660D000000A04054455354204F4B3AF1
:1024300000000000205449504F20440D00000000CF
:102440005245504F52543A0056543D25342E326670
:10245000200000004E4B4D41503D25342E32662069
:10246000000000004D313D25342E32662C00000066
:1024700025342E32662000004D323D25342E326642
:102480002C00000025342E32660D000020544950E7
:102490004F20450D00000000204552524F52204968
:1024A000445F4D323D25362E34660D00054800212F
:1024B0000170417004494FF48050486008814881A0
:1024C000704700000C000020E40100200148007863
:1024D000704700000C0000200D4810B50168490746
:1024E00006D5042000F016F8BDE8104000F088B9C9
:1024F0000068800706D5022000F00CF8BDE8104007
:1025000000F0B6BABDE81040012000F003B80000AA
:1025100000000240C10002D502490860704702492C
:10252000486070470404024000000240002901682E
:1025300002D041F0010102E04FF6FE72114001604D
:102540007047000001684FF6FE72114001600021E3
:10255000016041608160C1603149314A083990426F
:1025600003D1486840F00F0006E02D4A1432904233
:1025700004D1486840F0F00048607047284A28328B
:10258000904203D1486840F47060F5E7244A3C3239
:10259000904203D1486840F47040EDE7204A503241
:1025A000904203D1486840F47020E5E71C4A643249
:1025B000904203D1486840F47000DDE7184A783251
:1025C000904203D1486840F07060D5E7154A111F6A
:1025D000904203D1086840F00F0006E0114A14321F
:1025E000904204D1086840F0F000086070470D4A3E
:1025F0002832904203D1086840F47060F5E7094A38
:102600003C32904203D1086840F47040EDE7054A3F
:1026100050329042EAD1086840F47020E5E70000AB
:102620000800024008040240002A026801D00A4360
:1026300000E08A430260704730B5026847F6F073E5
:102640009A430C6A8B682343D1E904452C43234306
:102650008C692343CC6923434C6A23438C6A23430C
:1026600013430360CA6842600A6882604968C160B7
:1026700030BD01460020B1F5806F03D26FF47C10AD
:1026800000EA811070470000014606481029C08802
:1026900006D24FF4707220F4707002EA8111084380
:1026A000704700008800002010B502460024012376
:1026B0000549B02000F026FF0449087008B9024817
:1026C0000478204610BD00009D0000209C000020E2
:1026D00010B50246002402230749B02000F012FF83
:1026E0000649087028B904484178007801EB0020B9
:1026F00084B2204610BD00009D0000209C000020F8
:10270000064B10B55870000A18700A460223034998
:10271000B02000F0F9FF0249087010BDA5000020AC
:102720009C00002010B5294C0020E07020716081D1
:10273000E080208120706070FF20A0700120FFF7F2
:10274000A3FF40F480500221FFF7DAFF01F05DFBA8
:1027500001F05BFB01F059FB01F057FB01F055FB69
:1027600001F053FB4FF44870FFF783FF0821FFF798
:10277000C7FF01F04AFB01F048FB01F046FB01F006
:1027800044FB01F042FB01F040FB01F03EFB022064
:10279000FFF79EFF00F47070E0800820FFF798FFBD
:1027A00020F03F0020810E20FFF77EFF00F01F0089
:1027B00020700D20FFF778FF00F00F00A070372089
:1027C000FFF772FF00F01F00607010BD880000204E
:1027D00070B506460846FDF7C5FF04460D4630466F
:1027E000FDF7C0FF0122FDF734FF22462B46FDF71F
:1027F000C1FEFDF7F3FFBDE8704004F014BA704766
:102800002DE9FE4F994998484FF6FF728862803053
:102810000024C8620290CC638C634C630C638C65AB
:10282000CC6408460C644788A14616460197CB46FF
:10283000B24680885D465346009067E037F8020B49
:10284000DCF83010CCF828700144CCF83010854208
:1028500000D20546834200D9034637F8021BDCF854
:102860003480BE468844CCF83480CCF828708C4242
:1028700000D20C468A4200D90A46DFF8F0C1BEF801
:102880000070DCF838C0BB4507EB0C08DFF8DCC192
:10289000CCF83880DFF8D4810EF1020CE646C8F897
:1028A00028C000D2BB46BA4500D9BA46DFF8BCC141
:1028B000BEF80070DCF83CC0B94507EB0C08DFF847
:1028C000ACC1CCF83C80DFF8A4810EF1020CC8F852
:1028D00028C000D2B946BE4200D93E46DDF804C049
:1028E000624FA0EB0C00DDF800C0A1EB0C01D7F8A3
:1028F00040C000FB11CCC7F840C0D7F84CC000FB6B
:1029000000C0F864B86D01FB0100B865DFF85CC178
:102910000298DCF82870874290D360460189C76B23
:10292000C1EB1711076F39440167C1F30F21018112
:10293000C188876BC1EB1711C76E3944C166C1F3FB
:102940000F21C1800099476BC1EB1711876E394485
:102950008166C1F30F2181800199076BC1EB1711CB
:10296000476E39444166C1F30F214180016CCF1796
:1029700001EB1771476CC7EB2111876C3944CF17F6
:10298000816401EB176109124164C16CCF1701EB3F
:102990001771076DC7EB2111476D3944CF1741659A
:1029A00001EB176109120165816DCF1701EB1771FA
:1029B000C76DC7EB2111076E3944CF17016601EBD4
:1029C00017610912C16500F18001078AD1F800C0C2
:1029D000A9EB070767440F60C7F30F270782B0F81A
:1029E0000EC0ABEB0C07D0F87CC06744C767C7F3D9
:1029F0000F27C7818789D0F878C0E71B67448767AE
:102A0000C7F30F2787814789D0F874C0EF1B67444D
:102A10004767C7F30F274781078BF61B0F693E44B3
:102A20000E61C6F30F260683C78AAAEB0706CF6896
:102A30003E44CE60C6F30F26C682868A8F68961BF8
:102A40003E448E60C6F30F268682468A4F689E1BE0
:102A50003E444E60C6F30F214182E91A4183A11A18
:102A60008183BDE8FE8F0000DC0200200C01002005
:102A70002DE9FE4F994998484FF6FF7288628030E1
:102A80000024C8620290CC638C634C630C638C6539
:102A9000CC6408460C644788A14616460197CB468D
:102AA000B24680885D465346009067E037F8020BD7
:102AB000DCF83010CCF828700144CCF83010854296
:102AC00000D20546834200D9034637F8021BDCF8E2
:102AD0003480BE468844CCF83480CCF828708C42D0
:102AE00000D20C468A4200D90A46DFF8F0C1BEF88F
:102AF0000070DCF838C0BB4507EB0C08DFF8DCC120
:102B0000CCF83880DFF8D4810EF1020CE646C8F824
:102B100028C000D2BB46BA4500D9BA46DFF8BCC1CE
:102B2000BEF80070DCF83CC0B94507EB0C08DFF8D4
:102B3000ACC1CCF83C80DFF8A4810EF1020CC8F8DF
:102B400028C000D2B946BE4200D93E46DDF804C0D6
:102B5000624FA0EB0C00DDF800C0A1EB0C01D7F830
:102B600040C000FB11CCC7F840C0D7F84CC000FBF8
:102B700000C0F864B86D01FB0100B865DFF85CC106
:102B80000298DCF82870874290D360460189C76BB1
:102B9000C1EB1711076F39440167C1F30F210181A0
:102BA000C188876BC1EB1711C76E3944C166C1F389
:102BB0000F21C1800099476BC1EB1711876E394413
:102BC0008166C1F30F2181800199076BC1EB171159
:102BD000476E39444166C1F30F214180016CCF1724
:102BE00001EB1771476CC7EB2111876C3944CF1784
:102BF000816401EB176109124164C16CCF1701EBCD
:102C00001771076DC7EB2111476D3944CF17416527
:102C100001EB176109120165816DCF1701EB177187
:102C2000C76DC7EB2111076E3944CF17016601EB61
:102C300017610912C16500F18001078AD1F800C04F
:102C4000A9EB070767440F60C7F30F270782B0F8A7
:102C50000EC0ABEB0C07D0F87CC06744C767C7F366
:102C60000F27C7818789D0F878C0E71B674487673B
:102C7000C7F30F2787814789D0F874C0EF1B6744DB
:102C80004767C7F30F274781078BF61B0F693E4441
:102C90000E61C6F30F260683C78AAAEB0706CF6824
:102CA0003E44CE60C6F30F26C682868A8F68961B86
:102CB0003E448E60C6F30F268682468A4F689E1B6E
:102CC0003E444E60C6F30F214182E91A4183A11AA6
:102CD0008183BDE8FE8F00005C0300200C01002012
:102CE0002DE9F047564D95F9000018B1401E2870A7
:102CF000BDE8F0876889698A401AFDF7CFFC514A20
:102D0000514BFDF7C5FBFDF769FD504C2060A889CC
:102D1000A98A401AFDF7C2FC4D4A4E4BFDF7B8FB9D
:102D2000FDF75CFDA060686CFDF7B8FC4A4A4B4BB0
:102D3000FDF7AEFBFDF752FD2061286DFDF7A0FC0D
:102D4000DFF8FCA081460AF1800A5646CAF8140052
:102D5000286AFDF707FD074688464846FDF702FD4D
:102D600003F03AFF3A464346FDF792FBFDF736FD86
:102D700060607069FDF7F6FC394A3A4BFDF788FB55
:102D8000FDF72CFD7061686AFDF7ECFC06460F4606
:102D9000E86DFDF775FCFDF7E5FC03F01DFF32461D
:102DA0003B46FDF775FBFDF719FDE06062680146E3
:102DB0001046FDF750FA0546606120690146FDF7AF
:102DC0004AFA064629460846FDF745FA3146FDF718
:102DD0003CFAFDF7C7FC03F0FFFEFDF7FFFCA06126
:102DE00081462148E168214F214E4FF07D588142B4
:102DF00024DD6068FDF765FA20F0004020621D4880
:102E00002569854215DBDAF8140029460646FDF7E8
:102E100058FA20F00040A06249463046FDF751FACA
:102E200020F00040606229464846FDF74AFAE0611A
:102E30005EE7C4F81C80C4E9096759E72662F8E731
:102E40000C0100203D99DA26D5F5BB3FDC030020BC
:102E500093E146707E97323F728115F1E725303F4E
:102E6000AC5791D10149B83F0AD7233C0060EA46EC
:102E700000401C47CDCCCC3D2DE9F0479AB04FF433
:102E8000004000F0CFFF0121032000F0D5FF012119
:102E900040F6056000F0F4FF0F20ADF86000A34D90
:102EA00000248DF8634018A9284600F06BF9012131
:102EB0009F4800F0B3F901219E4800F0AFF90121CD
:102EC000102000F0DDFF3F21ADF860108DF8634069
:102ED00018A9284600F056F9DFF85C824046FDF755
:102EE000ABFE964D2846FDF7A7FE0120FDF794FFA7
:102EF0000B208DF8400001268DF841608DF842408E
:102F00008DF8436010A800F011FF12208DF84000EA
:102F10008DF841408DF842408DF8436010A800F0D4
:102F200005FF11A802F0EAF948F6A040ADF8480004
:102F30000227DFF80CA2ADF84470ADF84A40ADF8B6
:102F4000464011A9504602F08BF96020ADF85000C0
:102F50007F20ADF85600ADF85260ADF8587014A956
:102F6000504602F00BF9DFF8DC914846FFF7EAFA29
:102F7000714805A94C3005907348CDE906044020FE
:102F8000CDE9080480200A9080000B9080000C900E
:102F900020200D900002CDE90E044846FFF74CFBBF
:102FA000012206214846FFF73FFB01214846FFF773
:102FB000BDFA300400904FF44020CDE902048DF8B2
:102FC00004608DF805408DF8107069464046FDF7A5
:102FD0008DFE0023012219464046FDF7D8FE02224D
:102FE000002311464046FDF7D2FE03214046FDF77F
:102FF000C6FE01231A460A214046FDF79BFE012327
:1030000002220D214046FDF795FE012303221121E6
:103010004046FDF78FFE4FF4805949464046FDF784
:1030200041FE01214046FDF733FE01224FF490613D
:103030004046FDF752FE01214046FDF7F3FD012118
:103040004046FDF71BFE4FF4C02000904FF4602077
:10305000CDE902048DF804608DF805408DF81070FC
:1030600069462846FDF742FE012200231146284604
:10307000FDF78DFE0023022203212846FDF787FE7F
:1030800003212846FDF77BFE01231A460B21284623
:10309000FDF750FE012302220E212846FDF74AFECD
:1030A000012303220F212846FDF744FE4946284606
:1030B000FDF7F8FD01212846FDF7EAFD012128462C
:1030C000FDF7DCFD0121504601F0A0FE0121504634
:1030D00001F0A6FE01214046FDF79AFD4046FDF7AE
:1030E00090FE44462046FDF7F1FD0028FAD1204627
:1030F000FDF78CFE2046FDF7DBFD0028FAD101210B
:103100002846FDF785FD2846FDF77BFE2846FDF79E
:10311000DDFD0028FAD12846FDF778FE2846FDF7A8
:10312000C7FD0028FAD11AB0BDE8F08700100140B1
:10313000040020000001300000240140002801406C
:10314000002C014008000240DC02002010B501F014
:10315000CFFD01F02FFEBDE81040FFF78DBE00004F
:103160004FF4F571B0F57A7F05D00449B1FBF0F06A
:10317000A0EB901081B202480180704720A10700A7
:103180002C340140F0B5CC78002204F00F03E406A3
:1031900001D58C7823430C784FF00F0C4FF0010EC3
:1031A000DCB105680E880EFA02F42640A64210D162
:1031B00096000CFA06F725EA070703FA06F5CE781B
:1031C0003D43282E02D0482E02D002E0446100E0A8
:1031D0000461521C082AE5D305600A88FF2A1CD91D
:1031E0004468002202F108060EFA06F50E882E4009
:1031F000AE420ED196000CFA06F7BC4303FA06F76E
:10320000CE783C43282E00D14561CE78482E00D19F
:103210000561521C082AE5D34460F0BDF0B5144C9A
:10322000002801DAE36900E06368450D2E0185B2EC
:10323000C0F30157B540C0F30342032F05D0C602C7
:103240000AD503269640B34307E023F07062636813
:1032500023F07063636002E0AB4343F0706201B13E
:103260002A43002801DAE261F0BD6260F0BD00008F
:1032700000000140416170470161704738B501218C
:10328000102000F0FDFD4FF44064ADF80040022036
:103290008DF802001020064D8DF80300694628467F
:1032A000FFF770FF21462846FFF7E4FF38BD000016
:1032B00000100140254810B5016841F0807101609F
:1032C000234800244460016841F001010160214667
:1032D000C00300F067FD4FF4806000F059FD1D4809
:1032E0004FF47A710068B0FBF1F0B0F1807F2BD21F
:1032F00020F07F414FF0E020491E4161134AF02148
:10330000D93A1170846107210161FFF7B7FF00F01E
:10331000F1F9FFF707FAFEF779FA012000F02AFE2B
:10332000612000F00FFE0028FAD045F2555000F061
:1033300051FB032000F042FB4FF49C7000F044FB73
:10334000BDE8104000F032BBFEE70000FCED00E0FD
:10335000001000E07400002070B5254D2878C007EB
:1033600045D000F057F800F0A7F800202870A878A2
:10337000204C6178884204D0A8786070FEF714FA77
:103380002873E878A178884203D0E878A070FEF727
:10339000EFF92879E178884206D02879E07000EBCF
:1033A00080004000FEF7CEF968782178884203D08B
:1033B00068782070FEF7E6F90E4808222C46691C52
:1033C0000830FCF7E3FE002811D00A486178083085
:1033D0000170A1784170E17881702179C1706179C3
:1033E0000171A1794171E1798171217AC17170BD59
:1033F000780200204E00002010B50021044801F0A2
:10340000B3F80C2001F0B8F8BDE8104001F050B856
:103410008534000870B5174D174C286910F1FF4F1F
:1034200002D2FDF772F900E00020A0721348806913
:10343000FDF76BF960721248017AA174417AE17468
:10344000817A2175C07A6075A869FDF75EF9E0722E
:10345000607860732079A0732079E073E07820743D
:10346000FEF7B2F800B1A0782073FEF7A1F86074FF
:1034700070BD0000DC03002078020020C0020020A4
:103480008E0200200A490A780A4842708A7902713D
:103490000A79C2708A7882700A7A42714A7A827195
:1034A0008A7AC271C97A01720121017070470000E5
:1034B0008E020020780200200F48827A0F494A705D
:1034C000427A0A70C27A8A70427B0A71827B4A71A0
:1034D000C27B8A71037C427C02B180221343CB7190
:1034E000027BCA70827C0A72C27C4A72027D8A7236
:1034F000407DC87270470000780200209B020020C7
:10350000FEE700002DE9FF4F81B04FF6FF771C4624
:1035100093460D464FF40038524E009703E0009852
:10352000411E009168B14146304600F0B7F90028CD
:10353000F5D10121B046304600F09CF94A4E009783
:1035400007E0012005B0BDE8F08F0098411E009112
:10355000F0B33146404600F061F90028F5D0002272
:10356000C1464046019900F00EFAB8460097DFF8D0
:10357000FCA04F4603E00098411E009148B351461D
:10358000384600F04BF90028F5D00121384600F00C
:1035900051F95946384600F0FEF9DFF8D090CDF8E1
:1035A000008009F1020903E00098411E009198B1E2
:1035B0004946384600F032F90028F5D00121B946D5
:1035C000384600F057F94746CDF80080B04601E094
:1035D00017E028E04E4605E00420B3E70098411EBE
:1035E000009170B14146304600F018F90028F5D03E
:1035F00001223046019900F0C6F900971A4F7F1C4E
:1036000005E005209EE70098411E009158B139461B
:10361000304600F003F90028F5D0134F3F37D4B1FE
:10362000012C02D009E006208CE70021304600F092
:10363000EBF80121304600F027F93946304600F01A
:10364000EDF80028EBD0304600F09AF9641E05F83A
:10365000010BA4B2E3E70121304600F0D5F80020C9
:1036600070E70000005800400100030082000700DE
:1036700010B586B00121082000F002FC01210820CD
:1036800000F0FEFB0121880500F0E2FB4FF44060F2
:10369000ADF8100003208DF812001C208DF81300E7
:1036A00004A91148FFF76EFD104C204600F0CCF83D
:1036B0000121204600F0BEF80021ADF804104BF6C1
:1036C000FF71ADF80610FF21ADF808102015ADF818
:1036D0000A000001ADF80C0005480090694620463C
:1036E00000F0F2F806B010BD000C01400058004098
:1036F000A086010010B5FFF7BBFF0249002008704B
:1037000010BD0000AD0000202DE9F84F4FF6FF7707
:103710001C4692460D4681464FF40036DFF8D880AD
:10372000009703E00098411E009170B13146404679
:1037300000F0B4F80028F5D1304E0121304600F0F9
:1037400099F8DFF8BC80009706E00120BDE8F88F0B
:103750000098411E009170B14146304600F05EF87D
:103760000028F5D000224946304600F00CF9DFF879
:103770009480009705E00520E8E70098411E00913D
:1037800070B14146304600F049F80028F5D0514666
:10379000304600F000F9B84600971A4FBF1C05E00C
:1037A0000620D3E70098411E009118B339463046F1
:1037B00000F034F80028F5D011E02978304600F008
:1037C000EAF86D1CCDF8008003E00098411E0091DE
:1037D00080B13946304600F021F80028F5D02000AD
:1037E000A4F10104E4B2E8D10121304600F04CF824
:1037F0000020ABE70820A9E7005400400058004033
:1038000001000300820007000029018802D041F472
:10381000806101E021F4806101807047034600204F
:103820009A8A1B8B42EA034222F07F42914300D1E5
:10383000012070470029018802D041F0010101E018
:1038400021F0010101807047094910B588424FF00D
:10385000010101D14C0501E04FF48004204600F045
:1038600003FB2046BDE81040002100F0FDBA000037
:10387000005400400029018802D041F4807101E029
:1038800021F48071018070470029018802D041F441
:10389000007101E021F40071018070470CB502460F
:1038A000002000920A0F21F07F41019202D0009A7D
:1038B000143202E0009A090C1832009212680A428F
:1038C00000D001200CBD000070B50446808886B091
:1038D0000D4620F03F06684600F0EAFA26490298B5
:1038E000B0FBF1F189B20E43A680228822F00102DA
:1038F0002280224B2A689A421CD85200B0FBF2F078
:1039000080B2042800D20420491C2184A08320888E
:1039100040F00100208020884FF6F5310840A9884A
:103920006A89114301432180A8892989084320819C
:1039300006B070BDEB88A3F53F46FF3E05D102EB14
:103940004202B0FBF2F080B208E002EBC20303EBEC
:103950000212B0FBF2F080B240F48040020501D1C7
:1039600040F001004FF4967251434FF47A72B1FB6C
:10397000F2F140F40040C7E740420F00A08601008A
:10398000008AC0B2704712B141F0010101E001F0BC
:10399000FE010182704701827047000002494CF627
:1039A000CC400860704700000030004002494AF6F1
:1039B000AA200860704700000030004001494860BC
:1039C00070470000003000400149886070470000E7
:1039D000003000400149086070470000003000409E
:1039E00070B524494869B0F17E5F06DA1422224995
:1039F0002248FCF7B9FB002070BD214A904207DA4B
:103A00001D49142214311D48FCF7AEFB012070BD86
:103A10001C48CC69844207DD1749142250311748ED
:103A2000FCF7A2FB042070BD1349B4F17C5F4FF09A
:103A3000140219DD3C311148FCF796FB2046FCF7D7
:103A400091FE0022104BFCF723FD0C4E04460D4660
:103A50007068FCF787FE2B462246FCF713FDFCF747
:103A6000BDFE7060032070BD28310448FCF77CFB6C
:103A7000022070BDDC030020606C0008D001002033
:103A80000000A0400000C040000018402DE9FF47A2
:103A9000694C608808B1401E60802078012590B193
:103AA00001282BD0042827D164480088400523D55D
:103AB00060680A2190FBF1F2A14601FB1200604C04
:103AC00000286AD096E000210846FDF773FE052025
:103AD0006080FEF7EBFC25705AA000905AA366A206
:103AE0006749462002F0D2FF56A0009065A362A26B
:103AF0006349472002F0CAFFBDE8FF8760880028BD
:103B0000FAD1FDF765FFFEF7E1FC614E20B3012815
:103B100019D00228F0D14BA000905EA356A25849BC
:103B20005C2002F0B3FFF06840F48060F060F06861
:103B300020F40060F06000F0BBFE96206080FEF78D
:103B4000B5FC2570D8E7F06880F48060F060F0681C
:103B500080F40060F060CFE7F06840F40060F0604F
:103B6000F06820F48060F06036A0009051A342A27B
:103B70004349562002F08AFF32A0009051A33EA292
:103B80003F49572002F082FF0420207004B000213A
:103B9000BDE8F0470620FDF70DBE2AA000904BA31C
:103BA00035A237496C2002F071FFE068FCF7DAFDBE
:103BB000074688466068FCF7D5FD05460E46206836
:103BC000FCF7D0FD8DE8E00102460B4641A002F073
:103BD0006BFA47480069FCF7C5FD054645480E46A7
:103BE0000068FCF7BFFDCDE9005602460B4642A037
:103BF00002F05AFA13A0009043A31FA2204970209C
:103C000002F044FFA069FCF7ADFD07468846206935
:103C1000FCF7A8FD05460E466069FCF7A3FD8DE89C
:103C2000E00102460B4639A002F03EFAD9F8041032
:103C3000491CC9F804105FE71C000020C4000020E4
:103C4000DC0300200000000053595354454D3A2036
:103C5000524643312C46573A312E30306134372D9D
:103C600050322C4253503A312E30302D4857313398
:103C7000333145310D0000006C6F6769632E6300BE
:103C8000CD6C0008444941474E4F535449430D0001
:103C900000100140444941474E4F535449433A2094
:103CA0004552524F522C2052657472696E672E2E07
:103CB0000D000000444941474E4F535449433A20B8
:103CC0004F4B0D0052554E4E49470D004F55543A3B
:103CD0000000000020563D25342E31662C56653DEF
:103CE00025342E31662C49653D25352E32662C0053
:103CF000C002002028000020543D25332E30662CC1
:103D000025332E30660D0000503D000025342E3145
:103D1000662C2825342E31662C6A25342E316629EE
:103D20000D0000007047FEE77047000070B50F23DC
:103D3000C278017801244FF0E025DAB1124A126806
:103D400002F4E062C2F5E062120AC2F10406D34056
:103D50004278B24086781E400C4B16433201CA545A
:103D6000007800F01F018C40400905EB8000C0F88E
:103D7000004170BD01F01F008440480905EB800040
:103D8000C0F8804170BD00000CED00E000E400E0F0
:103D90000249084302490860704700000000FA0524
:103DA0000CED00E0024A11400143024801607047F7
:103DB00080FFFF1F08ED00E010B540210548FDF72A
:103DC00091FA411C05D00146BDE810400148FDF7BD
:103DD000B2BA10BD2C02002008B504A0009004A3C4
:103DE00005A208491C2002F051FE08BD0000000099
:103DF00052454144590D00007061727365722E6323
:103E000000000000E66C0008704700214FF4487283
:103E10000020401C9042FCD3491CC9B20429F7D3AE
:103E200070470000034A516821F44041014351604A
:103E30007047000000100240044A0029516901D077
:103E4000014300E0814351617047000000100240CF
:103E5000044A0029D16901D0014300E08143D161C6
:103E60007047000000100240044A0029116901D087
:103E7000014300E0814311617047000000100240DF
:103E8000044A0029916901D0014300E08143916116
:103E90007047000000100240044A0029D16801D098
:103EA000014300E08143D1607047000000100240F0
:103EB00030B5204A5168204B11F00C0103D0042981
:103EC00001D0082901D0036012E05168536801F461
:103ED00070114FF0020413F4803F04EB914102D0C3
:103EE00053689B0301D5154B00E0134B5943016008
:103EF00051680F2303EA1111114B5C5C0168E1402A
:103F000041605468072505EA14241C5D21FA04F475
:103F10008460546805EAD4241B5DD940C1605268AE
:103F2000032303EA9232064B1B1F9A5CB1FBF2F1AA
:103F3000016130BD0010024000127A0000093D000E
:103F400062000020034600205909094A01290AD0CD
:103F500002290AD0516A03F01F02012393400B4249
:103F600000D0012070471168F5E7116AF3E70000FF
:103F7000001002400149086070470000800442427E
:103F800038B501210820FFF77BFF0420ADF80000C1
:103F900001208DF802001020054C8DF803006946C1
:103FA0002046FFF7EFF804212046FFF765F938BDFA
:103FB000000C014070B5084A084C30B101250421BD
:103FC0001046FFF759F9257070BD04211046FFF720
:103FD00051F90020207070BD000C0140E400002069
:103FE00010B5FFF7CDFFBDE810400120FFF7E2BF9D
:103FF0002DE9F05F324D3348A9880180EF88478072
:104000002E8986806A89C2809046AA89028191465B
:10401000EA89428193460846FCF751FB00222A4B6D
:10402000FCF736FAFCF7DAFB264C82460C342060AB
:104030003846FCF744FB2A7812B1244A244B02E0AC
:104040004FF0FF32234BFCF723FAFCF7C7FB054682
:1040500060603046FCF733FB1F4F4FF06636324648
:104060003B46FCF715FAFCF7B9FBA0604046FCF7AD
:1040700026FB32463B46FCF70BFAFCF7AFFBE06051
:104080004846FCF71CFB0022144BFCF701FAFCF736
:10409000A5FB20615846FCF712FB32463B46FCF775
:1040A000F7F9FCF79BFB606129465046FCF7D3F813
:1040B000A06110F1FF4F01D30020A061BDE8F09F87
:1040C000E4000020B402002000A0943FDBB66DDBCA
:1040D000B66D6F3FFFFF373F66664A3F00A0B43FB3
:1040E000F0B553480068544986B2524806800968C2
:1040F0008DB24F494580091D09688CB24E498480B4
:10410000091D09688BB24C49C380083109688AB21D
:1041100047490281083109684FF0000C89B241819A
:1041200046484788CFB1012F16D14778002F4DD090
:1041300080F801C08680C580048143818281360178
:104140002D012401C1811B0112030903C0E90821CB
:10415000C0E90643C0E90465F0BD477867B180F85F
:1041600001C08680C58004814381828136022D0290
:104170002402C1811B02E7E78788F61B07693E44DA
:104180000661C788C6F30F26ED1B47693D444561AC
:104190000789C5F30F25E41B87693C44846147897F
:1041A000C4F30F24DB1BC7693B44C3618789C3F396
:1041B0000F23D21B076A3A440262C789C91B476AA8
:1041C000394441628680C580048128E08788F61BD7
:1041D00007693E440661C788C6F30F16ED1B4769A1
:1041E0003D4445610789C5F30F15E41B87693C44CD
:1041F00084614789C4F30F14DB1BC7693B44C36167
:104200008789C3F30F13D21B076A3A440262C78936
:10421000C91B476A394441628680C5800481438155
:10422000C2F30F328281C1F30F31C181F0BD0000B2
:104230003C240140A80200203C280140E40000206A
:104240000149012048707047E400002070B51A4C05
:104250002069FCF787FA194A194BFCF78BF9FCF730
:1042600068FA80B201F0BCF9A068FCF77BFA154A45
:10427000154BFCF77FF9FCF75CFA86B26068FCF737
:1042800071FA124A124BFCF775F9FCF752FA85B233
:10429000E068FCF767FA0F4A0F4BFCF76BF9FCF785
:1042A00048FA80B232462946FCF7C4FDBDE87040AA
:1042B0000020FCF729BE0000AC01002083C0CAA189
:1042C00045B6B33F93E146707E97323F3D99DA267B
:1042D000D5F5BB3F95EFBB65A63E803F044903483B
:1042E0000A68C0F8062089884181704700000020D4
:1042F000586C00080349486808B100F0B9B908884B
:1043000000F090B99400002030B587B0012141F24F
:104310000400FFF7B5FDA020ADF8140001248DF8CE
:10432000164018208DF8170005A91B48FEF72AFF34
:1043300001210820FFF7A4FD0225ADF814508DF8E7
:10434000164010208DF8170005A91448FEF71AFF33
:104350000020ADF800004FF48271ADF80210E102C8
:10436000ADF80410ADF808008910ADF80A1030213E
:10437000ADF80C10ADF80E000720094CADF8100098
:10438000ADF806506946204600F01FF9012120468D
:1043900000F0FAF807B030BD00080140000C014001
:1043A0000030014010B5FFF7AFFF04494FF47A70B9
:1043B0000880BDE8104000F035B9000094000020EE
:1043C00070B50E4C0546206820F0020020600C4EAF
:1043D0000221304600F0E2F80028F9D0294635469F
:1043E000304600F0F0F88021284600F0D7F8012888
:1043F000F9D0206840F00200206070BD0C0C014034
:104400000030014009494879401C48714879052825
:1044100003D1002008700871C8704879FA2803D9C0
:10442000012048700520487170470000B00000204E
:1044300070B51B4C0025657165701A4E304600F052
:10444000C0F8194922788854E1780844E07020784F
:10445000411C2170A178884206D1E078A0B180206B
:1044600060702570E57025710F4821780D30415C32
:104470002279114421712178A278914209D12079C1
:10448000C043401C81B206E0A0680028E9D0804704
:10449000E7E72178415C3046BDE8704000F093B812
:1044A000B0000020003800408E020020FFF7C0BF9F
:1044B000F0B587B000F0A5F801218C032046FFF786
:1044C000C7FC01210C20FFF7DBFC4FF42040ADF8C6
:1044D000140003208DF81600204F04268DF8176075
:1044E00005A93846FEF74EFEADF8144018258DF8A4
:1044F000175005A93846FEF745FEA010ADF8140088
:104500008DF8176005A93846FEF73CFE002401200F
:10451000ADF80800ADF80C500720114DADF8004083
:10452000ADF80440ADF81000ADF80240ADF806401B
:10453000ADF80A40ADF80E406946284600F045F84F
:1045400001226021284600F030F80121284600F0C1
:104550001BF804480470447107B0F0BD000C014022
:1045600000380040B000002072B6024AC2E90201E1
:1045700062B67047B000002072B60249887062B619
:1045800070470000B00000200029018802D041F0EF
:10459000400101E021F04001018070470246002007
:1045A00012890A4200D001207047090901238B407B
:1045B000002A828899B201D00A4300E08A438280AF
:1045C0007047808970478181704730B502884C8878
:1045D00002F441530A88CD8822438C882C4322431D
:1045E0000C8922434C8922438C892243CC89224363
:1045F0001A430280828B22F400628283098A01823C
:1046000030BD08B524208DF8000000208DF8010091
:104610008DF8020001208DF803006846FFF786FB45
:1046200008BD000070B511494FF4404500FB01F48E
:104630002846FFF7C5FE200E00F54C50FFF7C0FEE0
:10464000C4F3074000F50850FFF7BAFEC4F3072093
:1046500000F54450FFF7B4FEE0B200F50050FFF75C
:10466000AFFE2846BDE87040FFF7AABE179F0200C4
:1046700070B504464FF440452846FFF7A1FE200ED2
:1046800000F54C50FFF79CFEC4F3074000F50850BE
:10469000FFF796FEC4F3072000F54450FFF790FEA5
:1046A000E0B200F50050FFF78BFE2846BDE87040F1
:1046B000FFF786BE2DE9FC473D4C608808B1401EDF
:1046C000608000F013F93B4960683B4D884208DD8B
:1046D0002078022805D22869E06000F0E9F802207D
:1046E000207020780126A8B3DFF8D090012822D0CE
:1046F00002283ED003281CD1E068FCF733F80022E2
:104700002F4BFBF7BFFE074688462869FCF72AF8BF
:104710003A464346FCF73AF802D32969494502DA9A
:1047200000F0CEF826706088002802D100F0C8F8AA
:104730002670BDE8FC872969494503DA00F072F864
:10474000002020701F4928698842F2DDBDE8FC473F
:1047500000F0AEB81C492869884202DD00F06AF812
:1047600026701A4928698842E3DABDE8FC4700F060
:10477000A7B800F05FF816A0009016A319A21D4973
:10478000B02002F083F92869FBF7ECFF05460E46DE
:104790006068FBF7E7FFCDE9005602460B4616A01E
:1047A00001F082FC032020703C206080C1E7000003
:1047B0002400002000000C43C00200200000204222
:1047C00000001440000096420000344200002442E1
:1047D0000000000050524F54454354494F4E3A2078
:1047E0000000000073757065727669736F722E63D6
:1047F00000000000D76C0008544A204F76657274A0
:10480000656D70202825352E3266292C2054433DB5
:1048100025352E32660D00000149002008707047D2
:10482000240000204FF400510148FEF723BD000092
:10483000001001404FF400510148FEF71DBD00007B
:1048400000100140F8B501211020FFF719FB4FF4CB
:104850000055ADF800500126134F8DF8026010246A
:104860008DF8034069463846FEF78CFC29463846E9
:10487000FEF700FD01210420FFF702FB2501ADF842
:1048800000508DF802608DF80340084C69462046C0
:10489000FEF778FC29462046FEF7ECFC00F010F805
:1048A000FFF7C0FFF8BD0000001001400008014004
:1048B0004FF480710148FEF7DDBC000000080140A4
:1048C0004FF480710148FEF7D7BC0000000801409A
:1048D00040F6FF71034A884201D210807047118070
:1048E00070470000C8000020704700002DE9F0412B
:1048F0001B4DD5E90001FBF7AEFC1A490969FBF72E
:10490000A4FC194C064620612869FBF72BFF0546DD
:104910000F463046FBF726FF144A154BFBF7B8FD50
:104920002A463B46FBF70DFDFBF758FFA060FBF75F
:1049300019FF05460E466068FBF714FF00220D4B79
:10494000FBF7A6FD2A463346FBF7FBFC6FF001029E
:10495000FBF77FFEFBF742FF6060BDE8F0810000DF
:10496000C0020020DC03002024000020CDCCCCCCF1
:10497000CCCCDC3F000008400CB500222648009259
:104980000192016841F4803101604FF4A063016835
:1049900001F4003101910099491C0091019911B96C
:1049A00000999942F3D10168890333D5012101911E
:1049B0001A490A6842F010020A600A6822F00302EB
:1049C0000A600A6842F002020A6041684160416878
:1049D0004160416841F480614160416821F47C118B
:1049E0004160416841F4E8114160016841F0807123
:1049F000016001688901FCD5416821F00301416033
:104A0000416841F0020141604168C1F3810102291E
:104A1000FAD10CBD01920CBD0010024000200240F2
:104A200010B50446014624220548FBF79DFB0549C5
:104A30006069496CFBF70FFC0149486110BD00003B
:104A4000AC010020E401002010B5FCF7D7FEBDE862
:104A50001040FFF7D7BC00000F4810B5016841F0C7
:104A60000101016041680D4A1140416001680C4A32
:104A700011400160016821F480210160416821F446
:104A8000FE0141604FF41F018160FFF775FF05498A
:104A90004FF00060086010BD001002400000FFF8F9
:104AA000FFFFF6FE08ED00E070B5048C24F0010471
:104AB0000484058B048C4FF6FF7606EA0313134338
:104AC00025F0F3050E4A2B4390420ED00D4A90423A
:104AD0000BD0B0F1804F08D00B4A904205D00B4A62
:104AE000904202D00A4A904202D124F0020201E030
:104AF00024F00A020A4342F001010383018470BDDD
:104B0000002C014000340140000400400008004037
:104B1000000C0040F0B5048C24F010040484078BD2
:104B2000048C4FF6FF7527F4734705EA03333B43C4
:104B300005EA02221A43114B05EA011698420ED0EB
:104B40000F4B98420BD0B0F1804F08D00D4B9842DC
:104B500005D00D4B984202D00C4B984205D124F061
:104B60002001314341F0100104E024F0A0030B4385
:104B700043F0100102830184F0BD0000002C0140CD
:104B8000003401400004004000080040000C0040D8
:104B9000704770472DE9F04188B001210420FFF7EC
:104BA00057F9DFF8D880404600F046F934483549D7
:104BB0000024006840F6FE77B0FBF1F03249401E59
:104BC0000880ADF81470ADF81040ADF81640ADF89F
:104BD000124004A9404600F043FB60254FF44870A2
:104BE000ADF800500126ADF80600ADF80260ADF852
:104BF00008406946404600F0EDF90821404600F0C3
:104C000029FAADF80050ADF80260ADF80670ADF8C5
:104C100008406946404600F023FA0821404600F06B
:104C20005FFAADF80050ADF80260ADF80670ADF86F
:104C300008406946404600F05DFA0821404600F011
:104C400097FA40F6D860ADF80050ADF80600ADF820
:104C50000260ADF808406946404600F08FFA08212E
:104C6000404600F0BDFA0121404600F0C5F80121A0
:104C7000404600F0CBF808B0BDE8F08100080040E5
:104C80007400002000366E01C6000020704700004E
:104C90000648074A41881180121D81881180121D23
:104CA000C1881180111D008908807047C60000204E
:104CB0003408004010B5FFF76DFFBDE8104000F06C
:104CC00001B8000008B501210820FFF7D9F84FF41A
:104CD0007070ADF8000018208DF8030003208DF8E7
:104CE000020069460148FEF74DFA08BD000C01407C
:104CF00070B5012188B04803FFF7C2F82C4E30464A
:104D000000F09AF84FF4F5700024ADF81400ADF8F7
:104D10001040ADF81640ADF8124004A9304600F03E
:104D20009FFA00231A461946304600F03DF9002349
:104D30000A224021304600F07BFA6020ADF80000E6
:104D40000A200125ADF80600ADF80250ADF8084084
:104D50006946304600F084F90021304600F0C0F981
:104D60003020ADF80000FA20ADF80600ADF8025092
:104D7000ADF808406946304600F0BCF900213046E5
:104D800000F0F6F90021304600F03AFA50213046A2
:104D900000F03EFA0721304600F042FA0121304689
:104DA00000F03EF80121304600F030F808B070BD48
:104DB0000034014038B501211020FFF761F8402090
:104DC000ADF8000004200B4C8DF803006946204626
:104DD000FEF7D8F94FF4C071ADF8001018218DF826
:104DE000031003218DF8021069462046FEF7CAF928
:104DF00038BD0000001001400029018802D041F0B8
:104E0000800101E021F080010180704700290188C4
:104E100002D041F0010101E021F001010180704761
:104E2000002930F8441F02D041F4004101E0C1F3F1
:104E30000E010180704700004B4910B5884202D135
:104E40000121C41486E0B0F1804F09D0474988425F
:104E50000DD101210220FFF707F80021022064E0B4
:104E600001210846FFF700F8002101205DE04049DC
:104E7000884206D101210420FEF7F6FF002104201C
:104E800053E03C49884206D101210820FEF7ECFF9F
:104E90000021082049E03849884206D1012110202C
:104EA000FEF7E2FF002110203FE03449884206D19E
:104EB00001212020FEF7D8FF0021202035E03049D5
:104EC000884202D10121441444E02E49884202D193
:104ED0000121CC043EE02C49884202D101210C057D
:104EE00038E02A49884202D101214C0532E02849A4
:104EF000884206D101214020FEF7B6FF0021402064
:104F000013E02449884206D101218020FEF7ACFF3E
:104F10000021802009E0204988420AD1841501211E
:104F20002046FEF7A1FF00212046BDE81040FEF715
:104F30009BBF1A49884202D101210C040AE018499A
:104F4000884202D101214C0404E0164988420AD16A
:104F500001218C042046FEF79FFF2046BDE810404B
:104F60000021FEF799BF10BD002C01400004004055
:104F700000080040000C00400010004000140040F9
:104F800000340140004C01400050014000540140F9
:104F900000180040001C004000200040004001407C
:104FA000004401400048014010B5044600F005F8F7
:104FB000208940F07700208110BD30B504894FF67C
:104FC000FF7505EA03231343E4B20B432343038134
:104FD00030BD000030B5028C22F001020284028C48
:104FE0008388048B22F0020224F073050C882C4382
:104FF0000D8915434A882A43114DA8420BD0114D03
:10500000A84208D0104DA84205D0104DA84202D0A9
:105010000F4DA8420DD122F008054A8923F44073B0
:105020002A4322F004058A882A438D891D43CB89AF
:105030002B4383800483C9888186028430BD0000AD
:10504000002C014000340140004001400044014078
:1050500000480140028B22F008020A430283704795
:1050600070B5028C22F010020284028C8388048BBB
:105070000D8824F4E6464FF6FF7404EA052535430F
:105080000E8922F0200204EA061616434A8804EA32
:1050900002123243104EB04202D0104EB04215D12F
:1050A00022F080064A8923F4406304EA0212324364
:1050B00022F040068A8804EA021232438E8904EA0A
:1050C00086061E43CB8904EA83033343838005832A
:1050D000C9880187028470BD002C01400034014062
:1050E000028B4FF6FF7322F4006203EA01211143A1
:1050F0000183704770B5028C22F480720284028CA6
:105100008388848B0D8824F0730425430E894FF621
:10511000FF7422F4007204EA062616434A8804EA61
:1051200002223243104EB04202D0104EB04215D18E
:1051300022F400664A8923F4405304EA02223243EF
:1051400022F480668A8804EA022232438E8904EAC5
:1051500006161E43CB8904EA0313334383808583F9
:10516000C9888187028470BD002C01400034014051
:10517000828B22F008020A438283704770B5028C4A
:1051800022F480520284058C8288838B0C8823F45D
:10519000E6464FF6FF7303EA0424344325F4005631
:1051A0000D8903EA053535434E8803EA06362E435A
:1051B000094DA84202D0094DA84205D122F48045EC
:1051C0008A8903EA82122A4382808483C988A0F8EC
:1051D0004010068470BD0000002C014000340140E6
:1051E000828B4FF6FF7322F4006203EA0121114320
:1051F00081837047028922F070020A43028170475E
:10520000028822F00802028002880A430280704766
:10521000828822F07002828082880A4382807047EE
:10522000028922F00702028102890A430281704743
:1052300070B516460D46602904464FF0010231460E
:105240000AD0FFF731FC29462046FFF7D3FF20891B
:1052500040F00700208170BDFFF75CFCF3E7000021
:1052600030B502881B4C1C4DA0420DD0A8420BD07B
:10527000B0F1804F08D0194B984205D0184B984296
:1052800002D0184B984203D122F070034A881A4387
:10529000154B984206D0154B984203D022F4407328
:1052A000CA881A4302808A8882850A880285A042B9
:1052B0000AD0A84208D00E4A904205D00D4A90422A
:1052C00002D00D4A904201D1097A018601218182E2
:1052D00030BD0000002C01400034014000040040BB
:1052E00000080040000C0040001000400014004086
:1052F0000040014000440140004801404FF6FF716A
:10530000818000210180C180418001727047704717
:1053100038B54FF40070ADF8000003208DF802009E
:105320001820094C8DF8030069462046FDF72AFF36
:105330002115ADF8001004218DF8031069462046B0
:10534000FDF720FF38BD00000008014008B525200A
:105350008DF8000000208DF801008DF8020001207A
:105360008DF803006846FEF7E1FC08BD014800889F
:1053700070470000D20000202DE9F0411B4C40F2A4
:1053800025573946204600F094F8194D78B1218808
:105390002046AE1C71800021218000F01BF9308076
:1053A000A86800B180473946204600F06BF8082114
:1053B000204600F077F830B1204600F00BF939466E
:1053C000204600F05FF840F227763146204600F094
:1053D00070F8002808D0EA6802B1904731462046AC
:1053E000BDE8F04100F04EB8BDE8F0810038014062
:1053F000D0000020024640F22771014800F078B842
:10540000003801401FB501218803FEF739FD012155
:105410000420FEF735FDFFF799FFFFF779FF4FF402
:10542000E13000900020ADF80400ADF80600ADF8C2
:105430000800ADF80C000C20084CADF80A006946D5
:10544000204600F06DF80121204600F021F80122ED
:1054500040F22551204600F04BF81FBD00380140B6
:105460000249C0F30800088070470000043801407A
:1054700072B6024AC2E9020162B67047D00000204B
:10548000704770470A0A01219140C9430180704763
:105490000029818902D041F4005101E021F400513A
:1054A000818170470246002012880A4200D0012004
:1054B000704770B501F01F0501260024C1F34213A7
:1054C00006FA05F2012B0FD0022B0FD0838A4FEA88
:1054D00011210088134206FA01F600EA060001D005
:1054E00000B10124204670BD8389F0E7038AEEE70E
:1054F00010B5C1F3421301F01F040121A140012B9B
:1055000007D0022B07D01430002A026805D00A43C6
:1055100004E00C30F8E71030F6E78A43026010BD73
:1055200030B50446008A85B00D464CF6FF71084040
:10553000E98801432182A0894EF6F3110840A98829
:105540002A8911436A8902431143A181A08A4FF637
:10555000FF410840A9890143A1826846FEF7A8FCE3
:105560001B48844201D1039800E00298A1890904F4
:10557000002900EBC00101EB0010296802DA4FEAB4
:10558000410101E04FEA8101B0FBF1F06422B0FB80
:10559000F2F14FEA01114FEA11136FF018056B4356
:1055A00000EB8300A3891D044FF0320306D503EB03
:1055B000C000B0FBF2F000F0070005E003EB0010C4
:1055C000B0FBF2F000F00F000843208105B030BDC1
:1055D000003801408088C0F3080070477047FEE73C
:1055E0002DE9F0411E491D4D1E4E09886C881E4F45
:1055F000DFF87880814221D9081AFBF74FF832464C
:105600003B46FAF745FF00224346FAF741FFFBF716
:1056100090F880B2A04201D3002001E0201A80B2AD
:105620004FF420616880884200D969804FF4A071EE
:10563000884200D269800020BDE8F081401AFBF763
:105640002DF832463B46FAF723FF00224346FAF78D
:105650001FFFFBF76EF82044E1E700000600002082
:105660002401002083C0CAA145B6B33F0000184002
:1056700010B500EB8100FBF722F8104A104BFAF747
:1056800007FF104A104BFAF700FFFBF7A7F80F4986
:10569000884201DD084602E00D4988420DDDFBF736
:1056A00061F80C4A0C4BFAF7F3FE00220B4BFAF7A9
:1056B00048FEBDE81040FBF791B810BD4E062E2CF9
:1056C0000B683A3FC3F5285C8FC222400000F040CF
:1056D00000004040F2D24D621058E53F0000F03F1C
:1056E0002DE9F05F5F4CE08808B1401EE0805E4F1E
:1056F0002178DFF878B178785D4D4FF001094FF0EF
:1057000082464FF000084FF0040A88420CD028B1BE
:10571000FF280CD184F80480564803E0554884F8EB
:1057200004A02438FFF77CF97878FF280BD0207983
:105730004FF07E51012864D0032824D0042857D08C
:10574000052820D17AE0207930B1012810D0022834
:1057500037D0032817D140E02869B0F1814F7DDDB3
:10576000E869B0427ADA434884F80490243073E060
:10577000286902213222B0F1804F02DBE869B04291
:1057800002DD2171E28069E0DFF8EC807868414653
:10579000FAF761FDCBF80C005E4640466969FAF7FE
:1057A00054FD10F1FF4F01D3002002E04146FAF70B
:1057B00088FD3249FAF74FFD3149FAF7F4FC3061C0
:1057C0004CE0E869B04205DA2E482969814201DDE2
:1057D00084F80490E08880BB03E0786810F0FF4F05
:1057E00003D084F80480234836E02248483833E068
:1057F0002869884232DDE869B0422FDA84F80490E3
:105800002CE02869884202DBE869B04202DD84F8B6
:1058100004A01FE0787880B1052121714000E0806C
:1058200014484830FFF7FCF817497868FAF713FD79
:105830001649FAF7B8FCCBF804000FE0E869032535
:10584000B04204DD0B4825712438FFF7E9F8E08801
:1058500020B9257107482438FFF7E2F878782070DE
:10586000BDE8F09F380000206C020020AC01002051
:10587000DC0300203C6D00080000F0420000A04066
:10588000000020400000404000000C430000704237
:105890000249002008710248FFF7C2B83800002012
:1058A0003C6D00082DE9F05F5F4C608908B1401E37
:1058B00060815E4FA178DFF878B178785D4D4FF068
:1058C00001094FF082464FF000084FF0040A884269
:1058D0000CD028B1FF280CD184F80480564803E08E
:1058E000554884F804A02438FFF79AF87878FF2800
:1058F0000BD020794FF07E51012864D0032824D0AA
:10590000042857D0052820D17AE0207930B1012829
:1059100010D0022837D0032817D140E02869B0F111
:10592000814F7DDDE869B0427ADA434884F804901B
:10593000243073E0286902213222B0F1804F02DB6B
:10594000E869B04202DD2171628169E0DFF8EC8034
:1059500078684146FAF77FFCCBF80C005E4640467B
:105960006969FAF772FC10F1FF4F01D3002002E0E1
:105970004146FAF7A6FC3249FAF76DFC3149FAF7CD
:1059800012FC30614CE0E869B04205DA2E48296922
:10599000814201DD84F80490608980BB03E078686F
:1059A00010F0FF4F03D084F80480234836E02248EB
:1059B000483833E02869884232DDE869B0422FDA9E
:1059C00084F804902CE02869884202DBE869B04240
:1059D00002DD84F804A01FE0787880B105212171F0
:1059E0004000608114484830FFF71AF8174978687A
:1059F000FAF731FC1649FAF7D6FBCBF804000FE0B2
:105A0000E8690325B04204DD0B4825712438FFF70F
:105A100007F8608920B9257107482438FFF700F896
:105A20007878A070BDE8F09F380000206C0200205C
:105A3000AC010020DC030020A46E00080000F0424E
:105A40000000A040000020400000404000000C4347
:105A5000000070420249002008710248FEF7E0BFD2
:105A600038000020A46E00082DE9F0413F49C889A4
:105A700008B1401EC8813E4A087901261369D269DF
:105A80004FF0824570B13B4F4FF07E5C01287C683F
:105A900010D00027022857D0032813D114F0FF4F4D
:105AA0005AD15DE0B3F17F5F0CDDAA420ADA0E71D4
:105AB000314857E002200526634501DBAA4203DD99
:105AC0000871CE81BDE8F081B8462C492046FAF72E
:105AD000C2FB2B4D2B49E8602B488C42406C1DDAF1
