:020000040800F2
:1000000030090020450100082D460008ED3D00089C
:100010002B460008651700082B610008000000004F
:1000200000000000000000000000000079530008FC
:10003000C330000800000000714800089D5500080A
:100040005F0100085F0100085F0100085F01000810
:100050005F0100085F0100085F0100085F01000800
:100060005F0100085F0100085F0100089D2D000886
:100070005F0100085F0100085F0100085F010008E0
:100080005F0100085F010008491100085F010008D6
:10009000296100085F0100085F0100085F01000896
:1000A0005F0100085F0100085F0100085F010008B0
:1000B000E5560008E7560008E15700085F01000810
:1000C0005F0100085F0100085F0100085F01000890
:1000D000014F0008CD5E0008D55F0008D75F00081B
:1000E0005F0100085F0100085F0100085F01000870
:1000F0005F0100085F0100085F0100085F01000860
:100100005F0100085F0100085F0100085F0100084F
:10011000635E00085F0100085F0100085F010008DE
:100120005F0100085F0100085F0100085F0100082F
:10013000DFF80CD000F01CFE00480047B17A000840
:10014000300900200648804706480047FEE7FEE7E2
:10015000FEE7FEE7FEE7FEE7FEE7FEE7FEE7FEE777
:10016000AD5500083101000840EA01039B0703D0A8
:1001700009E008C9121F08C0042AFAD203E011F8E6
:10018000013B00F8013B521EF9D27047421C10F8A7
:10019000011B0029FBD1801A704700000FB400B585
:1001A0008DB010A909900B9000914FF0FF300A908C
:1001B00000200C9005480690054807906A4609A85B
:1001C0000F9900F07DFC0DB05DF814FBDD0A00080E
:1001D000FB0A00082DE9FF5F1D464FF0FF3BD5E904
:1001E000014691465F464FF00008A9697F1C0198BF
:1001F0008847296A824688470028F6D1BAF1FF3F2E
:100200000CD024F4C064002E19DD600614D5BAF1B8
:100210002B0F09D0BAF12D0F0ED103E0584604B0D0
:10022000BDE8F09F44F48064A9697F1C0198884769
:10023000761E8246002E02DDBAF1300F03D0B9F1EE
:10024000000F26D032E0A969761E44F400747F1CAA
:10025000019888478246002E05DDBAF1780F06D056
:10026000BAF1580F03D0B9F1000F10D01EE0B9F168
:10027000000F02D0B9F1100F18D1A969761E24F42D
:1002800000747F1C019888478246102002E00820F5
:1002900000E00A20814609E008FB0908A969761EEA
:1002A00044F400747F1C019888478246002E05DDC7
:1002B0004946504600F0F0FB0028EDDAE969019864
:1002C0008847A00502D46FF00100A8E7E00725D118
:1002D000600613D5600502D5C8F1000000E0404675
:1002E00029680A1D2A600968220501D5087015E0F1
:1002F000220701D5088011E008600FE02868011D81
:1003000029600068210502D580F8008006E02107F9
:1003100002D5A0F8008001E0C0F8008038467EE7F2
:10032000F0B480EA0102D40F4200B2EB410F02D2D6
:100330000246084611464A0042D0C30DDDB2C1F361
:10034000C752AD1A202D35DAC1F3160141F400026F
:1003500004B15242C5F1200602FA06F12A411044C6
:10036000B3EBD05F23D0C4B1012DA0EBC35009DCA7
:10037000F0BC4FF0004202EAC352DBB200F50000CD
:1003800000F0D5BB400000F1807000EBC350A0F13D
:10039000807040EAD170490009E0490841EAC07123
:1003A000A0EBC35000F50000400800EBC350F0BCC8
:1003B00000F0B4BB6142012202EB4101001BF6E7F1
:1003C000F0BC704781F00041AAE780F00040A7E749
:1003D00080EA010210B502F00043400022D04A003A
:1003E0001FD0010E01EB1261C0F35600C2F356029A
:1003F00040F4000042F40002A0FB022000047F3918
:10040000140400D0401C50EA124001D44000491EA0
:10041000C2B20C0604EBD010401C4008802A02D067
:1004200003E0002010BD20F00100002900DA0020C8
:10043000184310BD30B480EA010202F0004530F0EC
:10044000004221F0004013D090B1C30DD40DC2F38F
:100450001601C0F31600E41A41F4000140F4000252
:100460007D34914201D3641C00E04900002C02DA83
:1004700030BC002070474FF400000023914201D3AC
:10048000891A034340084FEA4101F7D151B1914223
:1004900002D14FF0004105E002D24FF0010101E02E
:1004A0006FF0010103EBC450284430BC00F036BBB0
:1004B0002DE9FE4F804681EA0300C00F0C460090F4
:1004C00021F0004123F00045B8EB0200A94105D21C
:1004D0004046214690461C460B46024623F000400B
:1004E000104347D0270DC7F30A00C3F30A51029007
:1004F000401A019040286BDAC3F3130040F4801BCC
:100500000098924620B10023D2EB030A63EB0B0B59
:1005100001985946C0F14002504600F08CFA064658
:100520000D4650465946019A00F0A4FA10EB080017
:100530006141002487EA115284EAE7731A4340D0EC
:10054000009A62B3019A012A4FEA075215DC001B98
:1005500061EB02014FF0004202EA0752CDE900428E
:10056000001C41F5801132462B4600F04AFB03B0D7
:10057000BDE8F08F40462146F9E7001B61EB020120
:10058000001C41F5801300185B412018A2F50017EC
:1005900047EB030140EAD570B6196D4111E06D08D3
:1005A0004FEA360645EAC0754FEA0752001B61EB79
:1005B0000201001C41F5801149084FEA3000001982
:1005C000514132462B4603B0BDE8F04F00F00CBB62
:1005D0000098012240000023D0EB020263EBE0739D
:1005E000009821464FEAE074B8EB000061EB04018B
:1005F000E9E783F000435BE781F0004158E72DE92C
:10060000FE4F81EA030404F0004421F0004100940D
:100610004FF0000B23F0004350EA01045ED052EA91
:1006200003045BD0C3F30A54C1F30A552C44A4F26B
:10063000F3340194A0FB0254C1F3130141F480117F
:10064000C3F3130343F4801301FB024400FB034E86
:10065000840A970A44EA815447EA8357A4FB07684F
:1006600002958D0A05FB07854FEA932C04FB0C5479
:100670002705029D4FEA065847EA1637B5EB0805ED
:100680006EEB070C870E920E47EA811742EA83123F
:10069000A7FB0201B6EB0B0164EB00042B0D43EA50
:1006A0000C335E1844EB1C50DA465146E7FB02015E
:1006B000C5F313044FEA0B3343EA14534FEA0432F1
:1006C000019C43EA0603A4F10C040294009CCDE9CA
:1006D00000B400F096FA03B0BDE8F08F00200146A8
:1006E000F9E72DE9F04D81EA030404F0004B21F015
:1006F000004514464FF0000A23F0004150EA05027D
:1007000020D054EA01021DD0C5F30A570246C5F3B2
:100710001303C1F31300C1F30A5640F4801543F4E8
:100720008013A7EB0608101BD64608F2FD3873EBC2
:10073000050002D308F1010801E092185B41B8F10D
:10074000000F03DA00200146BDE8F08D00204FF4D1
:100750008011064684460EE0171B73EB050705D390
:10076000121B63EB050306434CEA010C49084FEAF0
:10077000300092185B4150EA0107EDD152EA0300C4
:1007800012D082EA040083EA0501084305D0101B59
:10079000AB4106D20122002306E000224FF00043C5
:1007A00002E06FF0010253101AEB06004CEB085107
:1007B00010EB0A0041EB0B01BDE8F04D00F014BA5C
:1007C00070B521F0004303430CD0C1F30A55002457
:1007D000D5EB040564EB0403D617AD1AB34102DB75
:1007E0000020014670BD201841EB025170BDC10FC1
:1007F00080EAE0700844CA079623002100F097B908
:1008000096230022114600F092B90EB5C10F80EA7E
:10081000E0700844CA07002140F233438DE80E001F
:100820000A460B4600F0EDF903B000BD0EB540F2EC
:10083000334102910021CDE900110A460B4600F038
:10084000E0F903B000BD00F0004220F00040C10D0F
:10085000C0F3160040F400007F2901DA0020704741
:10086000962903DCC1F19601C84001E09639884021
:10087000002AF4D04042704720F00040C10DC0F380
:10088000160040F400007F2901DA00207047962905
:1008900003DCC1F19601C840704796398840704723
:1008A000C1F30A5210B5C1F3130140F2FF3341F412
:1008B00080119A4201DA002010BD40F233439A427F
:1008C000A2F2334203DC524200F0C4F810BD904063
:1008D00010BD00F0004230F000400AD0C10D01F51B
:1008E0006071C0F3160042EA0151C208400711438B
:1008F000704700200146704730B5002904DB4FF0F7
:100900000044404264EB0101002B04DB4FF0004443
:10091000524264EB03038B4208BF824230BD0000A9
:1009200030B5002904DB4FF00044404264EB010184
:10093000002B04DB4FF00044524264EB0303994266
:1009400008BF904230BD000001F0004330B421F0F8
:10095000004150EA010206D00A0DA2F56072C1F30F
:100960001301002A02DC30BC00207047440F44EA27
:10097000C104C100E01830BC00EBC25000F0CEB89A
:10098000002801DBC0F10040002901DBC1F100417A
:1009900081427047002801DBC0F10040002901DBE3
:1009A000C1F100418842704730B50B460146002036
:1009B0002022012409E021FA02F59D4205D303FA21
:1009C00002F5491B04FA02F52844151EA2F10102A2
:1009D000F1DC30BD2DE9F05F0546002092469B46D4
:1009E00088460646814640241BE028464146474645
:1009F000224600F02FF853465A46C01A914110D3B0
:100A000011461846224600F016F82D1A67EB010829
:100A10004F4622460120002100F00DF817EB000997
:100A20004E41201EA4F10104DFDC484631462A462F
:100A30004346BDE8F09F202A04DB203A00FA02F189
:100A4000002070479140C2F1200320FA03F31943BC
:100A500090407047202A04DB203A21FA02F000215E
:100A6000704721FA02F3D040C2F1200291400843BE
:100A700019467047202A06DBCB17203A41FA02F0CC
:100A800043EAE07306E041FA02F3D040C2F12002EB
:100A900091400843194670473A2800D2303820F078
:100AA0002002412A01D3A2F13700884201D34FF03E
:100AB000FF30704702681144137801601846704790
:100AC000D16004495161044911620021116111464C
:100AD00000F066B9B50A0008950D0008426842B1F9
:100AE000016811F8013B23B1521EC0E900121846FB
:100AF00070470121C160881E704742685AB1C368BF
:100B0000016843B983688B4205D0491E521CC0E975
:100B10000012002070474FF0FF3070470029A8BF37
:100B20007047401C490008BF20F00100704710B416
:100B3000B0FA80FC00FA0CF050EA010404BF10BCCB
:100B4000704749B1CCF1200421FA04F411FA0CF1F8
:100B500018BF012121430843A3EB0C01CB1D4FEA31
:100B600000614FEA102042BF002010BC704700EB2C
:100B7000C35010440029A4BF10BC7047401C49005A
:100B800008BF20F0010010BC7047F0B4002802DC60
:100B9000F0BC00207047C0F3C751C0F3160040F40A
:100BA0000000CA0701D14000491E3F2202EB610547
:100BB000002211464FF4000626FA01F31344D4181C
:100BC000844201D8001B1A464000491C1729F3DD56
:100BD0005100814202D24FF0FF3100E0002102EBD0
:100BE000C550F0BCFFF79ABF10B5002B08DA401CC7
:100BF00041F1000192185B411A4301D120F001003C
:100C000010BD2DE9F04D92469B4611B1B1FA81F22B
:100C100002E0B0FA80F220329046FFF70CFF044663
:100C20000F4640EA0A0041EA0B0153465A46084380
:100C300013D0114653EA010019D0C8F140025046C2
:100C4000FFF708FF05460E46504659464246FFF755
:100C5000F2FE084305D0012004E020463946BDE8F5
:100C6000F08D0020054346EAE0762C4337430A988E
:100C70006305E40AA0EB08000022FD0A44EA475499
:100C80000A3002D500200146E9E701051019694143
:100C9000DDE9084500196941BDE8F04DA4E72DE9FB
:100CA000F04D00231A461B1A8A4103DB002001463F
:100CB000BDE8F08DC1F30A52C1F3130141F4801570
:100CC0004FF0000BD10702D100186D41521E0027D2
:100CD000044640F2FF11384601EB620A3E46804668
:100CE000024600204FF48011FFF7B4FEC219714193
:100CF000BB1846EB0100B4EB030C75EB000C04D3FE
:100D0000E41A65EB000517460E46241908F10100A8
:100D10006D4180463428E3DDF91946EB0600091BD6
:100D2000A84103D24FF0FF32134601E000221346E0
:100D30001BEB070046EB0A51BDE8F04DFFF754BF2F
:100D4000C1F30A52C1F3130140F2FF3341F48011A1
:100D50009A4202DA00200146704740F233439A4239
:100D6000A2F2334202DC5242FFF774BEFFF763BEC9
:100D7000064C074D06E0E06840F0010394E80700E8
:100D800098471034AC42F6D3FFF7D6F980810008BB
:100D9000A0810008C0B24FF4F05100F095B90000F6
:100DA0002DE9F34F8BB04FF0000801F10C000C4619
:100DB0004FF0010B46460DF1080A019062690121CE
:100DC0000198904705002DD0252D2CD0216A884709
:100DD000C0B16269012101989047216A88470028C3
:100DE000F7D1411E62690198904700E0761CA16925
:100DF0000B988847216A88470028F7D1E1690B984A
:100E00008847DBE7A1690B9888470746A84201D1CC
:100E1000761CD3E7E1690B9888477F1C02D1B8F1B3
:100E2000000F6FD043E1002762693D4639460198C3
:100E300090472A2804D16269012101989047012531
:100E4000DFF880926269012101989047A0F130019A
:100E50000A290AD24F45E5DC07EB870100EB410781
:100E6000303FDFD445F01005ECE7E90601D46FF020
:100E700000476C280AD04C2814D0682815D06A285E
:100E80000DD074281CD07A281AD01DE06269012187
:100E9000019890476C2802D045F0040514E045F015
:100EA00002050DE045F020050AE062690121019884
:100EB0009047682802D045F0080505E045F4006534
:100EC0006269012101989047C4E9015765283DD026
:100ED00019DC582877D00CDC452837D004DC2528CD
:100EE00026D0412831D131E046282FD047282CD1B7
:100EF0002CE05B287DD0612828D0632879D0642835
:100F000023D157E0CDE06F2845D008DC66281DD0FE
:100F100067281BD0692821D06E2816D127E07028B9
:100F200042D0732865D0752844D078280DD14AE086
:100F3000A1690B988847054625283FF469AFE16908
:100F40000B9888476D1C3FF46AAFB0E023466A46B1
:100F50006FF001000B99AFF300809BE045F040007B
:100F60006060A80723464FF0000233D43BE02068BE
:100F7000011D21600068290501D506701EE72907BB
:100F800001D506801AE7A90703D5F117C0E900616A
:100F900014E7066012E745F040006060A8072346AA
:100FA0004FF0080216D41EE040F60E0125EA0100BB
:100FB000606016E045F040006060A80723464FF0EF
:100FC0000A0207D40FE045F040006060A80708D58A
:100FD000234610226FF001000B99AFF3008059E017
:100FE00007E0234610226FF001000B99FFF7F2F89B
:100FF00050E04FF000094F464B46632802D05B2873
:1010000006D040E0E80601D40120A06001273AE0C4
:1010100062690121019890475E2805D14FF00109CE
:101020006269494601989047216939B900210B4608
:10103000524642F82130491C0829FADBB0B3216935
:1010400069B9C11700EBD1614B110AEB830221F0A2
:101050001F01411A0120136888400343136062692D
:101060000121019890475D28E8D1B9F1000F09D01E
:101070000020514651F82020D24341F82020401C46
:101080000828F7DB02AB224600976FF001000B99AE
:10109000AFF3008000280CDA401C08D1BBF1000F30
:1010A00005D04FF0FF300DB0BDE8F08FFFE74046B0
:1010B000F9E7E90701D108F1010806444FF0000BF8
:1010C0007CE60000CCCCCC0C7F2801D9002208E0C3
:1010D000064A02EB5002C007127800D1120902F052
:1010E0000F02012090400840704700004081000836
:1010F00070B58C1810F8015B15F0070301D110F8DA
:10110000013B2A1106D110F8012B03E010F8016B06
:1011100001F8016B5B1EF9D12B0705D40023521E89
:101120000DD401F8013BFAE710F8013BCB1A921CF1
:1011300003E013F8015B01F8015B521EF9D5A142EF
:10114000D8D3002070BD000010B5084C0421204603
:1011500000F069F8002808D003F0F6FC2046BDE84E
:1011600010404FF4906100F003B810BD002401401E
:101170006FEA1121016070470029816802D041F0B7
:10118000010101E021F001018160704700298168BF
:1011900002D041F4807101E021F4807181607047D8
:1011A0000D4910B5884202D1012144150AE00B49CE
:1011B000884202D10121041504E0094988420AD17C
:1011C0000121CC03204603F09BFB2046BDE81040E4
:1011D000002103F095BB10BD002401400028014010
:1011E000003C01400029816802D041F4801101E0F7
:1011F00021F48011816070470029816802D041F498
:10120000004101E021F4004181607047826822F4CE
:10121000E0420A438260704701460020896849071E
:1012200000D5012070470246002012680A4200D013
:1012300001207047014600208968090700D5012078
:101240007047002A4268C9B201D00A4300E08A43CD
:101250004260704710B542680E4B0C791A400B681B
:1012600042EA04221343436082680B4B1A40D1E9DF
:10127000024323434C7942EA440213438360C26A27
:10128000097C22F47002491EC9B242EA0151C162CE
:1012900010BD0000FFFEF0FFFDF7F1FF70B507265F
:1012A00009290AD9C568A1F10A0404EB4404A6403F
:1012B000B543A3401D43C56007E0056901EB410448
:1012C000A640B543A3401D430561836BC3F301549E
:1012D000121B921C02EB82021F249440A3439140F4
:1012E0000B43836370BD826B491E22F4401242EAB5
:1012F00001518163704770B5072609290AD9C5686D
:10130000A1F10A0404EB4404A640B543A3401D43E5
:10131000C56007E0056901EB4104A640B543A34061
:101320001D4305611F23072A09D2446B521E02EB9D
:10133000820293409C4391400C43446370BD0D2A4C
:1013400009D2046BD21F02EB820293409C4391406E
:101350000C43046370BDC46A0D3A02EB82029340F1
:101360009C4391400C43C46270BD816841F0080108
:1013700081607047816841F004018160704700001E
:1013800005490028086802D040F4000001E020F47C
:101390000000086070470000082401402DE9F0417A
:1013A00007462848DFF8A88005882748B8F8004095
:1013B0000388264800881E1A05FB06F00312002049
:1013C0008D4200DD681A964201DDB11A084420B949
:1013D000D81BC11700EB117000111E4F002808DD4B
:1013E000FFF705FA396AFEF7F3FFFFF745FA2044E5
:1013F0000DE04042FFF7FBF9F969FEF7E9FFFFF75F
:101400003BFA80B2A04201D3002001E0201A80B252
:1014100040F6AC52A8F80000904202D9A8F800208B
:101420000DE04FF44872904209D2A8F80020B72D81
:1014300005D2B6F5307F02DA012003F033FF002039
:10144000BDE8F0812A0100201C01002024010020B9
:1014500008000020B001002070B506460846FFF7DE
:1014600038FA05460C463046FFF733FA0122FFF7FB
:10147000A7F92A462346FFF734F92A462346FFF701
:1014800030F9BDE87040FFF75FBA00002DE9F04782
:101490001E4D01462888A0F6AC50444200D50024D9
:1014A0000846FFF7A4F98146194E1A4831690068C9
:1014B000FEF788FFDFF86080D8F81810FEF788FF85
:1014C00007462046FFF793F9D8F81410FEF780FF7F
:1014D0003946FEF725FF4946FEF722FFFFF7B3F92D
:1014E00000B24FF44871884202DC0C49884200DAAD
:1014F0000846716808440549891F002800DC00205F
:101500004880A8800020BDE8F08700000800002087
:10151000E801002034000020B001002088FAFFFF1D
:1015200010B5002000F05AFD054C0146608881424C
:1015300005D000F0ABF8002000F050FD608010BD39
:10154000E400002030B585B000F03CFD01214807E3
:1015500003F0B2F93C200024CDE90104039401A971
:101560002046049400F046FD0121002000F01EFDFD
:1015700040F6B211002000F051FD0121002000F0E2
:1015800057FD002000F02AFD124948800121042067
:1015900003F0AAF91025ADF800508DF80340694614
:1015A0000D4802F039FA0121102003F09DF96C0179
:1015B000ADF8004001208DF802008DF80350074D72
:1015C0006946284602F028FA2146284602F0A0FA89
:1015D00005B030BDE40000200008014000100140CB
:1015E00010B504F011F9FFF7ADFF002000F084F80A
:1015F00040F6FF74204600F049F8204600F092F8CB
:101600002046BDE8104000F09DB8000010B50E4C1B
:1016100020B14FF40060E080401008E00A48C28822
:10162000008909B1111800E0111AE18040082081F9
:10163000E08800F077F804F0D5F8208908B10020A0
:1016400010BD012010BD00000E00002010B50E4C92
:1016500020B14FF400606081401008E00A484289E0
:10166000808909B1111800E0111A61814008A08138
:10167000608900F067F804F0B5F8A08908B100208F
:1016800010BD012010BD00000E00002010B5B0F507
:10169000805F01D2014601E040F6FF71002000F0BA
:1016A000BDFC0121002000F0C3FC002000F096FCEE
:1016B0000149488010BD0000E400002010B50D4C29
:1016C00020B14FF400606080401008E00948428873
:1016D000808809B1111800E0111A61804008A080CB
:1016E0006088FFF7D3FFA08808B1002010BD01205B
:1016F00010BD00000E000020084A094B4FF4007195
:1017000028B1012808D11070184602F0FFB9002056
:101710001070184602F0FCB970470000E400002089
:101720000010014040F6FF720449904201D2088047
:1017300000E00A800888024908807047CE00002037
:101740003808004040F6FF720449904201D20880F8
:1017500000E00A800888024908807047D000002015
:101760003C080040FEE70000104810B5002180F85A
:101770009C104022C0F89420C0F8982040F8801BAC
:1017800040F87C1C40F8781C40F8741C01744174CB
:101790008174C17481770D2141770549054804F0B2
:1017A00011FCBDE8104004F0D7BB000090040020FD
:1017B00005180008B917000810B504F081FB10499E
:1017C000C0B291F89D2032B191F89D20824202D1A1
:1017D000012281F89E204A68D1F89430521C5B1E89
:1017E0001A400B689A420AD04B68054A1032985446
:1017F0004868D1F89420401C521E1040486010BD2B
:101800009004002010B50D4CA068E16888420DD00E
:10181000A16804F15000085C04F0CCFBA068D4F887
:101820009810401C491E0840A06010BD002084F89C
:101830009C00BDE8104004F087BB0000900400202D
:1018400010B506F073F810B14FF0FF3010BD074B24
:10185000196803F11000085C1968D3F89420491C3A
:10186000B1FBF2F402FB1411196010BD90040020CA
:10187000F0B5114A05460E4692F89D000024631EFD
:1018800010B192F89E0010B106F050F808B1184659
:10189000F0BD72B6002782F89E7001E005F8010BDA
:1018A000FFF7CEFF411C03D02146641CB142F5DB9B
:1018B00062B62F702046F0BD90040020012106F092
:1018C0007BB810B50446FEF761FC01462046BDE832
:1018D0001040AFF300802DE9F04100240F4606468A
:1018E0004D1E04E0305D002106F066F8641CAC4239
:1018F000F8DBF019012110F8010C06F05DF800206A
:10190000BDE8F0810F4810B50078082819D2DFE84B
:1019100000F01818041818180C08BDE8104000F062
:1019200061B8BDE8104000F011B800F02BF906488E
:101930000078022801D103F0B3F9BDE8104000F0AF
:10194000D7B910BD02000020B001002070B502F030
:10195000B9FC1B4C2069FEF7BCFF1A4A1A4BFEF774
:10196000C0FEFEF79DFF80B204F0E0FBA068FEF72A
:10197000B0FF164A164BFEF7B4FEFEF791FF86B293
:101980006068FEF7A6FF134A134BFEF7AAFEFEF7A8
:1019900087FF85B2E068FEF79CFF104A104BFEF708
:1019A000A0FEFEF77DFF80B232462946FFF7F6FC27
:1019B0000020FFF76BFDBDE8704000F099B9000012
:1019C000B001002083C0CAA145B6B33F93E1467081
:1019D0007E97323F3D99DA26D5F5BB3F95EFBB6543
:1019E000A63E803F2DE9F04102F06CFC474C0428F4
:1019F0004ED804F12405464E68784649012806D0A1
:101A0000022804D003280FD0042849D11BE088887D
:101A1000FEF7F6FE6968FEF7DBFC3146FEF70AFDCD
:101A20006060E868E0602EE08888FEF7E9FEA9685B
:101A3000FEF7CEFC3146FEF7FDFCA060E868E060F2
:101A40006868606021E088880746FEF7D9FE804616
:101A5000E968FEF7BDFC3146FEF7ECFCE06087B1BB
:101A600040466968FEF7B4FCFEF733FF00222A4BBC
:101A7000FEF737FE0022294BFEF71AFDFEF764FF42
:101A800000E000206060A868A0602869206107E08D
:101A900023486060234820612348A0602348E06019
:101AA0002069FEF716FF224A224BFEF71AFEFEF7C8
:101AB000F7FE80B204F03AFBA068FEF70AFF1E4A68
:101AC0001E4BFEF70EFEFEF7EBFE86B26068FEF7D9
:101AD00000FF1B4A1B4BFEF704FEFEF7E1FE85B23A
:101AE000E068FEF7F6FE184A184BFEF7FAFDFEF71F
:101AF000D7FE80B232462946FFF750FC0020FFF7A0
:101B0000C5FCBDE8F04100F0F3B80000B0010020D2
:101B10000000C8420200002000005940000054406C
:101B20000000A042000020413333333F0000A041B9
:101B300083C0CAA145B6B33F93E146707E97323F5A
:101B40003D99DA26D5F5BB3F95EFBB65A63E803FB4
:101B500004484079012803D0052801D000207047AF
:101B6000012070474400002005484079052805D031
:101B7000072803D0062801D00020704701207047B5
:101B80004400002010B502F09DFB00F0CBF917488F
:101B9000416811F0FF4F08D00078072825D2DFE810
:101BA00000F0240C1014181C200011490320487167
:101BB000BDE810400F4803F07BBCBDE8104005F0C5
:101BC00005B9BDE8104004F07FBDBDE8104004F049
:101BD00053BCBDE8104004F04BBFBDE8104004F01A
:101BE0008FBEBDE8104004F021BB10BDD80200201C
:101BF00044000020AC7C000810B52021144801F0FE
:101C000085FF14480078072821D2DFE800F0040897
:101C10000C1014181C00BDE8104004F015BFBDE8FE
:101C2000104005F0E9B9BDE8104004F057BEBDE82A
:101C3000104004F031BDBDE8104005F0B5B8BDE876
:101C4000104004F0F7BEBDE8104004F0FDBB10BD2D
:101C5000000C0140D802002010B50021084600F019
:101C600049F90648044941614FF07F5181610449B7
:101C7000C1610449016210BDCDCC4CBDB001002052
:101C8000CDCC4C3DCDCCCC3D074806494160074901
:101C90000161074981600749C160074900208880C8
:101CA000704700000000A042B00100200000204169
:101CB0003333333F0000A0410200002007480649AB
:101CC000416007490161074981600749C1600749CF
:101CD00000208880704700000000A042B001002072
:101CE000000020413333333F0000A04102000020B8
:101CF00010B50C4C208800F0AFF900F0A7F9B0F552
:101D0000487F01D2012000E00020FFF7F5FC608849
:101D100003F026FBA088FFF7B9FCBDE8104003F0F4
:101D200061BD0000080000200A490A8982420FD0E4
:101D3000088148B14FF49671884203D340F2E241E2
:101D4000884203D9084601E04FF47A7000F09AB94E
:101D500070470000D802002003490A78824202D06E
:101D60000870FFF749BF7047D8020020054910B539
:101D70008880FEF745FD0449FEF75CFB0349486097
:101D800010BD0000020000200000C842D802002060
:101D90000149487000207047D802002010B5044661
:101DA000FEF733FD0022084BFEF782FB6FF00602C0
:101DB000FEF706FDFEF7C8FD0146044881610121DA
:101DC0000160E0B210BD000000006040E4020020AD
:101DD00010B50446FEF719FD0022084BFEF768FB1C
:101DE0006FF00602FEF7ECFCFEF7AEFD014604487C
:101DF000416101210160E0B210BD000000006040BF
:101E0000E40200202DE9F0411A4F1B4D04000ED4CE
:101E10004FF07E50A8602046FEF7F7FC6FF00402FA
:101E2000FEF7CEFC00223B46FEF742FB19E0604283
:101E3000FEF7EBFC884606466FF00502FEF7C0FC95
:101E400000223B46FEF734FBFEF77EFDA8603046DD
:101E500041466FF00702FEF7B3FC00223B46FEF757
:101E6000CBFBFEF771FD286101202860E0B2BDE8E0
:101E7000F08100000000F03FE40200202DE9F04175
:101E80001A4F1B4D04000ED44FF07E506860204660
:101E9000FEF7BBFC6FF00402FEF792FC00223B460B
:101EA000FEF706FB19E06042FEF7AFFC88460646E7
:101EB0006FF00502FEF784FC00223B46FEF7F8FABD
:101EC000FEF742FD6860304641466FF00702FEF7BC
:101ED00077FC00223B46FEF78FFBFEF735FDE860FE
:101EE00001202860E0B2BDE8F08100000000F03F72
:101EF000E402002010B504000ED0022C04D0062C01
:101F000008D0072C08D102E0FFF7D8FE04E0FFF765
:101F1000BBFE01E0FFF770FE0148047010BD000039
:101F20000200002070B5124C206800281ED0A4F1D9
:101F300034052169E868FEF74BFAA4F12006F06049
:101F4000E168A868FEF744FAB06061682868FEF7A7
:101F50003FFA3060A1686868FEF73AFA706061691C
:101F60002869FEF735FA30610020206070BD00005E
:101F7000E402002072B6044908884A8842408A80F8
:101F8000488062B670470000C40000200248018803
:101F9000491C018070470000C40000200248002155
:101FA0000180418081807047C4000020044B0122E1
:101FB0008240186809B1104300E0904318607047F0
:101FC0000074004010B501214C07204602F080FC4F
:101FD0002046BDE81040002102F07ABC044908B553
:101FE00001EB90002C300090006880B208BD00002A
:101FF0000074004030B5084C236840F6FE72824001
:102000009343D1E900252A43D1E902510D432A43E4
:1020100082401A43226030BD00740040034A08B574
:10202000104408300090016008BD000000740040BA
:102030000209054B012090400029196801D0014395
:1020400000E0814319607047047400400148008833
:1020500070470000D200002040F6FF71044A884219
:1020600002D21080012070471180002070470000CC
:10207000D200002010B502F067FEBDE8104003F06A
:10208000B1BB00000149088001F0B4BC98000020F9
:1020900038B50121042002F027FC4020ADF80000F3
:1020A00001208DF802001020054C8DF803006946D0
:1020B000204601F0B1FC4021204601F027FD38BD4B
:1020C0000008014010B502F097FE03F09DFB00F000
:1020D00021F800F005F8BDE81040FFF7D9BF000077
:1020E00038B50121082002F0FFFB2020ADF80000E8
:1020F00001208DF802001020054C8DF80300694680
:10210000204601F089FC2021204601F0FFFC38BD6B
:10211000000C014038B50121082002F0E5FB102039
:10212000ADF8000001218DF80210064C8DF8030077
:102130006946204601F070FC1021204601F0E6FCC3
:1021400038BD0000000C0140044840F63C71C088D6
:10215000884201D902207047012070473C030020CB
:102160002DE9F84FF94DE88908B1401EE8816878FB
:10217000DFF8DCA3DFF8DCB302240D26DFF8D88318
:10218000F64F4FF005090E2840D2DFE800F0074176
:1021900087B2FAF5F4F3F2F1F0EFEEEDF0A0009073
:1021A000F0A3F3A2F449D02005F046FCDAF80C10B5
:1021B00041F48061CAF80C1001242C70ABF8004087
:1021C00002F068FD03F0C4F840F6D860FFF744FF62
:1021D0002021EA4801F09CFC0020FFF78DFA4FF423
:1021E000C86003F0BDF840F6FF763046FFF74EFAC0
:1021F0003046FFF797FA3046FFF7A4FA002002F0C6
:102200000DFC03F0EFFA0A20E8816C70BDE8F88F4E
:10221000E889A9460028F9D1D8F810004546386168
:1022200005F0FEFB38B13869FEF753FB02460B465A
:10223000D3A004F0F3FECAA00090D4A3CCA2CE4950
:10224000E92005F0F9FBD4492868D44A01449142B9
:1022500012D289F801406968C7E905010121ABF88C
:10226000001005F0DDFB0028D0D02868FEF731FB18
:1022700002460B46CAA0F6E305F0D2FB38B1286847
:10228000FEF727FB02460B46C9A004F0C7FE03F089
:1022900057F889F8004089F80160B7E7C949B8697B
:1022A000884219DC05F0BCFB38B1B869FEF711FBB8
:1022B00002460B46C4A004F0B1FEA9A00090C5A33D
:1022C000ABA2AD49FF2005F0B7FB032068700021E9
:1022D0000120FFF7F3F951E005F0A2FB30B1B86936
:1022E000FEF7F7FA02460B46BDA091E02C706E7027
:1022F0008CE7E889002889D102F0AEFBBB46B869BB
:10230000FEF7E7FA0122FEF75BFABA4ABA4BFEF78C
:10231000CFF807468A46D8F80400FEF7DAFA5346A3
:102320003A46FEF7FDFA01D2012100E0002100202B
:10233000FFF7C4F910B3B14840F6B7315F460088E3
:10234000CBF80400A0F2F510884201D204208EE000
:1023500005F066FB18B1AAA0796804F05FFE40F6AC
:10236000FF70FFF793F98BE0ACE3E6E2A3E24EE205
:102370000CE2BEE1CBE086E04DE002E0A5F80E9075
:1023800044E702F069FBBA46B869FEF7A2FA0122F7
:10239000FEF716FA974A9F4BFEF78AF800908B4695
:1023A0004746D8F80400FEF794FA5B46009AFEF719
:1023B000A3FA22D205F034FB50B17868FEF789FA0F
:1023C000DAF8044002460B46214693A004F026FEAC
:1023D0007968CAF81C1062A0009095A364A26649AF
:1023E00040F22D1005F028FB4C4685F801900021A5
:1023F0000120FFF70BF9EC8108E705F011FB00283D
:102400003FF474AF7868FEF764FA02460B468CA07E
:1024100004F004FE6AE7E8890028B1D102F01CFB51
:10242000BB46F869FEF755FA4FF03332894BFEF799
:102430003FF807468A46D8F80400FEF74AFA3A46BB
:102440005346FEF76DFA01D2012100E00021002081
:10245000FFF7DCF8002891D07F4840F647515F46EF
:102460000088ABF80C006538884202D206206870FC
:10247000CCE605F0D5FA002864D0B98977A0B8E198
:102480006E702C70C2E602F0E7FA3448C069FEF7BD
:1024900020FA774A774BFEF70BF882468B46474681
:1024A000D8F80400FEF715FA52465B46FEF724FA08
:1024B00022D22A4C7868A06205F0B2FA48B1A06A2C
:1024C000FEF707FAA48902460B4621466AA004F0EB
:1024D000A5FD40F6FF70FFF725F921A000906EA33F
:1024E00023A225494FF4AF7005F0A6FA0021012080
:1024F000FFF7ACF80720C5E105F092FA002822D0DA
:102500007868FEF7E6F902460B4667A0C5E1E88960
:102510000028ADD102F0A0FA1048C069FEF7D9F941
:102520004FF033324B4BFDF7C3FF07468B46D8F8CD
:102530000400FEF7CEF95B463A46FEF7F1F903D206
:102540000121BEE057E1AAE1BAE000000E00002040
:1025500000100140EA00002048030020E8010020AC
:10256000000000005445535420494E49543A00009D
:10257000646961672E6300007C7C0008000C0140E8
:102580002054303D25352E32660D000054455354FD
:1025900020564241523A0000FFFF4BBEFFFF17009A
:1025A000204F4B2056423D25352E3266000000005C
:1025B000204552524F522056423D25352E32660D4F
:1025C000000000000AD7A33C2C2049423D25362EAE
:1025D00034660D005445535420424941533A00009B
:1025E0002C204552524F522049423D25362E34660A
:1025F0000D0000007B14AE47E17A843FE600002026
:10260000204552524F5220564441433D2534640DDB
:1026100000000000E17AA43F204F4B205644414384
:102620003D25642C2049423D25362E34660D0000A0
:102630005445535420424941535F4D31413A0000C3
:10264000204552524F522049423D25362E34660DC8
:10265000000000003333E33FCE00002020455252FB
:102660004F522050574D5F4731413D2534640D0096
:10267000CDCCCCCCCCCCE43F204F4B2050574D5F41
:102680004731413D25642C2049445F4D313D25367D
:102690002E34660D00000000544553542042494139
:1026A000535F4D32413A0000204552524F5220496B
:1026B000445F4D31413D25362E34660D000000004B
:1026C00000210020FEF7C2FF00283FF404AEFE48C0
:1026D000FE4F40F647510088F8816538884201D2A4
:1026E0000820C4E605F09CF900287CD0F989F8A000
:1026F00013E102F0B1F9F548C069FEF7EAF8F94ACA
:10270000F94BFDF7D5FE834600914746D8F8040003
:10271000FEF7DFF85A46009BFEF7EEF824D2EB4CAA
:102720007868E06205F07CF948B1E06AFEF7D1F81C
:10273000E48902460B462146ECA004F06FFC40F60B
:10274000FF70FEF7FFFFF0A0F0A3AFF2DC120090E5
:10275000F2494FF4CA7005F06FF909206870002142
:102760000120FEF753FF09E605F05AF900287AD058
:102770007868FEF7AEF802460B46E9A0A1E2DAF867
:102780000C1041F48061CAF80C103FE5E88900287C
:10279000FBD102F061F9BB46F869FEF79AF8E64A08
:1027A000E64BFDF785FE07468A46D8F80400FEF79B
:1027B00090F83A465346FEF7B3F801D2012100E003
:1027C00000210020FEF722FF0028CCD0DC4840F694
:1027D000B7315F460088ABF80800A0F2F5108842D8
:1027E00002D20A2043E69AE005F01AF918B13989B5
:1027F000D4A004F013FC40F6FF773846FEF746FFFE
:102800003846FEF78FFF3846FEF79CFF38E602F0A9
:1028100023F9AE48C069FEF75CF80022CE4BFDF705
:1028200047FE82468B464746D8F80400FEF751F82B
:1028300052465B46FEF760F826D2A44C78682062C8
:1028400005F0EEF848B1206AFEF743F82489024605
:102850000B462146C1A004F0E1FB40F6FF70FEF7F5
:1028600061FFA9A000E02EE2C3A3AFF2FC2200901A
:10287000AA494FF4E57005F0DFF800210120FEF7CA
:10288000E5FE0B20687079E505F0CAF838B1786884
:10289000FEF71FF802460B46BBA004F0BFFB40F654
:1028A000FF773846FEF7F2FE3846FEF73BFF384624
:1028B000FEF748FF1AE5E88900287FF4EEAC02F045
:1028C000CBF88248C069FEF704F89B4A9B4BFDF7A2
:1028D000EFFD07468B46D8F80400FDF7FAFF3A46AD
:1028E0005B46FEF71DF801D2012100E00021002027
:1028F000FEF7ACFE0028C6D07348744F40F6B731DF
:1029000000887881A0F2F510884201D20C20AEE553
:1029100005F086F818B17989A0A004F07FFB40F695
:10292000FF773846FEF7B2FE3846FEF7FBFE384624
:10293000FEF708FF6E702C7021E702F08DF86348F7
:10294000C069FDF7C6FF0022834BFDF7B1FD81464C
:1029500000914746D8F80400FDF7BBFF4A46009BAC
:10296000FDF7CAFF7ED2594C7868606205F058F8CE
:1029700048B1606AFDF7ADFF678902460B463946EC
:102980008BA004F04BFB40F6FF773846FEF77EFE47
:102990003846FEF7C7FE3846FEF7D4FEA08880B260
:1029A000FEF774FE2089FEF7BDFE6089FEF7CAFEC1
:1029B000012002F033F80021ABF8001002F06AF9B0
:1029C000A08881B2384603F0F9FB2063A08881B269
:1029D000A08903F0F3FB216BFDF7F4FC0146A06A2C
:1029E000FEF73AFDE063226A0146104600F052FB12
:1029F0000746A08881B2208903F0E0FB3946FDF745
:102A0000E1FC6063A08881B2A08903F0D7FB616B11
:102A1000FDF7D8FC0146A06AFEF71EFDE063A08822
:102A200081B2E08903F0CAFB216BFDF7CBFC0146C4
:102A3000E06AFEF711FD2064626A0146104600F06C
:102A400029FB0746A08881B2608903F0B7FB3946AD
:102A5000FDF7B8FCA063A08881B2E08903F0AEFB6B
:102A6000A16B01E024E116E1FDF7ACFC0146E06A50
:102A7000FEF7F2FC2064FFF767FB2060D4E90F014A
:102A8000FDF74EFC01465148FDF7D4FC60641EA0E2
:102A90004FA3AFF224520090204940F2172004F0D7
:102AA000CBFF206802280ED004F0BAFF18B1002135
:102AB0004AA004F0B3FA02F04BFC4B4840F6D86150
:102AC000018093E00DE1EBE0D0000020E801002060
:102AD000204552524F522050574D5F4732413D25BD
:102AE00034640D00CDCCCCCCCCCCE43F204F4B207B
:102AF00050574D5F4732413D25642C2049445F4D7E
:102B0000323D25362E34660D0000000054455354E6
:102B100020424941535F4D313A0000007C7C00085F
:102B2000204552524F522049445F4D32413D253697
:102B30002E34660D000000009A9999999999C93F21
:102B4000CE000020204552524F522050574D5F4733
:102B5000313D2534640D00000000D03F204F4B2054
:102B600050574D5F47313D25642C2049445F4D311E
:102B70003D25362E34660D005445535420424941BC
:102B8000535F4D323A000000204552524F522049C7
:102B9000445F4D313D25362E34660D00204552529E
:102BA0004F522050574D5F47323D2534640D000091
:102BB000204F4B2050574D5F47323D25642C204914
:102BC000445F4D323D25362E34660D000000A04096
:102BD00054455354204F4B3A0000000020544950B4
:102BE0004F20440D00000000080000204FF4487101
:102BF0004180A1888180FFF77BF86E70AFF2F8000A
:102C00003CA3AFF2946200903C4940F2292004F0CA
:102C100013FF04F005FF38B1206BFDF75AFE0246A2
:102C20000B4637A004F0FAF904F0FAFE38B1606CF4
:102C3000FDF74FFE02460B4634A004F0EFF904F016
:102C4000EFFE38B1E06BFDF744FE02460B4633A0C1
:102C500004F0E4F904F0E4FE38B1606BFDF739FEEE
:102C600002460B4630A004F0D9F904F0D9FE38B181
:102C7000206CFDF72EFE02460B462DA004F0CEF987
:102C800004F0CEFE00283FF480ADA06BFDF721FEDE
:102C900002460B4629A001B0BDE8F04F04F0BEB9D2
:102CA00004F0BEFE00283FF406AF002125A000E797
:102CB00004F0B6FE38B17868FDF70BFE02460B460D
:102CC00023A004F0ABF940F6FF773846FEF7DEFCB0
:102CD0003846FEF727FD3846FEF734FD2C706E703F
:102CE0004DE500202870BDE8F84F20211D4800F078
:102CF0000DBF00005245504F52543A007C7C0008F2
:102D000056543D25342E3266200000004E4B4D4176
:102D1000503D25342E326620000000004D313D2507
:102D2000342E32662C00000025342E32662000003E
:102D30004D323D25342E32662C00000025342E32D3
:102D4000660D0000205449504F20450D0000000042
:102D5000204552524F522049445F4D323D25362E78
:102D600034660D00000C01400648002101704170DE
:102D700005494FF48050486008814881202103486C
:102D800000F0C6BE0E000020E8010020000C01404B
:102D900001480078704700000E0000200D4810B573
:102DA0000168490706D5042000F016F8BDE8104078
:102DB00000F088B90068800706D5022000F00CF802
:102DC000BDE8104000F0AABABDE81040012000F0B4
:102DD00003B8000000000240C10002D502490860AB
:102DE00070470249486070470404024000000240F6
:102DF0000029016802D041F0010102E04FF6FE72A5
:102E0000114001607047000001684FF6FE721140EA
:102E100001600021016041608160C1603149314A37
:102E20000839904203D1486840F00F0006E02D4A6F
:102E30001432904204D1486840F0F0004860704776
:102E4000284A2832904203D1486840F47060F5E780
:102E5000244A3C32904203D1486840F47040EDE788
:102E6000204A5032904203D1486840F47020E5E790
:102E70001C4A6432904203D1486840F47000DDE798
:102E8000184A7832904203D1486840F07060D5E724
:102E9000154A111F904203D1086840F00F0006E068
:102EA000114A1432904204D1086840F0F0000860E2
:102EB00070470D4A2832904203D1086840F4706090
:102EC000F5E7094A3C32904203D1086840F470406B
:102ED000EDE7054A50329042EAD1086840F470208C
:102EE000E5E700000800024008040240002A0268EA
:102EF00001D00A4300E08A430260704730B502689F
:102F000047F6F0739A430C6A8B682343D1E9044572
:102F10002C4323438C692343CC6923434C6A2343CA
:102F20008C6A234313430360CA6842600A68826064
:102F30004968C16030BD01460020B1F5806F03D201
:102F40006FF47C1000EA81107047000001460648CB
:102F50001029C08806D24FF4707220F4707002EA13
:102F600081110843704700008C00002010B5024614
:102F7000002401230549B02000F03AFF04490870FD
:102F800008B902480478204610BD0000A1000020C6
:102F9000A000002010B50246002402230749B020FB
:102FA00000F026FF0649087028B9044841780078E7
:102FB00001EB002084B2204610BD0000A1000020DB
:102FC000A0000020064B10B55870000A18700A4681
:102FD00002230349B02001F009F80249087010BD2E
:102FE000A9000020A000002010B5294C0020E070AE
:102FF00020716081E080208120706070FF20A070CF
:103000000120FFF7A3FF40F480500221FFF7DAFF11
:1030100001F02FFC01F02DFC01F02BFC01F029FC4C
:1030200001F027FC01F025FC4FF44870FFF783FF07
:103030000821FFF7C7FF01F01CFC01F01AFC01F0AA
:1030400018FC01F016FC01F014FC01F012FC01F078
:1030500010FC0220FFF79EFF00F47070E080082053
:10306000FFF798FF20F03F0020810E20FFF77EFF42
:1030700000F01F0020700D20FFF778FF00F00F0018
:10308000A0703720FFF772FF00F01F00607010BDC6
:103090008C00002070B506460846FDF71AFC044671
:1030A0000D463046FDF715FC0122FDF789FB22464F
:1030B0002B46FDF716FBFDF747FCBDE8704004F01A
:1030C0008DBD70472DE9FE4F934992484FF6FF7230
:1030D000886280300024C8620290CC638C634C63A9
:1030E0000C638C65CC6408460C644788A146164680
:1030F0000197CB46B24680885D465346009067E014
:1031000037F8020BDCF83010CCF828700144CCF80A
:103110003010854200D20546834200D9034637F875
:10312000021BDCF83480BE468844CCF83480CCF8EE
:1031300028708C4200D20C468A4200D90A46DFF839
:10314000D8C1BEF80070DCF838C0BB4507EB0C08EE
:10315000DFF8C4C1CCF83880DFF8BC810EF1020C76
:10316000E646C8F828C000D2BB46BA4500D9BA46E0
:10317000DFF8A4C1BEF80070DCF83CC0B94507EB2D
:103180000C08DFF894C1CCF83C80DFF88C810EF19C
:10319000020CC8F828C000D2B946BE4200D93E464B
:1031A000DDF804C05C4FA0EB0C00DDF800C0A1EB23
:1031B0000C01D7F840C000FB11CCC7F840C0D7F8CD
:1031C0004CC000FB00C0F864B86D01FB0100B8659D
:1031D000DFF844C10298DCF82870874290D360463B
:1031E0000189C76BC1EB1711076F39440167090AE1
:1031F0000181C188876BC1EB1711C76E3944C16665
:10320000090AC1800099476BC1EB1711876E3944D9
:103210008166090A81800199076BC1EB1711476E1E
:1032200039444166090A4180016CCF1701EB1771DF
:10323000476CC7EB2111876C3944CF17816401EBD0
:10324000176109124164C16CCF1701EB1771076D4B
:10325000C7EB2111476D3944CF17416501EB176169
:1032600009120165816DCF1701EB1771C76DC7EBAF
:103270002111076E3944CF17016601EB176109125E
:10328000C16500F18001078AD1F800C0A9EB0707EA
:1032900067440F603F0A0782B0F80EC0ABEB0C0723
:1032A000D0F87CC06744C7673F0AC7818789D0F8D8
:1032B00078C0E71B674487673F0A87814789D0F852
:1032C00074C0EF1B674447673F0A4781078BF61BB3
:1032D0000F693E440E61360A0683C78AAAEB0706C9
:1032E000CF683E44CE60360AC682868A8F68961BB7
:1032F0003E448E60360A8682468A4F689E1B3E4454
:103300004E60310A4182E91A4183A11A8183BDE8E6
:10331000FE8F000064030020100100202DE9FE4F05
:10332000934992484FF6FF72886280300024C86249
:103330000290CC638C634C630C638C65CC64084650
:103340000C644788A14616460197CB46B246808852
:103350005D465346009067E037F8020BDCF830100A
:10336000CCF828700144CCF83010854200D20546D4
:10337000834200D9034637F8021BDCF83480BE468E
:103380008844CCF83480CCF828708C4200D20C46AB
:103390008A4200D90A46DFF8D8C1BEF80070DCF8CE
:1033A00038C0BB4507EB0C08DFF8C4C1CCF8388047
:1033B000DFF8BC810EF1020CE646C8F828C000D246
:1033C000BB46BA4500D9BA46DFF8A4C1BEF80070C2
:1033D000DCF83CC0B94507EB0C08DFF894C1CCF829
:1033E0003C80DFF88C810EF1020CC8F828C000D2B6
:1033F000B946BE4200D93E46DDF804C05C4FA0EBA2
:103400000C00DDF800C0A1EB0C01D7F840C000FBB8
:1034100011CCC7F840C0D7F84CC000FB00C0F8641E
:10342000B86D01FB0100B865DFF844C10298DCF813
:103430002870874290D360460189C76BC1EB171192
:10344000076F39440167090A0181C188876BC1EBA5
:103450001711C76E3944C166090AC1800099476BCC
:10346000C1EB1711876E39448166090A8180019981
:10347000076BC1EB1711476E39444166090A418059
:10348000016CCF1701EB1771476CC7EB2111876CEB
:103490003944CF17816401EB176109124164C16C93
:1034A000CF1701EB1771076DC7EB2111476D394439
:1034B000CF17416501EB176109120165816DCF17C7
:1034C00001EB1771C76DC7EB2111076E3944CF1798
:1034D000016601EB17610912C16500F18001078ADD
:1034E000D1F800C0A9EB070767440F603F0A0782C5
:1034F000B0F80EC0ABEB0C07D0F87CC06744C767D0
:103500003F0AC7818789D0F878C0E71B674487677F
:103510003F0A87814789D0F874C0EF1B674447672B
:103520003F0A4781078BF61B0F693E440E61360A3E
:103530000683C78AAAEB0706CF683E44CE60360AE8
:10354000C682868A8F68961B3E448E60360A8682C3
:10355000468A4F689E1B3E444E60310A4182E91AFA
:103560004183A11A8183BDE8FE8F0000E40300209F
:10357000100100202DE9F047564D95F9000018B1D3
:10358000401E2870BDE8F0876889698A401AFDF7F7
:103590003CF9514A514BFDF732F8FDF7D5F9504C43
:1035A0002060A889A98A401AFDF72FF94D4A4E4B91
:1035B000FDF725F8FDF7C8F9A060686CFDF725F95F
:1035C0004A4A4B4BFDF71BF8FDF7BEF92061286D09
:1035D000FDF70DF9DFF8FCA081460AF1800A564696
:1035E000CAF81400286AFDF774F907468846484669
:1035F000FDF76FF904F0CCFA3A464346FCF7FFFFBB
:10360000FDF7A2F960607069FDF763F9394A3A4B3A
:10361000FCF7F5FFFDF798F97061686AFDF759F955
:1036200006460F46E86DFDF7E2F8FDF752F904F0A3
:10363000AFFA32463B46FCF7E2FFFDF785F9E06062
:10364000626801461046FCF7C3FE054660612069CA
:103650000146FCF7BDFE064629460846FCF7B8FEC3
:103660003146FCF7AFFEFDF734F904F091FAFDF7AF
:103670006BF9A06181462148E168214F214E4FF04E
:103680007D58814224DD6068FCF7D4FE20F00040C4
:1036900020621D482569854215DBDAF814002946A9
:1036A0000646FCF7C7FE20F00040A06249463046BF
:1036B000FCF7C0FE20F00040606229464846FCF757
:1036C000B9FEE0615EE7C4F81C80C4E9096759E708
:1036D0002662F8E7100100203D99DA26D5F5BB3FB8
:1036E0006404002093E146707E97323F728115F1A9
:1036F000E725303FAC5791D10149B83F0AD7233C69
:103700000060EA4600401C47CDCCCC3D2DE9F04797
:103710009AB04FF4004001F0B9F80121032001F004
:10372000BFF8012140F6056001F0DEF80F20ADF88A
:103730006000A34D00248DF8634018A9284600F0CE
:103740006BF901219F4800F0B5F901219E4800F076
:10375000B1F90121102001F0C7F83F21ADF8601048
:103760008DF8634018A9284600F056F9DFF85C820E
:103770004046FDF715FD964D2846FDF711FD012049
:10378000FDF7FEFD0B208DF8400001268DF841600D
:103790008DF842408DF8436010A800F049FF1220D8
:1037A0008DF840008DF841408DF842408DF843601F
:1037B00010A800F03DFF11A802F04AFB48F6A04017
:1037C000ADF848000227DFF80CA2ADF84470ADF860
:1037D0004A40ADF8464011A9504602F0EBFA60208D
:1037E000ADF850007F20ADF85600ADF85260ADF84E
:1037F000587014A9504602F06BFADFF8DC91484685
:10380000FFF702FB714805A94C3005907348CDE9DC
:1038100006044020CDE9080480200A9080000B9027
:1038200080000C9020200D900002CDE90E04484647
:10383000FFF764FB012206214846FFF757FB0121F1
:103840004846FFF7D5FA300400904FF44020CDE908
:1038500002048DF804608DF805408DF810706946FB
:103860004046FDF7F7FC0023012219464046FDF7CC
:1038700042FD0222002311464046FDF73CFD032194
:103880004046FDF730FD01231A460A214046FDF768
:1038900005FD012302220D214046FDF7FFFC012317
:1038A000032211214046FDF7F9FC4FF480594946A7
:1038B0004046FDF7ABFC01214046FDF79DFC01228F
:1038C0004FF490614046FDF7BCFC01214046FDF7F6
:1038D0005DFC01214046FDF785FC4FF4C0200090BF
:1038E0004FF46020CDE902048DF804608DF80540A6
:1038F0008DF8107069462846FDF7ACFC01220023C4
:1039000011462846FDF7F7FC002302220321284632
:10391000FDF7F1FC03212846FDF7E5FC01231A46DB
:103920000B212846FDF7BAFC012302220E2128466E
:10393000FDF7B4FC012303220F212846FDF7AEFC5E
:1039400049462846FDF762FC01212846FDF754FC54
:1039500001212846FDF746FC0121504602F000F8FF
:103960000121504602F006F801214046FDF704FC13
:103970004046FDF7FAFC44462046FDF75BFC002874
:10398000FAD12046FDF7F6FC2046FDF745FC00285D
:10399000FAD101212846FDF7EFFB2846FDF7E5FCAB
:1039A0002846FDF747FC0028FAD12846FDF7E2FC3F
:1039B0002846FDF731FC0028FAD11AB0BDE8F0879F
:1039C00000100140040020000001300000240140EC
:1039D00000280140002C0140080002406403002040
:1039E00010B501F02FFF01F08FFFBDE81040FFF789
:1039F0008DBE00004FF4F571B0F57A7F05D0044913
:103A0000B1FBF0F0A0EB901081B20248018070474A
:103A100020A107002C340140F0B5CC78002204F03E
:103A20000F03E40601D58C7823430C784FF00F0C7C
:103A300014F0FF0F4FF0010E1BD005680E880EFA30
:103A400002F42640A64210D196000CFA06F725EAA9
:103A5000070703FA06F5CE783D43282E02D0482EFC
:103A600002D002E0446100E00461521C082AE5D360
:103A700005600A88FF2A1CD94468002202F1080662
:103A80000EFA06F50E882E40AE420ED196000CFAC4
:103A900006F7BC4303FA06F7CE783C43282E00D144
:103AA0004561CE78482E00D10561521C082AE5D325
:103AB0004460F0BDF0B5144C002801DAE36900E081
:103AC0006368450D2E0185B2C0F30157B540C0F3C0
:103AD0000342032F05D0C6020AD503269640B343FE
:103AE00007E023F07062636823F07063636002E0B4
:103AF000AB4343F0706201B12A43002801DAE2616E
:103B0000F0BD6260F0BD00000000014041617047FF
:103B10000161704738B50121102000F0E5FE4FF437
:103B20004064ADF8004002208DF802001020064DE0
:103B30008DF8030069462846FFF76EFF21462846A8
:103B4000FFF7E4FF38BD000000100140254810B524
:103B5000016841F0807101602348002444600168DD
:103B600041F0010101602146C00300F09DFD4FF4CA
:103B7000806000F08FFD1D484FF47A710068B0FB43
:103B8000F1F0B0F1807F2BD220F07F414FF0E020A8
:103B9000491E4161164AF02182F8141D84610721F3
:103BA0000161FFF7B7FF00F017FAFFF71DFAFEF704
:103BB000F5F9012000F012FF612000F0F7FE002867
:103BC000FAD045F2555000F077FB032000F068FB77
:103BD0004FF49C7000F06AFBBDE8104000F058BB49
:103BE000FEE70000FCED00E0001000E0780000209F
:103BF0000FE000E070B5334D2878C00760D000F0CA
:103C00007FF800F0CFF800202870A8782E4C61785B
:103C1000884205D0A87860706078FEF7B9F82873FC
:103C2000E878A178884204D0E878A070A078FEF700
:103C300093F82879E178884207D02879E070E07815
:103C400000EB80004000FEF76FF86878217888422A
:103C500004D0687820702078FEF788F895F906007F
:103C600094F90510884205D0A879607194F905008F
:103C7000FEF704F995F9070094F90610884205D07B
:103C8000E879A07194F90600FEF7BCF895F90800F0
:103C900094F90710884205D0287AE07194F907005A
:103CA000FEF796F895F9050094F90410884207D0BC
:103CB0006879207194F90400BDE87040FEF76EB891
:103CC00070BD0000000300205C00002010B5002142
:103CD000094801F083F90C2001F088F901F012F98C
:103CE00006484FF07E51C1600161416081604161D1
:103CF00081610121016010BD713D0008E4020020D6
:103D000070B5174D174C286910F1FF4F02D2FCF720
:103D1000B3FD00E00020A07213488069FCF7ACFD01
:103D200060721248017AA174417AE174817A217536
:103D3000C07A6075A869FCF79FFDE07260786073D7
:103D40002079A0732079E073E0782074FDF70CFFF0
:103D500000B1A0782073FDF7FBFE607470BD000019
:103D60006404002000030020480300201603002004
:103D70000A490A780A4842708A7902710A79C2703F
:103D80008A7882700A7A42714A7A82718A7AC2711A
:103D9000C97A0172012101707047000016030020EA
:103DA000000300200F48827A0F494A70427A0A7055
:103DB000C27A8A70427B0A71827B4A71C27B8A71A5
:103DC000037C427C02B180221343CB71027BCA7018
:103DD000827C0A72C27C4A72027D8A72407DC872FD
:103DE000704700000003002023030020FEE70000CE
:103DF0002DE9FF4F81B04FF6FF771C4693460D46E5
:103E00004FF40038504E009707E00098411E009193
:103E100003D2012005B0BDE8F08F4146304600F0E6
:103E2000ADF90028F1D10121B046304600F092F9F9
:103E3000464E009703E00098411E009145D331465D
:103E4000404600F05BF90028F5D00022C14640460C
:103E5000019900F00AFAB8460097DFF8F4A04F463F
:103E600003E00098411E009144D35146384600F0CB
:103E700045F90028F5D00121384600F04BF95946A4
:103E8000384600F0FAF9DFF8C890CDF8008009F163
:103E9000020905E00098411E009101D20420B9E713
:103EA0004946384600F02AF90028F3D00121B946E6
:103EB000384600F04FF94746CDF80080B0464E46F0
:103EC00005E00098411E009101D20520A2E741467D
:103ED000304600F013F90028F3D001223046019952
:103EE00000F0C3F90097194F7F1C05E00098411EB0
:103EF000009101D206208DE73946304600F0FEF8E9
:103F00000028F3D0114F3F37BCB1012C07D100215D
:103F1000304600F0E9F80121304600F025F9394635
:103F2000304600F0EBF80028EED0304600F09AF969
:103F3000641E05F8010BA4B2E6E70121304600F04B
:103F4000D3F8002066E7000000580040010003009D
:103F50008200070010B586B00121082000F0C4FCE3
:103F60000121082000F0C0FC0121880500F0A4FC1C
:103F70004FF44060ADF8100003208DF812001C20B3
:103F80008DF8130004A91148FFF746FD104C204698
:103F900000F0CAF80121204600F0BCF80021ADF87D
:103FA00004104BF6FF71ADF80610FF21ADF80810B4
:103FB0002015ADF80A000001ADF80C00054800908E
:103FC0006946204600F0F0F806B010BD000C014034
:103FD00000580040A086010010B5FFF7BBFF024962
:103FE0000020087010BD0000B10000202DE9F84F3E
:103FF0004FF6FF771C4692460D4681464FF4003639
:10400000DFF8D480009706E00098411E009102D2AC
:104010000120BDE8F88F3146404600F0AFF8002897
:10402000F2D12E4E0121304600F094F8DFF8B08036
:10403000009705E00098411E009101D20520E8E7B5
:104040004146304600F05AF80028F3D00022494695
:10405000304600F00AF9DFF88C80009705E0009800
:10406000411E009101D20620D3E74146304600F0C0
:1040700045F80028F3D05146304600F0FEF8B84627
:104080000097184FBF1C03E00098411E009112D307
:104090003946304600F032F80028F5D013E0297890
:1040A000304600F0EAF86D1CCDF8008005E000987D
:1040B000411E009101D20820ABE73946304600F09E
:1040C0001DF80028F3D0641EE4B2E8D20121304686
:1040D00000F04AF800209CE70054004000580040DF
:1040E00001000300820007000029018802D041F48A
:1040F000806101E021F48061018070470346002067
:104100009A8A1B8B42EA034222F07F42914300D1FC
:10411000012070470029018802D041F0010101E02F
:1041200021F0010101807047094910B588424FF024
:10413000010101D14C0501E04FF48004204600F05C
:10414000C7FB2046BDE81040002100F0C1BB0000C5
:10415000005400400029018802D041F4807101E040
:1041600021F48071018070470029018802D041F458
:10417000007101E021F40071018070470CB5024626
:10418000002000920A0F21F07F41019202D0009A94
:10419000143202E0009A090C1832009212680A42A6
:1041A00000D001200CBD000070B50446808886B0A8
:1041B0000D4620F03F06684600F0AEFB2749029806
:1041C000B0FBF1F189B20E43A680228822F00102F1
:1041D0002280234B2A689A421CD85200B0FBF2F08E
:1041E00080B2042800D20420491C2184A0832088A6
:1041F00040F00100208020884FF6F5310840A98862
:104200006A89114301432180A889298908432081B3
:1042100006B070BDEB88A3F53F46FF3E0BD002EB26
:10422000C20303EB0212B0FBF2F080B240F4804014
:10423000020506D007E002EB4202B0FBF2F080B2CA
:10424000F6E740F001004FF4967251434FF47A7252
:10425000B1FBF2F140F40040C6E7000040420F001D
:10426000A0860100008AC0B2704712B141F001017E
:1042700001E001F0FE0101827047018270470000F9
:1042800002494CF6CC400860704700000030004006
:1042900002494AF6AA20086070470000003000403A
:1042A00001494860704700000030004001498860C3
:1042B000704700000030004001490860704700006E
:1042C0000030004070B524494869B0F17E5F06DADD
:1042D000142222492248FBF747FF002070BD214AE3
:1042E000904207DA1D49142214311D48FBF73CFFA8
:1042F000012070BD1C48CC69844207DD1749142297
:1043000050311748FBF730FF042070BD13491448A3
:10431000B4F17C5F4FF0140218DD3C31FBF724FF51
:104320002046FCF7D6FA0022104BFCF768F90C4E39
:1043300004460D467068FCF7CCFA2B462246FCF783
:1043400058F9FCF701FB7060032070BD2831FBF7C2
:104350000BFF022070BD000064040020187C0008E0
:10436000D40100200000A0400000C0400000184020
:104370002DE9FF47714C608808B1401E60802078AD
:10438000012590B101282ED004282AD16C4800883C
:10439000400526D560680A2190FBF1F2A14601FB99
:1043A0001200684C002870D0A2E000210846FDF7FA
:1043B000A1FD05206080012003F038FBFEF7D4FC4E
:1043C000257061A0009061A36CA26E49472003F0A4
:1043D00033FB5DA000906CA368A26A49482003F0FB
:1043E0002BFBBDE8FF8760880028FAD1FDF7B8FEF7
:1043F000FEF7CEFC674E20B3012819D00228F0D179
:1044000051A0009064A35DA25E495E2003F014FBFE
:10441000F06840F48060F060F06820F40060F060C4
:1044200000F08EFF96206080FEF79EFC2570D8E796
:10443000F06880F48060F060F06880F40060F06004
:10444000CFE7F06840F40060F060F06820F480602E
:10445000F0603DA0009058A348A24A49572003F0BD
:10446000EBFA39A0009058A344A24649582003F023
:10447000E3FA0420207000210620FDF73BFD04B084
:104480000020BDE8F04703F0D1BA2FA0009050A360
:104490003AA23C496F2003F0CFFA03F0C1FA98B179
:1044A000E068FCF716FA074688466068FCF711FAE0
:1044B00005460E462068FCF70CFA8DE8E00102463E
:1044C0000B4645A002F0AAFD03F0AAFA80B14948C4
:1044D0000069FCF7FEF9054647480E460068FCF700
:1044E000F8F9CDE9005602460B4644A002F096FDCD
:1044F00015A0009045A321A22249732003F09CFA45
:1045000003F08EFA98B1A069FCF7E3F907468846F4
:104510002069FCF7DEF905460E466069FCF7D9F91B
:104520008DE8E00102460B4639A002F077FDD9F88C
:104530000410491CC9F8041053E7000020000020B3
:10454000C8000020640400200000000053595354A8
:10455000454D3A20524643312C46573A312E3030A1
:104560006135342D50322C4253503A312E30302D9B
:1045700048573133333145310D0000006C6F6769A6
:10458000632E6300857C0008444941474E4F5354D5
:1045900049430D0000100140444941474E4F5354D8
:1045A00049433A204552524F522C20526574726949
:1045B0006E672E2E0D000000444941474E4F535464
:1045C00049433A204F4B0D0052554E4E49470D007E
:1045D0004F55543A0000000020563D25342E3166D8
:1045E0002C56653D25342E31662C49653D25352EEA
:1045F00032662C004803002034000020543D25334F
:104600002E30662C25332E30660D0000503D000004
:1046100025342E31662C2825342E31662C6A25341B
:104620002E3166290D0000007047FEE7704700003C
:1046300030B50F23C27801780125F2B1144A12680F
:1046400001F1E02102F4E062C2F5E062120AC2F177
:104650000404D3404278A24084781C4014432201D1
:1046600081F80024007800F01F018D40400980008F
:1046700000F1E020C0F8005130BD01F01F0085407E
:104680004809800000F1E020C0F8805130BD0000F2
:104690000CED00E002490843024908607047000041
:1046A0000000FA050CED00E0024A11400143024807
:1046B0000160704780FFFF1F08ED00E010B540214A
:1046C0000548FDF7D5F8401C04D0BDE8104002486D
:1046D00000F01CB810BD00007002002008B504A056
:1046E000009004A305A208495C2003F0A5F908BDC9
:1046F0000000000052454144590D00007061727382
:1047000065722E63000000009E7C000810B50178E1
:1047100086B024290CD141786D290BD004DC6429A2
:1047200030D06C2904D111E072291ED0762907D02F
:104730002EA000E02FA006B0BDE81040FDF7C1B8E4
:1047400006B02DA0BDE8104002F068BC6A4634A156
:10475000FBF724FD01280ED10098C0B203F066F9E2
:104760000DE0FDF7AEF806B010BD6A462EA1FBF7CE
:1047700015FD012801D02EA0F3E7009808B11DA077
:10478000EFE7FEE72C4C2DA1621CFBF707FD6178DB
:104790002C48017021798171E1780171A1788170D3
:1047A000207840F001002070FFF724FA217C607C23
:1047B00000B180200143A07BA37B627BCDE9040193
:1047C000CDE90223217BE07ACDE90001A37A627A68
:1047D0001DA1264802F032FC2448FDF772F806B00D
:1047E0000D20BDE81040FDF769B80000554E4B0D97
:1047F000000000004F4B0D00524643312C46573A03
:10480000312E30306135342D50322C4253503A31F4
:104810002E30302D48573133333145310D000000F3
:10482000246C202564000000247220256400000010
:104830004552520D00000000000300202464202592
:104840003038780016030020253032782530327851
:10485000253032782530327825303278253032785C
:1048600025303278253032780000000030020020F8
:10487000704700214FF448720020401C9042FCD346
:10488000491CC9B20429F7D370470000034A516894
:1048900021F4404101435160704700000010024084
:1048A000044A0029516901D0014300E0814351616C
:1048B0007047000000100240044A0029D16901D06D
:1048C000014300E08143D1617047000000100240C5
:1048D000044A0029116901D0014300E081431161BC
:1048E0007047000000100240044A0029916901D07D
:1048F000014300E0814391617047000000100240D5
:10490000044A0029D16801D0014300E08143D1600D
:10491000704700000010024030B5204A5168204B1B
:1049200011F00C0103D0042901D0082901D0036043
:1049300012E05168536801F470114FF0020413F44F
:10494000803F04EB914102D053689B0301D5154B86
:1049500000E0134B5943016051680F2303EA111122
:10496000114B5C5C0168E14041605468072505EA31
:1049700014241C5D21FA04F48460546805EAD424EC
:104980001B5DD940C1605268032303EA9232064B93
:104990001B1F9A5CB1FBF2F1016130BD00100240B7
:1049A00000127A0000093D00680000200346002044
:1049B0005909094A01290AD002290AD0516A03F08B
:1049C0001F02012393400B4200D001207047116861
:1049D000F5E7116AF3E700000010024001490860A2
:1049E000704700008004424238B501210820FFF7DB
:1049F0007BFF0420ADF8000001208DF8020010209C
:104A0000054C8DF8030069462046FFF705F80421A0
:104A10002046FFF77DF838BD000C014070B5084A0C
:104A2000084C30B1012504211046FFF771F82570BC
:104A300070BD04211046FFF769F80020207070BD9A
:104A4000000C0140E800002010B5FFF7CDFFBDE8E5
:104A500010400120FFF7E2BF2DE9F05F324D3348EF
:104A6000A9880180EF8847802E8986806A89C28064
:104A70009046AA8902819146EA8942819346084676
:104A8000FBF7D4FE00222A4BFBF7B9FDFBF75CFFD6
:104A9000264C82460C3420603846FBF7C7FE2A7845
:104AA00012B1244A244B02E04FF0FF32234BFBF7B4
:104AB000A6FDFBF749FF054660603046FBF7B6FEF2
:104AC0001F4F4FF0663632463B46FBF798FDFBF72B
:104AD0003BFFA0604046FBF7A9FE32463B46FBF792
:104AE0008EFDFBF731FFE0604846FBF79FFE00229A
:104AF000144BFBF784FDFBF727FF20615846FBF7BB
:104B000095FE32463B46FBF77AFDFBF71DFF6061E1
:104B100029465046FBF75CFCA06110F1FF4F01D322
:104B20000020A061BDE8F09FE80000203C030020C9
:104B300000A0943FDBB66DDBB66D6F3FFFFF373FE4
:104B400066664A3F00A0B43FF0B54E4800684F4942
:104B500086B24D48068009688DB24A494580091DD4
:104B600009688CB249498480091D09688BB247499C
:104B7000C380083109688AB2424902810831096854
:104B80004FF0000C89B2418141484788C7B1012FDD
:104B900015D14778F7B380F801C08680C5800481BD
:104BA0004381828136012D012401C1811B01120341
:104BB0000903C0E90821C0E90643C0E90465F0BD66
:104BC000477867B180F801C08680C5800481438141
:104BD000828136022D022402C1811B02E7E7878809
:104BE000F61B07693E440661C788ED1B47693D44D3
:104BF00045610789E41B87693C4484614789DB1B65
:104C0000C7693B44C3618789D21B076A3A44026281
:104C1000C78900E00BE0C91B476A360A3944416284
:104C20002D0A8680240AC58004811B0A24E0878817
:104C3000F61B07693E440661C7883609ED1B4769C4
:104C40003D44456107892D09E41B87693C44846123
:104C500047892409DB1BC7693B44C3618789D21B91
:104C6000076A3A440262C789C91B476A1B0939446B
:104C700041628680C5800481120B43818281090BC9
:104C8000C181F0BD3C240140300300203C2801409C
:104C9000E80000200149012048707047E80000202A
:104CA00070B51A4C2069FBF714FE194A194BFBF733
:104CB00018FDFBF7F5FD80B201F038FAA068FBF7AC
:104CC00008FE154A154BFBF70CFDFBF7E9FD86B214
:104CD0006068FBF7FEFD124A124BFBF702FDFBF783
:104CE000DFFD85B2E068FBF7F4FD0F4A0F4BFBF7E1
:104CF000F8FCFBF7D5FD80B232462946FCF74EFBA7
:104D0000BDE870400020FCF7C1BB0000B0010020EE
:104D100083C0CAA145B6B33F93E146707E97323F48
:104D20003D99DA26D5F5BB3F95EFBB65A63E803FA2
:104D3000044903480A68C0F8062089884181704701
:104D400002000020107C00080349486808B100F008
:104D5000C9B9088800F0A0B99800002030B587B024
:104D6000012141F20400FFF7BFFDA020ADF81400BF
:104D700001248DF8164018208DF8170005A91B484E
:104D8000FEF74AFE01210820FFF7AEFD0225ADF82F
:104D900014508DF8164010208DF8170005A91448FE
:104DA000FEF73AFE0020ADF800004FF48271ADF836
:104DB0000210E102ADF80410ADF808008910ADF85A
:104DC0000A103021ADF80C10ADF80E000720094C88
:104DD000ADF81000ADF806506946204600F02FF9F6
:104DE0000121204600F00AF907B030BD000801405B
:104DF000000C01400030014010B5FFF7AFFF04493F
:104E00004FF47A700880BDE8104000F045B900000A
:104E10009800002070B50E4C0546206820F0020076
:104E200020600C4E0221304600F0F2F80028F9D044
:104E300029463546304600F000F98021284600F02A
:104E4000E7F80128F9D0206840F00200206070BD2A
:104E50000C0C01400030014009494879401C487160
:104E60004879052803D1002008700871C870487976
:104E7000FA2803D9012048700520487170470000C6
:104E8000B400002070B51B4C0025657165701A4E8A
:104E9000304600F0D0F8194922788854E178084467
:104EA000E0702078411C2170A178884206D1E0781A
:104EB000A0B1802060702570E57025710F482178C1
:104EC0000D30415C2279114421712178A278914200
:104ED00009D12079C043401C81B206E0A0680028B7
:104EE000E9D08047E7E72178415C3046BDE8704073
:104EF00000F0A3B8B40000200038004016030020E2
:104F0000FFF7C0BFF0B587B000F0B5F801218D0301
:104F10002846FFF7D1FC01210C20FFF7E5FC4FF4F8
:104F20002040ADF800000324294F8DF802400426EC
:104F30008DF8036069463846FEF76EFDADF8005007
:104F400018258DF8035069463846FEF765FDB00216
:104F5000ADF800008DF8036069463846FEF75CFD49
:104F60000126ADF800608DF8024010208DF8030096
:104F700069463846FEF750FD01213846FEF7C6FD6A
:104F80000024ADF810500720124DADF80440ADF8E4
:104F90000840ADF80C60ADF81400ADF80640ADF86F
:104FA0000A40ADF80E40ADF8124001A9284600F0C5
:104FB00046F801226021284600F031F801212846F8
:104FC00000F01CF804480470447107B0F0BD000004
:104FD000000C014000380040B400002072B6024AC4
:104FE000C2E9020162B67047B400002072B60249FD
:104FF000887062B670470000B40000200029018864
:1050000002D041F0400101E021F0400101807047F1
:105010000246002012890A4200D001207047090987
:1050200001238B40002A828899B201D00A4300E014
:105030008A4382807047808970478181704730B58C
:1050400002884C8802F441530A88CD8822438C8818
:105050002C4322430C8922434C8922438C892243CE
:10506000CC8922431A430280828B22F4006282831D
:10507000098A018230BD08B524208DF80000002087
:105080008DF801008DF8020001208DF803006846BC
:10509000FFF7CEFA08BD000070B511494FF4404546
:1050A00000FB01F42846FFF7B5FE200E00F54C503A
:1050B000FFF7B0FEC4F3074000F50850FFF7AAFE63
:1050C000C4F3072000F54450FFF7A4FEE0B200F55A
:1050D0000050FFF79FFE2846BDE87040FFF79ABEDC
:1050E000179F020070B504464FF440452846FFF76D
:1050F00091FE200E00F54C50FFF78CFEC4F30740E4
:1051000000F50850FFF786FEC4F3072000F5445071
:10511000FFF780FEE0B200F50050FFF77BFE284667
:10512000BDE87040FFF776BE2DE9FC473F4CE088B4
:1051300008B1401EE08000F021F900F0E1F93C499F
:10514000E0683C4D884208DD2078022805D22869B5
:10515000606100F0F5F80220207020780126A8B3E5
:10516000DFF8D490012822D002283ED003281CD199
:105170006069FBF7AEFB0022304BFBF73AFA0746BB
:1051800088462869FBF7A5FB43463A46FBF7B4FB84
:1051900002D32969494502DA00F0DAF82670E0887E
:1051A000002802D100F0D4F82670BDE8FC872969F8
:1051B000494503DA00F07EF8002020702049286974
:1051C0008842F2DDBDE8FC4700F0BAB81D49286905
:1051D000884202DD00F076F826701B492869884273
:1051E000E3DABDE8FC4700F0B3B800F06BF817A0B5
:1051F000009017A31AA21E49FA2002F01DFC02F02B
:105200000FFC70B12869FBF764FB05460E46E068A9
:10521000FBF75FFBCDE9005602460B4615A001F0F7
:10522000FDFE032020703C20E080BEE72800002027
:1052300000000C43480300200000204200001440FE
:1052400000009642000034420000244200000000AA
:1052500050524F54454354494F4E3A2000000000ED
:1052600073757065727669736F722E63000000004B
:105270008F7C0008544A204F76657274656D7020EB
:105280002825352E3266292C2054433D25352E32D3
:10529000660D000002480021017041707047000057
:1052A0002800002002498A6802438A607047000093
:1052B000280000204FF400510148FEF727BC0000F1
:1052C000001001404FF400510148FEF721BC0000DE
:1052D00000100140F8B501211020FFF705FB4FF445
:1052E0000055ADF800500126134F8DF802601024D0
:1052F0008DF8034069463846FEF78EFB294638464E
:10530000FEF704FC01210420FFF7EEFA2501ADF8B9
:1053100000508DF802608DF80340084C6946204625
:10532000FEF77AFB29462046FEF7F0FB00F010F866
:10533000FFF7C0FFF8BD0000001001400008014069
:105340004FF480710148FEF7E1BB00000008014006
:105350004FF480710148FEF7DBBB000000080140FC
:1053600040F6FF71034A884201D2108070471180D5
:1053700070470000CC000020704700002DE9F0418C
:105380001B4DD5E90001FBF723F81A490969FBF722
:1053900019F8194C0646A0612869FBF79AFA0546E8
:1053A0000F463046FBF795FA144A154BFBF727F9E1
:1053B0002A463B46FBF77CF8FBF7C6FA2061FBF771
:1053C00088FA05460E46E068FBF783FA00220D4B8B
:1053D000FBF715F92A463346FBF76AF86FF001022E
:1053E000FBF7EEF9FBF7B0FAE060BDE8F0810000F2
:1053F000480300206404002028000020CDCCCCCC41
:10540000CCCCDC3F000008400CB5002226480092BE
:105410000192016841F4803101604FF4A06301689A
:1054200001F4003101910099491C0091019911B9D1
:1054300000999942F3D10168890333D50121019183
:105440001A490A6842F010020A600A6822F0030250
:105450000A600A6842F002020A60416841604168DD
:105460004160416841F480614160416821F47C11F0
:105470004160416841F4E8114160016841F0807188
:10548000016001688901FCD5416821F00301416098
:10549000416841F0020141604168C1F38101022984
:1054A000FAD10CBD01920CBD001002400020024058
:1054B00010B50446014624220548FAF755FE054971
:1054C0006069496CFAF784FF0149486110BD00002A
:1054D000B0010020E801002010B501461422074861
:1054E000FAF742FE0549142201F11400FAF73CFED6
:1054F000024901203431086010BD0000B0020020D4
:10550000234910B5888808B1401E8880214800785A
:10551000214B4024042808D08888002804D118682A
:1055200080F0010018608C8010BD4878002228B1FE
:10553000012811D0022825D04A7010BD186840F00B
:10554000010018608868C007F7D0802088808A60D2
:10555000012048708A7010BD88880028FBD18C809B
:105560008868C3070A48807807D08A60421C8A701E
:105570000528F0D90220487010BD00B94A70401EBD
:10558000887010BD186820F00100186010BD000080
:1055900028000020200000200C0C014010B5FCF772
:1055A000F5FCBDE81040FFF757BC00000F4810B5F0
:1055B000016841F00101016041680D4A11404160FC
:1055C00001680C4A11400160016821F480210160EA
:1055D000416821F4FE0141604FF41F018160FFF733
:1055E00013FF05494FF00060086010BD0010024035
:1055F0000000FFF8FFFFF6FE08ED00E070B5048C38
:1056000024F001040484058B048C4FF6FF7606EA2F
:105610000313134325F0F3050E4A2B4390420ED09B
:105620000D4A90420BD0B0F1804F08D00B4A904207
:1056300005D00B4A904202D00A4A904202D124F08F
:10564000020201E024F00A020A4342F0010103834E
:10565000018470BD002C0140003401400004004072
:1056600000080040000C0040F0B5048C24F0100449
:105670000484078B048C4FF6FF7527F4734705EA03
:1056800003333B4305EA02221A43114B05EA011694
:1056900098420ED00F4B98420BD0B0F1804F08D0FB
:1056A0000D4B984205D00D4B984202D00C4B9842BE
:1056B00005D124F02001314341F0100104E024F031
:1056C000A0030B4343F0100102830184F0BD0000EE
:1056D000002C01400034014000040040000800405C
:1056E000000C0040704770472DE9F04188B001215F
:1056F0000420FFF7E1F8DFF8D880404600F046F9D3
:10570000344835490024006840F6FE77B0FBF1F0DC
:105710003249401E0880ADF81470ADF81040ADF865
:105720001640ADF8124004A9404600F043FB602546
:105730004FF44870ADF800500126ADF80600ADF802
:105740000260ADF808406946404600F0EDF90821D6
:10575000404600F029FAADF80050ADF80260ADF80F
:105760000670ADF808406946404600F023FA08216B
:10577000404600F05FFAADF80050ADF80260ADF8B9
:105780000670ADF808406946404600F05DFA082111
:10579000404600F097FA40F6D860ADF80050ADF8FA
:1057A0000600ADF80260ADF808406946404600F0DA
:1057B0008FFA0821404600F0BDFA0121404600F072
:1057C000C5F80121404600F0CBF808B0BDE8F081F3
:1057D000000800407800002000366E01CA0000205A
:1057E000704700000648074A41881180121D8188D1
:1057F0001180121DC1881180111D00890880704719
:10580000CA0000203408004010B5FFF76DFFBDE866
:10581000104000F001B8000008B501210820FFF792
:1058200063F84FF47070ADF8000018208DF8030095
:1058300003208DF8020069460148FEF7EDF808BD27
:10584000000C014070B5012188B04803FFF74CF807
:105850002C4E304600F09AF84FF4F5700024ADF865
:105860001400ADF81040ADF81640ADF8124004A990
:10587000304600F09FFA00231A461946304600F0E1
:105880003DF900230A224021304600F07BFA6020D7
:10589000ADF800000A200125ADF80600ADF8025071
:1058A000ADF808406946304600F084F900213046E2
:1058B00000F0C0F93020ADF80000FA20ADF8060085
:1058C000ADF80250ADF808406946304600F0BCF92A
:1058D0000021304600F0F6F90021304600F03AFA97
:1058E0005021304600F03EFA0721304600F042FADF
:1058F0000121304600F03EF80121304600F030F83A
:1059000008B070BD0034014038B501211020FEF709
:10591000EBFF4020ADF8000004200B4C8DF8030095
:1059200069462046FEF778F84FF4C071ADF80010D4
:1059300018218DF8031003218DF8021069462046C6
:10594000FEF76AF838BD0000001001400029018808
:1059500002D041F0800101E021F080010180704718
:105960000029018802D041F0010101E021F001018C
:1059700001807047002930F8441F02D041F40041F3
:1059800001E0C1F30E010180704700004B4910B5E2
:10599000884202D10121C41486E0B0F1804F09D0C1
:1059A000474988420DD101210220FEF791FF0021D5
:1059B000022064E001210846FEF78AFF0021012051
:1059C0005DE04049884206D101210420FEF780FFB6
:1059D0000021042053E03C49884206D101210820DF
:1059E000FEF776FF0021082049E03849884206D1B9
:1059F00001211020FEF76CFF002110203FE0344908
:105A0000884206D101212020FEF762FF00212020DC
:105A100035E03049884202D10121441444E02E4946
:105A2000884202D10121CC043EE02C49884202D1B7
:105A300001210C0538E02A49884202D101214C0598
:105A400032E02849884206D101214020FEF740FF7C
:105A50000021402013E02449884206D10121802002
:105A6000FEF736FF0021802009E0204988420AD154
:105A7000841501212046FEF72BFF00212046BDE8BA
:105A80001040FEF725BF1A49884202D101210C04BB
:105A90000AE01849884202D101214C0404E0164969
:105AA00088420AD101218C042046FEF729FF2046B6
:105AB000BDE810400021FEF723BF10BD002C0140BF
:105AC0000004004000080040000C004000100040AE
:105AD0000014004000340140004C014000500140DF
