:020000040800F2
:1000000090080020210B0008753B000869330008A8
:10001000733B0008C51100082754000800000000C9
:100020000000000000000000000000003D47000844
:10003000FF26000800000000553C00089D4800080D
:100040003B0B00083B0B00083B0B00083B0B000878
:100050003B0B00083B0B00083B0B00083B0B000868
:100060003B0B00083B0B00083B0B0008D9230008A2
:100070003B0B00083B0B00083B0B00083B0B000848
:100080003B0B00083B0B0008C50B00083B0B0008AE
:10009000255400083B0B00083B0B00083B0B0008F5
:1000A0003B0B00083B0B00083B0B00083B0B000818
:1000B000D9490008DB490008D54A00083B0B000875
:1000C0003B0B00083B0B00083B0B00083B0B0008F8
:1000D000B9420008C1510008C9520008CB520008BB
:1000E0003B0B00083B0B00083B0B00083B0B0008D8
:1000F0003B0B00083B0B00083B0B00083B0B0008C8
:100100003B0B00083B0B00083B0B00083B0B0008B7
:10011000575100083B0B00083B0B00083B0B000845
:100120003B0B00083B0B00083B0B00083B0B000897
:10013000DFF80CD000F006FD004800478569000894
:100140009008002040EA01039B0703D009E008C99A
:10015000121F08C0042AFAD203E011F8013B00F88C
:10016000013B521EF9D27047F0B480EA0102D40F6D
:100170004200B2EB410F02D20246084611464A0045
:1001800042D0C30DDDB2C1F3C752AD1A202D35DA0E
:10019000C1F3160141F4000204B15242C5F1200638
:1001A00002FA06F12A411044B3EBD05F23D0C4B168
:1001B000012DA0EBC35009DCF0BC4FF0004202EA75
:1001C000C35200F50000DBB200F085BB400000F137
:1001D000807000EBC350A0F1807040EAD1704900FC
:1001E00009E0490841EAC071A0EBC35000F50000E6
:1001F000400800EBC350F0BC00F064BB6142012238
:1002000002EB4101001BF6E7F0BC704781F00041B2
:10021000AAE780F00040A7E780EA010210B502F0EB
:100220000043400026D04A0023D04FEA106101EB82
:100230001261C0F35600C2F3560240F4000042F4CB
:100240000002A0FB0220A1F17F014FEA004014044C
:1002500001D000F1010050EA124001D44000491ED3
:10026000C2B20C0604EBD010401C4008802A02D019
:1002700003E0002010BD20F00100002900DA00207A
:10028000184310BD30B480EA010202F0004530F09E
:10029000004221F0004015D0A0B1C0F3C753C2F313
:1002A000C754C2F31601C0F31600E41A41F400016A
:1002B00040F400027D34914201D3641C00E0490007
:1002C000002C02DA30BC002070474FF400000023FD
:1002D000914201D3891A034340084FEA4101F7D103
:1002E00051B1914202D14FF0004105E002D24FF0EE
:1002F000010101E06FF0010103EBC450284430BC60
:1003000000F0E0BA2DE9FE4F804681EA0300C00FFD
:100310000C46009021F0004123F00045B8EB0200AC
:10032000A94105D24046214690461C460B4602464E
:1003300023F00040104304D14046214603B0BDE8FD
:10034000F08F270DC7F30A00C3F30A510290401A39
:100350000190402866DAC3F3130040F4801B009834
:10036000924620B10023D2EB030A63EB0B0B0198FA
:100370005946C0F14002504600F073FA06460D4659
:1003800050465946019A00F08BFA10EB0800614183
:10039000002487EA115284EAE7731A433BD0009A9B
:1003A0003AB3019A012A4FEA075210DC001B61EBB5
:1003B00002014FF0004202EA0752CDE90042001C60
:1003C00041F5801132462B4600F0EEFAB6E7001BED
:1003D00061EB0201001C41F5801300185B412018FD
:1003E000A2F5001747EB030140EAD570B6196D413D
:1003F00011E06D084FEA360645EAC0754FEA07522C
:10040000001B61EB0201001C41F5801149084FEA15
:1004100030000019514132462B4603B0BDE8F04F81
:1004200000F0B5BA0098012240000023D0EB020290
:1004300063EBE073009821464FEAE074B8EB0000EC
:1004400061EB0401E9E783F000435BE781F00041E1
:1004500058E72DE9FE4F81EA030404F0004421F03F
:10046000004100944FF0000B23F0004350EA0104D8
:1004700002D052EA030404D10020014603B0BDE8D3
:10048000F08FC3F30A54C1F30A552C44A4F2F33499
:100490000194A0FB0254C1F3130141F48011C3F392
:1004A000130343F4801301FB024400FB034E840A50
:1004B000970A44EA815447EA8357A4FB07680295E8
:1004C0008D0A05FB07854FEA932C04FB0C54270586
:1004D000029D4FEA065847EA1637B5EB08056EEB62
:1004E000070C870E920E47EA811742EA8312A7FB98
:1004F0000201B6EB0B0164EB00042B0D43EA0C3355
:100500005E1844EB1C50DA465146E7FB0201C5F386
:1005100013044FEA0B3343EA14534FEA0432019CAD
:1005200043EA0603A4F10C040294009CCDE900B454
:1005300000F03AFAA2E72DE9F04D81EA030404F055
:10054000004B21F0004514464FF0000A23F0004113
:1005500050EA050220D054EA01021DD0C5F30A5723
:100560000246C5F31303C1F31300C1F30A5640F466
:10057000801543F48013A7EB0608101BD64608F23B
:10058000FD3873EB050002D308F1010801E0921871
:100590005B41B8F1000F03DA00200146BDE8F08DA1
:1005A00000204FF48011064684460EE0171B73EBC3
:1005B000050705D3121B63EB050306434CEA010C48
:1005C00049084FEA300092185B4150EA0107EDD12B
:1005D00052EA030012D082EA040083EA05010843CC
:1005E00003D100224FF0004308E0101BAB4102D2C0
:1005F0000122002302E06FF0010253101AEB060003
:100600004CEB085110EB0A0041EB0B01BDE8F04D3B
:1006100000F0BDB970B521F0004303430CD0C1F325
:100620000A550024D5EB040564EB0403D617AD1A74
:10063000B34102DB0020014670BD201841EB02519E
:1006400070BDC10F80EAE0700844CA0796230021FC
:1006500000F041B996230022114600F03CB90EB5D6
:10066000C10F80EAE0700844CA07002140F233431A
:100670008DE80E000A460B4600F096F903B000BD67
:100680000EB540F2334102910021CDE900110A4636
:100690000B4600F089F903B000BD00F0004220F0E5
:1006A0000040C10DC0F3160040F400007F2901DABC
:1006B00000207047962903DCC1F19601C84001E093
:1006C00096398840002AF4D04042704720F000401C
:1006D000C10DC0F3160040F400007F2901DA0020AC
:1006E0007047962903DCC1F19601C84070479639DE
:1006F00088407047C1F30A5210B5C1F3130140F2AC
:10070000FF3341F480119A4201DA002010BD40F21B
:1007100033439A42A2F2334203DC524200F0B0F873
:1007200010BD904010BD00F0004230F000400AD0F3
:10073000C10D01F56071C0F3160042EA0151C20813
:1007400040071143704700200146704730B500292B
:1007500004DB4FF00044404264EB0101002B04DB5A
:100760004FF00044524264EB03038B4208BF8242C5
:1007700030BD000030B5002904DB4FF0004440429A
:1007800064EB0101002B04DB4FF00044524264EBA8
:100790000303994208BF904230BD000001F00043BE
:1007A00030B421F0004150EA010206D00A0DA2F552
:1007B0006072C1F31301002A02DC30BC00207047D4
:1007C000440F44EAC104C100E01830BC00EBC25041
:1007D00000F078B830B50B460146002020220124F5
:1007E00009E021FA02F59D4205D303FA02F5491BFF
:1007F00004FA02F52844151EA2F10102F1DC30BD15
:100800002DE9F05F0546002092469B468846064645
:10081000814640241BE0284641464746224600F0D8
:100820002FF853465A46C01A914110D31146184624
:10083000224600F016F82D1A67EB01084F462246B3
:100840000120002100F00DF817EB00094E41201E99
:10085000A4F10104DFDC484631462A464346BDE8A0
:10086000F09F202A04DB203A00FA02F100207047B2
:100870009140C2F1200320FA03F3194390407047DE
:10088000202A04DB203A21FA02F00021704721FAE5
:1008900002F3D040C2F1200291400843194670474C
:1008A000202A06DBCB17203A41FA02F043EAE07334
:1008B00006E041FA02F3D040C2F120029140084321
:1008C000194670470029A8BF7047401C490008BF5F
:1008D00020F00100704710B4B0FA80FC00FA0CF070
:1008E00050EA010404BF10BC704749B1CCF12004A8
:1008F00021FA04F411FA0CF118BF01212143084335
:10090000A3EB0C01CB1D0106000A002BBEBF00208B
:1009100010BC704700EBC35010440029A4BF10BCAA
:100920007047401C490008BF20F0010010BC704710
:10093000F0B4002802DCF0BC00207047C0F3C751BF
:10094000C0F3160040F40000CA0701D14000491E60
:100950003F2202EB6105002211464FF4000626FA01
:1009600001F31344D418844201D8001B1A464000F6
:10097000491C1729F3DD5100814202D24FF0FF31AB
:1009800000E0002102EBC550F0BCFFF79BBF10B5A3
:10099000002B08DA401C41F1000192185B411A4318
:1009A00001D120F0010010BD2DE9F04D92469B468B
:1009B00011B1B1FA81F202E0B0FA80F22032904631
:1009C000FFF74FFF04460F4640EA0A0041EA0B01D9
:1009D00053465A46084303D120463946BDE8F08DB8
:1009E000114653EA010015D0C8F140025046FFF706
:1009F00047FF05460E46504659464246FFF731FF2F
:100A0000084301D0012000E00020054346EAE076DB
:100A10002C4337430A984FEA4453A0EB08004FEAAF
:100A2000D4240A304FF0000244EA47544FEAD72555
:100A300002D500200146D1E7010510196941DDE921
:100A4000084500196941BDE8F04DA0E72DE9F04DDA
:100A500000231A461B1A8A4103DB00200146BDE829
:100A6000F08DC1F30A52C1F3130141F480154FF028
:100A7000000BD10702D100186D41521E0027044619
:100A800040F2FF11384601EB620A3E4680460246BC
:100A900000204FF48011FFF7F3FEC2197141BB181B
:100AA00046EB0100B4EB030C75EB000C04D3E41A25
:100AB00065EB000517460E46241908F101006D414B
:100AC00080463428E3DDF91946EB0600091BA841EE
:100AD00003D24FF0FF32134601E0002213461BEB16
:100AE000070046EB0A51BDE8F04DFFF750BFC1F3D8
:100AF0000A52C1F3130140F2FF3341F480119A42CC
:100B000002DA00200146704740F233439A42A2F2D3
:100B1000334202DC5242FFF7B3BEFFF7A2BE000031
:100B20000648804706480047FEE7FEE7FEE7FEE787
:100B3000FEE7FEE7FEE7FEE7FEE7FEE7A148000866
:100B400031010008064C074D06E0E06840F0010363
:100B500094E8070098471034AC42F6D3FFF7ECFA5C
:100B6000606F0008806F000870B501EB020410F898
:100B7000015B15F0070301D110F8013B2A1106D1E2
:100B800010F8012B03E010F8016B01F8016B5B1EFC
:100B9000F9D12B0705D40023521E0FD401F8013BD5
:100BA000FAE710F8013B02F10202A1EB030303E0B4
:100BB00013F8015B01F8015B521EF9D5A142D6D3AF
:100BC000002070BD10B5084C0421204600F069F8E3
:100BD000002808D003F09CF92046BDE810404FF4EF
:100BE000906100F003B810BD002401406FEA1121AC
:100BF000016070470029816802D041F0010101E0E5
:100C000021F00101816070470029816802D041F420
:100C1000807101E021F48071816070470D4910B549
:100C2000884202D1012144150AE00B49884202D1D1
:100C30000121041504E0094988420AD10121CC03AD
:100C4000204603F04FF82046BDE81040002103F095
:100C500049B810BD0024014000280140003C01407B
:100C60000029816802D041F4801101E021F4801153
:100C7000816070470029816802D041F4004101E0A1
:100C800021F4004181607047826822F4E0420A4307
:100C900082607047014600208968490700D501201D
:100CA00070470246002012680A4200D001207047B7
:100CB000014600208968090700D501207047002AF5
:100CC0004268C9B201D00A4300E08A4342607047DB
:100CD00010B542680E4B0C791A400B6842EA0422A8
:100CE0001343436082680B4B1A40D1E9024323430C
:100CF0004C7942EA440213438360C26A097C22F4BD
:100D00007002491EC9B242EA0151C16210BD000021
:100D1000FFFEF0FFFDF7F1FF70B5072609290AD99C
:100D2000C568A1F10A0404EB4404A640B543A340FE
:100D30001D43C56007E0056901EB4104A640B543CA
:100D4000A3401D430561836BC3F30154121B921C26
:100D500002EB82021F249440A34391400B43836320
:100D600070BD826B491E22F4401242EA0151816338
:100D7000704770B5072609290AD9C568A1F10A0488
:100D800004EB4404A640B543A3401D43C56007E0FF
:100D9000056901EB4104A640B543A3401D4305612D
:100DA0001F23072A09D2446B521E02EB8202934092
:100DB0009C4391400C43446370BD0D2A09D2046BDF
:100DC000D21F02EB820293409C4391400C43046388
:100DD00070BDC46A0D3A02EB820293409C4391407D
:100DE0000C43C46270BD816841F0080181607047A6
:100DF000816841F0040181607047000005490028C6
:100E0000086802D040F4000001E020F4000008600F
:100E100070470000082401402DE9F0418446214834
:100E2000224C0388204824880088061B204C03FBA2
:100E300006F00712258800208B4200DD581A9642E2
:100E400001DDB11A084428B9A7EB0C00C11700EB6B
:100E500011700011174E002808DDFFF7F2FB316A10
:100E6000FFF7DAF9FFF732FC28440DE04042FFF7C4
:100E7000E8FBF169FFF7D0F9FFF728FC80B2A84240
:100E800001D3002001E0281A80B240F6AC51208046
:100E9000884203D84FF44871884200D22180002054
:100EA000BDE8F081CA000020BC000020C400002082
:100EB00008000020A001002070B506460846FFF794
:100EC00032FC05460C463046FFF72DFC0122FFF7A9
:100ED000A1FB2A462346FFF72EFB2A462346FFF7AF
:100EE0002AFBBDE87040FFF759BC00002DE9F04730
:100EF0001E4D01462888A0F6AC50444200D500247F
:100F00000846FFF79EFB8146194E1A483169006872
:100F1000FFF77CF9DFF86080D8F81810FFF77CF94C
:100F200007462046FFF78DFBD8F81410FFF774F939
:100F30003946FFF719F94946FFF716F9FFF7ADFBF8
:100F400000B24FF44871884202DC0C49884200DA52
:100F50000846716808440549891F002800DC002004
:100F60004880A8800020BDE8F0870000080000202D
:100F7000D80100202C000020A001002088FAFFFFEB
:100F800010B5002000F044FC054C01466088814209
:100F900005D000F0ABF8002000F03AFC608010BDF6
:100FA0008400002030B585B000F026FC0121480700
:100FB00002F074FE3C200024CDE90104039401A951
:100FC0002046049400F030FC0121002000F008FCD1
:100FD00040F6B211002000F03BFC0121002000F09F
:100FE00041FC002000F014FC12494880012104203B
:100FF00002F06CFE1025ADF800508DF803406946F4
:101000000D4802F03FF80121102002F05FFE6C0154
:10101000ADF8004001208DF802008DF80350074D17
:101020006946284602F02EF82146284602F0A4F828
:1010300005B030BD840000200008014000100140D0
:1010400010B503F05BFDFFF7ADFF002000F084F862
:1010500040F6FF74204600F049F8204600F092F870
:101060002046BDE8104000F09DB8000010B50E4CC1
:1010700020B14FF40060E080401008E00A48C288C8
:10108000008909B1111800E0111AE180400820819F
:10109000E08800F077F803F01FFD208908B10020F8
:1010A00010BD012010BD00000E00002010B50E4C38
:1010B00020B14FF400606081401008E00A48428986
:1010C000808909B1111800E0111A61814008A081DE
:1010D000608900F067F803F0FFFCA08908B10020E8
:1010E00010BD012010BD00000E00002010B5B0F5AD
:1010F000805F01D2014601E040F6FF71002000F060
:10110000A7FB0121002000F0ADFB002000F080FBD8
:101110000149488010BD00008400002010B50D4C2E
:1011200020B14FF400606080401008E00948428818
:10113000808809B1111800E0111A61804008A08070
:101140006088FFF7D3FFA08808B1002010BD012000
:1011500010BD00000E000020084A094B4FF400713A
:1011600028B1012808D11070184602F003B80020F9
:101170001070184602F000B870470000840000208C
:101180000010014040F6FF720449904201D20880ED
:1011900000E00A8008880249088070477E0000202D
:1011A0003808004040F6FF720449904201D208809E
:1011B00000E00A800888024908807047800000200B
:1011C0003C080040FEE700000E4810B50021017702
:1011D00040224261826140F8801C40F87C1C40F84B
:1011E000781C40F8741C017441748174C174817757
:1011F0000D2141770449054804F05EF8BDE8104030
:1012000004F024B86C0400205D12000811120008DC
:1012100010B503F0CFFF1049C0B291F89D2032B154
:1012200091F89D20824202D1012281F89E204A68D5
:10123000D1F89430521C5B1E1A400B689A420AD0B7
:101240004B68054A103298544868D1F89420401CE5
:10125000521E1040486010BDEC03002010B50D4C2C
:10126000A068E16888420DD0A16804F15000085CD4
:1012700004F01AF8A068D4F89810401C491E0840E1
:10128000A06010BD002084F89C00BDE8104003F071
:10129000D5BF0000EC03002010B505F0C3FA10B173
:1012A0004FF0FF3010BD074B196803F11000085CC8
:1012B0001968D3F89420491CB1FBF2F402FB141115
:1012C000196010BDEC030020F0B5114A05460E462A
:1012D00092F89D000024631E10B192F89E0010B198
:1012E00005F0A0FA08B11846F0BD72B6002782F8E2
:1012F0009E7001E005F8010BFFF7CEFF411C03D003
:101300002146641CB142F5DB62B62F702046F0BD69
:10131000EC030020012105F0CBBA2DE9F0410024B7
:101320000F4606464D1E04E0305D002105F0C0FA70
:10133000641CAC42F8DBF019012110F8010C05F037
:10134000B7FA0020BDE8F0810F4810B500780828F2
:1013500019D2DFE800F01818041818180C08BDE8B6
:10136000104000F061B8BDE8104000F011B800F086
:1013700027F906480078022801D102F07FFEBDE877
:10138000104000F0A5B910BD02000020A00100200F
:1013900070B502F059FA1B4C2069FFF7C4F91A4ADC
:1013A0001A4BFFF7C8F8FFF7A5F980B204F03CF834
:1013B000A068FFF7B8F9164A164BFFF7BCF8FFF71D
:1013C00099F986B26068FFF7AEF9134A134BFFF73D
:1013D000B2F8FFF78FF985B2E068FFF7A4F9104A79
:1013E000104BFFF7A8F8FFF785F980B2324629467F
:1013F000FFF712FD0020FFF779FDBDE8704000F017
:1014000067B90000A001002083C0CAA145B6B33F60
:1014100093E146707E97323F3D99DA26D5F5BB3F82
:1014200095EFBB65A63E803F2DE9F04102F00CFA36
:10143000474C04284ED804F12405464E68784649A6
:10144000012806D0022804D003280FD0042849D14F
:101450001BE08888FFF7FEF86968FEF7DDFE31467D
:10146000FEF710FF6060E868E0602EE08888FFF714
:10147000F1F8A968FEF7D0FE3146FEF703FFA06041
:10148000E868E0606868606021E088880746FFF7E8
:10149000E1F88046E968FEF7BFFE3146FEF7F2FE4E
:1014A000E06087B140466968FEF7B6FEFFF73BF99A
:1014B00000222A4BFFF73FF80022294BFEF722FFBC
:1014C000FFF76CF900E000206060A868A060286960
:1014D000206107E023486060234820612348A06022
:1014E0002348E0602069FFF71EF9224A224BFFF7EC
:1014F00022F8FFF7FFF880B203F096FFA068FFF72D
:1015000012F91E4A1E4BFFF716F8FFF7F3F886B2E2
:101510006068FFF708F91B4A1B4BFFF70CF8FFF751
:10152000E9F885B2E068FFF7FEF8184A184BFFF7B4
:1015300002F8FFF7DFF880B232462946FFF76CFC6D
:101540000020FFF7D3FCBDE8F04100F0C1B8000077
:10155000A00100200000C842020000200000594005
:10156000000054400000A042000020413333333FCC
:101570000000A04183C0CAA145B6B33F93E14670C5
:101580007E97323F3D99DA26D5F5BB3F95EFBB6597
:10159000A63E803F04480079012803D0052801D0E9
:1015A00000207047012070473C000020034800796C
:1015B000052801D000207047012070473C00002022
:1015C00010B502F041F90F480078062818D2DFE87C
:1015D00000F01703070B0F13BDE8104004F0A4BB85
:1015E000BDE8104004F088B8BDE8104003F09CBF8F
:1015F000BDE8104004F02ABABDE8104004F064B918
:1016000010BD0000600200200A480078062810D2B1
:10161000DFE800F0030507090B0D04F003BA04F03E
:101620007FBC04F047B904F05DB804F073BB04F06C
:10163000EFB970476002002010B50021084600F0A5
:101640009BF80648044941614FF07F51816104498C
:10165000C1610449016210BDCDCC4CBDA001002088
:10166000CDCC4C3DCDCCCC3D074806494160074927
:101670000161074981600749C160074900208880EE
:10168000704700000000A042A0010020000020419F
:101690003333333F0000A0410200002007480649D1
:1016A000416007490161074981600749C1600749F5
:1016B00000208880704700000000A042A0010020A8
:1016C000000020413333333F0000A04102000020DE
:1016D00010B50C4C208800F0D9F800F0D1F8B0F526
:1016E000487F01D2012000E00020FFF735FD60882F
:1016F00003F018F8A088FFF7F9FCBDE8104003F0EC
:10170000EBB900000800002009490A8982420ED086
:10171000088140B14FF49671884202D38900884213
:1017200003D9084601E04FF47A7000F0C5B870475D
:101730006002002003490A78824202D00870FFF755
:1017400063BF704760020020054910B58880FEF72E
:1017500081FF0449FEF796FD0349486010BD000073
:10176000020000200000C8426002002001494870C9
:10177000002070476002002010B504000ED0022C3B
:1017800004D0062C08D0072C08D102E0FFF786FF12
:1017900004E0FFF769FF01E0FFF736FF014804703E
:1017A00010BD00000200002072B6044908884A8873
:1017B00042408A80488062B6704700007400002072
:1017C00002480188491C0180704700007400002015
:1017D0000248002101804180818070477400002010
:1017E000044B01228240186809B1104300E0904385
:1017F000186070470074004010B501214C07204666
:1018000002F058FA2046BDE81040002102F052BA1A
:10181000044908B501EB90002C300090006880B2BC
:1018200008BD00000074004030B5084C236840F645
:10183000FE7282409343D1E900252A43D1E9025147
:101840000D432A4382401A43226030BD0074004099
:10185000034A08B5104408300090016008BD00003C
:10186000007400400209054B0120904000291968CE
:1018700001D0014300E081431960704704740040C7
:1018800001480088704700008200002040F6FF7188
:10189000044A884202D21080012070471180002043
:1018A000704700008200002010B502F03BFCBDE84C
:1018B000104003F011B900000149088001F0D0BBCD
:1018C0006C01002038B50121042002F0FFF940200E
:1018D000ADF8000001208DF802001020054C8DF8B5
:1018E00003006946204601F0CDFB4021204601F06F
:1018F00041FC38BD0008014010B502F06BFC03F05C
:10190000FDF800F021F800F005F8BDE81040FFF701
:10191000D9BF000038B50121082002F0D7F92020F6
:10192000ADF8000001208DF802001020054C8DF864
:1019300003006946204601F0A5FB2021204601F066
:1019400019FC38BD000C014038B50121082002F017
:10195000BDF91020ADF8000001218DF80210064CF1
:101960008DF803006946204601F08CFB10212046CB
:1019700001F000FC38BD0000000C0140044840F6B6
:101980003C71C088884201D902207047012070470D
:101990008C0200202DE9F84FFD4CE08908B1401E73
:1019A000E0816078DFF8ECA3DFF8ECB302250D26C8
:1019B000DFF8E883FA4F4FF005090E283CD2DFE844
:1019C00000F0073D7598D1FBFAF9F8F7F6F5F4F356
:1019D000F4A00090F4A3F7A2F849CB2004F09CFFF8
:1019E000DAF80C1041F48061CAF80C10012525705A
:1019F000ABF8005002F03CFB02F08CFE40F6D860E1
:101A0000FFF744FF0020FFF7A7FB4FF4C86002F088
:101A100089FE40F6FF763046FFF768FB3046FFF759
:101A2000B1FB3046FFF7BEFB002002F0E9F903F0FE
:101A300053F80A20E0816570BDE8F88FE08900283E
:101A4000FAD1D8F810003861FEF76DFE02460B4659
:101A5000DBA004F06FFAD3A00090DCA3D5A2D74995
:101A6000E32004F059FFDC49D8F80000DB4A0144C8
:101A7000914211D26570D8F804100122C7E905011E
:101A8000ABF80020FEF74FFE01B00246BDE8F04F74
:101A90000B46D3A004F04EBAFEF745FE02460B46B5
:101AA000D3A004F047FA02F02DFE1FE0D549B86933
:101AB000884215DCFEF737FE02460B46D2A004F042
:101AC00039FAB8A00090D3A3BAA2BC49F92004F017
:101AD00023FF0320607000210120FFF71FFB3EE081
:101AE000FEF721FE02460B46CDA082E0257066700F
:101AF000A2E7E08900289FD102F0A0F9BB46B869AF
:101B0000FEF711FE0122FEF785FDCA4ACA4BFEF719
:101B1000F9FB07468A46D8F80400FEF704FE3A4669
:101B20005346FEF727FE01D2012100E000210020EC
:101B3000FFF7F4FA98B1C14840F6B7320188CBF804
:101B40000410A1F2F510904201D2042080E0BCA064
:101B500004F0F0F940F6FF70FFF7C8FA7CE0A4F853
:101B60000E9069E702F06AF98D488069FEF7DBFDA7
:101B70000122FEF74FFDAF4AB64BFEF7C3FB82468C
:101B80008B464746D8F80400FEF7CDFD52465B462B
:101B9000FEF7DCFD786827D2FEF7C5FD804D0B46C9
:101BA00002466E68314608E083E3A6E267E21CE283
:101BB000E0E1BEE08EE052E01EE0A7A004F0BAF93A
:101BC0007868E86177A00090A9A37AA27B4940F2E7
:101BD000271004F0A1FE4D4684F801900021012059
:101BE000FFF744FAE58127E7FEF79DFD02460B4625
:101BF000A3A004F09FF979E7E0890028B1D102F0B1
:101C00001DF9BB46F869FEF78EFD4FF03332A14B4C
:101C1000FEF778FB07468A46D8F80400FEF783FDF6
:101C200053463A46FEF7A6FD01D2012100E000210D
:101C30000020FFF71BFA002891D0974840F6475242
:101C40000188ABF80C10A1F16500904202D2062089
:101C50006070F1E691A0BAE166702570ECE602F0E2
:101C6000EDF84F48C069FEF75EFD914A914BFEF7D3
:101C700049FB82468B464746D8F80400FEF753FDE1
:101C800052465B46FEF762FD78681DD2444DA8625D
:101C9000FEF749FDAD8902460B46294686A004F0B1
:101CA00049F940F6FF70FFF76DFA3EA000908AA355
:101CB00040A242494FF4AC7004F02EFE00210120F6
:101CC000FFF7F4F90720C5E1FEF72DFD02460B46AC
:101CD00085A0C6E1E089002885D102F0AFF8304840
:101CE000C069FEF720FD4FF033326A4BFEF70AFB66
:101CF00007468B46D8F80400FEF715FD5B463A46CA
:101D0000FEF738FD01D2012100E000210020FFF79D
:101D1000CDF9002890D07A4840F6475201882048F3
:101D2000C181A1F16500904201D2082090E775A021
:101D3000D3E102F083F81A48C069FEF7F4FC5C4A6C
:101D40005C4BFEF7DFFA834600914746D8F8040063
:101D5000FEF7E9FC5A46009BFEF7F8FC786816D2BD
:101D60000F4DE862FEF7DFFCED8902460B4629467F
:101D700069A004F0DFF840F6FF70FFF713FA09A03E
:101D800000906DA30BA20D494FF4C770DCE0E4E0B6
:101D90000E000020001001408A0000209802002060
:101DA000D8010020000000005445535420494E49FA
:101DB000543A0000646961672E630000886B000874
:101DC0002054303D25352E32660D000054455354C5
:101DD00020564241523A0000FFFF4BBEFFFF170062
:101DE000204F4B2056423D25352E32660000000024
:101DF000204552524F522056423D25352E32660D17
:101E0000000000000AD7A33C2C2049423D25362E75
:101E100034660D005445535420424941533A000062
:101E20002C204552524F522049423D25362E3466D1
:101E30000D0000007B14AE47E17A843F860000204D
:101E4000204552524F5220564441433D2534640DA3
:101E500000000000E17AA43F204F4B20564441434C
:101E60003D25642C2049423D25362E34660D000068
:101E70005445535420424941535F4D31413A00008B
:101E8000204552524F522049423D25362E34660D90
:101E9000000000003333E33F7E0000202045525213
:101EA0004F522050574D5F4731413D2534640D005E
:101EB000CDCCCCCCCCCCE43F204F4B2050574D5F09
:101EC0004731413D25642C2049445F4D313D253645
:101ED0002E34660D00000000544553542042494101
:101EE000535F4D32413A0000204552524F52204933
:101EF000445F4D31413D25362E34660D0000000013
:101F000080000020204552524F522050574D5F47CD
:101F100032413D2534640D00204F4B2050574D5F1A
:101F20004732413D25642C2049445F4D323D2536E2
:101F30002E34660D000000005445535420424941A0
:101F4000535F4D313A00000004F0E6FC0920607058
:101F500000210120FFF78AF801E6FEF7E4FB0246C4
:101F60000B46D5A095E1DAF80C1041F48061CAF86F
:101F70000C1061E5E0890028FBD101F05FFFBB4652
:101F8000F869FEF7D0FBD24AD24BFEF7BBF9074601
:101F90008A46D8F80400FEF7C6FB3A465346FEF7D9
:101FA000E9FB01D2012100E000210020FFF75EF8EB
:101FB0000028D1D0C84840F6B7320188ABF80810E5
:101FC000A1F2F510904201D20A2041E6C3A003F02D
:101FD000B1FF40F6FF773846FFF788F83846FFF73D
:101FE000D1F83846FFF7DEF836E601F027FFC048A3
:101FF000C069FEF798FB0022BE4BFEF783F98246CC
:102000008B464746D8F80400FEF78DFB52465B46E8
:10201000FEF79CFB78681FD2B54D2862FEF783FB64
:102020002D8902460B462946B3A003F083FF40F6F4
:10203000FF70FFF7A7F8A5A0B6A3AFF28822009023
:10204000B8494FF4E27004F067FC00210120FFF76B
:102050002DF80B20607082E5FEF765FB02460B460B
:10206000B1A003F067FF40F6FF773846FFF73EF870
:102070003846FFF787F83846FFF794F836E5E089E9
:1020800000287FF435AD01F0D9FE9948C069FEF70C
:102090004AFB8F4A8F4BFEF735F907468B46D8F837
:1020A0000400FEF740FB3A465B46FEF763FB01D2B5
:1020B000012100E000210020FEF7F8FF0028CAD02F
:1020C0009E4801888A48A1F2F512418140F6B73056
:1020D000824201D20C20BBE599A003F02BFF40F611
:1020E000FF773846FFF702F83846FFF74BF83846D7
:1020F000FFF758F86670257035E701F09FFE7C48C1
:10210000C069FEF710FB00227A4BFEF7FBF8814610
:1021100000914746D8F80400FEF705FB4A46009BAD
:10212000FEF714FB78687DD2714D6862FEF7FBFA0A
:102130006F8902460B46394686A003F0FBFE40F647
:10214000FF773846FEF7D2FF3846FFF71BF83846D0
:10215000FFF728F8A88880B2FEF7C8FF2889FFF7A4
:1021600011F86889FFF71EF8012001F049FE0021EF
:10217000ABF8001001F07CFFA88881B2384603F06C
:102180009BF92863A88881B2A88903F095F9296B87
:10219000FEF73CF80146A86AFEF78EFEE8632A6A5D
:1021A0000146104600F094FA0746A88881B22889B3
:1021B00003F082F93946FEF729F86863A88881B2EE
:1021C000A88903F079F9696BFEF720F80146A86A3F
:1021D000FEF772FEE863A88881B2E88903F06CF923
:1021E000296BFEF713F80146E86AFEF765FE2864DE
:1021F0006A6A0146104600F06BFA0746A88881B269
:10220000688903F059F93946FEF700F8A863A888F1
:1022100081B2E88903F050F9A96BFDF7F7FF014699
:10222000E86A00E030E0FEF747FE2864FFF7A6FB0F
:102230002860D5E90F01FDF797FF01464C48FEF7EE
:1022400021F8686421A04BA3AFF298420090354971
:1022500040F2112004F060FB28684FF000010228D2
:1022600010D047A003F066FE02F054FA40F6D860A2
:10227000FFF70CFB0020FEF76FFF4FF4487002F0F1
:1022800051FA34E441A0EDE7FEF74DFA02460B4661
:1022900041A003F04FFE40F6FF773846FEF726FFD9
:1022A0003846FEF76FFF3846FEF77CFF25706670F4
:1022B00059E6002020701BE4204552524F5220491D
:1022C000445F4D32413D25362E34660D000000003E
:1022D0009A9999999999C93F7E00002020455252B8
:1022E0004F522050574D5F47313D2534640D00005B
:1022F000D80100200000D03F204F4B2050574D5FA9
:1023000047313D25642C2049445F4D313D25362E13
:1023100034660D005445535420424941535F4D32B9
:102320003A000000886B0008204552524F52204965
:10233000445F4D313D25362E34660D00800000206F
:10234000204552524F522050574D5F47323D253461
:10235000640D0000204F4B2050574D5F47323D2504
:10236000642C2049445F4D323D25362E34660D00E5
:102370000000A04054455354204F4B3A0000000049
:10238000205449504F20440D000000002054495073
:102390004F20450D00000000204552524F52204969
:1023A000445F4D323D25362E34660D000548002130
:1023B0000170417004494FF48050486008814881A1
:1023C000704700000E000020D8010020014800786E
:1023D000704700000E0000200D4810B50168490745
:1023E00006D5042000F016F8BDE8104000F088B9CA
:1023F0000068800706D5022000F00CF8BDE8104008
:1024000000F0B6BABDE81040012000F003B80000AB
:1024100000000240C10002D502490860704702492D
:10242000486070470404024000000240002901682F
:1024300002D041F0010102E04FF6FE72114001604E
:102440007047000001684FF6FE72114001600021E4
:10245000016041608160C1603149314A0839904270
:1024600003D1486840F00F0006E02D4A1432904234
:1024700004D1486840F0F00048607047284A28328C
:10248000904203D1486840F47060F5E7244A3C323A
:10249000904203D1486840F47040EDE7204A503242
:1024A000904203D1486840F47020E5E71C4A64324A
:1024B000904203D1486840F47000DDE7184A783252
:1024C000904203D1486840F07060D5E7154A111F6B
:1024D000904203D1086840F00F0006E0114A143220
:1024E000904204D1086840F0F000086070470D4A3F
:1024F0002832904203D1086840F47060F5E7094A39
:102500003C32904203D1086840F47040EDE7054A40
:1025100050329042EAD1086840F47020E5E70000AC
:102520000800024008040240002A026801D00A4361
:1025300000E08A430260704730B5026847F6F073E6
:102540009A430C6A8B682343D1E904452C43234307
:102550008C692343CC6923434C6A23438C6A23430D
:1025600013430360CA6842600A6882604968C160B8
:1025700030BD01460020B1F5806F03D26FF47C10AE
:1025800000EA811070470000014606481029C08803
:1025900006D24FF4707220F4707002EA8111084381
:1025A000704700006001002010B50246002401239E
:1025B0000549B02000F0DAFE0449087008B9024865
:1025C0000478204610BD0000750100207401002031
:1025D00010B50246002402230749B02000F0C6FED1
:1025E0000649087028B904484178007801EB0020BA
:1025F00084B2204610BD0000750100207401002047
:10260000064B10B55870000A18700A460223034999
:10261000B02000F0ADFF0249087010BD7D01002020
:102620007401002010B5294C0020E07020716081F9
:10263000E080208120706070FF20A0700120FFF7F3
:10264000A3FF40F480500221FFF7DAFF01F003FB03
:1026500001F001FB01F0FFFA01F0FDFA01F0FBFAD5
:1026600001F0F9FA4FF44870FFF783FF0821FFF7F4
:10267000C7FF01F0F0FA01F0EEFA01F0ECFA01F018
:10268000EAFA01F0E8FA01F0E6FA01F0E4FA0220D1
:10269000FFF79EFF00F47070E0800820FFF798FFBE
:1026A00020F03F0020810E20FFF77EFF00F01F008A
:1026B00020700D20FFF778FF00F00F00A07037208A
:1026C000FFF772FF00F01F00607010BD6001002076
:1026D00070B506460846FEF726F804460D46304615
:1026E000FEF721F80122FDF795FF22462B46FDF764
:1026F00022FFFEF753F8BDE8704004F0F6B97047CA
:102700002DE9FE4F994998484FF6FF728862803054
:102710000024C8620290CC638C634C630C638C65AC
:10272000CC6408460C644788A14616460197CB4600
:10273000B24680885D465346009067E037F8020B4A
:10274000DCF83010CCF828700144CCF83010854209
:1027500000D20546834200D9034637F8021BDCF855
:102760003480BE468844CCF83480CCF828708C4243
:1027700000D20C468A4200D90A46DFF8F0C1BEF802
:102780000070DCF838C0BB4507EB0C08DFF8DCC193
:10279000CCF83880DFF8D4810EF1020CE646C8F898
:1027A00028C000D2BB46BA4500D9BA46DFF8BCC142
:1027B000BEF80070DCF83CC0B94507EB0C08DFF848
:1027C000ACC1CCF83C80DFF8A4810EF1020CC8F853
:1027D00028C000D2B946BE4200D93E46DDF804C04A
:1027E000624FA0EB0C00DDF800C0A1EB0C01D7F8A4
:1027F00040C000FB11CCC7F840C0D7F84CC000FB6C
:1028000000C0F864B86D01FB0100B865DFF85CC179
:102810000298DCF82870874290D360460189C76B24
:10282000C1EB1711076F39440167C1F30F21018113
:10283000C188876BC1EB1711C76E3944C166C1F3FC
:102840000F21C1800099476BC1EB1711876E394486
:102850008166C1F30F2181800199076BC1EB1711CC
:10286000476E39444166C1F30F214180016CCF1797
:1028700001EB1771476CC7EB2111876C3944CF17F7
:10288000816401EB176109124164C16CCF1701EB40
:102890001771076DC7EB2111476D3944CF1741659B
:1028A00001EB176109120165816DCF1701EB1771FB
:1028B000C76DC7EB2111076E3944CF17016601EBD5
:1028C00017610912C16500F18001078AD1F800C0C3
:1028D000A9EB070767440F60C7F30F270782B0F81B
:1028E0000EC0ABEB0C07D0F87CC06744C767C7F3DA
:1028F0000F27C7818789D0F878C0E71B67448767AF
:10290000C7F30F2787814789D0F874C0EF1B67444E
:102910004767C7F30F274781078BF61B0F693E44B4
:102920000E61C6F30F260683C78AAAEB0706CF6897
:102930003E44CE60C6F30F26C682868A8F68961BF9
:102940003E448E60C6F30F268682468A4F689E1BE1
:102950003E444E60C6F30F214182E91A4183A11A19
:102960008183BDE8FE8F0000B0020020B00000208F
:102970002DE9FE4F994998484FF6FF7288628030E2
:102980000024C8620290CC638C634C630C638C653A
:10299000CC6408460C644788A14616460197CB468E
:1029A000B24680885D465346009067E037F8020BD8
:1029B000DCF83010CCF828700144CCF83010854297
:1029C00000D20546834200D9034637F8021BDCF8E3
:1029D0003480BE468844CCF83480CCF828708C42D1
:1029E00000D20C468A4200D90A46DFF8F0C1BEF890
:1029F0000070DCF838C0BB4507EB0C08DFF8DCC121
:102A0000CCF83880DFF8D4810EF1020CE646C8F825
:102A100028C000D2BB46BA4500D9BA46DFF8BCC1CF
:102A2000BEF80070DCF83CC0B94507EB0C08DFF8D5
:102A3000ACC1CCF83C80DFF8A4810EF1020CC8F8E0
:102A400028C000D2B946BE4200D93E46DDF804C0D7
:102A5000624FA0EB0C00DDF800C0A1EB0C01D7F831
:102A600040C000FB11CCC7F840C0D7F84CC000FBF9
:102A700000C0F864B86D01FB0100B865DFF85CC107
:102A80000298DCF82870874290D360460189C76BB2
:102A9000C1EB1711076F39440167C1F30F210181A1
:102AA000C188876BC1EB1711C76E3944C166C1F38A
:102AB0000F21C1800099476BC1EB1711876E394414
:102AC0008166C1F30F2181800199076BC1EB17115A
:102AD000476E39444166C1F30F214180016CCF1725
:102AE00001EB1771476CC7EB2111876C3944CF1785
:102AF000816401EB176109124164C16CCF1701EBCE
:102B00001771076DC7EB2111476D3944CF17416528
:102B100001EB176109120165816DCF1701EB177188
:102B2000C76DC7EB2111076E3944CF17016601EB62
:102B300017610912C16500F18001078AD1F800C050
:102B4000A9EB070767440F60C7F30F270782B0F8A8
:102B50000EC0ABEB0C07D0F87CC06744C767C7F367
:102B60000F27C7818789D0F878C0E71B674487673C
:102B7000C7F30F2787814789D0F874C0EF1B6744DC
:102B80004767C7F30F274781078BF61B0F693E4442
:102B90000E61C6F30F260683C78AAAEB0706CF6825
:102BA0003E44CE60C6F30F26C682868A8F68961B87
:102BB0003E448E60C6F30F268682468A4F689E1B6F
:102BC0003E444E60C6F30F214182E91A4183A11AA7
:102BD0008183BDE8FE8F000030030020B00000209C
:102BE0002DE9F047564D95F9000018B1401E2870A8
:102BF000BDE8F0876889698A401AFDF730FD514ABF
:102C0000514BFDF726FCFDF7C9FD504C2060A8890B
:102C1000A98A401AFDF723FD4D4A4E4BFDF719FCDA
:102C2000FDF7BCFDA060686CFDF719FD4A4A4B4BEF
:102C3000FDF70FFCFDF7B2FD2061286DFDF701FDEA
:102C4000DFF8FCA081460AF1800A5646CAF8140053
:102C5000286AFDF768FD074688464846FDF763FD8C
:102C600003F01CFF3A464346FDF7F3FBFDF796FDE4
:102C700060607069FDF757FD394A3A4BFDF7E9FB93
:102C8000FDF78CFD7061686AFDF74DFD06460F4645
:102C9000E86DFDF7D6FCFDF746FD03F0FFFE32467A
:102CA0003B46FDF7D6FBFDF779FDE0606268014623
:102CB0001046FDF7B1FA0546606120690146FDF74F
:102CC000ABFA064629460846FDF7A6FA3146FDF757
:102CD0009DFAFDF728FD03F0E1FEFDF75FFDA06121
:102CE00081462148E168214F214E4FF07D588142B5
:102CF00024DD6068FDF7C6FA20F0004020621D4820
:102D00002569854215DBDAF8140029460646FDF7E9
:102D1000B9FA20F00040A06249463046FDF7B2FA09
:102D200020F00040606229464846FDF7ABFAE061BA
:102D30005EE7C4F81C80C4E9096759E72662F8E732
:102D4000B00000203D99DA26D5F5BB3FB003002046
:102D500093E146707E97323F728115F1E725303F4F
:102D6000AC5791D10149B83F0AD7233C0060EA46ED
:102D700000401C47CDCCCC3D2DE9F0479AB04FF434
:102D8000004000F075FF0121032000F07BFF0121CE
:102D900040F6056000F09AFF0F20ADF86000A34DEB
:102DA00000248DF8634018A9284600F06BF9012132
:102DB0009F4800F0B3F901219E4800F0AFF90121CE
:102DC000102000F083FF3F21ADF860108DF86340C4
:102DD00018A9284600F056F9DFF85C824046FDF756
:102DE0001DFF964D2846FDF719FF0120FEF706F856
:102DF0000B208DF8400001268DF841608DF842408F
:102E00008DF8436010A800F0B7FE12208DF8400046
:102E10008DF841408DF842408DF8436010A800F0D5
:102E2000ABFE11A802F08EF948F6A040ADF84800BC
:102E30000227DFF80CA2ADF84470ADF84A40ADF8B7
:102E4000464011A9504602F02FF96020ADF850001D
:102E50007F20ADF85600ADF85260ADF8587014A957
:102E6000504602F0AFF8DFF8DC914846FFF7EAFA87
:102E7000714805A94C3005907348CDE906044020FF
:102E8000CDE9080480200A9080000B9080000C900F
:102E900020200D900002CDE90E044846FFF74CFBC0
:102EA000012206214846FFF73FFB01214846FFF774
:102EB000BDFA300400904FF44020CDE902048DF8B3
:102EC00004608DF805408DF8107069464046FDF7A6
:102ED000FFFE0023012219464046FDF74AFF022269
:102EE000002311464046FDF744FF03214046FDF70D
:102EF00038FF01231A460A214046FDF70DFF012342
:102F000002220D214046FDF707FF01230322112174
:102F10004046FDF701FF4FF4805949464046FDF712
:102F2000B3FE01214046FDF7A5FE01224FF490615A
:102F30004046FDF7C4FE01214046FDF765FE012134
:102F40004046FDF78DFE4FF4C02000904FF4602006
:102F5000CDE902048DF804608DF805408DF81070FD
:102F600069462846FDF7B4FE012200231146284693
:102F7000FDF7FFFE0023022203212846FDF7F9FE9C
:102F800003212846FDF7EDFE01231A460B212846B2
:102F9000FDF7C2FE012302220E212846FDF7BCFEEA
:102FA000012303220F212846FDF7B6FE4946284695
:102FB000FDF76AFE01212846FDF75CFE0121284647
:102FC000FDF74EFE0121504601F044FE012150461E
:102FD00001F04AFE01214046FDF70CFE4046FDF798
:102FE00002FF44462046FDF763FE0028FAD1204642
:102FF000FDF7FEFE2046FDF74DFE0028FAD1012127
:103000002846FDF7F7FD2846FDF7EDFE2846FDF7BB
:103010004FFE0028FAD12846FDF7EAFE2846FDF7C4
:1030200039FE0028FAD11AB0BDE8F087001001403F
:10303000040020000001300000240140002801406D
:10304000002C014008000240B002002010B501F041
:1030500073FD01F0D3FDBDE81040FFF78DBE000009
:103060004FF4F571B0F57A7F05D00449B1FBF0F06B
:10307000A0EB901081B202480180704720A10700A8
:103080002C340140F0B5CC78002204F00F03E406A4
:1030900001D58C7823430C784FF00F0C4FF0010EC4
:1030A000DCB105680E880EFA02F42640A64210D163
:1030B00096000CFA06F725EA070703FA06F5CE781C
:1030C0003D43282E02D0482E02D002E0446100E0A9
:1030D0000461521C082AE5D305600A88FF2A1CD91E
:1030E0004468002202F108060EFA06F50E882E400A
:1030F000AE420ED196000CFA06F7BC4303FA06F76F
:10310000CE783C43282E00D14561CE78482E00D1A0
:103110000561521C082AE5D34460F0BDF0B5144C9B
:10312000002801DAE36900E06368450D2E0185B2ED
:10313000C0F30157B540C0F30342032F05D0C602C8
:103140000AD503269640B34307E023F07062636814
:1031500023F07063636002E0AB4343F0706201B13F
:103160002A43002801DAE261F0BD6260F0BD000090
:1031700000000140416170470161704738B501218D
:10318000102000F0A3FD4FF44064ADF80040022091
:103190008DF802001020064D8DF803006946284680
:1031A000FFF770FF21462846FFF7E4FF38BD000017
:1031B000001001401A4810B5016841F080710160AB
:1031C000184800244460016841F001010160214673
:1031D000C00300F00DFD4FF4806000F0FFFC1248CA
:1031E0004FF47A710068B0FBF1F0B0F1807F16D235
:1031F00020F07F414FF0E020491E4161084AF02154
:10320000D93A1170846107210161FFF7B7FF00F01F
:10321000A5F9FFF707FABDE81040FEF7D9BAFEE7B7
:10322000FCED00E0001000E04C01002070B501F062
:1032300001F8194C2078C0072CD000F03DF800F0C0
:1032400077F800202070A078144D6978884204D067
:10325000A0786870FEF78AFA2072E078A978884230
:1032600003D0E078A870FEF765FA2079E978884203
:1032700006D02079E87000EB80004000FEF744FAA9
:1032800060782978884205D060782870BDE8704061
:10329000FEF75ABA70BD0000DC0300204801002090
:1032A00010B50021034801F065F8BDE8104001F0B9
:1032B00005B800000D33000870B5124D124C286996
:1032C00010F1FF4F02D2FDF701FA00E00020A071DB
:1032D0006869FDF7FBF96071A869FDF7F7F9E0711E
:1032E000607860722079A0722079E072E0782073B3
:1032F000FEF75CF900B1A0782072FEF74BF960731D
:1033000070BD0000B0030020DC03002006490A78ED
:10331000064842708A7902710A79C2708978817090
:1033200001210170704700006C020020DC030020C6
:103330000B4882790B494A7042790A70C2798A70C7
:10334000427A0A71827A4A71C27A8A71037B427B1D
:1033500002B180221343CB71007AC87001F012B819
:10336000DC03002076020020FEE700002DE9FF4F7D
:1033700081B04FF6FF771C4693460D464FF4003858
:10338000524E009703E00098411E009168B14146FB
:10339000304600F0B7F90028F5D10121B04630469B
:1033A00000F09CF94A4E009707E0012005B0BDE807
:1033B000F08F0098411E0091F0B33146404600F076
:1033C00061F90028F5D00022C1464046019900F07D
:1033D0000EFAB8460097DFF8FCA04F4603E00098CD
:1033E000411E009148B35146384600F04BF9002881
:1033F000F5D00121384600F051F95946384600F021
:10340000FEF9DFF8D090CDF8008009F1020903E061
:103410000098411E009198B14946384600F032F9B3
:103420000028F5D00121B946384600F057F9474643
:10343000CDF80080B04601E017E028E04E4605E0F8
:103440000420B3E70098411E009170B14146304618
:1034500000F018F90028F5D001223046019900F05B
:10346000C6F900971A4F7F1C05E005209EE70098DB
:10347000411E009158B13946304600F003F900284A
:10348000F5D0134F3F37D4B1012C02D009E006200C
:103490008CE70021304600F0EBF80121304600F0C7
:1034A00027F93946304600F0EDF80028EBD03046D9
:1034B00000F09AF9641E05F8010BA4B2E3E70121BC
:1034C000304600F0D5F8002070E7000000580040BA
:1034D000010003008200070010B586B0012108201A
:1034E00000F0F4FB0121082000F0F0FB0121880529
:1034F00000F0D4FB4FF44060ADF8100003208DF8CD
:1035000012001C208DF8130004A91148FFF7BAFD22
:10351000104C204600F0CCF80121204600F0BEF807
:103520000021ADF804104BF6FF71ADF80610FF2135
:10353000ADF808102015ADF80A000001ADF80C0038
:10354000054800906946204600F0F2F806B010BD2C
:10355000000C014000580040A086010010B5FFF7A4
:10356000BBFF02490020087010BD0000850100204B
:103570002DE9F84F4FF6FF771C4692460D468146DF
:103580004FF40036DFF8D880009703E00098411E22
:10359000009170B13146404600F0B4F80028F5D1F2
:1035A000304E0121304600F099F8DFF8BC800097DA
:1035B00006E00120BDE8F88F0098411E009170B12F
:1035C0004146304600F05EF80028F5D0002249461A
:1035D000304600F00CF9DFF89480009705E00520F4
:1035E000E8E70098411E009170B14146304600F076
:1035F00049F80028F5D05146304600F000F9B846A9
:1036000000971A4FBF1C05E00620D3E70098411E23
:10361000009118B33946304600F034F80028F5D050
:1036200011E02978304600F0EAF86D1CCDF80080F2
:1036300003E00098411E009180B13946304600F009
:1036400021F80028F5D02000A4F10104E4B2E8D16B
:103650000121304600F04CF80020ABE70820A9E734
:1036600000540040005800400100030082000700A1
:103670000029018802D041F4806101E021F48061D9
:1036800001807047034600209A8A1B8B42EA03425E
:1036900022F07F42914300D1012070470029018828
:1036A00002D041F0010101E021F0010101807047E9
:1036B000094910B588424FF0010101D14C0501E0E4
:1036C0004FF48004204600F0F5FA2046BDE8104093
:1036D000002100F0EFBA00000054004000290188EA
:1036E00002D041F4807101E021F4807101807047C3
:1036F0000029018802D041F4007101E021F4007139
:10370000018070470CB50246002000920A0F21F09C
:103710007F41019202D0009A143202E0009A090C13
:103720001832009212680A4200D001200CBD00003D
:1037300070B50446808886B00D4620F03F06684686
:1037400000F0DCFA26490298B0FBF1F189B20E4391
:10375000A680228822F001022280224B2A689A4207
:103760001CD85200B0FBF2F080B2042800D2042032
:10377000491C2184A083208840F0010020802088FB
:103780004FF6F5310840A9886A8911430143218029
:10379000A88929890843208106B070BDEB88A3F56C
:1037A0003F46FF3E05D102EB4202B0FBF2F080B291
:1037B00008E002EBC20303EB0212B0FBF2F080B2AE
:1037C00040F48040020501D140F001004FF49672B0
:1037D00051434FF47A72B1FBF2F140F40040C7E775
:1037E00040420F00A0860100008AC0B2704712B1AB
:1037F00041F0010101E001F0FE0101827047018208
:103800007047000002494CF6CC4008607047000049
:103810000030004002494AF6AA20086070470000C4
:10382000003000400149486070470000003000400F
:10383000014988607047000000300040014908607D
:10384000704700000030004070B524494869B0F16D
:103850007E5F06DA142222492248FCF773FC00201E
:1038600070BD214A904207DA1D49142214311D48C7
:10387000FCF768FC012070BD1C48CC69844207DD60
:103880001749142250311748FCF75CFC042070BD26
:103890001349B4F17C5F4FF0140219DD3C3111483B
:1038A000FCF750FC2046FCF73EFF0022104BFCF7D3
:1038B000D0FD0C4E04460D467068FCF734FF2B46D5
:1038C0002246FCF7C0FDFCF769FF7060032070BD65
:1038D00028310448FCF736FC022070BDB0030020FC
:1038E000246B0008C40100200000A0400000C0407C
:1038F000000018402DE9FF47694C608808B1401E60
:1039000060802078012590B101282BD0042827D190
:1039100064480088400523D560680A2190FBF1F2D5
:10392000A14601FB1200604C00286AD096E00021FD
:103930000846FDF721FF05206080FEF737FD257062
:103940005AA000905AA35FA26049462002F0E4FF0B
:1039500056A000905EA35BA25C49472002F0DCFF0A
:10396000BDE8FF8760880028FAD1FEF713F8FEF75C
:103970002DFD5A4E20B3012819D00228F0D14BA0BA
:10398000009057A34FA251495C2002F0C5FFF06898
:1039900040F48060F060F06820F40060F06000F0B7
:1039A000B1FE96206080FEF701FD2570D8E7F06833
:1039B00080F48060F060F06880F40060F060CFE731
:1039C000F06840F40060F060F06820F48060F0601F
:1039D00036A000904AA33BA23C49562002F09CFF2F
:1039E00032A000904AA337A23849572002F094FF32
:1039F0000420207004B00021BDE8F0470620FDF748
:103A0000BBBE2AA0009044A32EA230496C2002F035
:103A100083FFE068FCF787FE074688466068FCF78E
:103A200082FE05460E462068FCF77DFE8DE8E0012B
:103A300002460B463AA002F07DFA40480069FCF7C6
:103A400072FE05463E480E460068FCF76CFECDE966
:103A5000005602460B463BA002F06CFA13A0009001
:103A60003CA318A21949702002F056FFA069FCF788
:103A70005AFE074688462069FCF755FE05460E4665
:103A80006069FCF750FE8DE8E00102460B4632A06B
:103A900002F050FAD9F80410491CC9F804105FE785
:103AA0002000002078000020B0030020000000006B
:103AB00053595354454D3A20312E30306134350D31
:103AC000000000006C6F6769632E6300916B000853
:103AD000444941474E4F535449430D0000100140A3
:103AE000444941474E4F535449433A204552524F5F
:103AF000522C2052657472696E672E2E0D000000E4
:103B0000444941474E4F535449433A204F4B0D00CF
:103B100052554E4E49470D004F55543A0000000093
:103B200020563D25342E31662C56653D25342E31E8
:103B3000662C49653D25352E32662C009802002002
:103B40002C000020543D25332E30662C25332E309A
:103B5000660D0000503D000025342E31662C2825CE
:103B6000342E31662C6A25342E3166290D00000072
:103B70007047FEE77047000070B50F23C2780178E8
:103B800001244FF0E025DAB1124A126802F4E06233
:103B9000C2F5E062120AC2F10406D3404278B24094
:103BA00086781E400C4B16433201CA54007800F050
:103BB0001F018C40400905EB8000C0F8004170BD3A
:103BC00001F01F008440480905EB8000C0F88041E7
:103BD00070BD00000CED00E000E400E00249084385
:103BE00002490860704700000000FA050CED00E093
:103BF000024A1140014302480160704780FFFF1FE5
:103C000008ED00E010B540210548FDF75DFB411CC3
:103C100005D00146BDE810400148FDF77EBB10BD50
:103C20002002002008B504A0009004A305A20849C2
:103C30001C2002F071FE08BD000000005245414406
:103C4000590D00007061727365722E6300000000F0
:103C5000AA6B0008704700214FF448720020401CF6
:103C60009042FCD3491CC9B20429F7D37047000025
:103C7000034A516821F440410143516070470000FC
:103C800000100240044A0029516901D0014300E0BC
:103C9000814351617047000000100240044A00292E
:103CA000D16901D0014300E08143D1617047000038
:103CB00000100240044A0029116901D0014300E0CC
:103CC000814311617047000000100240044A00293E
:103CD000916901D0014300E0814391617047000088
:103CE00000100240044A0029D16801D0014300E0DD
:103CF0008143D160704700000010024030B5204A77
:103D00005168204B11F00C0103D0042901D008297F
:103D100001D0036012E05168536801F470114FF054
:103D2000020413F4803F04EB914102D053689B03DB
:103D300001D5154B00E0134B5943016051680F2327
:103D400003EA1111114B5C5C0168E1404160546869
:103D5000072505EA14241C5D21FA04F484605468E4
:103D600005EAD4241B5DD940C1605268032303EAED
:103D70009232064B1B1F9A5CB1FBF2F1016130BD20
:103D80000010024000127A0000093D005600002099
:103D9000034600205909094A01290AD002290AD0FC
:103DA000516A03F01F02012393400B4200D001200F
:103DB00070471168F5E7116AF3E700000010024050
:103DC00001490860704700008004424238B5012173
:103DD0000820FFF77BFF0420ADF8000001208DF8DC
:103DE00002001020054C8DF8030069462046FFF7BD
:103DF00049F904212046FFF7BFF938BD000C014006
:103E000070B5084A084C30B1012504211046FFF76F
:103E1000B3F9257070BD04211046FFF7ABF90020FF
:103E2000207070BD000C01408800002010B5FFF725
:103E3000CDFFBDE810400120FFF7E2BF2DE9F047BC
:103E40002C4E2D48B1880180F788478035898580C0
:103E50007289C2809046B28902819146F28942817C
:103E600092460846FCF70CFC0022244BFCF7F1FAC2
:103E7000FCF794FC204C0C3420603846FCF700FC26
:103E80003278002A4FF0FF3201D01D4B00E01D4B6D
:103E9000FCF7DFFAFCF782FC60602846FCF7F0FBD9
:103EA000194E4FF066352A463346FCF7D2FAFCF736
:103EB00075FCA0604046FCF7E3FB2A463346FCF75E
:103EC000C8FAFCF76BFCE0604846FCF7D9FB00221F
:103ED0000E4BFCF7BEFAFCF761FC20615046FCF784
:103EE000CFFB2A463346FCF7B4FAFCF757FC606177
:103EF000BDE8F087880000208C02002000A0943FDD
:103F0000FF7F703FFFFF373F66664A3F00A0B43F28
:103F1000F0B553480068544986B252480680096893
:103F20008DB24F494580091D09688CB24E49848085
:103F3000091D09688BB24C49C380083109688AB2EF
:103F400047490281083109684FF0000C89B241816C
:103F500046484788CFB1012F16D14778002F4DD062
:103F600080F801C08680C58004814381828136014A
:103F70002D012401C1811B0112030903C0E908219D
:103F8000C0E90643C0E90465F0BD477867B180F831
:103F900001C08680C58004814381828136022D0262
:103FA0002402C1811B02E7E78788F61B07693E44AC
:103FB0000661C788C6F30F26ED1B47693D4445617E
:103FC0000789C5F30F25E41B87693C448461478951
:103FD000C4F30F24DB1BC7693B44C3618789C3F368
:103FE0000F23D21B076A3A440262C789C91B476A7A
:103FF000394441628680C580048128E08788F61BA9
:1040000007693E440661C788C6F30F16ED1B476972
:104010003D4445610789C5F30F15E41B87693C449E
:1040200084614789C4F30F14DB1BC7693B44C36138
:104030008789C3F30F13D21B076A3A440262C78908
:10404000C91B476A394441628680C5800481438127
:10405000C2F30F328281C1F30F31C181F0BD000084
:104060003C240140800200203C28014088000020C0
:1040700001490120487070478800002070B51A4C33
:104080002069FCF750FB194A194BFCF754FAFCF76E
:1040900031FB80B201F0C8F9A068FCF744FB154A77
:1040A000154BFCF748FAFCF725FB86B26068FCF775
:1040B0003AFB124A124BFCF73EFAFCF71BFB85B2A7
:1040C000E068FCF730FB0F4A0F4BFCF734FAFCF7C3
:1040D00011FB80B232462946FCF79EFEBDE87040D7
:1040E0000020FCF703BF0000A001002083C0CAA18C
:1040F00045B6B33F93E146707E97323F3D99DA264D
:10410000D5F5BB3F95EFBB65A63E803F044903480C
:104110000A68C0F8062089884181704702000020A3
:104120001C6B00080349486808B100F0CBB9088847
:1041300000F0A2B96C01002030B587B0012141F236
:104140000400FFF7C3FDA020ADF8140001248DF892
:10415000164018208DF8170005A91B48FEF792FF9E
:1041600001210820FFF7B2FD0225ADF814508DF8AB
:10417000164010208DF8170005A91448FEF782FF9D
:104180000020ADF800004FF48271ADF80210E1029A
:10419000ADF80410ADF808008910ADF80A10302110
:1041A000ADF80C10ADF80E000720094CADF810006A
:1041B000ADF806506946204600F01BF90121204663
:1041C00000F0F6F807B030BD00080140000C0140D7
:1041D0000030014010B5FFF7AFFF04494FF47A708B
:1041E0000880BDE8104000F047B900006C010020D5
:1041F00070B50E4C0546206820F0020020600C4E81
:104200000221304600F0DEF80028F9D02946354674
:10421000304600F0ECF88021284600F0D3F8012861
:10422000F9D0206840F00200206070BD0C0C014005
:1042300000300140094B00B59878401C9870987880
:10424000042803D10020187000F09CF89878FA2810
:1042500003D9012058700420987000BD6800002028
:1042600070B5124C0025A5706570114E304600F0F7
:10427000BCF81049227888542078411C2170082805
:1042800005D100F0E3F858B180206070257009482E
:1042900021780A30415C3046BDE8704000F0A7B894
:1042A00060680028F2D08047F0E700006800002036
:1042B000003800406C020020FFF7D2BFF0B587B095
:1042C00000F0B3F801218C032046FFF7E7FC012141
:1042D0000C20FFF7FBFC4FF42040ADF81400032046
:1042E0008DF81600204F04268DF8176005A9384672
:1042F000FEF7C8FEADF8144018258DF8175005A933
:104300003846FEF7BFFEA010ADF814008DF8176018
:1043100005A93846FEF7B6FE00240120ADF80800D6
:10432000ADF80C500720114DADF80040ADF8044039
:10433000ADF81000ADF80240ADF80640ADF80A4007
:10434000ADF80E406946284600F053F8012260217E
:10435000284600F03EF80121284600F029F80448DC
:104360000470847007B0F0BD000C014000380040BC
:104370006800002072B6024AC2E9010162B67047C5
:10438000680000200948017842781144827811447D
:10439000C27811440279114442791144827911445E
:1043A000C2791144C943491C01727047760200204A
:1043B0000029018802D041F0400101E021F04001D4
:1043C000018070470246002012890A4200D0012075
:1043D0007047090901238B40002A828899B201D0D5
:1043E0000A4300E08A438280704780897047818158
:1043F000704730B502884C8802F441530A88CD8852
:1044000022438C882C4322430C8922434C8922432B
:104410008C892243CC8922431A430280828B22F466
:1044200000628283098A018230BD08B524208DF89C
:10443000000000208DF801008DF8020001208DF8A9
:1044400003006846FFF798FB08BD000009480178A3
:104450004278114482781144C2781144027911449F
:104460004279114482791144C279007A1144084496
:10447000C0B270476C02002070B511494FF440453E
:1044800000FB01F42846FFF7B3FE200E00F54C5068
:10449000FFF7AEFEC4F3074000F50850FFF7A8FE93
:1044A000C4F3072000F54450FFF7A2FEE0B200F588
:1044B0000050FFF79DFE2846BDE87040FFF798BE0C
:1044C000179F020070B504464FF440452846FFF799
:1044D0008FFE200E00F54C50FFF78AFEC4F3074014
:1044E00000F50850FFF784FEC4F3072000F54450A0
:1044F000FFF77EFEE0B200F50050FFF779FE284698
:10450000BDE87040FFF774BE2DE9FC473D4C608864
:1045100008B1401E608000F013F93B4960683B4DD4
:10452000884208DD2078022805D22869E06000F082
:10453000E9F80220207020780126A8B3DFF8D09097
:10454000012822D002283ED003281CD1E068FCF7C5
:10455000EAF800222F4BFBF776FF074688462869CA
:10456000FCF7E1F83A464346FCF7F0F802D3296934
:10457000494502DA00F0CEF826706088002802D1A2
:1045800000F0C8F82670BDE8FC872969494503DAC0
:1045900000F072F8002020701F4928698842F2DD7F
:1045A000BDE8FC4700F0AEB81C492869884202DD2E
:1045B00000F06AF826701A4928698842E3DABDE8F3
:1045C000FC4700F0A7B800F05FF816A0009016A313
:1045D00019A21D49B02002F09FF92869FCF7A3F841
:1045E00005460E466068FCF79EF8CDE90056024687
:1045F0000B4616A001F09EFC032020703C2060803A
:10460000C1E700002800002000000C4398020020B1
:104610000000204200001440000096420000344296
:10462000000010420000000050524F5445435449CE
:104630004F4E3A2000000000737570657276697302
:104640006F722E63000000009B6B0008544A204FDD
:1046500076657274656D70202825352E3266292C9A
:104660002054433D25352E32660D000001490020BF
:1046700008707047280000204FF400510148FEF7F1
:1046800079BD0000001001404FF400510148FEF7D1
:1046900073BD000000100140F8B501211020FFF7A4
:1046A00015FB4FF40055ADF800500126134F8DF85F
:1046B000026010248DF8034069463846FEF7E2FC9C
:1046C00029463846FEF756FD01210420FFF7FEFA81
:1046D0002501ADF800508DF802608DF80340084CBC
:1046E00069462046FEF7CEFC29462046FEF742FDED
:1046F00000F010F8FFF7C0FFF8BD00000010014007
:10470000000801404FF480710148FEF733BD0000FE
:10471000000801404FF480710148FEF72DBD0000F4
:104720000008014040F6FF71034A884201D2108020
:1047300070471180704700007C0000207047000027
:104740002DE9F0411B4DD5E90001FBF765FD1A4944
:104750000969FBF75BFD194C064620612869FBF7E8
:10476000E2FF05460F463046FBF7DDFF144A154BC6
:10477000FBF76FFE2A463B46FBF7C4FDFCF70EF83D
:10478000A060FBF7D0FF05460E466068FBF7CBFF45
:1047900000220D4BFBF75DFE2A463346FBF7B2FDC8
:1047A0006FF00102FBF736FFFBF7F8FF6060BDE832
:1047B000F081000098020020B003002028000020B3
:1047C000CDCCCCCCCCCCDC3F000008400CB50022DA
:1047D000264800920192016841F4803101604FF453
:1047E000A063016801F4003101910099491C009116
:1047F000019911B900999942F3D10168890333D520
:10480000012101911A490A6842F010020A600A68FF
:1048100022F003020A600A6842F002020A6041685C
:10482000416041684160416841F480614160416894
:1048300021F47C114160416841F4E8114160016854
:1048400041F08071016001688901FCD5416821F067
:1048500003014160416841F0020141604168C1F3D8
:1048600081010229FAD10CBD01920CBD0010024059
:104870000020024010B50446014624220548FBF7FB
:1048800061FC05496069496CFBF7C6FC0149486158
:1048900010BD0000A0010020D8010020FCF790BF4F
:1048A0000F4810B5016841F00101016041680D4AEF
:1048B0001140416001680C4A11400160016821F417
:1048C00080210160416821F4FE0141604FF41F0125
:1048D0008160FFF77BFF05494FF00060086010BD65
:1048E000001002400000FFF8FFFFF6FE08ED00E0B8
:1048F00070B5048C24F001040484058B048C4FF6FD
:10490000FF7606EA0313134325F0F3050E4A2B4303
:1049100090420ED00D4A90420BD0B0F1804F08D09B
:104920000B4A904205D00B4A904202D00A4A90426C
:1049300002D124F0020201E024F00A020A4342F00C
:1049400001010383018470BD002C0140003401404B
:104950000004004000080040000C0040F0B5048C4A
:1049600024F010040484078B048C4FF6FF7527F4A1
:10497000734705EA03333B4305EA02221A43114B0E
:1049800005EA011698420ED00F4B98420BD0B0F1B9
:10499000804F08D00D4B984205D00D4B984202D065
:1049A0000C4B984205D124F02001314341F0100115
:1049B00004E024F0A0030B4343F0100102830184C0
:1049C000F0BD0000002C0140003401400004004014
:1049D00000080040000C0040704770472DE9F0418E
:1049E00088B001210420FFF759F9DFF8D88040464C
:1049F00000F046F9344835490024006840F6FE7757
:104A0000B0FBF1F03249401E0880ADF81470ADF8EB
:104A10001040ADF81640ADF8124004A9404600F031
:104A200043FB60254FF44870ADF800500126ADF807
:104A30000600ADF80260ADF808406946404600F057
:104A4000EDF90821404600F029FAADF80050ADF824
:104A50000260ADF80670ADF808406946404600F0C7
:104A600023FA0821404600F05FFAADF80050ADF897
:104A70000260ADF80670ADF808406946404600F0A7
:104A80005DFA0821404600F097FA40F6D860ADF88C
:104A90000050ADF80600ADF80260ADF80840694678
:104AA000404600F08FFA0821404600F0BDFA01218F
:104AB000404600F0C5F80121404600F0CBF808B0B0
:104AC000BDE8F081000800404C01002000366E0176
:104AD0007A000020704700000648074A418811808C
:104AE000121D81881180121DC1881180111D00893D
:104AF000088070477A0000203408004010B5FFF7A6
:104B00006DFFBDE8104000F001B8000008B50121BC
:104B10000820FFF7DBF84FF47070ADF800001820A4
:104B20008DF8030003208DF8020069460148FEF766
:104B3000A9FA08BD000C014070B5012188B04803F6
:104B4000FFF7C4F82C4E304600F09AF84FF4F57099
:104B50000024ADF81400ADF81040ADF81640ADF8E3
:104B6000124004A9304600F09FFA00231A46194665
:104B7000304600F03DF900230A224021304600F083
:104B80007BFA6020ADF800000A200125ADF8060090
:104B9000ADF80250ADF808406946304600F084F99F
:104BA0000021304600F0C0F93020ADF80000FA20B6
:104BB000ADF80600ADF80250ADF808406946304641
:104BC00000F0BCF90021304600F0F6F90021304633
:104BD00000F03AFA5021304600F03EFA0721304604
:104BE00000F042FA0121304600F03EF80121304643
:104BF00000F030F808B070BD0034014038B5012134
:104C00001020FFF763F84020ADF8000004200B4CA3
:104C10008DF8030069462046FEF734FA4FF4C07160
:104C2000ADF8001018218DF8031003218DF8021043
:104C300069462046FEF726FA38BD00000010014004
:104C40000029018802D041F0800101E021F08001BB
:104C5000018070470029018802D041F0010101E084
:104C600021F0010101807047002930F8441F02D073
:104C700041F4004101E0C1F30E01018070470000E2
:104C80004B4910B5884202D10121C41486E0B0F12D
:104C9000804F09D0474988420DD101210220FFF7FA
:104CA00009F80021022064E001210846FFF702F81C
:104CB000002101205DE04049884206D10121042005
:104CC000FEF7F8FF0021042053E03C49884206D15A
:104CD00001210820FEF7EEFF0021082049E03849B5
:104CE000884206D101211020FEF7E4FF00211020A8
:104CF0003FE03449884206D101212020FEF7DAFF47
:104D00000021202035E03049884202D1012144149D
:104D100044E02E49884202D10121CC043EE02C49D6
:104D2000884202D101210C0538E02A49884202D18B
:104D300001214C0532E02849884206D1012140205A
:104D4000FEF7B8FF0021402013E02449884206D135
:104D500001218020FEF7AEFF0021802009E02049DC
:104D600088420AD1841501212046FEF7A3FF0021C5
:104D70002046BDE81040FEF79DBF1A49884202D187
:104D800001210C040AE01849884202D101214C0497
:104D900004E0164988420AD101218C042046FEF71E
:104DA000A1FF2046BDE810400021FEF79BBF10BDCB
:104DB000002C01400004004000080040000C0040AE
:104DC000001000400014004000340140004C01403D
:104DD000005001400054014000180040001C0040F9
:104DE00000200040004001400044014000480140D4
:104DF00010B5044600F005F8208940F077002081C6
:104E000010BD30B504894FF6FF7505EA032313433F
:104E1000E4B20B432343038130BD000030B5028C64
:104E200022F001020284028C8388048B22F00202A9
:104E300024F073050C882C430D8915434A882A43B6
:104E4000114DA8420BD0114DA84208D0104DA842D8
:104E500005D0104DA84202D00F4DA8420DD122F02E
:104E600008054A8923F440732A4322F004058A88FE
:104E70002A438D891D43CB892B4383800483C988B2
:104E80008186028430BD0000002C014000340140C6
:104E9000004001400044014000480140028B22F0E4
:104EA00008020A430283704770B5028C22F0100298
:104EB0000284028C8388048B0D8824F4E6464FF626
:104EC000FF7404EA052535430E8922F0200204EA26
:104ED000061616434A8804EA02123243104EB042C4
:104EE00002D0104EB04215D122F080064A8923F438
:104EF000406304EA0212324322F040068A8804EA40
:104F0000021232438E8904EA86061E43CB8904EAE4
:104F10008303334383800583C9880187028470BD7E
:104F2000002C014000340140028B4FF6FF7322F445
:104F3000006203EA012111430183704770B5028CBE
:104F400022F480720284028C8388848B0D8824F082
:104F5000730425430E894FF6FF7422F4007204EAAD
:104F6000062616434A8804EA02223243104EB04213
:104F700002D0104EB04215D122F400664A8923F4C3
:104F8000405304EA0222324322F480668A8804EA0B
:104F9000022232438E8904EA06161E43CB8904EAB4
:104FA0000313334383808583C9888187028470BD5E
:104FB000002C014000340140828B22F008020A4399
:104FC0008283704770B5028C22F480520284058C73
:104FD0008288838B0C8823F4E6464FF6FF7303EA3E
:104FE0000424344325F400560D8903EA053535437E
:104FF0004E8803EA06362E43094DA84202D0094DD9
:10500000A84205D122F480458A8903EA82122A4304
:1050100082808483C988A0F84010068470BD000097
:10502000002C014000340140828B4FF6FF7322F4C4
:10503000006203EA0121114381837047028922F053
:1050400070020A4302817047028822F0080202803F
:1050500002880A4302807047828822F070028280B0
:1050600082880A4382807047028922F00702028107
:1050700002890A430281704770B516460D466029C1
:1050800004464FF0010231460AD0FFF731FC2946B1
:105090002046FFF7D3FF208940F00700208170BD34
:1050A000FFF75CFCF3E7000030B502881B4C1C4D99
:1050B000A0420DD0A8420BD0B0F1804F08D0194BC0
:1050C000984205D0184B984202D0184B984203D111
:1050D00022F070034A881A43154B984206D0154BAC
:1050E000984203D022F44073CA881A4302808A8807
:1050F00082850A880285A0420AD0A84208D00E4ABA
:10510000904205D00D4A904202D00D4A904201D102
:10511000097A01860121818230BD0000002C014006
:10512000003401400004004000080040000C004032
:1051300000100040001400400040014000440140C5
:10514000004801404FF6FF71818000210180C1803D
:10515000418001727047704738B54FF40070ADF868
:10516000000003208DF802001820094C8DF8030080
:1051700069462046FDF786FF2115ADF80010042191
:105180008DF8031069462046FDF77CFF38BD00000E
:105190000008014008B525208DF8000000208DF89A
:1051A00001008DF8020001208DF803006846FEF72B
:1051B000E3FC08BD01480088704700008A01002018
:1051C0002DE9F0411B4C40F225573946204600F0AE
:1051D00094F8194D78B121882046AE1C71800021C9
:1051E000218000F01BF93080A86800B18047394663
:1051F000204600F06BF80821204600F077F830B127
:10520000204600F00BF93946204600F05FF840F2E6
:1052100027763146204600F070F8002808D0EA686A
:1052200002B1904731462046BDE8F04100F04EB84B
:10523000BDE8F0810038014088010020024640F2BC
:105240002771014800F078B8003801401FB50121EE
:105250008803FEF73BFD01210420FEF737FDFFF731
:1052600099FFFFF779FF4FF4E13000900020ADF88F
:105270000400ADF80600ADF80800ADF80C000C20F5
:10528000084CADF80A006946204600F06DF801218F
:10529000204600F021F8012240F22551204600F07E
:1052A0004BF81FBD003801400249C0F308000880D8
:1052B000704700000438014072B6024AC2E9020198
:1052C00062B6704788010020704770470A0A0121C2
:1052D0009140C943018070470029818902D041F47F
:1052E000005101E021F40051818170470246002005
:1052F00012880A4200D00120704770B501F01F05E6
:1053000001260024C1F3421306FA05F2012B0FD047
:10531000022B0FD0838A4FEA11210088134206FA2C
:1053200001F600EA060001D000B10124204670BD5C
:105330008389F0E7038AEEE710B5C1F3421301F069
:105340001F040121A140012B07D0022B07D01430EC
:10535000002A026805D00A4304E00C30F8E7103058
:10536000F6E78A43026010BD30B50446008A85B076
:105370000D464CF6FF710840E98801432182A0895F
:105380004EF6F3110840A9882A8911436A8902431D
:105390001143A181A08A4FF6FF410840A98901432A
:1053A000A1826846FEF7AAFC1B48844201D10398FB
:1053B00000E00298A1890904002900EBC00101EB7B
:1053C0000010296802DA4FEA410101E04FEA810149
:1053D000B0FBF1F06422B0FBF2F14FEA01114FEAA9
:1053E00011136FF018056B4300EB8300A3891D04B4
:1053F0004FF0320306D503EBC000B0FBF2F000F033
:10540000070005E003EB0010B0FBF2F000F00F0026
:105410000843208105B030BD003801408088C0F3CA
:10542000080070477047FEE72DE9F0411E491D4D09
:105430001E4E09886C881E4FDFF87880814221D982
:10544000081AFBF70CF932463B46FBF702F800223C
:105450004346FAF7FEFFFBF74DF980B2A04201D3B5
:10546000002001E0201A80B24FF420616880884259
:1054700000D969804FF4A071884200D26980002071
:10548000BDE8F081401AFBF7EAF832463B46FAF7EE
:10549000E0FF00224346FAF7DCFFFBF72BF920443C
:1054A000E1E7000008000020C800002083C0CAA176
:1054B00045B6B33F0000184010B500EB8100FBF784
:1054C000DFF8104A104BFAF7C4FF104A104BFAF7F6
:1054D000BDFFFBF763F90F49884201DD084602E092
:1054E0000D4988420DDDFBF71EF90C4A0C4BFAF70B
:1054F000B0FF00220B4BFAF705FFBDE81040FBF7A9
:105500004DB910BD4E062E2C0B683A3FC3F5285CF2
:105510008FC222400000F04000004040F2D24D62B5
:105520001058E53F0000F03F2DE9F05F624CE08845
:1055300008B1401EE080614F4FF00309786810F019
:10554000FF4F01D184F80490787821785C4D4FF0BA
:10555000010A4FF082464FF000084FF0040B8842DA
:105560000CD028B1FF280CD184F80480554803E002
:10557000544884F804B02438FFF77CF97878FF2881
:105580000BD020794FF07E51012863D0032824D01E
:10559000042856D0052820D179E0207930B101289F
:1055A00010D0022836D0032817D13FE02869B0F187
:1055B000814F7DDDE869B0427ADA424884F804A080
:1055C000243073E0286902213222B0F1804F02DBDF
:1055D000E869B04202DD2171E28069E0DFF8E8802D
:1055E00078684146FAF718FE384EF060404669691F
:1055F000FAF70CFE10F1FF4F01D3002002E0414604
:10560000FAF740FE3249FAF707FE3249FAF7ACFDE5
:1056100030614DE0E869B04205DA2F4928698842D7
:1056200001DD84F804A0E08880BB03E0786810F016
:10563000FF4F03D084F80480224837E021484838DF
:1056400034E02869884233DDE869B04230DA84F812
:1056500004A02DE02869884202DBE869B04202DD3F
:1056600084F804B020E0787880B1052121714000F1
:10567000E08014484830FFF7FDF818497868FAF7D9
:10568000CBFD1749FAF770FD1049486010E0E86952
:10569000B04205DD0B4884F804902438FFF7EAF89F
:1056A000E08828B984F8049006482438FFF7E2F827
:1056B00078782070BDE8F09F3C0000206002002058
:1056C000B0030020006C00080000F042A0010020A0
:1056D0000000A040000020400000404000000C43BB
:1056E000000070420249002008710248FFF7C2B86A
:1056F0003C000020006C00082DE9F05F624C6089DE
:1057000008B1401E6081614F4FF00309786810F0C6
:10571000FF4F01D184F804907878A1785C4D4FF068
:10572000010A4FF082464FF000084FF0040B884208
:105730000CD028B1FF280CD184F80480554803E030
:10574000544884F804B02438FFF794F87878FF2898
:105750000BD020794FF07E51012863D0032824D04C
:10576000042856D0052820D179E0207930B10128CD
:1057700010D0022836D0032817D13FE02869B0F1B5
:10578000814F7DDDE869B0427ADA424884F804A0AE
:10579000243073E0286902213222B0F1804F02DB0D
:1057A000E869B04202DD2171628169E0DFF8E880DA
:1057B00078684146FAF730FD384EF0604046696936
:1057C000FAF724FD10F1FF4F01D3002002E041461B
:1057D000FAF758FD3249FAF71FFD3249FAF7C4FCCF
:1057E00030614DE0E869B04205DA2F492869884206
:1057F00001DD84F804A0608980BB03E0786810F0C4
:10580000FF4F03D084F80480224837E0214848380D
:1058100034E02869884233DDE869B04230DA84F840
:1058200004A02DE02869884202DBE869B04202DD6D
:1058300084F804B020E0787880B10521217140001F
:10584000608114484830FFF715F818497868FAF76E
:10585000E3FC1749FAF788FC1049486010E0E86952
:10586000B04205DD0B4884F804902438FFF702F8B5
:10587000608928B984F8049006482438FEF7FAFFB6
:105880007878A070BDE8F09F3C0000206002002006
:10589000B0030020686D00080000F042A001002065
:1058A0000000A040000020400000404000000C43E9
:1058B000000070420249002008710248FEF7DABF7A
:1058C0003C000020686D00082DE9F0414449C8897A
:1058D00008B1401EC881434E746814F0FF4F01D1D7
:1058E00003200871404A08794FF0010C1369D2690E
:1058F0004FF0824560B14FF07E57012811D000264D
:1059000002285AD0032816D114F0FF4F5ED161E06F
:10591000B3F17F5F0FDDAA420DDA81F804C033488E
:105920005AE002204FF0050CBB4201DBAA4204DD25
:105930000871A1F80EC0BDE8F081B0462C492046A0
:10594000FAF76AFC2B4D2C49E8602C488C42406CDD
:105950001DDAFAF7E8FE06460F462046FAF7E3FEA0
:105960004FF0FF32FAF756FE4FF03332244BFAF77E
:10597000C9FC02460B464FF020402249FAF7DBFDF6
:1059800032463B46FAF765FDFAF708FF02E01E498A
:10599000FAF742FC6861B8F808000A21B0FBF1F0A0
:1059A000C1071A484FF0100103D0BDE8F041FDF7E0
:1059B000E3BBBDE8F041FDF7DDBBAA4203DABB4221
:1059C00001DD81F804C0C8890028B4D107480E71F0
:1059D000243801E005484838BDE8F041FEF74ABFE9
:1059E0003C00002060020020B0030020186F000877
:1059F00000007042A0010020CDCC4C3FD801002017
:105A00003333E33F9999C9BFCDCC4CBE000C014064
:105A10000249002008710248FEF72CBF3C0000201C
:105A2000F46E0008064910B50020087110210548E1
:105A3000FDF7A0FBBDE810400348FEF71BBF0000C8
:105A40003C000020000C01403C6F00082DE9F05F95
:105A50009D4CA08908B1401EA0819C484FF0030ACC
:105A6000416811F0FF4F01D184F804A080464078CE
:105A7000E1780025964F4FF0010B4FF082498842A4
:105A80000BD020B1FF280CD12571924803E00420EF
:105A9000207190486C38FEF7EDFE98F80100FF2861
:105AA00011D0894E94F804C008218B488B4A8C4D44
:105AB0001036BCF10A0F27D2DFE80CF02665262647
:105AC0005ADCAACED8D8207940B14FF07E520128B6
:105AD00010D0022835D0032816D13EE03869B0F145
